{
  "abi": [
    {
      "anonymous": false,
      "inputs": [
        {
          "indexed": true,
          "internalType": "address",
          "name": "identity",
          "type": "address"
        },
        {
          "indexed": false,
          "internalType": "bytes32",
          "name": "name",
          "type": "bytes32"
        },
        {
          "indexed": false,
          "internalType": "bytes",
          "name": "value",
          "type": "bytes"
        },
        {
          "indexed": false,
          "internalType": "uint256",
          "name": "validTo",
          "type": "uint256"
        },
        {
          "indexed": false,
          "internalType": "uint256",
          "name": "previousChange",
          "type": "uint256"
        }
      ],
      "name": "DIDAttributeChanged",
      "type": "event"
    },
    {
      "anonymous": false,
      "inputs": [
        {
          "indexed": true,
          "internalType": "address",
          "name": "identity",
          "type": "address"
        },
        {
          "indexed": false,
          "internalType": "bytes32",
          "name": "delegateType",
          "type": "bytes32"
        },
        {
          "indexed": false,
          "internalType": "address",
          "name": "delegate",
          "type": "address"
        },
        {
          "indexed": false,
          "internalType": "uint256",
          "name": "validTo",
          "type": "uint256"
        },
        {
          "indexed": false,
          "internalType": "uint256",
          "name": "previousChange",
          "type": "uint256"
        }
      ],
      "name": "DIDDelegateChanged",
      "type": "event"
    },
    {
      "anonymous": false,
      "inputs": [
        {
          "indexed": true,
          "internalType": "address",
          "name": "identity",
          "type": "address"
        },
        {
          "indexed": false,
          "internalType": "address",
          "name": "owner",
          "type": "address"
        },
        {
          "indexed": false,
          "internalType": "uint256",
          "name": "previousChange",
          "type": "uint256"
        }
      ],
      "name": "DIDOwnerChanged",
      "type": "event"
    },
    {
      "inputs": [
        {
          "internalType": "address",
          "name": "identity",
          "type": "address"
        },
        {
          "internalType": "bytes32",
          "name": "delegateType",
          "type": "bytes32"
        },
        {
          "internalType": "address",
          "name": "delegate",
          "type": "address"
        },
        {
          "internalType": "uint256",
          "name": "validity",
          "type": "uint256"
        }
      ],
      "name": "addDelegate",
      "outputs": [],
      "stateMutability": "nonpayable",
      "type": "function"
    },
    {
      "inputs": [
        {
          "internalType": "address",
          "name": "identity",
          "type": "address"
        },
        {
          "internalType": "uint8",
          "name": "sigV",
          "type": "uint8"
        },
        {
          "internalType": "bytes32",
          "name": "sigR",
          "type": "bytes32"
        },
        {
          "internalType": "bytes32",
          "name": "sigS",
          "type": "bytes32"
        },
        {
          "internalType": "bytes32",
          "name": "delegateType",
          "type": "bytes32"
        },
        {
          "internalType": "address",
          "name": "delegate",
          "type": "address"
        },
        {
          "internalType": "uint256",
          "name": "validity",
          "type": "uint256"
        }
      ],
      "name": "addDelegateSigned",
      "outputs": [],
      "stateMutability": "nonpayable",
      "type": "function"
    },
    {
      "inputs": [
        {
          "internalType": "address",
          "name": "identity",
          "type": "address"
        },
        {
          "internalType": "address",
          "name": "newOwner",
          "type": "address"
        }
      ],
      "name": "changeOwner",
      "outputs": [],
      "stateMutability": "nonpayable",
      "type": "function"
    },
    {
      "inputs": [
        {
          "internalType": "address",
          "name": "identity",
          "type": "address"
        },
        {
          "internalType": "uint8",
          "name": "sigV",
          "type": "uint8"
        },
        {
          "internalType": "bytes32",
          "name": "sigR",
          "type": "bytes32"
        },
        {
          "internalType": "bytes32",
          "name": "sigS",
          "type": "bytes32"
        },
        {
          "internalType": "address",
          "name": "newOwner",
          "type": "address"
        }
      ],
      "name": "changeOwnerSigned",
      "outputs": [],
      "stateMutability": "nonpayable",
      "type": "function"
    },
    {
      "inputs": [
        {
          "internalType": "address",
          "name": "",
          "type": "address"
        }
      ],
      "name": "changed",
      "outputs": [
        {
          "internalType": "uint256",
          "name": "",
          "type": "uint256"
        }
      ],
      "stateMutability": "view",
      "type": "function"
    },
    {
      "inputs": [
        {
          "internalType": "address",
          "name": "",
          "type": "address"
        },
        {
          "internalType": "bytes32",
          "name": "",
          "type": "bytes32"
        },
        {
          "internalType": "address",
          "name": "",
          "type": "address"
        }
      ],
      "name": "delegates",
      "outputs": [
        {
          "internalType": "uint256",
          "name": "",
          "type": "uint256"
        }
      ],
      "stateMutability": "view",
      "type": "function"
    },
    {
      "inputs": [
        {
          "internalType": "address",
          "name": "identity",
          "type": "address"
        }
      ],
      "name": "identityOwner",
      "outputs": [
        {
          "internalType": "address",
          "name": "",
          "type": "address"
        }
      ],
      "stateMutability": "view",
      "type": "function"
    },
    {
      "inputs": [
        {
          "internalType": "address",
          "name": "",
          "type": "address"
        }
      ],
      "name": "nonce",
      "outputs": [
        {
          "internalType": "uint256",
          "name": "",
          "type": "uint256"
        }
      ],
      "stateMutability": "view",
      "type": "function"
    },
    {
      "inputs": [
        {
          "internalType": "address",
          "name": "",
          "type": "address"
        }
      ],
      "name": "owners",
      "outputs": [
        {
          "internalType": "address",
          "name": "",
          "type": "address"
        }
      ],
      "stateMutability": "view",
      "type": "function"
    },
    {
      "inputs": [
        {
          "internalType": "address",
          "name": "identity",
          "type": "address"
        },
        {
          "internalType": "bytes32",
          "name": "name",
          "type": "bytes32"
        },
        {
          "internalType": "bytes",
          "name": "value",
          "type": "bytes"
        }
      ],
      "name": "revokeAttribute",
      "outputs": [],
      "stateMutability": "nonpayable",
      "type": "function"
    },
    {
      "inputs": [
        {
          "internalType": "address",
          "name": "identity",
          "type": "address"
        },
        {
          "internalType": "uint8",
          "name": "sigV",
          "type": "uint8"
        },
        {
          "internalType": "bytes32",
          "name": "sigR",
          "type": "bytes32"
        },
        {
          "internalType": "bytes32",
          "name": "sigS",
          "type": "bytes32"
        },
        {
          "internalType": "bytes32",
          "name": "name",
          "type": "bytes32"
        },
        {
          "internalType": "bytes",
          "name": "value",
          "type": "bytes"
        }
      ],
      "name": "revokeAttributeSigned",
      "outputs": [],
      "stateMutability": "nonpayable",
      "type": "function"
    },
    {
      "inputs": [
        {
          "internalType": "address",
          "name": "identity",
          "type": "address"
        },
        {
          "internalType": "bytes32",
          "name": "delegateType",
          "type": "bytes32"
        },
        {
          "internalType": "address",
          "name": "delegate",
          "type": "address"
        }
      ],
      "name": "revokeDelegate",
      "outputs": [],
      "stateMutability": "nonpayable",
      "type": "function"
    },
    {
      "inputs": [
        {
          "internalType": "address",
          "name": "identity",
          "type": "address"
        },
        {
          "internalType": "uint8",
          "name": "sigV",
          "type": "uint8"
        },
        {
          "internalType": "bytes32",
          "name": "sigR",
          "type": "bytes32"
        },
        {
          "internalType": "bytes32",
          "name": "sigS",
          "type": "bytes32"
        },
        {
          "internalType": "bytes32",
          "name": "delegateType",
          "type": "bytes32"
        },
        {
          "internalType": "address",
          "name": "delegate",
          "type": "address"
        }
      ],
      "name": "revokeDelegateSigned",
      "outputs": [],
      "stateMutability": "nonpayable",
      "type": "function"
    },
    {
      "inputs": [
        {
          "internalType": "address",
          "name": "identity",
          "type": "address"
        },
        {
          "internalType": "bytes32",
          "name": "name",
          "type": "bytes32"
        },
        {
          "internalType": "bytes",
          "name": "value",
          "type": "bytes"
        },
        {
          "internalType": "uint256",
          "name": "validity",
          "type": "uint256"
        }
      ],
      "name": "setAttribute",
      "outputs": [],
      "stateMutability": "nonpayable",
      "type": "function"
    },
    {
      "inputs": [
        {
          "internalType": "address",
          "name": "identity",
          "type": "address"
        },
        {
          "internalType": "uint8",
          "name": "sigV",
          "type": "uint8"
        },
        {
          "internalType": "bytes32",
          "name": "sigR",
          "type": "bytes32"
        },
        {
          "internalType": "bytes32",
          "name": "sigS",
          "type": "bytes32"
        },
        {
          "internalType": "bytes32",
          "name": "name",
          "type": "bytes32"
        },
        {
          "internalType": "bytes",
          "name": "value",
          "type": "bytes"
        },
        {
          "internalType": "uint256",
          "name": "validity",
          "type": "uint256"
        }
      ],
      "name": "setAttributeSigned",
      "outputs": [],
      "stateMutability": "nonpayable",
      "type": "function"
    },
    {
      "inputs": [
        {
          "internalType": "address",
          "name": "identity",
          "type": "address"
        },
        {
          "internalType": "bytes32",
          "name": "delegateType",
          "type": "bytes32"
        },
        {
          "internalType": "address",
          "name": "delegate",
          "type": "address"
        }
      ],
      "name": "validDelegate",
      "outputs": [
        {
          "internalType": "bool",
          "name": "",
          "type": "bool"
        }
      ],
      "stateMutability": "view",
      "type": "function"
    }
  ],
  "devdoc": {
    "kind": "dev",
    "methods": {},
    "version": 1
  },
  "evm": {
    "assembly": "    /* \"EthereumDIDRegistry.sol\":62:7773  contract EthereumDIDRegistry {... */\n  mstore(0x40, 0x80)\n  callvalue\n  dup1\n  iszero\n  tag_1\n  jumpi\n  0x00\n  dup1\n  revert\ntag_1:\n  pop\n  dataSize(sub_0)\n  dup1\n  dataOffset(sub_0)\n  0x00\n  codecopy\n  0x00\n  return\nstop\n\nsub_0: assembly {\n        /* \"EthereumDIDRegistry.sol\":62:7773  contract EthereumDIDRegistry {... */\n      mstore(0x40, 0x80)\n      callvalue\n      dup1\n      iszero\n      tag_1\n      jumpi\n      0x00\n      dup1\n      revert\n    tag_1:\n      pop\n      jumpi(tag_2, lt(calldatasize, 0x04))\n      shr(0xe0, calldataload(0x00))\n      dup1\n      0x80b29f7c\n      gt\n      tag_19\n      jumpi\n      dup1\n      0xa7068d66\n      gt\n      tag_20\n      jumpi\n      dup1\n      0xa7068d66\n      eq\n      tag_15\n      jumpi\n      dup1\n      0xe476af5c\n      eq\n      tag_16\n      jumpi\n      dup1\n      0xf00d4b5d\n      eq\n      tag_17\n      jumpi\n      dup1\n      0xf96d0f9f\n      eq\n      tag_18\n      jumpi\n      jump(tag_2)\n    tag_20:\n      dup1\n      0x80b29f7c\n      eq\n      tag_11\n      jumpi\n      dup1\n      0x8733d4e8\n      eq\n      tag_12\n      jumpi\n      dup1\n      0x93072684\n      eq\n      tag_13\n      jumpi\n      dup1\n      0x9c2c1b2b\n      eq\n      tag_14\n      jumpi\n      jump(tag_2)\n    tag_19:\n      dup1\n      0x240cf1fa\n      gt\n      tag_21\n      jumpi\n      dup1\n      0x240cf1fa\n      eq\n      tag_7\n      jumpi\n      dup1\n      0x622b2a3c\n      eq\n      tag_8\n      jumpi\n      dup1\n      0x70ae92d2\n      eq\n      tag_9\n      jumpi\n      dup1\n      0x7ad4b0a4\n      eq\n      tag_10\n      jumpi\n      jump(tag_2)\n    tag_21:\n      dup1\n      0xc023da\n      eq\n      tag_3\n      jumpi\n      dup1\n      0x022914a7\n      eq\n      tag_4\n      jumpi\n      dup1\n      0x0d44625b\n      eq\n      tag_5\n      jumpi\n      dup1\n      0x123b5e98\n      eq\n      tag_6\n      jumpi\n    tag_2:\n      0x00\n      dup1\n      revert\n        /* \"EthereumDIDRegistry.sol\":6974:7155  function revokeAttribute(... */\n    tag_3:\n      tag_22\n      0x04\n      dup1\n      calldatasize\n      sub\n      dup2\n      add\n      swap1\n      tag_23\n      swap2\n      swap1\n      tag_24\n      jump\t// in\n    tag_23:\n      tag_25\n      jump\t// in\n    tag_22:\n      stop\n        /* \"EthereumDIDRegistry.sol\":97:138  mapping(address => address) public owners */\n    tag_4:\n      tag_26\n      0x04\n      dup1\n      calldatasize\n      sub\n      dup2\n      add\n      swap1\n      tag_27\n      swap2\n      swap1\n      tag_28\n      jump\t// in\n    tag_27:\n      tag_29\n      jump\t// in\n    tag_26:\n      mload(0x40)\n      tag_30\n      swap2\n      swap1\n      tag_31\n      jump\t// in\n    tag_30:\n      mload(0x40)\n      dup1\n      swap2\n      sub\n      swap1\n      return\n        /* \"EthereumDIDRegistry.sol\":144:228  mapping(address => mapping(bytes32 => mapping(address => uint256))) public delegates */\n    tag_5:\n      tag_32\n      0x04\n      dup1\n      calldatasize\n      sub\n      dup2\n      add\n      swap1\n      tag_33\n      swap2\n      swap1\n      tag_34\n      jump\t// in\n    tag_33:\n      tag_35\n      jump\t// in\n    tag_32:\n      mload(0x40)\n      tag_36\n      swap2\n      swap1\n      tag_37\n      jump\t// in\n    tag_36:\n      mload(0x40)\n      dup1\n      swap2\n      sub\n      swap1\n      return\n        /* \"EthereumDIDRegistry.sol\":6005:6668  function setAttributeSigned(... */\n    tag_6:\n      tag_38\n      0x04\n      dup1\n      calldatasize\n      sub\n      dup2\n      add\n      swap1\n      tag_39\n      swap2\n      swap1\n      tag_40\n      jump\t// in\n    tag_39:\n      tag_41\n      jump\t// in\n    tag_38:\n      stop\n        /* \"EthereumDIDRegistry.sol\":2222:2774  function changeOwnerSigned(... */\n    tag_7:\n      tag_42\n      0x04\n      dup1\n      calldatasize\n      sub\n      dup2\n      add\n      swap1\n      tag_43\n      swap2\n      swap1\n      tag_44\n      jump\t// in\n    tag_43:\n      tag_45\n      jump\t// in\n    tag_42:\n      stop\n        /* \"EthereumDIDRegistry.sol\":1502:1787  function validDelegate(... */\n    tag_8:\n      tag_46\n      0x04\n      dup1\n      calldatasize\n      sub\n      dup2\n      add\n      swap1\n      tag_47\n      swap2\n      swap1\n      tag_34\n      jump\t// in\n    tag_47:\n      tag_48\n      jump\t// in\n    tag_46:\n      mload(0x40)\n      tag_49\n      swap2\n      swap1\n      tag_50\n      jump\t// in\n    tag_49:\n      mload(0x40)\n      dup1\n      swap2\n      sub\n      swap1\n      return\n        /* \"EthereumDIDRegistry.sol\":282:322  mapping(address => uint256) public nonce */\n    tag_9:\n      tag_51\n      0x04\n      dup1\n      calldatasize\n      sub\n      dup2\n      add\n      swap1\n      tag_52\n      swap2\n      swap1\n      tag_28\n      jump\t// in\n    tag_52:\n      tag_53\n      jump\t// in\n    tag_51:\n      mload(0x40)\n      tag_54\n      swap2\n      swap1\n      tag_37\n      jump\t// in\n    tag_54:\n      mload(0x40)\n      dup1\n      swap2\n      sub\n      swap1\n      return\n        /* \"EthereumDIDRegistry.sol\":5788:5999  function setAttribute(... */\n    tag_10:\n      tag_55\n      0x04\n      dup1\n      calldatasize\n      sub\n      dup2\n      add\n      swap1\n      tag_56\n      swap2\n      swap1\n      tag_57\n      jump\t// in\n    tag_56:\n      tag_58\n      jump\t// in\n    tag_55:\n      stop\n        /* \"EthereumDIDRegistry.sol\":4597:4793  function revokeDelegate(... */\n    tag_11:\n      tag_59\n      0x04\n      dup1\n      calldatasize\n      sub\n      dup2\n      add\n      swap1\n      tag_60\n      swap2\n      swap1\n      tag_34\n      jump\t// in\n    tag_60:\n      tag_61\n      jump\t// in\n    tag_59:\n      stop\n        /* \"EthereumDIDRegistry.sol\":918:1137  function identityOwner(address identity) public view returns (address) {... */\n    tag_12:\n      tag_62\n      0x04\n      dup1\n      calldatasize\n      sub\n      dup2\n      add\n      swap1\n      tag_63\n      swap2\n      swap1\n      tag_28\n      jump\t// in\n    tag_63:\n      tag_64\n      jump\t// in\n    tag_62:\n      mload(0x40)\n      tag_65\n      swap2\n      swap1\n      tag_31\n      jump\t// in\n    tag_65:\n      mload(0x40)\n      dup1\n      swap2\n      sub\n      swap1\n      return\n        /* \"EthereumDIDRegistry.sol\":4799:5434  function revokeDelegateSigned(... */\n    tag_13:\n      tag_66\n      0x04\n      dup1\n      calldatasize\n      sub\n      dup2\n      add\n      swap1\n      tag_67\n      swap2\n      swap1\n      tag_68\n      jump\t// in\n    tag_67:\n      tag_69\n      jump\t// in\n    tag_66:\n      stop\n        /* \"EthereumDIDRegistry.sol\":3480:4168  function addDelegateSigned(... */\n    tag_14:\n      tag_70\n      0x04\n      dup1\n      calldatasize\n      sub\n      dup2\n      add\n      swap1\n      tag_71\n      swap2\n      swap1\n      tag_72\n      jump\t// in\n    tag_71:\n      tag_73\n      jump\t// in\n    tag_70:\n      stop\n        /* \"EthereumDIDRegistry.sol\":3248:3474  function addDelegate(... */\n    tag_15:\n      tag_74\n      0x04\n      dup1\n      calldatasize\n      sub\n      dup2\n      add\n      swap1\n      tag_75\n      swap2\n      swap1\n      tag_76\n      jump\t// in\n    tag_75:\n      tag_77\n      jump\t// in\n    tag_74:\n      stop\n        /* \"EthereumDIDRegistry.sol\":7161:7771  function revokeAttributeSigned(... */\n    tag_16:\n      tag_78\n      0x04\n      dup1\n      calldatasize\n      sub\n      dup2\n      add\n      swap1\n      tag_79\n      swap2\n      swap1\n      tag_80\n      jump\t// in\n    tag_79:\n      tag_81\n      jump\t// in\n    tag_78:\n      stop\n        /* \"EthereumDIDRegistry.sol\":2092:2216  function changeOwner(address identity, address newOwner) public {... */\n    tag_17:\n      tag_82\n      0x04\n      dup1\n      calldatasize\n      sub\n      dup2\n      add\n      swap1\n      tag_83\n      swap2\n      swap1\n      tag_84\n      jump\t// in\n    tag_83:\n      tag_85\n      jump\t// in\n    tag_82:\n      stop\n        /* \"EthereumDIDRegistry.sol\":234:276  mapping(address => uint256) public changed */\n    tag_18:\n      tag_86\n      0x04\n      dup1\n      calldatasize\n      sub\n      dup2\n      add\n      swap1\n      tag_87\n      swap2\n      swap1\n      tag_28\n      jump\t// in\n    tag_87:\n      tag_88\n      jump\t// in\n    tag_86:\n      mload(0x40)\n      tag_89\n      swap2\n      swap1\n      tag_37\n      jump\t// in\n    tag_89:\n      mload(0x40)\n      dup1\n      swap2\n      sub\n      swap1\n      return\n        /* \"EthereumDIDRegistry.sol\":6974:7155  function revokeAttribute(... */\n    tag_25:\n        /* \"EthereumDIDRegistry.sol\":7098:7148  revokeAttribute(identity, msg.sender, name, value) */\n      tag_91\n        /* \"EthereumDIDRegistry.sol\":7114:7122  identity */\n      dup4\n        /* \"EthereumDIDRegistry.sol\":7124:7134  msg.sender */\n      caller\n        /* \"EthereumDIDRegistry.sol\":7136:7140  name */\n      dup5\n        /* \"EthereumDIDRegistry.sol\":7142:7147  value */\n      dup5\n        /* \"EthereumDIDRegistry.sol\":7098:7113  revokeAttribute */\n      tag_92\n        /* \"EthereumDIDRegistry.sol\":7098:7148  revokeAttribute(identity, msg.sender, name, value) */\n      jump\t// in\n    tag_91:\n        /* \"EthereumDIDRegistry.sol\":6974:7155  function revokeAttribute(... */\n      pop\n      pop\n      pop\n      jump\t// out\n        /* \"EthereumDIDRegistry.sol\":97:138  mapping(address => address) public owners */\n    tag_29:\n      mstore(0x20, 0x00)\n      dup1\n      0x00\n      mstore\n      keccak256(0x00, 0x40)\n      0x00\n      swap2\n      pop\n      sload\n      swap1\n      0x0100\n      exp\n      swap1\n      div\n      0xffffffffffffffffffffffffffffffffffffffff\n      and\n      dup2\n      jump\t// out\n        /* \"EthereumDIDRegistry.sol\":144:228  mapping(address => mapping(bytes32 => mapping(address => uint256))) public delegates */\n    tag_35:\n      mstore(0x20, 0x01)\n      dup3\n      0x00\n      mstore\n      mstore(0x20, keccak256(0x00, 0x40))\n      dup2\n      0x00\n      mstore\n      mstore(0x20, keccak256(0x00, 0x40))\n      dup1\n      0x00\n      mstore\n      keccak256(0x00, 0x40)\n      0x00\n      swap3\n      pop\n      swap3\n      pop\n      pop\n      pop\n      sload\n      dup2\n      jump\t// out\n        /* \"EthereumDIDRegistry.sol\":6005:6668  function setAttributeSigned(... */\n    tag_41:\n        /* \"EthereumDIDRegistry.sol\":6222:6234  bytes32 hash */\n      0x00\n        /* \"EthereumDIDRegistry.sol\":6301:6305  0x19 */\n      0x19\n        /* \"EthereumDIDRegistry.sol\":6294:6306  bytes1(0x19) */\n      0xf8\n      shl\n        /* \"EthereumDIDRegistry.sol\":6331:6332  0 */\n      0x00\n        /* \"EthereumDIDRegistry.sol\":6324:6333  bytes1(0) */\n      0xf8\n      shl\n        /* \"EthereumDIDRegistry.sol\":6351:6355  this */\n      address\n        /* \"EthereumDIDRegistry.sol\":6373:6378  nonce */\n      0x03\n        /* \"EthereumDIDRegistry.sol\":6373:6403  nonce[identityOwner(identity)] */\n      0x00\n        /* \"EthereumDIDRegistry.sol\":6379:6402  identityOwner(identity) */\n      tag_94\n        /* \"EthereumDIDRegistry.sol\":6393:6401  identity */\n      dup14\n        /* \"EthereumDIDRegistry.sol\":6379:6392  identityOwner */\n      tag_64\n        /* \"EthereumDIDRegistry.sol\":6379:6402  identityOwner(identity) */\n      jump\t// in\n    tag_94:\n        /* \"EthereumDIDRegistry.sol\":6373:6403  nonce[identityOwner(identity)] */\n      0xffffffffffffffffffffffffffffffffffffffff\n      and\n      0xffffffffffffffffffffffffffffffffffffffff\n      and\n      dup2\n      mstore\n      0x20\n      add\n      swap1\n      dup2\n      mstore\n      0x20\n      add\n      0x00\n      keccak256\n      sload\n        /* \"EthereumDIDRegistry.sol\":6421:6429  identity */\n      dup12\n        /* \"EthereumDIDRegistry.sol\":6479:6483  name */\n      dup9\n        /* \"EthereumDIDRegistry.sol\":6501:6506  value */\n      dup9\n        /* \"EthereumDIDRegistry.sol\":6524:6532  validity */\n      dup9\n        /* \"EthereumDIDRegistry.sol\":6260:6546  abi.encodePacked(... */\n      add(0x20, mload(0x40))\n      tag_95\n      swap9\n      swap8\n      swap7\n      swap6\n      swap5\n      swap4\n      swap3\n      swap2\n      swap1\n      tag_96\n      jump\t// in\n    tag_95:\n      mload(0x40)\n      0x20\n      dup2\n      dup4\n      sub\n      sub\n      dup2\n      mstore\n      swap1\n      0x40\n      mstore\n        /* \"EthereumDIDRegistry.sol\":6237:6556  keccak256(... */\n      dup1\n      mload\n      swap1\n      0x20\n      add\n      keccak256\n        /* \"EthereumDIDRegistry.sol\":6222:6556  bytes32 hash = keccak256(... */\n      swap1\n      pop\n        /* \"EthereumDIDRegistry.sol\":6566:6661  setAttribute(identity, checkSignature(identity, sigV, sigR, sigS, hash), name, value, validity) */\n      tag_97\n        /* \"EthereumDIDRegistry.sol\":6579:6587  identity */\n      dup9\n        /* \"EthereumDIDRegistry.sol\":6589:6637  checkSignature(identity, sigV, sigR, sigS, hash) */\n      tag_98\n        /* \"EthereumDIDRegistry.sol\":6604:6612  identity */\n      dup11\n        /* \"EthereumDIDRegistry.sol\":6614:6618  sigV */\n      dup11\n        /* \"EthereumDIDRegistry.sol\":6620:6624  sigR */\n      dup11\n        /* \"EthereumDIDRegistry.sol\":6626:6630  sigS */\n      dup11\n        /* \"EthereumDIDRegistry.sol\":6632:6636  hash */\n      dup8\n        /* \"EthereumDIDRegistry.sol\":6589:6603  checkSignature */\n      tag_99\n        /* \"EthereumDIDRegistry.sol\":6589:6637  checkSignature(identity, sigV, sigR, sigS, hash) */\n      jump\t// in\n    tag_98:\n        /* \"EthereumDIDRegistry.sol\":6639:6643  name */\n      dup7\n        /* \"EthereumDIDRegistry.sol\":6645:6650  value */\n      dup7\n        /* \"EthereumDIDRegistry.sol\":6652:6660  validity */\n      dup7\n        /* \"EthereumDIDRegistry.sol\":6566:6578  setAttribute */\n      tag_100\n        /* \"EthereumDIDRegistry.sol\":6566:6661  setAttribute(identity, checkSignature(identity, sigV, sigR, sigS, hash), name, value, validity) */\n      jump\t// in\n    tag_97:\n        /* \"EthereumDIDRegistry.sol\":6212:6668  {... */\n      pop\n        /* \"EthereumDIDRegistry.sol\":6005:6668  function setAttributeSigned(... */\n      pop\n      pop\n      pop\n      pop\n      pop\n      pop\n      pop\n      jump\t// out\n        /* \"EthereumDIDRegistry.sol\":2222:2774  function changeOwnerSigned(... */\n    tag_45:\n        /* \"EthereumDIDRegistry.sol\":2388:2400  bytes32 hash */\n      0x00\n        /* \"EthereumDIDRegistry.sol\":2467:2471  0x19 */\n      0x19\n        /* \"EthereumDIDRegistry.sol\":2460:2472  bytes1(0x19) */\n      0xf8\n      shl\n        /* \"EthereumDIDRegistry.sol\":2497:2498  0 */\n      0x00\n        /* \"EthereumDIDRegistry.sol\":2490:2499  bytes1(0) */\n      0xf8\n      shl\n        /* \"EthereumDIDRegistry.sol\":2517:2521  this */\n      address\n        /* \"EthereumDIDRegistry.sol\":2539:2544  nonce */\n      0x03\n        /* \"EthereumDIDRegistry.sol\":2539:2569  nonce[identityOwner(identity)] */\n      0x00\n        /* \"EthereumDIDRegistry.sol\":2545:2568  identityOwner(identity) */\n      tag_102\n        /* \"EthereumDIDRegistry.sol\":2559:2567  identity */\n      dup12\n        /* \"EthereumDIDRegistry.sol\":2545:2558  identityOwner */\n      tag_64\n        /* \"EthereumDIDRegistry.sol\":2545:2568  identityOwner(identity) */\n      jump\t// in\n    tag_102:\n        /* \"EthereumDIDRegistry.sol\":2539:2569  nonce[identityOwner(identity)] */\n      0xffffffffffffffffffffffffffffffffffffffff\n      and\n      0xffffffffffffffffffffffffffffffffffffffff\n      and\n      dup2\n      mstore\n      0x20\n      add\n      swap1\n      dup2\n      mstore\n      0x20\n      add\n      0x00\n      keccak256\n      sload\n        /* \"EthereumDIDRegistry.sol\":2587:2595  identity */\n      dup10\n        /* \"EthereumDIDRegistry.sol\":2644:2652  newOwner */\n      dup7\n        /* \"EthereumDIDRegistry.sol\":2426:2666  abi.encodePacked(... */\n      add(0x20, mload(0x40))\n      tag_103\n      swap7\n      swap6\n      swap5\n      swap4\n      swap3\n      swap2\n      swap1\n      tag_104\n      jump\t// in\n    tag_103:\n      mload(0x40)\n      0x20\n      dup2\n      dup4\n      sub\n      sub\n      dup2\n      mstore\n      swap1\n      0x40\n      mstore\n        /* \"EthereumDIDRegistry.sol\":2403:2676  keccak256(... */\n      dup1\n      mload\n      swap1\n      0x20\n      add\n      keccak256\n        /* \"EthereumDIDRegistry.sol\":2388:2676  bytes32 hash = keccak256(... */\n      swap1\n      pop\n        /* \"EthereumDIDRegistry.sol\":2686:2767  changeOwner(identity, checkSignature(identity, sigV, sigR, sigS, hash), newOwner) */\n      tag_105\n        /* \"EthereumDIDRegistry.sol\":2698:2706  identity */\n      dup7\n        /* \"EthereumDIDRegistry.sol\":2708:2756  checkSignature(identity, sigV, sigR, sigS, hash) */\n      tag_106\n        /* \"EthereumDIDRegistry.sol\":2723:2731  identity */\n      dup9\n        /* \"EthereumDIDRegistry.sol\":2733:2737  sigV */\n      dup9\n        /* \"EthereumDIDRegistry.sol\":2739:2743  sigR */\n      dup9\n        /* \"EthereumDIDRegistry.sol\":2745:2749  sigS */\n      dup9\n        /* \"EthereumDIDRegistry.sol\":2751:2755  hash */\n      dup8\n        /* \"EthereumDIDRegistry.sol\":2708:2722  checkSignature */\n      tag_99\n        /* \"EthereumDIDRegistry.sol\":2708:2756  checkSignature(identity, sigV, sigR, sigS, hash) */\n      jump\t// in\n    tag_106:\n        /* \"EthereumDIDRegistry.sol\":2758:2766  newOwner */\n      dup5\n        /* \"EthereumDIDRegistry.sol\":2686:2697  changeOwner */\n      tag_107\n        /* \"EthereumDIDRegistry.sol\":2686:2767  changeOwner(identity, checkSignature(identity, sigV, sigR, sigS, hash), newOwner) */\n      jump\t// in\n    tag_105:\n        /* \"EthereumDIDRegistry.sol\":2378:2774  {... */\n      pop\n        /* \"EthereumDIDRegistry.sol\":2222:2774  function changeOwnerSigned(... */\n      pop\n      pop\n      pop\n      pop\n      pop\n      jump\t// out\n        /* \"EthereumDIDRegistry.sol\":1502:1787  function validDelegate(... */\n    tag_48:\n        /* \"EthereumDIDRegistry.sol\":1634:1638  bool */\n      0x00\n        /* \"EthereumDIDRegistry.sol\":1650:1666  uint256 validity */\n      dup1\n        /* \"EthereumDIDRegistry.sol\":1669:1678  delegates */\n      0x01\n        /* \"EthereumDIDRegistry.sol\":1669:1688  delegates[identity] */\n      0x00\n        /* \"EthereumDIDRegistry.sol\":1679:1687  identity */\n      dup7\n        /* \"EthereumDIDRegistry.sol\":1669:1688  delegates[identity] */\n      0xffffffffffffffffffffffffffffffffffffffff\n      and\n      0xffffffffffffffffffffffffffffffffffffffff\n      and\n      dup2\n      mstore\n      0x20\n      add\n      swap1\n      dup2\n      mstore\n      0x20\n      add\n      0x00\n      keccak256\n        /* \"EthereumDIDRegistry.sol\":1669:1725  delegates[identity][keccak256(abi.encode(delegateType))] */\n      0x00\n        /* \"EthereumDIDRegistry.sol\":1710:1722  delegateType */\n      dup6\n        /* \"EthereumDIDRegistry.sol\":1699:1723  abi.encode(delegateType) */\n      add(0x20, mload(0x40))\n      tag_109\n      swap2\n      swap1\n      tag_110\n      jump\t// in\n    tag_109:\n      mload(0x40)\n      0x20\n      dup2\n      dup4\n      sub\n      sub\n      dup2\n      mstore\n      swap1\n      0x40\n      mstore\n        /* \"EthereumDIDRegistry.sol\":1689:1724  keccak256(abi.encode(delegateType)) */\n      dup1\n      mload\n      swap1\n      0x20\n      add\n      keccak256\n        /* \"EthereumDIDRegistry.sol\":1669:1725  delegates[identity][keccak256(abi.encode(delegateType))] */\n      dup2\n      mstore\n      0x20\n      add\n      swap1\n      dup2\n      mstore\n      0x20\n      add\n      0x00\n      keccak256\n        /* \"EthereumDIDRegistry.sol\":1669:1735  delegates[identity][keccak256(abi.encode(delegateType))][delegate] */\n      0x00\n        /* \"EthereumDIDRegistry.sol\":1726:1734  delegate */\n      dup5\n        /* \"EthereumDIDRegistry.sol\":1669:1735  delegates[identity][keccak256(abi.encode(delegateType))][delegate] */\n      0xffffffffffffffffffffffffffffffffffffffff\n      and\n      0xffffffffffffffffffffffffffffffffffffffff\n      and\n      dup2\n      mstore\n      0x20\n      add\n      swap1\n      dup2\n      mstore\n      0x20\n      add\n      0x00\n      keccak256\n      sload\n        /* \"EthereumDIDRegistry.sol\":1650:1735  uint256 validity = delegates[identity][keccak256(abi.encode(delegateType))][delegate] */\n      swap1\n      pop\n        /* \"EthereumDIDRegistry.sol\":1764:1779  block.timestamp */\n      timestamp\n        /* \"EthereumDIDRegistry.sol\":1753:1761  validity */\n      dup2\n        /* \"EthereumDIDRegistry.sol\":1753:1779  validity > block.timestamp */\n      gt\n        /* \"EthereumDIDRegistry.sol\":1745:1780  return (validity > block.timestamp) */\n      swap2\n      pop\n      pop\n        /* \"EthereumDIDRegistry.sol\":1502:1787  function validDelegate(... */\n      swap4\n      swap3\n      pop\n      pop\n      pop\n      jump\t// out\n        /* \"EthereumDIDRegistry.sol\":282:322  mapping(address => uint256) public nonce */\n    tag_53:\n      mstore(0x20, 0x03)\n      dup1\n      0x00\n      mstore\n      keccak256(0x00, 0x40)\n      0x00\n      swap2\n      pop\n      swap1\n      pop\n      sload\n      dup2\n      jump\t// out\n        /* \"EthereumDIDRegistry.sol\":5788:5999  function setAttribute(... */\n    tag_58:\n        /* \"EthereumDIDRegistry.sol\":5935:5992  setAttribute(identity, msg.sender, name, value, validity) */\n      tag_112\n        /* \"EthereumDIDRegistry.sol\":5948:5956  identity */\n      dup5\n        /* \"EthereumDIDRegistry.sol\":5958:5968  msg.sender */\n      caller\n        /* \"EthereumDIDRegistry.sol\":5970:5974  name */\n      dup6\n        /* \"EthereumDIDRegistry.sol\":5976:5981  value */\n      dup6\n        /* \"EthereumDIDRegistry.sol\":5983:5991  validity */\n      dup6\n        /* \"EthereumDIDRegistry.sol\":5935:5947  setAttribute */\n      tag_100\n        /* \"EthereumDIDRegistry.sol\":5935:5992  setAttribute(identity, msg.sender, name, value, validity) */\n      jump\t// in\n    tag_112:\n        /* \"EthereumDIDRegistry.sol\":5788:5999  function setAttribute(... */\n      pop\n      pop\n      pop\n      pop\n      jump\t// out\n        /* \"EthereumDIDRegistry.sol\":4597:4793  function revokeDelegate(... */\n    tag_61:\n        /* \"EthereumDIDRegistry.sol\":4726:4786  revokeDelegate(identity, msg.sender, delegateType, delegate) */\n      tag_114\n        /* \"EthereumDIDRegistry.sol\":4741:4749  identity */\n      dup4\n        /* \"EthereumDIDRegistry.sol\":4751:4761  msg.sender */\n      caller\n        /* \"EthereumDIDRegistry.sol\":4763:4775  delegateType */\n      dup5\n        /* \"EthereumDIDRegistry.sol\":4777:4785  delegate */\n      dup5\n        /* \"EthereumDIDRegistry.sol\":4726:4740  revokeDelegate */\n      tag_115\n        /* \"EthereumDIDRegistry.sol\":4726:4786  revokeDelegate(identity, msg.sender, delegateType, delegate) */\n      jump\t// in\n    tag_114:\n        /* \"EthereumDIDRegistry.sol\":4597:4793  function revokeDelegate(... */\n      pop\n      pop\n      pop\n      jump\t// out\n        /* \"EthereumDIDRegistry.sol\":918:1137  function identityOwner(address identity) public view returns (address) {... */\n    tag_64:\n        /* \"EthereumDIDRegistry.sol\":980:987  address */\n      0x00\n        /* \"EthereumDIDRegistry.sol\":999:1012  address owner */\n      dup1\n        /* \"EthereumDIDRegistry.sol\":1015:1021  owners */\n      0x00\n        /* \"EthereumDIDRegistry.sol\":1015:1031  owners[identity] */\n      dup1\n        /* \"EthereumDIDRegistry.sol\":1022:1030  identity */\n      dup5\n        /* \"EthereumDIDRegistry.sol\":1015:1031  owners[identity] */\n      0xffffffffffffffffffffffffffffffffffffffff\n      and\n      0xffffffffffffffffffffffffffffffffffffffff\n      and\n      dup2\n      mstore\n      0x20\n      add\n      swap1\n      dup2\n      mstore\n      0x20\n      add\n      0x00\n      keccak256\n      0x00\n      swap1\n      sload\n      swap1\n      0x0100\n      exp\n      swap1\n      div\n      0xffffffffffffffffffffffffffffffffffffffff\n      and\n        /* \"EthereumDIDRegistry.sol\":999:1031  address owner = owners[identity] */\n      swap1\n      pop\n        /* \"EthereumDIDRegistry.sol\":1062:1066  0x00 */\n      0x00\n        /* \"EthereumDIDRegistry.sol\":1045:1067  owner != address(0x00) */\n      0xffffffffffffffffffffffffffffffffffffffff\n      and\n        /* \"EthereumDIDRegistry.sol\":1045:1050  owner */\n      dup2\n        /* \"EthereumDIDRegistry.sol\":1045:1067  owner != address(0x00) */\n      0xffffffffffffffffffffffffffffffffffffffff\n      and\n      eq\n        /* \"EthereumDIDRegistry.sol\":1041:1106  if (owner != address(0x00)) {... */\n      tag_117\n      jumpi\n        /* \"EthereumDIDRegistry.sol\":1090:1095  owner */\n      dup1\n        /* \"EthereumDIDRegistry.sol\":1083:1095  return owner */\n      swap2\n      pop\n      pop\n      jump(tag_116)\n        /* \"EthereumDIDRegistry.sol\":1041:1106  if (owner != address(0x00)) {... */\n    tag_117:\n        /* \"EthereumDIDRegistry.sol\":1122:1130  identity */\n      dup3\n        /* \"EthereumDIDRegistry.sol\":1115:1130  return identity */\n      swap2\n      pop\n      pop\n        /* \"EthereumDIDRegistry.sol\":918:1137  function identityOwner(address identity) public view returns (address) {... */\n    tag_116:\n      swap2\n      swap1\n      pop\n      jump\t// out\n        /* \"EthereumDIDRegistry.sol\":4799:5434  function revokeDelegateSigned(... */\n    tag_69:\n        /* \"EthereumDIDRegistry.sol\":4998:5010  bytes32 hash */\n      0x00\n        /* \"EthereumDIDRegistry.sol\":5077:5081  0x19 */\n      0x19\n        /* \"EthereumDIDRegistry.sol\":5070:5082  bytes1(0x19) */\n      0xf8\n      shl\n        /* \"EthereumDIDRegistry.sol\":5107:5108  0 */\n      0x00\n        /* \"EthereumDIDRegistry.sol\":5100:5109  bytes1(0) */\n      0xf8\n      shl\n        /* \"EthereumDIDRegistry.sol\":5127:5131  this */\n      address\n        /* \"EthereumDIDRegistry.sol\":5149:5154  nonce */\n      0x03\n        /* \"EthereumDIDRegistry.sol\":5149:5179  nonce[identityOwner(identity)] */\n      0x00\n        /* \"EthereumDIDRegistry.sol\":5155:5178  identityOwner(identity) */\n      tag_119\n        /* \"EthereumDIDRegistry.sol\":5169:5177  identity */\n      dup13\n        /* \"EthereumDIDRegistry.sol\":5155:5168  identityOwner */\n      tag_64\n        /* \"EthereumDIDRegistry.sol\":5155:5178  identityOwner(identity) */\n      jump\t// in\n    tag_119:\n        /* \"EthereumDIDRegistry.sol\":5149:5179  nonce[identityOwner(identity)] */\n      0xffffffffffffffffffffffffffffffffffffffff\n      and\n      0xffffffffffffffffffffffffffffffffffffffff\n      and\n      dup2\n      mstore\n      0x20\n      add\n      swap1\n      dup2\n      mstore\n      0x20\n      add\n      0x00\n      keccak256\n      sload\n        /* \"EthereumDIDRegistry.sol\":5197:5205  identity */\n      dup11\n        /* \"EthereumDIDRegistry.sol\":5257:5269  delegateType */\n      dup8\n        /* \"EthereumDIDRegistry.sol\":5287:5295  delegate */\n      dup8\n        /* \"EthereumDIDRegistry.sol\":5036:5309  abi.encodePacked(... */\n      add(0x20, mload(0x40))\n      tag_120\n      swap8\n      swap7\n      swap6\n      swap5\n      swap4\n      swap3\n      swap2\n      swap1\n      tag_121\n      jump\t// in\n    tag_120:\n      mload(0x40)\n      0x20\n      dup2\n      dup4\n      sub\n      sub\n      dup2\n      mstore\n      swap1\n      0x40\n      mstore\n        /* \"EthereumDIDRegistry.sol\":5013:5319  keccak256(... */\n      dup1\n      mload\n      swap1\n      0x20\n      add\n      keccak256\n        /* \"EthereumDIDRegistry.sol\":4998:5319  bytes32 hash = keccak256(... */\n      swap1\n      pop\n        /* \"EthereumDIDRegistry.sol\":5329:5427  revokeDelegate(identity, checkSignature(identity, sigV, sigR, sigS, hash), delegateType, delegate) */\n      tag_122\n        /* \"EthereumDIDRegistry.sol\":5344:5352  identity */\n      dup8\n        /* \"EthereumDIDRegistry.sol\":5354:5402  checkSignature(identity, sigV, sigR, sigS, hash) */\n      tag_123\n        /* \"EthereumDIDRegistry.sol\":5369:5377  identity */\n      dup10\n        /* \"EthereumDIDRegistry.sol\":5379:5383  sigV */\n      dup10\n        /* \"EthereumDIDRegistry.sol\":5385:5389  sigR */\n      dup10\n        /* \"EthereumDIDRegistry.sol\":5391:5395  sigS */\n      dup10\n        /* \"EthereumDIDRegistry.sol\":5397:5401  hash */\n      dup8\n        /* \"EthereumDIDRegistry.sol\":5354:5368  checkSignature */\n      tag_99\n        /* \"EthereumDIDRegistry.sol\":5354:5402  checkSignature(identity, sigV, sigR, sigS, hash) */\n      jump\t// in\n    tag_123:\n        /* \"EthereumDIDRegistry.sol\":5404:5416  delegateType */\n      dup6\n        /* \"EthereumDIDRegistry.sol\":5418:5426  delegate */\n      dup6\n        /* \"EthereumDIDRegistry.sol\":5329:5343  revokeDelegate */\n      tag_115\n        /* \"EthereumDIDRegistry.sol\":5329:5427  revokeDelegate(identity, checkSignature(identity, sigV, sigR, sigS, hash), delegateType, delegate) */\n      jump\t// in\n    tag_122:\n        /* \"EthereumDIDRegistry.sol\":4988:5434  {... */\n      pop\n        /* \"EthereumDIDRegistry.sol\":4799:5434  function revokeDelegateSigned(... */\n      pop\n      pop\n      pop\n      pop\n      pop\n      pop\n      jump\t// out\n        /* \"EthereumDIDRegistry.sol\":3480:4168  function addDelegateSigned(... */\n    tag_73:\n        /* \"EthereumDIDRegistry.sol\":3702:3714  bytes32 hash */\n      0x00\n        /* \"EthereumDIDRegistry.sol\":3781:3785  0x19 */\n      0x19\n        /* \"EthereumDIDRegistry.sol\":3774:3786  bytes1(0x19) */\n      0xf8\n      shl\n        /* \"EthereumDIDRegistry.sol\":3811:3812  0 */\n      0x00\n        /* \"EthereumDIDRegistry.sol\":3804:3813  bytes1(0) */\n      0xf8\n      shl\n        /* \"EthereumDIDRegistry.sol\":3831:3835  this */\n      address\n        /* \"EthereumDIDRegistry.sol\":3853:3858  nonce */\n      0x03\n        /* \"EthereumDIDRegistry.sol\":3853:3883  nonce[identityOwner(identity)] */\n      0x00\n        /* \"EthereumDIDRegistry.sol\":3859:3882  identityOwner(identity) */\n      tag_125\n        /* \"EthereumDIDRegistry.sol\":3873:3881  identity */\n      dup14\n        /* \"EthereumDIDRegistry.sol\":3859:3872  identityOwner */\n      tag_64\n        /* \"EthereumDIDRegistry.sol\":3859:3882  identityOwner(identity) */\n      jump\t// in\n    tag_125:\n        /* \"EthereumDIDRegistry.sol\":3853:3883  nonce[identityOwner(identity)] */\n      0xffffffffffffffffffffffffffffffffffffffff\n      and\n      0xffffffffffffffffffffffffffffffffffffffff\n      and\n      dup2\n      mstore\n      0x20\n      add\n      swap1\n      dup2\n      mstore\n      0x20\n      add\n      0x00\n      keccak256\n      sload\n        /* \"EthereumDIDRegistry.sol\":3901:3909  identity */\n      dup12\n        /* \"EthereumDIDRegistry.sol\":3958:3970  delegateType */\n      dup9\n        /* \"EthereumDIDRegistry.sol\":3988:3996  delegate */\n      dup9\n        /* \"EthereumDIDRegistry.sol\":4014:4022  validity */\n      dup9\n        /* \"EthereumDIDRegistry.sol\":3740:4036  abi.encodePacked(... */\n      add(0x20, mload(0x40))\n      tag_126\n      swap9\n      swap8\n      swap7\n      swap6\n      swap5\n      swap4\n      swap3\n      swap2\n      swap1\n      tag_127\n      jump\t// in\n    tag_126:\n      mload(0x40)\n      0x20\n      dup2\n      dup4\n      sub\n      sub\n      dup2\n      mstore\n      swap1\n      0x40\n      mstore\n        /* \"EthereumDIDRegistry.sol\":3717:4046  keccak256(... */\n      dup1\n      mload\n      swap1\n      0x20\n      add\n      keccak256\n        /* \"EthereumDIDRegistry.sol\":3702:4046  bytes32 hash = keccak256(... */\n      swap1\n      pop\n        /* \"EthereumDIDRegistry.sol\":4056:4161  addDelegate(identity, checkSignature(identity, sigV, sigR, sigS, hash), delegateType, delegate, validity) */\n      tag_128\n        /* \"EthereumDIDRegistry.sol\":4068:4076  identity */\n      dup9\n        /* \"EthereumDIDRegistry.sol\":4078:4126  checkSignature(identity, sigV, sigR, sigS, hash) */\n      tag_129\n        /* \"EthereumDIDRegistry.sol\":4093:4101  identity */\n      dup11\n        /* \"EthereumDIDRegistry.sol\":4103:4107  sigV */\n      dup11\n        /* \"EthereumDIDRegistry.sol\":4109:4113  sigR */\n      dup11\n        /* \"EthereumDIDRegistry.sol\":4115:4119  sigS */\n      dup11\n        /* \"EthereumDIDRegistry.sol\":4121:4125  hash */\n      dup8\n        /* \"EthereumDIDRegistry.sol\":4078:4092  checkSignature */\n      tag_99\n        /* \"EthereumDIDRegistry.sol\":4078:4126  checkSignature(identity, sigV, sigR, sigS, hash) */\n      jump\t// in\n    tag_129:\n        /* \"EthereumDIDRegistry.sol\":4128:4140  delegateType */\n      dup7\n        /* \"EthereumDIDRegistry.sol\":4142:4150  delegate */\n      dup7\n        /* \"EthereumDIDRegistry.sol\":4152:4160  validity */\n      dup7\n        /* \"EthereumDIDRegistry.sol\":4056:4067  addDelegate */\n      tag_130\n        /* \"EthereumDIDRegistry.sol\":4056:4161  addDelegate(identity, checkSignature(identity, sigV, sigR, sigS, hash), delegateType, delegate, validity) */\n      jump\t// in\n    tag_128:\n        /* \"EthereumDIDRegistry.sol\":3692:4168  {... */\n      pop\n        /* \"EthereumDIDRegistry.sol\":3480:4168  function addDelegateSigned(... */\n      pop\n      pop\n      pop\n      pop\n      pop\n      pop\n      pop\n      jump\t// out\n        /* \"EthereumDIDRegistry.sol\":3248:3474  function addDelegate(... */\n    tag_77:\n        /* \"EthereumDIDRegistry.sol\":3400:3467  addDelegate(identity, msg.sender, delegateType, delegate, validity) */\n      tag_132\n        /* \"EthereumDIDRegistry.sol\":3412:3420  identity */\n      dup5\n        /* \"EthereumDIDRegistry.sol\":3422:3432  msg.sender */\n      caller\n        /* \"EthereumDIDRegistry.sol\":3434:3446  delegateType */\n      dup6\n        /* \"EthereumDIDRegistry.sol\":3448:3456  delegate */\n      dup6\n        /* \"EthereumDIDRegistry.sol\":3458:3466  validity */\n      dup6\n        /* \"EthereumDIDRegistry.sol\":3400:3411  addDelegate */\n      tag_130\n        /* \"EthereumDIDRegistry.sol\":3400:3467  addDelegate(identity, msg.sender, delegateType, delegate, validity) */\n      jump\t// in\n    tag_132:\n        /* \"EthereumDIDRegistry.sol\":3248:3474  function addDelegate(... */\n      pop\n      pop\n      pop\n      pop\n      jump\t// out\n        /* \"EthereumDIDRegistry.sol\":7161:7771  function revokeAttributeSigned(... */\n    tag_81:\n        /* \"EthereumDIDRegistry.sol\":7355:7367  bytes32 hash */\n      0x00\n        /* \"EthereumDIDRegistry.sol\":7434:7438  0x19 */\n      0x19\n        /* \"EthereumDIDRegistry.sol\":7427:7439  bytes1(0x19) */\n      0xf8\n      shl\n        /* \"EthereumDIDRegistry.sol\":7464:7465  0 */\n      0x00\n        /* \"EthereumDIDRegistry.sol\":7457:7466  bytes1(0) */\n      0xf8\n      shl\n        /* \"EthereumDIDRegistry.sol\":7484:7488  this */\n      address\n        /* \"EthereumDIDRegistry.sol\":7506:7511  nonce */\n      0x03\n        /* \"EthereumDIDRegistry.sol\":7506:7536  nonce[identityOwner(identity)] */\n      0x00\n        /* \"EthereumDIDRegistry.sol\":7512:7535  identityOwner(identity) */\n      tag_134\n        /* \"EthereumDIDRegistry.sol\":7526:7534  identity */\n      dup13\n        /* \"EthereumDIDRegistry.sol\":7512:7525  identityOwner */\n      tag_64\n        /* \"EthereumDIDRegistry.sol\":7512:7535  identityOwner(identity) */\n      jump\t// in\n    tag_134:\n        /* \"EthereumDIDRegistry.sol\":7506:7536  nonce[identityOwner(identity)] */\n      0xffffffffffffffffffffffffffffffffffffffff\n      and\n      0xffffffffffffffffffffffffffffffffffffffff\n      and\n      dup2\n      mstore\n      0x20\n      add\n      swap1\n      dup2\n      mstore\n      0x20\n      add\n      0x00\n      keccak256\n      sload\n        /* \"EthereumDIDRegistry.sol\":7554:7562  identity */\n      dup11\n        /* \"EthereumDIDRegistry.sol\":7615:7619  name */\n      dup8\n        /* \"EthereumDIDRegistry.sol\":7637:7642  value */\n      dup8\n        /* \"EthereumDIDRegistry.sol\":7393:7656  abi.encodePacked(... */\n      add(0x20, mload(0x40))\n      tag_135\n      swap8\n      swap7\n      swap6\n      swap5\n      swap4\n      swap3\n      swap2\n      swap1\n      tag_136\n      jump\t// in\n    tag_135:\n      mload(0x40)\n      0x20\n      dup2\n      dup4\n      sub\n      sub\n      dup2\n      mstore\n      swap1\n      0x40\n      mstore\n        /* \"EthereumDIDRegistry.sol\":7370:7666  keccak256(... */\n      dup1\n      mload\n      swap1\n      0x20\n      add\n      keccak256\n        /* \"EthereumDIDRegistry.sol\":7355:7666  bytes32 hash = keccak256(... */\n      swap1\n      pop\n        /* \"EthereumDIDRegistry.sol\":7676:7764  revokeAttribute(identity, checkSignature(identity, sigV, sigR, sigS, hash), name, value) */\n      tag_137\n        /* \"EthereumDIDRegistry.sol\":7692:7700  identity */\n      dup8\n        /* \"EthereumDIDRegistry.sol\":7702:7750  checkSignature(identity, sigV, sigR, sigS, hash) */\n      tag_138\n        /* \"EthereumDIDRegistry.sol\":7717:7725  identity */\n      dup10\n        /* \"EthereumDIDRegistry.sol\":7727:7731  sigV */\n      dup10\n        /* \"EthereumDIDRegistry.sol\":7733:7737  sigR */\n      dup10\n        /* \"EthereumDIDRegistry.sol\":7739:7743  sigS */\n      dup10\n        /* \"EthereumDIDRegistry.sol\":7745:7749  hash */\n      dup8\n        /* \"EthereumDIDRegistry.sol\":7702:7716  checkSignature */\n      tag_99\n        /* \"EthereumDIDRegistry.sol\":7702:7750  checkSignature(identity, sigV, sigR, sigS, hash) */\n      jump\t// in\n    tag_138:\n        /* \"EthereumDIDRegistry.sol\":7752:7756  name */\n      dup6\n        /* \"EthereumDIDRegistry.sol\":7758:7763  value */\n      dup6\n        /* \"EthereumDIDRegistry.sol\":7676:7691  revokeAttribute */\n      tag_92\n        /* \"EthereumDIDRegistry.sol\":7676:7764  revokeAttribute(identity, checkSignature(identity, sigV, sigR, sigS, hash), name, value) */\n      jump\t// in\n    tag_137:\n        /* \"EthereumDIDRegistry.sol\":7345:7771  {... */\n      pop\n        /* \"EthereumDIDRegistry.sol\":7161:7771  function revokeAttributeSigned(... */\n      pop\n      pop\n      pop\n      pop\n      pop\n      pop\n      jump\t// out\n        /* \"EthereumDIDRegistry.sol\":2092:2216  function changeOwner(address identity, address newOwner) public {... */\n    tag_85:\n        /* \"EthereumDIDRegistry.sol\":2166:2209  changeOwner(identity, msg.sender, newOwner) */\n      tag_140\n        /* \"EthereumDIDRegistry.sol\":2178:2186  identity */\n      dup3\n        /* \"EthereumDIDRegistry.sol\":2188:2198  msg.sender */\n      caller\n        /* \"EthereumDIDRegistry.sol\":2200:2208  newOwner */\n      dup4\n        /* \"EthereumDIDRegistry.sol\":2166:2177  changeOwner */\n      tag_107\n        /* \"EthereumDIDRegistry.sol\":2166:2209  changeOwner(identity, msg.sender, newOwner) */\n      jump\t// in\n    tag_140:\n        /* \"EthereumDIDRegistry.sol\":2092:2216  function changeOwner(address identity, address newOwner) public {... */\n      pop\n      pop\n      jump\t// out\n        /* \"EthereumDIDRegistry.sol\":234:276  mapping(address => uint256) public changed */\n    tag_88:\n      mstore(0x20, 0x02)\n      dup1\n      0x00\n      mstore\n      keccak256(0x00, 0x40)\n      0x00\n      swap2\n      pop\n      swap1\n      pop\n      sload\n      dup2\n      jump\t// out\n        /* \"EthereumDIDRegistry.sol\":6674:6968  function revokeAttribute(... */\n    tag_92:\n        /* \"EthereumDIDRegistry.sol\":6823:6831  identity */\n      dup4\n        /* \"EthereumDIDRegistry.sol\":6833:6838  actor */\n      dup4\n        /* \"EthereumDIDRegistry.sol\":408:431  identityOwner(identity) */\n      tag_142\n        /* \"EthereumDIDRegistry.sol\":422:430  identity */\n      dup3\n        /* \"EthereumDIDRegistry.sol\":408:421  identityOwner */\n      tag_64\n        /* \"EthereumDIDRegistry.sol\":408:431  identityOwner(identity) */\n      jump\t// in\n    tag_142:\n        /* \"EthereumDIDRegistry.sol\":399:431  actor == identityOwner(identity) */\n      0xffffffffffffffffffffffffffffffffffffffff\n      and\n        /* \"EthereumDIDRegistry.sol\":399:404  actor */\n      dup2\n        /* \"EthereumDIDRegistry.sol\":399:431  actor == identityOwner(identity) */\n      0xffffffffffffffffffffffffffffffffffffffff\n      and\n      eq\n        /* \"EthereumDIDRegistry.sol\":391:445  require(actor == identityOwner(identity), \"bad_actor\") */\n      tag_143\n      jumpi\n      mload(0x40)\n      0x08c379a000000000000000000000000000000000000000000000000000000000\n      dup2\n      mstore\n      0x04\n      add\n      tag_144\n      swap1\n      tag_145\n      jump\t// in\n    tag_144:\n      mload(0x40)\n      dup1\n      swap2\n      sub\n      swap1\n      revert\n    tag_143:\n        /* \"EthereumDIDRegistry.sol\":6875:6883  identity */\n      dup6\n        /* \"EthereumDIDRegistry.sol\":6855:6919  DIDAttributeChanged(identity, name, value, 0, changed[identity]) */\n      0xffffffffffffffffffffffffffffffffffffffff\n      and\n      0x18ab6b2ae3d64306c00ce663125f2bd680e441a098de1635bd7ad8b0d44965e4\n        /* \"EthereumDIDRegistry.sol\":6885:6889  name */\n      dup6\n        /* \"EthereumDIDRegistry.sol\":6891:6896  value */\n      dup6\n        /* \"EthereumDIDRegistry.sol\":6898:6899  0 */\n      0x00\n        /* \"EthereumDIDRegistry.sol\":6901:6908  changed */\n      0x02\n        /* \"EthereumDIDRegistry.sol\":6901:6918  changed[identity] */\n      0x00\n        /* \"EthereumDIDRegistry.sol\":6909:6917  identity */\n      dup13\n        /* \"EthereumDIDRegistry.sol\":6901:6918  changed[identity] */\n      0xffffffffffffffffffffffffffffffffffffffff\n      and\n      0xffffffffffffffffffffffffffffffffffffffff\n      and\n      dup2\n      mstore\n      0x20\n      add\n      swap1\n      dup2\n      mstore\n      0x20\n      add\n      0x00\n      keccak256\n      sload\n        /* \"EthereumDIDRegistry.sol\":6855:6919  DIDAttributeChanged(identity, name, value, 0, changed[identity]) */\n      mload(0x40)\n      tag_147\n      swap5\n      swap4\n      swap3\n      swap2\n      swap1\n      tag_148\n      jump\t// in\n    tag_147:\n      mload(0x40)\n      dup1\n      swap2\n      sub\n      swap1\n      log2\n        /* \"EthereumDIDRegistry.sol\":6949:6961  block.number */\n      number\n        /* \"EthereumDIDRegistry.sol\":6929:6936  changed */\n      0x02\n        /* \"EthereumDIDRegistry.sol\":6929:6946  changed[identity] */\n      0x00\n        /* \"EthereumDIDRegistry.sol\":6937:6945  identity */\n      dup9\n        /* \"EthereumDIDRegistry.sol\":6929:6946  changed[identity] */\n      0xffffffffffffffffffffffffffffffffffffffff\n      and\n      0xffffffffffffffffffffffffffffffffffffffff\n      and\n      dup2\n      mstore\n      0x20\n      add\n      swap1\n      dup2\n      mstore\n      0x20\n      add\n      0x00\n      keccak256\n        /* \"EthereumDIDRegistry.sol\":6929:6961  changed[identity] = block.number */\n      dup2\n      swap1\n      sstore\n      pop\n        /* \"EthereumDIDRegistry.sol\":6674:6968  function revokeAttribute(... */\n      pop\n      pop\n      pop\n      pop\n      pop\n      pop\n      jump\t// out\n        /* \"EthereumDIDRegistry.sol\":1143:1496  function checkSignature(... */\n    tag_99:\n        /* \"EthereumDIDRegistry.sol\":1303:1310  address */\n      0x00\n        /* \"EthereumDIDRegistry.sol\":1322:1336  address signer */\n      dup1\n        /* \"EthereumDIDRegistry.sol\":1339:1372  ecrecover(hash, sigV, sigR, sigS) */\n      0x01\n        /* \"EthereumDIDRegistry.sol\":1349:1353  hash */\n      dup4\n        /* \"EthereumDIDRegistry.sol\":1355:1359  sigV */\n      dup8\n        /* \"EthereumDIDRegistry.sol\":1361:1365  sigR */\n      dup8\n        /* \"EthereumDIDRegistry.sol\":1367:1371  sigS */\n      dup8\n        /* \"EthereumDIDRegistry.sol\":1339:1372  ecrecover(hash, sigV, sigR, sigS) */\n      mload(0x40)\n      0x00\n      dup2\n      mstore\n      0x20\n      add\n      0x40\n      mstore\n      mload(0x40)\n      tag_150\n      swap5\n      swap4\n      swap3\n      swap2\n      swap1\n      tag_151\n      jump\t// in\n    tag_150:\n      0x20\n      mload(0x40)\n      0x20\n      dup2\n      sub\n      swap1\n      dup1\n      dup5\n      sub\n      swap1\n      dup6\n      gas\n      staticcall\n      iszero\n      dup1\n      iszero\n      tag_153\n      jumpi\n      returndatasize\n      0x00\n      dup1\n      returndatacopy\n      revert(0x00, returndatasize)\n    tag_153:\n      pop\n      pop\n      pop\n      mload(sub(mload(0x40), 0x20))\n        /* \"EthereumDIDRegistry.sol\":1322:1372  address signer = ecrecover(hash, sigV, sigR, sigS) */\n      swap1\n      pop\n        /* \"EthereumDIDRegistry.sol\":1400:1423  identityOwner(identity) */\n      tag_154\n        /* \"EthereumDIDRegistry.sol\":1414:1422  identity */\n      dup8\n        /* \"EthereumDIDRegistry.sol\":1400:1413  identityOwner */\n      tag_64\n        /* \"EthereumDIDRegistry.sol\":1400:1423  identityOwner(identity) */\n      jump\t// in\n    tag_154:\n        /* \"EthereumDIDRegistry.sol\":1390:1423  signer == identityOwner(identity) */\n      0xffffffffffffffffffffffffffffffffffffffff\n      and\n        /* \"EthereumDIDRegistry.sol\":1390:1396  signer */\n      dup2\n        /* \"EthereumDIDRegistry.sol\":1390:1423  signer == identityOwner(identity) */\n      0xffffffffffffffffffffffffffffffffffffffff\n      and\n      eq\n        /* \"EthereumDIDRegistry.sol\":1382:1441  require(signer == identityOwner(identity), \"bad_signature\") */\n      tag_155\n      jumpi\n      mload(0x40)\n      0x08c379a000000000000000000000000000000000000000000000000000000000\n      dup2\n      mstore\n      0x04\n      add\n      tag_156\n      swap1\n      tag_157\n      jump\t// in\n    tag_156:\n      mload(0x40)\n      dup1\n      swap2\n      sub\n      swap1\n      revert\n    tag_155:\n        /* \"EthereumDIDRegistry.sol\":1451:1456  nonce */\n      0x03\n        /* \"EthereumDIDRegistry.sol\":1451:1464  nonce[signer] */\n      0x00\n        /* \"EthereumDIDRegistry.sol\":1457:1463  signer */\n      dup3\n        /* \"EthereumDIDRegistry.sol\":1451:1464  nonce[signer] */\n      0xffffffffffffffffffffffffffffffffffffffff\n      and\n      0xffffffffffffffffffffffffffffffffffffffff\n      and\n      dup2\n      mstore\n      0x20\n      add\n      swap1\n      dup2\n      mstore\n      0x20\n      add\n      0x00\n      keccak256\n      0x00\n        /* \"EthereumDIDRegistry.sol\":1451:1466  nonce[signer]++ */\n      dup2\n      sload\n      dup1\n      swap3\n      swap2\n      swap1\n      tag_158\n      swap1\n      tag_159\n      jump\t// in\n    tag_158:\n      swap2\n      swap1\n      pop\n      sstore\n      pop\n        /* \"EthereumDIDRegistry.sol\":1483:1489  signer */\n      dup1\n        /* \"EthereumDIDRegistry.sol\":1476:1489  return signer */\n      swap2\n      pop\n      pop\n        /* \"EthereumDIDRegistry.sol\":1143:1496  function checkSignature(... */\n      swap6\n      swap5\n      pop\n      pop\n      pop\n      pop\n      pop\n      jump\t// out\n        /* \"EthereumDIDRegistry.sol\":5440:5782  function setAttribute(... */\n    tag_100:\n        /* \"EthereumDIDRegistry.sol\":5612:5620  identity */\n      dup5\n        /* \"EthereumDIDRegistry.sol\":5622:5627  actor */\n      dup5\n        /* \"EthereumDIDRegistry.sol\":408:431  identityOwner(identity) */\n      tag_161\n        /* \"EthereumDIDRegistry.sol\":422:430  identity */\n      dup3\n        /* \"EthereumDIDRegistry.sol\":408:421  identityOwner */\n      tag_64\n        /* \"EthereumDIDRegistry.sol\":408:431  identityOwner(identity) */\n      jump\t// in\n    tag_161:\n        /* \"EthereumDIDRegistry.sol\":399:431  actor == identityOwner(identity) */\n      0xffffffffffffffffffffffffffffffffffffffff\n      and\n        /* \"EthereumDIDRegistry.sol\":399:404  actor */\n      dup2\n        /* \"EthereumDIDRegistry.sol\":399:431  actor == identityOwner(identity) */\n      0xffffffffffffffffffffffffffffffffffffffff\n      and\n      eq\n        /* \"EthereumDIDRegistry.sol\":391:445  require(actor == identityOwner(identity), \"bad_actor\") */\n      tag_162\n      jumpi\n      mload(0x40)\n      0x08c379a000000000000000000000000000000000000000000000000000000000\n      dup2\n      mstore\n      0x04\n      add\n      tag_163\n      swap1\n      tag_145\n      jump\t// in\n    tag_163:\n      mload(0x40)\n      dup1\n      swap2\n      sub\n      swap1\n      revert\n    tag_162:\n        /* \"EthereumDIDRegistry.sol\":5664:5672  identity */\n      dup7\n        /* \"EthereumDIDRegistry.sol\":5644:5733  DIDAttributeChanged(identity, name, value, block.timestamp + validity, changed[identity]) */\n      0xffffffffffffffffffffffffffffffffffffffff\n      and\n      0x18ab6b2ae3d64306c00ce663125f2bd680e441a098de1635bd7ad8b0d44965e4\n        /* \"EthereumDIDRegistry.sol\":5674:5678  name */\n      dup7\n        /* \"EthereumDIDRegistry.sol\":5680:5685  value */\n      dup7\n        /* \"EthereumDIDRegistry.sol\":5705:5713  validity */\n      dup7\n        /* \"EthereumDIDRegistry.sol\":5687:5702  block.timestamp */\n      timestamp\n        /* \"EthereumDIDRegistry.sol\":5687:5713  block.timestamp + validity */\n      tag_165\n      swap2\n      swap1\n      tag_166\n      jump\t// in\n    tag_165:\n        /* \"EthereumDIDRegistry.sol\":5715:5722  changed */\n      0x02\n        /* \"EthereumDIDRegistry.sol\":5715:5732  changed[identity] */\n      0x00\n        /* \"EthereumDIDRegistry.sol\":5723:5731  identity */\n      dup14\n        /* \"EthereumDIDRegistry.sol\":5715:5732  changed[identity] */\n      0xffffffffffffffffffffffffffffffffffffffff\n      and\n      0xffffffffffffffffffffffffffffffffffffffff\n      and\n      dup2\n      mstore\n      0x20\n      add\n      swap1\n      dup2\n      mstore\n      0x20\n      add\n      0x00\n      keccak256\n      sload\n        /* \"EthereumDIDRegistry.sol\":5644:5733  DIDAttributeChanged(identity, name, value, block.timestamp + validity, changed[identity]) */\n      mload(0x40)\n      tag_167\n      swap5\n      swap4\n      swap3\n      swap2\n      swap1\n      tag_168\n      jump\t// in\n    tag_167:\n      mload(0x40)\n      dup1\n      swap2\n      sub\n      swap1\n      log2\n        /* \"EthereumDIDRegistry.sol\":5763:5775  block.number */\n      number\n        /* \"EthereumDIDRegistry.sol\":5743:5750  changed */\n      0x02\n        /* \"EthereumDIDRegistry.sol\":5743:5760  changed[identity] */\n      0x00\n        /* \"EthereumDIDRegistry.sol\":5751:5759  identity */\n      dup10\n        /* \"EthereumDIDRegistry.sol\":5743:5760  changed[identity] */\n      0xffffffffffffffffffffffffffffffffffffffff\n      and\n      0xffffffffffffffffffffffffffffffffffffffff\n      and\n      dup2\n      mstore\n      0x20\n      add\n      swap1\n      dup2\n      mstore\n      0x20\n      add\n      0x00\n      keccak256\n        /* \"EthereumDIDRegistry.sol\":5743:5775  changed[identity] = block.number */\n      dup2\n      swap1\n      sstore\n      pop\n        /* \"EthereumDIDRegistry.sol\":5440:5782  function setAttribute(... */\n      pop\n      pop\n      pop\n      pop\n      pop\n      pop\n      pop\n      jump\t// out\n        /* \"EthereumDIDRegistry.sol\":1793:2086  function changeOwner(... */\n    tag_107:\n        /* \"EthereumDIDRegistry.sol\":1914:1922  identity */\n      dup3\n        /* \"EthereumDIDRegistry.sol\":1924:1929  actor */\n      dup3\n        /* \"EthereumDIDRegistry.sol\":408:431  identityOwner(identity) */\n      tag_170\n        /* \"EthereumDIDRegistry.sol\":422:430  identity */\n      dup3\n        /* \"EthereumDIDRegistry.sol\":408:421  identityOwner */\n      tag_64\n        /* \"EthereumDIDRegistry.sol\":408:431  identityOwner(identity) */\n      jump\t// in\n    tag_170:\n        /* \"EthereumDIDRegistry.sol\":399:431  actor == identityOwner(identity) */\n      0xffffffffffffffffffffffffffffffffffffffff\n      and\n        /* \"EthereumDIDRegistry.sol\":399:404  actor */\n      dup2\n        /* \"EthereumDIDRegistry.sol\":399:431  actor == identityOwner(identity) */\n      0xffffffffffffffffffffffffffffffffffffffff\n      and\n      eq\n        /* \"EthereumDIDRegistry.sol\":391:445  require(actor == identityOwner(identity), \"bad_actor\") */\n      tag_171\n      jumpi\n      mload(0x40)\n      0x08c379a000000000000000000000000000000000000000000000000000000000\n      dup2\n      mstore\n      0x04\n      add\n      tag_172\n      swap1\n      tag_145\n      jump\t// in\n    tag_172:\n      mload(0x40)\n      dup1\n      swap2\n      sub\n      swap1\n      revert\n    tag_171:\n        /* \"EthereumDIDRegistry.sol\":1960:1968  newOwner */\n      dup3\n        /* \"EthereumDIDRegistry.sol\":1941:1947  owners */\n      0x00\n        /* \"EthereumDIDRegistry.sol\":1941:1957  owners[identity] */\n      dup1\n        /* \"EthereumDIDRegistry.sol\":1948:1956  identity */\n      dup8\n        /* \"EthereumDIDRegistry.sol\":1941:1957  owners[identity] */\n      0xffffffffffffffffffffffffffffffffffffffff\n      and\n      0xffffffffffffffffffffffffffffffffffffffff\n      and\n      dup2\n      mstore\n      0x20\n      add\n      swap1\n      dup2\n      mstore\n      0x20\n      add\n      0x00\n      keccak256\n      0x00\n        /* \"EthereumDIDRegistry.sol\":1941:1968  owners[identity] = newOwner */\n      0x0100\n      exp\n      dup2\n      sload\n      dup2\n      0xffffffffffffffffffffffffffffffffffffffff\n      mul\n      not\n      and\n      swap1\n      dup4\n      0xffffffffffffffffffffffffffffffffffffffff\n      and\n      mul\n      or\n      swap1\n      sstore\n      pop\n        /* \"EthereumDIDRegistry.sol\":1999:2007  identity */\n      dup5\n        /* \"EthereumDIDRegistry.sol\":1983:2037  DIDOwnerChanged(identity, newOwner, changed[identity]) */\n      0xffffffffffffffffffffffffffffffffffffffff\n      and\n      0x38a5a6e68f30ed1ab45860a4afb34bcb2fc00f22ca462d249b8a8d40cda6f7a3\n        /* \"EthereumDIDRegistry.sol\":2009:2017  newOwner */\n      dup5\n        /* \"EthereumDIDRegistry.sol\":2019:2026  changed */\n      0x02\n        /* \"EthereumDIDRegistry.sol\":2019:2036  changed[identity] */\n      0x00\n        /* \"EthereumDIDRegistry.sol\":2027:2035  identity */\n      dup10\n        /* \"EthereumDIDRegistry.sol\":2019:2036  changed[identity] */\n      0xffffffffffffffffffffffffffffffffffffffff\n      and\n      0xffffffffffffffffffffffffffffffffffffffff\n      and\n      dup2\n      mstore\n      0x20\n      add\n      swap1\n      dup2\n      mstore\n      0x20\n      add\n      0x00\n      keccak256\n      sload\n        /* \"EthereumDIDRegistry.sol\":1983:2037  DIDOwnerChanged(identity, newOwner, changed[identity]) */\n      mload(0x40)\n      tag_174\n      swap3\n      swap2\n      swap1\n      tag_175\n      jump\t// in\n    tag_174:\n      mload(0x40)\n      dup1\n      swap2\n      sub\n      swap1\n      log2\n        /* \"EthereumDIDRegistry.sol\":2067:2079  block.number */\n      number\n        /* \"EthereumDIDRegistry.sol\":2047:2054  changed */\n      0x02\n        /* \"EthereumDIDRegistry.sol\":2047:2064  changed[identity] */\n      0x00\n        /* \"EthereumDIDRegistry.sol\":2055:2063  identity */\n      dup8\n        /* \"EthereumDIDRegistry.sol\":2047:2064  changed[identity] */\n      0xffffffffffffffffffffffffffffffffffffffff\n      and\n      0xffffffffffffffffffffffffffffffffffffffff\n      and\n      dup2\n      mstore\n      0x20\n      add\n      swap1\n      dup2\n      mstore\n      0x20\n      add\n      0x00\n      keccak256\n        /* \"EthereumDIDRegistry.sol\":2047:2079  changed[identity] = block.number */\n      dup2\n      swap1\n      sstore\n      pop\n        /* \"EthereumDIDRegistry.sol\":1793:2086  function changeOwner(... */\n      pop\n      pop\n      pop\n      pop\n      pop\n      jump\t// out\n        /* \"EthereumDIDRegistry.sol\":4174:4591  function revokeDelegate(... */\n    tag_115:\n        /* \"EthereumDIDRegistry.sol\":4328:4336  identity */\n      dup4\n        /* \"EthereumDIDRegistry.sol\":4338:4343  actor */\n      dup4\n        /* \"EthereumDIDRegistry.sol\":408:431  identityOwner(identity) */\n      tag_177\n        /* \"EthereumDIDRegistry.sol\":422:430  identity */\n      dup3\n        /* \"EthereumDIDRegistry.sol\":408:421  identityOwner */\n      tag_64\n        /* \"EthereumDIDRegistry.sol\":408:431  identityOwner(identity) */\n      jump\t// in\n    tag_177:\n        /* \"EthereumDIDRegistry.sol\":399:431  actor == identityOwner(identity) */\n      0xffffffffffffffffffffffffffffffffffffffff\n      and\n        /* \"EthereumDIDRegistry.sol\":399:404  actor */\n      dup2\n        /* \"EthereumDIDRegistry.sol\":399:431  actor == identityOwner(identity) */\n      0xffffffffffffffffffffffffffffffffffffffff\n      and\n      eq\n        /* \"EthereumDIDRegistry.sol\":391:445  require(actor == identityOwner(identity), \"bad_actor\") */\n      tag_178\n      jumpi\n      mload(0x40)\n      0x08c379a000000000000000000000000000000000000000000000000000000000\n      dup2\n      mstore\n      0x04\n      add\n      tag_179\n      swap1\n      tag_145\n      jump\t// in\n    tag_179:\n      mload(0x40)\n      dup1\n      swap2\n      sub\n      swap1\n      revert\n    tag_178:\n        /* \"EthereumDIDRegistry.sol\":4424:4439  block.timestamp */\n      timestamp\n        /* \"EthereumDIDRegistry.sol\":4355:4364  delegates */\n      0x01\n        /* \"EthereumDIDRegistry.sol\":4355:4374  delegates[identity] */\n      0x00\n        /* \"EthereumDIDRegistry.sol\":4365:4373  identity */\n      dup9\n        /* \"EthereumDIDRegistry.sol\":4355:4374  delegates[identity] */\n      0xffffffffffffffffffffffffffffffffffffffff\n      and\n      0xffffffffffffffffffffffffffffffffffffffff\n      and\n      dup2\n      mstore\n      0x20\n      add\n      swap1\n      dup2\n      mstore\n      0x20\n      add\n      0x00\n      keccak256\n        /* \"EthereumDIDRegistry.sol\":4355:4411  delegates[identity][keccak256(abi.encode(delegateType))] */\n      0x00\n        /* \"EthereumDIDRegistry.sol\":4396:4408  delegateType */\n      dup7\n        /* \"EthereumDIDRegistry.sol\":4385:4409  abi.encode(delegateType) */\n      add(0x20, mload(0x40))\n      tag_181\n      swap2\n      swap1\n      tag_110\n      jump\t// in\n    tag_181:\n      mload(0x40)\n      0x20\n      dup2\n      dup4\n      sub\n      sub\n      dup2\n      mstore\n      swap1\n      0x40\n      mstore\n        /* \"EthereumDIDRegistry.sol\":4375:4410  keccak256(abi.encode(delegateType)) */\n      dup1\n      mload\n      swap1\n      0x20\n      add\n      keccak256\n        /* \"EthereumDIDRegistry.sol\":4355:4411  delegates[identity][keccak256(abi.encode(delegateType))] */\n      dup2\n      mstore\n      0x20\n      add\n      swap1\n      dup2\n      mstore\n      0x20\n      add\n      0x00\n      keccak256\n        /* \"EthereumDIDRegistry.sol\":4355:4421  delegates[identity][keccak256(abi.encode(delegateType))][delegate] */\n      0x00\n        /* \"EthereumDIDRegistry.sol\":4412:4420  delegate */\n      dup6\n        /* \"EthereumDIDRegistry.sol\":4355:4421  delegates[identity][keccak256(abi.encode(delegateType))][delegate] */\n      0xffffffffffffffffffffffffffffffffffffffff\n      and\n      0xffffffffffffffffffffffffffffffffffffffff\n      and\n      dup2\n      mstore\n      0x20\n      add\n      swap1\n      dup2\n      mstore\n      0x20\n      add\n      0x00\n      keccak256\n        /* \"EthereumDIDRegistry.sol\":4355:4439  delegates[identity][keccak256(abi.encode(delegateType))][delegate] = block.timestamp */\n      dup2\n      swap1\n      sstore\n      pop\n        /* \"EthereumDIDRegistry.sol\":4473:4481  identity */\n      dup6\n        /* \"EthereumDIDRegistry.sol\":4454:4542  DIDDelegateChanged(identity, delegateType, delegate, block.timestamp, changed[identity]) */\n      0xffffffffffffffffffffffffffffffffffffffff\n      and\n      0x5a5084339536bcab65f20799fcc58724588145ca054bd2be626174b27ba156f7\n        /* \"EthereumDIDRegistry.sol\":4483:4495  delegateType */\n      dup6\n        /* \"EthereumDIDRegistry.sol\":4497:4505  delegate */\n      dup6\n        /* \"EthereumDIDRegistry.sol\":4507:4522  block.timestamp */\n      timestamp\n        /* \"EthereumDIDRegistry.sol\":4524:4531  changed */\n      0x02\n        /* \"EthereumDIDRegistry.sol\":4524:4541  changed[identity] */\n      0x00\n        /* \"EthereumDIDRegistry.sol\":4532:4540  identity */\n      dup13\n        /* \"EthereumDIDRegistry.sol\":4524:4541  changed[identity] */\n      0xffffffffffffffffffffffffffffffffffffffff\n      and\n      0xffffffffffffffffffffffffffffffffffffffff\n      and\n      dup2\n      mstore\n      0x20\n      add\n      swap1\n      dup2\n      mstore\n      0x20\n      add\n      0x00\n      keccak256\n      sload\n        /* \"EthereumDIDRegistry.sol\":4454:4542  DIDDelegateChanged(identity, delegateType, delegate, block.timestamp, changed[identity]) */\n      mload(0x40)\n      tag_182\n      swap5\n      swap4\n      swap3\n      swap2\n      swap1\n      tag_183\n      jump\t// in\n    tag_182:\n      mload(0x40)\n      dup1\n      swap2\n      sub\n      swap1\n      log2\n        /* \"EthereumDIDRegistry.sol\":4572:4584  block.number */\n      number\n        /* \"EthereumDIDRegistry.sol\":4552:4559  changed */\n      0x02\n        /* \"EthereumDIDRegistry.sol\":4552:4569  changed[identity] */\n      0x00\n        /* \"EthereumDIDRegistry.sol\":4560:4568  identity */\n      dup9\n        /* \"EthereumDIDRegistry.sol\":4552:4569  changed[identity] */\n      0xffffffffffffffffffffffffffffffffffffffff\n      and\n      0xffffffffffffffffffffffffffffffffffffffff\n      and\n      dup2\n      mstore\n      0x20\n      add\n      swap1\n      dup2\n      mstore\n      0x20\n      add\n      0x00\n      keccak256\n        /* \"EthereumDIDRegistry.sol\":4552:4584  changed[identity] = block.number */\n      dup2\n      swap1\n      sstore\n      pop\n        /* \"EthereumDIDRegistry.sol\":4174:4591  function revokeDelegate(... */\n      pop\n      pop\n      pop\n      pop\n      pop\n      pop\n      jump\t// out\n        /* \"EthereumDIDRegistry.sol\":2780:3242  function addDelegate(... */\n    tag_130:\n        /* \"EthereumDIDRegistry.sol\":2957:2965  identity */\n      dup5\n        /* \"EthereumDIDRegistry.sol\":2967:2972  actor */\n      dup5\n        /* \"EthereumDIDRegistry.sol\":408:431  identityOwner(identity) */\n      tag_185\n        /* \"EthereumDIDRegistry.sol\":422:430  identity */\n      dup3\n        /* \"EthereumDIDRegistry.sol\":408:421  identityOwner */\n      tag_64\n        /* \"EthereumDIDRegistry.sol\":408:431  identityOwner(identity) */\n      jump\t// in\n    tag_185:\n        /* \"EthereumDIDRegistry.sol\":399:431  actor == identityOwner(identity) */\n      0xffffffffffffffffffffffffffffffffffffffff\n      and\n        /* \"EthereumDIDRegistry.sol\":399:404  actor */\n      dup2\n        /* \"EthereumDIDRegistry.sol\":399:431  actor == identityOwner(identity) */\n      0xffffffffffffffffffffffffffffffffffffffff\n      and\n      eq\n        /* \"EthereumDIDRegistry.sol\":391:445  require(actor == identityOwner(identity), \"bad_actor\") */\n      tag_186\n      jumpi\n      mload(0x40)\n      0x08c379a000000000000000000000000000000000000000000000000000000000\n      dup2\n      mstore\n      0x04\n      add\n      tag_187\n      swap1\n      tag_145\n      jump\t// in\n    tag_187:\n      mload(0x40)\n      dup1\n      swap2\n      sub\n      swap1\n      revert\n    tag_186:\n        /* \"EthereumDIDRegistry.sol\":3071:3079  validity */\n      dup3\n        /* \"EthereumDIDRegistry.sol\":3053:3068  block.timestamp */\n      timestamp\n        /* \"EthereumDIDRegistry.sol\":3053:3079  block.timestamp + validity */\n      tag_189\n      swap2\n      swap1\n      tag_166\n      jump\t// in\n    tag_189:\n        /* \"EthereumDIDRegistry.sol\":2984:2993  delegates */\n      0x01\n        /* \"EthereumDIDRegistry.sol\":2984:3003  delegates[identity] */\n      0x00\n        /* \"EthereumDIDRegistry.sol\":2994:3002  identity */\n      dup10\n        /* \"EthereumDIDRegistry.sol\":2984:3003  delegates[identity] */\n      0xffffffffffffffffffffffffffffffffffffffff\n      and\n      0xffffffffffffffffffffffffffffffffffffffff\n      and\n      dup2\n      mstore\n      0x20\n      add\n      swap1\n      dup2\n      mstore\n      0x20\n      add\n      0x00\n      keccak256\n        /* \"EthereumDIDRegistry.sol\":2984:3040  delegates[identity][keccak256(abi.encode(delegateType))] */\n      0x00\n        /* \"EthereumDIDRegistry.sol\":3025:3037  delegateType */\n      dup8\n        /* \"EthereumDIDRegistry.sol\":3014:3038  abi.encode(delegateType) */\n      add(0x20, mload(0x40))\n      tag_190\n      swap2\n      swap1\n      tag_110\n      jump\t// in\n    tag_190:\n      mload(0x40)\n      0x20\n      dup2\n      dup4\n      sub\n      sub\n      dup2\n      mstore\n      swap1\n      0x40\n      mstore\n        /* \"EthereumDIDRegistry.sol\":3004:3039  keccak256(abi.encode(delegateType)) */\n      dup1\n      mload\n      swap1\n      0x20\n      add\n      keccak256\n        /* \"EthereumDIDRegistry.sol\":2984:3040  delegates[identity][keccak256(abi.encode(delegateType))] */\n      dup2\n      mstore\n      0x20\n      add\n      swap1\n      dup2\n      mstore\n      0x20\n      add\n      0x00\n      keccak256\n        /* \"EthereumDIDRegistry.sol\":2984:3050  delegates[identity][keccak256(abi.encode(delegateType))][delegate] */\n      0x00\n        /* \"EthereumDIDRegistry.sol\":3041:3049  delegate */\n      dup7\n        /* \"EthereumDIDRegistry.sol\":2984:3050  delegates[identity][keccak256(abi.encode(delegateType))][delegate] */\n      0xffffffffffffffffffffffffffffffffffffffff\n      and\n      0xffffffffffffffffffffffffffffffffffffffff\n      and\n      dup2\n      mstore\n      0x20\n      add\n      swap1\n      dup2\n      mstore\n      0x20\n      add\n      0x00\n      keccak256\n        /* \"EthereumDIDRegistry.sol\":2984:3079  delegates[identity][keccak256(abi.encode(delegateType))][delegate] = block.timestamp + validity */\n      dup2\n      swap1\n      sstore\n      pop\n        /* \"EthereumDIDRegistry.sol\":3113:3121  identity */\n      dup7\n        /* \"EthereumDIDRegistry.sol\":3094:3193  DIDDelegateChanged(identity, delegateType, delegate, block.timestamp + validity, changed[identity]) */\n      0xffffffffffffffffffffffffffffffffffffffff\n      and\n      0x5a5084339536bcab65f20799fcc58724588145ca054bd2be626174b27ba156f7\n        /* \"EthereumDIDRegistry.sol\":3123:3135  delegateType */\n      dup7\n        /* \"EthereumDIDRegistry.sol\":3137:3145  delegate */\n      dup7\n        /* \"EthereumDIDRegistry.sol\":3165:3173  validity */\n      dup7\n        /* \"EthereumDIDRegistry.sol\":3147:3162  block.timestamp */\n      timestamp\n        /* \"EthereumDIDRegistry.sol\":3147:3173  block.timestamp + validity */\n      tag_191\n      swap2\n      swap1\n      tag_166\n      jump\t// in\n    tag_191:\n        /* \"EthereumDIDRegistry.sol\":3175:3182  changed */\n      0x02\n        /* \"EthereumDIDRegistry.sol\":3175:3192  changed[identity] */\n      0x00\n        /* \"EthereumDIDRegistry.sol\":3183:3191  identity */\n      dup14\n        /* \"EthereumDIDRegistry.sol\":3175:3192  changed[identity] */\n      0xffffffffffffffffffffffffffffffffffffffff\n      and\n      0xffffffffffffffffffffffffffffffffffffffff\n      and\n      dup2\n      mstore\n      0x20\n      add\n      swap1\n      dup2\n      mstore\n      0x20\n      add\n      0x00\n      keccak256\n      sload\n        /* \"EthereumDIDRegistry.sol\":3094:3193  DIDDelegateChanged(identity, delegateType, delegate, block.timestamp + validity, changed[identity]) */\n      mload(0x40)\n      tag_192\n      swap5\n      swap4\n      swap3\n      swap2\n      swap1\n      tag_183\n      jump\t// in\n    tag_192:\n      mload(0x40)\n      dup1\n      swap2\n      sub\n      swap1\n      log2\n        /* \"EthereumDIDRegistry.sol\":3223:3235  block.number */\n      number\n        /* \"EthereumDIDRegistry.sol\":3203:3210  changed */\n      0x02\n        /* \"EthereumDIDRegistry.sol\":3203:3220  changed[identity] */\n      0x00\n        /* \"EthereumDIDRegistry.sol\":3211:3219  identity */\n      dup10\n        /* \"EthereumDIDRegistry.sol\":3203:3220  changed[identity] */\n      0xffffffffffffffffffffffffffffffffffffffff\n      and\n      0xffffffffffffffffffffffffffffffffffffffff\n      and\n      dup2\n      mstore\n      0x20\n      add\n      swap1\n      dup2\n      mstore\n      0x20\n      add\n      0x00\n      keccak256\n        /* \"EthereumDIDRegistry.sol\":3203:3235  changed[identity] = block.number */\n      dup2\n      swap1\n      sstore\n      pop\n        /* \"EthereumDIDRegistry.sol\":2780:3242  function addDelegate(... */\n      pop\n      pop\n      pop\n      pop\n      pop\n      pop\n      pop\n      jump\t// out\n        /* \"#utility.yul\":7:82   */\n    tag_193:\n        /* \"#utility.yul\":40:46   */\n      0x00\n        /* \"#utility.yul\":73:75   */\n      0x40\n        /* \"#utility.yul\":67:76   */\n      mload\n        /* \"#utility.yul\":57:76   */\n      swap1\n      pop\n        /* \"#utility.yul\":7:82   */\n      swap1\n      jump\t// out\n        /* \"#utility.yul\":88:205   */\n    tag_194:\n        /* \"#utility.yul\":197:198   */\n      0x00\n        /* \"#utility.yul\":194:195   */\n      dup1\n        /* \"#utility.yul\":187:199   */\n      revert\n        /* \"#utility.yul\":211:328   */\n    tag_195:\n        /* \"#utility.yul\":320:321   */\n      0x00\n        /* \"#utility.yul\":317:318   */\n      dup1\n        /* \"#utility.yul\":310:322   */\n      revert\n        /* \"#utility.yul\":334:460   */\n    tag_196:\n        /* \"#utility.yul\":371:378   */\n      0x00\n        /* \"#utility.yul\":411:453   */\n      0xffffffffffffffffffffffffffffffffffffffff\n        /* \"#utility.yul\":404:409   */\n      dup3\n        /* \"#utility.yul\":400:454   */\n      and\n        /* \"#utility.yul\":389:454   */\n      swap1\n      pop\n        /* \"#utility.yul\":334:460   */\n      swap2\n      swap1\n      pop\n      jump\t// out\n        /* \"#utility.yul\":466:562   */\n    tag_197:\n        /* \"#utility.yul\":503:510   */\n      0x00\n        /* \"#utility.yul\":532:556   */\n      tag_273\n        /* \"#utility.yul\":550:555   */\n      dup3\n        /* \"#utility.yul\":532:556   */\n      tag_196\n      jump\t// in\n    tag_273:\n        /* \"#utility.yul\":521:556   */\n      swap1\n      pop\n        /* \"#utility.yul\":466:562   */\n      swap2\n      swap1\n      pop\n      jump\t// out\n        /* \"#utility.yul\":568:690   */\n    tag_198:\n        /* \"#utility.yul\":641:665   */\n      tag_275\n        /* \"#utility.yul\":659:664   */\n      dup2\n        /* \"#utility.yul\":641:665   */\n      tag_197\n      jump\t// in\n    tag_275:\n        /* \"#utility.yul\":634:639   */\n      dup2\n        /* \"#utility.yul\":631:666   */\n      eq\n        /* \"#utility.yul\":621:684   */\n      tag_276\n      jumpi\n        /* \"#utility.yul\":680:681   */\n      0x00\n        /* \"#utility.yul\":677:678   */\n      dup1\n        /* \"#utility.yul\":670:682   */\n      revert\n        /* \"#utility.yul\":621:684   */\n    tag_276:\n        /* \"#utility.yul\":568:690   */\n      pop\n      jump\t// out\n        /* \"#utility.yul\":696:835   */\n    tag_199:\n        /* \"#utility.yul\":742:747   */\n      0x00\n        /* \"#utility.yul\":780:786   */\n      dup2\n        /* \"#utility.yul\":767:787   */\n      calldataload\n        /* \"#utility.yul\":758:787   */\n      swap1\n      pop\n        /* \"#utility.yul\":796:829   */\n      tag_278\n        /* \"#utility.yul\":823:828   */\n      dup2\n        /* \"#utility.yul\":796:829   */\n      tag_198\n      jump\t// in\n    tag_278:\n        /* \"#utility.yul\":696:835   */\n      swap3\n      swap2\n      pop\n      pop\n      jump\t// out\n        /* \"#utility.yul\":841:918   */\n    tag_200:\n        /* \"#utility.yul\":878:885   */\n      0x00\n        /* \"#utility.yul\":907:912   */\n      dup2\n        /* \"#utility.yul\":896:912   */\n      swap1\n      pop\n        /* \"#utility.yul\":841:918   */\n      swap2\n      swap1\n      pop\n      jump\t// out\n        /* \"#utility.yul\":924:1046   */\n    tag_201:\n        /* \"#utility.yul\":997:1021   */\n      tag_281\n        /* \"#utility.yul\":1015:1020   */\n      dup2\n        /* \"#utility.yul\":997:1021   */\n      tag_200\n      jump\t// in\n    tag_281:\n        /* \"#utility.yul\":990:995   */\n      dup2\n        /* \"#utility.yul\":987:1022   */\n      eq\n        /* \"#utility.yul\":977:1040   */\n      tag_282\n      jumpi\n        /* \"#utility.yul\":1036:1037   */\n      0x00\n        /* \"#utility.yul\":1033:1034   */\n      dup1\n        /* \"#utility.yul\":1026:1038   */\n      revert\n        /* \"#utility.yul\":977:1040   */\n    tag_282:\n        /* \"#utility.yul\":924:1046   */\n      pop\n      jump\t// out\n        /* \"#utility.yul\":1052:1191   */\n    tag_202:\n        /* \"#utility.yul\":1098:1103   */\n      0x00\n        /* \"#utility.yul\":1136:1142   */\n      dup2\n        /* \"#utility.yul\":1123:1143   */\n      calldataload\n        /* \"#utility.yul\":1114:1143   */\n      swap1\n      pop\n        /* \"#utility.yul\":1152:1185   */\n      tag_284\n        /* \"#utility.yul\":1179:1184   */\n      dup2\n        /* \"#utility.yul\":1152:1185   */\n      tag_201\n      jump\t// in\n    tag_284:\n        /* \"#utility.yul\":1052:1191   */\n      swap3\n      swap2\n      pop\n      pop\n      jump\t// out\n        /* \"#utility.yul\":1197:1314   */\n    tag_203:\n        /* \"#utility.yul\":1306:1307   */\n      0x00\n        /* \"#utility.yul\":1303:1304   */\n      dup1\n        /* \"#utility.yul\":1296:1308   */\n      revert\n        /* \"#utility.yul\":1320:1437   */\n    tag_204:\n        /* \"#utility.yul\":1429:1430   */\n      0x00\n        /* \"#utility.yul\":1426:1427   */\n      dup1\n        /* \"#utility.yul\":1419:1431   */\n      revert\n        /* \"#utility.yul\":1443:1545   */\n    tag_205:\n        /* \"#utility.yul\":1484:1490   */\n      0x00\n        /* \"#utility.yul\":1535:1537   */\n      0x1f\n        /* \"#utility.yul\":1531:1538   */\n      not\n        /* \"#utility.yul\":1526:1528   */\n      0x1f\n        /* \"#utility.yul\":1519:1524   */\n      dup4\n        /* \"#utility.yul\":1515:1529   */\n      add\n        /* \"#utility.yul\":1511:1539   */\n      and\n        /* \"#utility.yul\":1501:1539   */\n      swap1\n      pop\n        /* \"#utility.yul\":1443:1545   */\n      swap2\n      swap1\n      pop\n      jump\t// out\n        /* \"#utility.yul\":1551:1731   */\n    tag_206:\n        /* \"#utility.yul\":1599:1676   */\n      0x4e487b7100000000000000000000000000000000000000000000000000000000\n        /* \"#utility.yul\":1596:1597   */\n      0x00\n        /* \"#utility.yul\":1589:1677   */\n      mstore\n        /* \"#utility.yul\":1696:1700   */\n      0x41\n        /* \"#utility.yul\":1693:1694   */\n      0x04\n        /* \"#utility.yul\":1686:1701   */\n      mstore\n        /* \"#utility.yul\":1720:1724   */\n      0x24\n        /* \"#utility.yul\":1717:1718   */\n      0x00\n        /* \"#utility.yul\":1710:1725   */\n      revert\n        /* \"#utility.yul\":1737:2018   */\n    tag_207:\n        /* \"#utility.yul\":1820:1847   */\n      tag_290\n        /* \"#utility.yul\":1842:1846   */\n      dup3\n        /* \"#utility.yul\":1820:1847   */\n      tag_205\n      jump\t// in\n    tag_290:\n        /* \"#utility.yul\":1812:1818   */\n      dup2\n        /* \"#utility.yul\":1808:1848   */\n      add\n        /* \"#utility.yul\":1950:1956   */\n      dup2\n        /* \"#utility.yul\":1938:1948   */\n      dup2\n        /* \"#utility.yul\":1935:1957   */\n      lt\n        /* \"#utility.yul\":1914:1932   */\n      0xffffffffffffffff\n        /* \"#utility.yul\":1902:1912   */\n      dup3\n        /* \"#utility.yul\":1899:1933   */\n      gt\n        /* \"#utility.yul\":1896:1958   */\n      or\n        /* \"#utility.yul\":1893:1981   */\n      iszero\n      tag_291\n      jumpi\n        /* \"#utility.yul\":1961:1979   */\n      tag_292\n      tag_206\n      jump\t// in\n    tag_292:\n        /* \"#utility.yul\":1893:1981   */\n    tag_291:\n        /* \"#utility.yul\":2001:2011   */\n      dup1\n        /* \"#utility.yul\":1997:1999   */\n      0x40\n        /* \"#utility.yul\":1990:2012   */\n      mstore\n        /* \"#utility.yul\":1780:2018   */\n      pop\n        /* \"#utility.yul\":1737:2018   */\n      pop\n      pop\n      jump\t// out\n        /* \"#utility.yul\":2024:2153   */\n    tag_208:\n        /* \"#utility.yul\":2058:2064   */\n      0x00\n        /* \"#utility.yul\":2085:2105   */\n      tag_294\n      tag_193\n      jump\t// in\n    tag_294:\n        /* \"#utility.yul\":2075:2105   */\n      swap1\n      pop\n        /* \"#utility.yul\":2114:2147   */\n      tag_295\n        /* \"#utility.yul\":2142:2146   */\n      dup3\n        /* \"#utility.yul\":2134:2140   */\n      dup3\n        /* \"#utility.yul\":2114:2147   */\n      tag_207\n      jump\t// in\n    tag_295:\n        /* \"#utility.yul\":2024:2153   */\n      swap2\n      swap1\n      pop\n      jump\t// out\n        /* \"#utility.yul\":2159:2466   */\n    tag_209:\n        /* \"#utility.yul\":2220:2224   */\n      0x00\n        /* \"#utility.yul\":2310:2328   */\n      0xffffffffffffffff\n        /* \"#utility.yul\":2302:2308   */\n      dup3\n        /* \"#utility.yul\":2299:2329   */\n      gt\n        /* \"#utility.yul\":2296:2352   */\n      iszero\n      tag_297\n      jumpi\n        /* \"#utility.yul\":2332:2350   */\n      tag_298\n      tag_206\n      jump\t// in\n    tag_298:\n        /* \"#utility.yul\":2296:2352   */\n    tag_297:\n        /* \"#utility.yul\":2370:2399   */\n      tag_299\n        /* \"#utility.yul\":2392:2398   */\n      dup3\n        /* \"#utility.yul\":2370:2399   */\n      tag_205\n      jump\t// in\n    tag_299:\n        /* \"#utility.yul\":2362:2399   */\n      swap1\n      pop\n        /* \"#utility.yul\":2454:2458   */\n      0x20\n        /* \"#utility.yul\":2448:2452   */\n      dup2\n        /* \"#utility.yul\":2444:2459   */\n      add\n        /* \"#utility.yul\":2436:2459   */\n      swap1\n      pop\n        /* \"#utility.yul\":2159:2466   */\n      swap2\n      swap1\n      pop\n      jump\t// out\n        /* \"#utility.yul\":2472:2626   */\n    tag_210:\n        /* \"#utility.yul\":2556:2562   */\n      dup3\n        /* \"#utility.yul\":2551:2554   */\n      dup2\n        /* \"#utility.yul\":2546:2549   */\n      dup4\n        /* \"#utility.yul\":2533:2563   */\n      calldatacopy\n        /* \"#utility.yul\":2618:2619   */\n      0x00\n        /* \"#utility.yul\":2609:2615   */\n      dup4\n        /* \"#utility.yul\":2604:2607   */\n      dup4\n        /* \"#utility.yul\":2600:2616   */\n      add\n        /* \"#utility.yul\":2593:2620   */\n      mstore\n        /* \"#utility.yul\":2472:2626   */\n      pop\n      pop\n      pop\n      jump\t// out\n        /* \"#utility.yul\":2632:3042   */\n    tag_211:\n        /* \"#utility.yul\":2709:2714   */\n      0x00\n        /* \"#utility.yul\":2734:2799   */\n      tag_302\n        /* \"#utility.yul\":2750:2798   */\n      tag_303\n        /* \"#utility.yul\":2791:2797   */\n      dup5\n        /* \"#utility.yul\":2750:2798   */\n      tag_209\n      jump\t// in\n    tag_303:\n        /* \"#utility.yul\":2734:2799   */\n      tag_208\n      jump\t// in\n    tag_302:\n        /* \"#utility.yul\":2725:2799   */\n      swap1\n      pop\n        /* \"#utility.yul\":2822:2828   */\n      dup3\n        /* \"#utility.yul\":2815:2820   */\n      dup2\n        /* \"#utility.yul\":2808:2829   */\n      mstore\n        /* \"#utility.yul\":2860:2864   */\n      0x20\n        /* \"#utility.yul\":2853:2858   */\n      dup2\n        /* \"#utility.yul\":2849:2865   */\n      add\n        /* \"#utility.yul\":2898:2901   */\n      dup5\n        /* \"#utility.yul\":2889:2895   */\n      dup5\n        /* \"#utility.yul\":2884:2887   */\n      dup5\n        /* \"#utility.yul\":2880:2896   */\n      add\n        /* \"#utility.yul\":2877:2902   */\n      gt\n        /* \"#utility.yul\":2874:2986   */\n      iszero\n      tag_304\n      jumpi\n        /* \"#utility.yul\":2905:2984   */\n      tag_305\n      tag_204\n      jump\t// in\n    tag_305:\n        /* \"#utility.yul\":2874:2986   */\n    tag_304:\n        /* \"#utility.yul\":2995:3036   */\n      tag_306\n        /* \"#utility.yul\":3029:3035   */\n      dup5\n        /* \"#utility.yul\":3024:3027   */\n      dup3\n        /* \"#utility.yul\":3019:3022   */\n      dup6\n        /* \"#utility.yul\":2995:3036   */\n      tag_210\n      jump\t// in\n    tag_306:\n        /* \"#utility.yul\":2715:3042   */\n      pop\n        /* \"#utility.yul\":2632:3042   */\n      swap4\n      swap3\n      pop\n      pop\n      pop\n      jump\t// out\n        /* \"#utility.yul\":3061:3399   */\n    tag_212:\n        /* \"#utility.yul\":3116:3121   */\n      0x00\n        /* \"#utility.yul\":3165:3168   */\n      dup3\n        /* \"#utility.yul\":3158:3162   */\n      0x1f\n        /* \"#utility.yul\":3150:3156   */\n      dup4\n        /* \"#utility.yul\":3146:3163   */\n      add\n        /* \"#utility.yul\":3142:3169   */\n      slt\n        /* \"#utility.yul\":3132:3254   */\n      tag_308\n      jumpi\n        /* \"#utility.yul\":3173:3252   */\n      tag_309\n      tag_203\n      jump\t// in\n    tag_309:\n        /* \"#utility.yul\":3132:3254   */\n    tag_308:\n        /* \"#utility.yul\":3290:3296   */\n      dup2\n        /* \"#utility.yul\":3277:3297   */\n      calldataload\n        /* \"#utility.yul\":3315:3393   */\n      tag_310\n        /* \"#utility.yul\":3389:3392   */\n      dup5\n        /* \"#utility.yul\":3381:3387   */\n      dup3\n        /* \"#utility.yul\":3374:3378   */\n      0x20\n        /* \"#utility.yul\":3366:3372   */\n      dup7\n        /* \"#utility.yul\":3362:3379   */\n      add\n        /* \"#utility.yul\":3315:3393   */\n      tag_211\n      jump\t// in\n    tag_310:\n        /* \"#utility.yul\":3306:3393   */\n      swap2\n      pop\n        /* \"#utility.yul\":3122:3399   */\n      pop\n        /* \"#utility.yul\":3061:3399   */\n      swap3\n      swap2\n      pop\n      pop\n      jump\t// out\n        /* \"#utility.yul\":3405:4202   */\n    tag_24:\n        /* \"#utility.yul\":3491:3497   */\n      0x00\n        /* \"#utility.yul\":3499:3505   */\n      dup1\n        /* \"#utility.yul\":3507:3513   */\n      0x00\n        /* \"#utility.yul\":3556:3558   */\n      0x60\n        /* \"#utility.yul\":3544:3553   */\n      dup5\n        /* \"#utility.yul\":3535:3542   */\n      dup7\n        /* \"#utility.yul\":3531:3554   */\n      sub\n        /* \"#utility.yul\":3527:3559   */\n      slt\n        /* \"#utility.yul\":3524:3643   */\n      iszero\n      tag_312\n      jumpi\n        /* \"#utility.yul\":3562:3641   */\n      tag_313\n      tag_194\n      jump\t// in\n    tag_313:\n        /* \"#utility.yul\":3524:3643   */\n    tag_312:\n        /* \"#utility.yul\":3682:3683   */\n      0x00\n        /* \"#utility.yul\":3707:3760   */\n      tag_314\n        /* \"#utility.yul\":3752:3759   */\n      dup7\n        /* \"#utility.yul\":3743:3749   */\n      dup3\n        /* \"#utility.yul\":3732:3741   */\n      dup8\n        /* \"#utility.yul\":3728:3750   */\n      add\n        /* \"#utility.yul\":3707:3760   */\n      tag_199\n      jump\t// in\n    tag_314:\n        /* \"#utility.yul\":3697:3760   */\n      swap4\n      pop\n        /* \"#utility.yul\":3653:3770   */\n      pop\n        /* \"#utility.yul\":3809:3811   */\n      0x20\n        /* \"#utility.yul\":3835:3888   */\n      tag_315\n        /* \"#utility.yul\":3880:3887   */\n      dup7\n        /* \"#utility.yul\":3871:3877   */\n      dup3\n        /* \"#utility.yul\":3860:3869   */\n      dup8\n        /* \"#utility.yul\":3856:3878   */\n      add\n        /* \"#utility.yul\":3835:3888   */\n      tag_202\n      jump\t// in\n    tag_315:\n        /* \"#utility.yul\":3825:3888   */\n      swap3\n      pop\n        /* \"#utility.yul\":3780:3898   */\n      pop\n        /* \"#utility.yul\":3965:3967   */\n      0x40\n        /* \"#utility.yul\":3954:3963   */\n      dup5\n        /* \"#utility.yul\":3950:3968   */\n      add\n        /* \"#utility.yul\":3937:3969   */\n      calldataload\n        /* \"#utility.yul\":3996:4014   */\n      0xffffffffffffffff\n        /* \"#utility.yul\":3988:3994   */\n      dup2\n        /* \"#utility.yul\":3985:4015   */\n      gt\n        /* \"#utility.yul\":3982:4099   */\n      iszero\n      tag_316\n      jumpi\n        /* \"#utility.yul\":4018:4097   */\n      tag_317\n      tag_195\n      jump\t// in\n    tag_317:\n        /* \"#utility.yul\":3982:4099   */\n    tag_316:\n        /* \"#utility.yul\":4123:4185   */\n      tag_318\n        /* \"#utility.yul\":4177:4184   */\n      dup7\n        /* \"#utility.yul\":4168:4174   */\n      dup3\n        /* \"#utility.yul\":4157:4166   */\n      dup8\n        /* \"#utility.yul\":4153:4175   */\n      add\n        /* \"#utility.yul\":4123:4185   */\n      tag_212\n      jump\t// in\n    tag_318:\n        /* \"#utility.yul\":4113:4185   */\n      swap2\n      pop\n        /* \"#utility.yul\":3908:4195   */\n      pop\n        /* \"#utility.yul\":3405:4202   */\n      swap3\n      pop\n      swap3\n      pop\n      swap3\n      jump\t// out\n        /* \"#utility.yul\":4208:4537   */\n    tag_28:\n        /* \"#utility.yul\":4267:4273   */\n      0x00\n        /* \"#utility.yul\":4316:4318   */\n      0x20\n        /* \"#utility.yul\":4304:4313   */\n      dup3\n        /* \"#utility.yul\":4295:4302   */\n      dup5\n        /* \"#utility.yul\":4291:4314   */\n      sub\n        /* \"#utility.yul\":4287:4319   */\n      slt\n        /* \"#utility.yul\":4284:4403   */\n      iszero\n      tag_320\n      jumpi\n        /* \"#utility.yul\":4322:4401   */\n      tag_321\n      tag_194\n      jump\t// in\n    tag_321:\n        /* \"#utility.yul\":4284:4403   */\n    tag_320:\n        /* \"#utility.yul\":4442:4443   */\n      0x00\n        /* \"#utility.yul\":4467:4520   */\n      tag_322\n        /* \"#utility.yul\":4512:4519   */\n      dup5\n        /* \"#utility.yul\":4503:4509   */\n      dup3\n        /* \"#utility.yul\":4492:4501   */\n      dup6\n        /* \"#utility.yul\":4488:4510   */\n      add\n        /* \"#utility.yul\":4467:4520   */\n      tag_199\n      jump\t// in\n    tag_322:\n        /* \"#utility.yul\":4457:4520   */\n      swap2\n      pop\n        /* \"#utility.yul\":4413:4530   */\n      pop\n        /* \"#utility.yul\":4208:4537   */\n      swap3\n      swap2\n      pop\n      pop\n      jump\t// out\n        /* \"#utility.yul\":4543:4661   */\n    tag_213:\n        /* \"#utility.yul\":4630:4654   */\n      tag_324\n        /* \"#utility.yul\":4648:4653   */\n      dup2\n        /* \"#utility.yul\":4630:4654   */\n      tag_197\n      jump\t// in\n    tag_324:\n        /* \"#utility.yul\":4625:4628   */\n      dup3\n        /* \"#utility.yul\":4618:4655   */\n      mstore\n        /* \"#utility.yul\":4543:4661   */\n      pop\n      pop\n      jump\t// out\n        /* \"#utility.yul\":4667:4889   */\n    tag_31:\n        /* \"#utility.yul\":4760:4764   */\n      0x00\n        /* \"#utility.yul\":4798:4800   */\n      0x20\n        /* \"#utility.yul\":4787:4796   */\n      dup3\n        /* \"#utility.yul\":4783:4801   */\n      add\n        /* \"#utility.yul\":4775:4801   */\n      swap1\n      pop\n        /* \"#utility.yul\":4811:4882   */\n      tag_326\n        /* \"#utility.yul\":4879:4880   */\n      0x00\n        /* \"#utility.yul\":4868:4877   */\n      dup4\n        /* \"#utility.yul\":4864:4881   */\n      add\n        /* \"#utility.yul\":4855:4861   */\n      dup5\n        /* \"#utility.yul\":4811:4882   */\n      tag_213\n      jump\t// in\n    tag_326:\n        /* \"#utility.yul\":4667:4889   */\n      swap3\n      swap2\n      pop\n      pop\n      jump\t// out\n        /* \"#utility.yul\":4895:5514   */\n    tag_34:\n        /* \"#utility.yul\":4972:4978   */\n      0x00\n        /* \"#utility.yul\":4980:4986   */\n      dup1\n        /* \"#utility.yul\":4988:4994   */\n      0x00\n        /* \"#utility.yul\":5037:5039   */\n      0x60\n        /* \"#utility.yul\":5025:5034   */\n      dup5\n        /* \"#utility.yul\":5016:5023   */\n      dup7\n        /* \"#utility.yul\":5012:5035   */\n      sub\n        /* \"#utility.yul\":5008:5040   */\n      slt\n        /* \"#utility.yul\":5005:5124   */\n      iszero\n      tag_328\n      jumpi\n        /* \"#utility.yul\":5043:5122   */\n      tag_329\n      tag_194\n      jump\t// in\n    tag_329:\n        /* \"#utility.yul\":5005:5124   */\n    tag_328:\n        /* \"#utility.yul\":5163:5164   */\n      0x00\n        /* \"#utility.yul\":5188:5241   */\n      tag_330\n        /* \"#utility.yul\":5233:5240   */\n      dup7\n        /* \"#utility.yul\":5224:5230   */\n      dup3\n        /* \"#utility.yul\":5213:5222   */\n      dup8\n        /* \"#utility.yul\":5209:5231   */\n      add\n        /* \"#utility.yul\":5188:5241   */\n      tag_199\n      jump\t// in\n    tag_330:\n        /* \"#utility.yul\":5178:5241   */\n      swap4\n      pop\n        /* \"#utility.yul\":5134:5251   */\n      pop\n        /* \"#utility.yul\":5290:5292   */\n      0x20\n        /* \"#utility.yul\":5316:5369   */\n      tag_331\n        /* \"#utility.yul\":5361:5368   */\n      dup7\n        /* \"#utility.yul\":5352:5358   */\n      dup3\n        /* \"#utility.yul\":5341:5350   */\n      dup8\n        /* \"#utility.yul\":5337:5359   */\n      add\n        /* \"#utility.yul\":5316:5369   */\n      tag_202\n      jump\t// in\n    tag_331:\n        /* \"#utility.yul\":5306:5369   */\n      swap3\n      pop\n        /* \"#utility.yul\":5261:5379   */\n      pop\n        /* \"#utility.yul\":5418:5420   */\n      0x40\n        /* \"#utility.yul\":5444:5497   */\n      tag_332\n        /* \"#utility.yul\":5489:5496   */\n      dup7\n        /* \"#utility.yul\":5480:5486   */\n      dup3\n        /* \"#utility.yul\":5469:5478   */\n      dup8\n        /* \"#utility.yul\":5465:5487   */\n      add\n        /* \"#utility.yul\":5444:5497   */\n      tag_199\n      jump\t// in\n    tag_332:\n        /* \"#utility.yul\":5434:5497   */\n      swap2\n      pop\n        /* \"#utility.yul\":5389:5507   */\n      pop\n        /* \"#utility.yul\":4895:5514   */\n      swap3\n      pop\n      swap3\n      pop\n      swap3\n      jump\t// out\n        /* \"#utility.yul\":5520:5597   */\n    tag_214:\n        /* \"#utility.yul\":5557:5564   */\n      0x00\n        /* \"#utility.yul\":5586:5591   */\n      dup2\n        /* \"#utility.yul\":5575:5591   */\n      swap1\n      pop\n        /* \"#utility.yul\":5520:5597   */\n      swap2\n      swap1\n      pop\n      jump\t// out\n        /* \"#utility.yul\":5603:5721   */\n    tag_215:\n        /* \"#utility.yul\":5690:5714   */\n      tag_335\n        /* \"#utility.yul\":5708:5713   */\n      dup2\n        /* \"#utility.yul\":5690:5714   */\n      tag_214\n      jump\t// in\n    tag_335:\n        /* \"#utility.yul\":5685:5688   */\n      dup3\n        /* \"#utility.yul\":5678:5715   */\n      mstore\n        /* \"#utility.yul\":5603:5721   */\n      pop\n      pop\n      jump\t// out\n        /* \"#utility.yul\":5727:5949   */\n    tag_37:\n        /* \"#utility.yul\":5820:5824   */\n      0x00\n        /* \"#utility.yul\":5858:5860   */\n      0x20\n        /* \"#utility.yul\":5847:5856   */\n      dup3\n        /* \"#utility.yul\":5843:5861   */\n      add\n        /* \"#utility.yul\":5835:5861   */\n      swap1\n      pop\n        /* \"#utility.yul\":5871:5942   */\n      tag_337\n        /* \"#utility.yul\":5939:5940   */\n      0x00\n        /* \"#utility.yul\":5928:5937   */\n      dup4\n        /* \"#utility.yul\":5924:5941   */\n      add\n        /* \"#utility.yul\":5915:5921   */\n      dup5\n        /* \"#utility.yul\":5871:5942   */\n      tag_215\n      jump\t// in\n    tag_337:\n        /* \"#utility.yul\":5727:5949   */\n      swap3\n      swap2\n      pop\n      pop\n      jump\t// out\n        /* \"#utility.yul\":5955:6041   */\n    tag_216:\n        /* \"#utility.yul\":5990:5997   */\n      0x00\n        /* \"#utility.yul\":6030:6034   */\n      0xff\n        /* \"#utility.yul\":6023:6028   */\n      dup3\n        /* \"#utility.yul\":6019:6035   */\n      and\n        /* \"#utility.yul\":6008:6035   */\n      swap1\n      pop\n        /* \"#utility.yul\":5955:6041   */\n      swap2\n      swap1\n      pop\n      jump\t// out\n        /* \"#utility.yul\":6047:6165   */\n    tag_217:\n        /* \"#utility.yul\":6118:6140   */\n      tag_340\n        /* \"#utility.yul\":6134:6139   */\n      dup2\n        /* \"#utility.yul\":6118:6140   */\n      tag_216\n      jump\t// in\n    tag_340:\n        /* \"#utility.yul\":6111:6116   */\n      dup2\n        /* \"#utility.yul\":6108:6141   */\n      eq\n        /* \"#utility.yul\":6098:6159   */\n      tag_341\n      jumpi\n        /* \"#utility.yul\":6155:6156   */\n      0x00\n        /* \"#utility.yul\":6152:6153   */\n      dup1\n        /* \"#utility.yul\":6145:6157   */\n      revert\n        /* \"#utility.yul\":6098:6159   */\n    tag_341:\n        /* \"#utility.yul\":6047:6165   */\n      pop\n      jump\t// out\n        /* \"#utility.yul\":6171:6306   */\n    tag_218:\n        /* \"#utility.yul\":6215:6220   */\n      0x00\n        /* \"#utility.yul\":6253:6259   */\n      dup2\n        /* \"#utility.yul\":6240:6260   */\n      calldataload\n        /* \"#utility.yul\":6231:6260   */\n      swap1\n      pop\n        /* \"#utility.yul\":6269:6300   */\n      tag_343\n        /* \"#utility.yul\":6294:6299   */\n      dup2\n        /* \"#utility.yul\":6269:6300   */\n      tag_217\n      jump\t// in\n    tag_343:\n        /* \"#utility.yul\":6171:6306   */\n      swap3\n      swap2\n      pop\n      pop\n      jump\t// out\n        /* \"#utility.yul\":6312:6434   */\n    tag_219:\n        /* \"#utility.yul\":6385:6409   */\n      tag_345\n        /* \"#utility.yul\":6403:6408   */\n      dup2\n        /* \"#utility.yul\":6385:6409   */\n      tag_214\n      jump\t// in\n    tag_345:\n        /* \"#utility.yul\":6378:6383   */\n      dup2\n        /* \"#utility.yul\":6375:6410   */\n      eq\n        /* \"#utility.yul\":6365:6428   */\n      tag_346\n      jumpi\n        /* \"#utility.yul\":6424:6425   */\n      0x00\n        /* \"#utility.yul\":6421:6422   */\n      dup1\n        /* \"#utility.yul\":6414:6426   */\n      revert\n        /* \"#utility.yul\":6365:6428   */\n    tag_346:\n        /* \"#utility.yul\":6312:6434   */\n      pop\n      jump\t// out\n        /* \"#utility.yul\":6440:6579   */\n    tag_220:\n        /* \"#utility.yul\":6486:6491   */\n      0x00\n        /* \"#utility.yul\":6524:6530   */\n      dup2\n        /* \"#utility.yul\":6511:6531   */\n      calldataload\n        /* \"#utility.yul\":6502:6531   */\n      swap1\n      pop\n        /* \"#utility.yul\":6540:6573   */\n      tag_348\n        /* \"#utility.yul\":6567:6572   */\n      dup2\n        /* \"#utility.yul\":6540:6573   */\n      tag_219\n      jump\t// in\n    tag_348:\n        /* \"#utility.yul\":6440:6579   */\n      swap3\n      swap2\n      pop\n      pop\n      jump\t// out\n        /* \"#utility.yul\":6585:7962   */\n    tag_40:\n        /* \"#utility.yul\":6705:6711   */\n      0x00\n        /* \"#utility.yul\":6713:6719   */\n      dup1\n        /* \"#utility.yul\":6721:6727   */\n      0x00\n        /* \"#utility.yul\":6729:6735   */\n      dup1\n        /* \"#utility.yul\":6737:6743   */\n      0x00\n        /* \"#utility.yul\":6745:6751   */\n      dup1\n        /* \"#utility.yul\":6753:6759   */\n      0x00\n        /* \"#utility.yul\":6802:6805   */\n      0xe0\n        /* \"#utility.yul\":6790:6799   */\n      dup9\n        /* \"#utility.yul\":6781:6788   */\n      dup11\n        /* \"#utility.yul\":6777:6800   */\n      sub\n        /* \"#utility.yul\":6773:6806   */\n      slt\n        /* \"#utility.yul\":6770:6890   */\n      iszero\n      tag_350\n      jumpi\n        /* \"#utility.yul\":6809:6888   */\n      tag_351\n      tag_194\n      jump\t// in\n    tag_351:\n        /* \"#utility.yul\":6770:6890   */\n    tag_350:\n        /* \"#utility.yul\":6929:6930   */\n      0x00\n        /* \"#utility.yul\":6954:7007   */\n      tag_352\n        /* \"#utility.yul\":6999:7006   */\n      dup11\n        /* \"#utility.yul\":6990:6996   */\n      dup3\n        /* \"#utility.yul\":6979:6988   */\n      dup12\n        /* \"#utility.yul\":6975:6997   */\n      add\n        /* \"#utility.yul\":6954:7007   */\n      tag_199\n      jump\t// in\n    tag_352:\n        /* \"#utility.yul\":6944:7007   */\n      swap8\n      pop\n        /* \"#utility.yul\":6900:7017   */\n      pop\n        /* \"#utility.yul\":7056:7058   */\n      0x20\n        /* \"#utility.yul\":7082:7133   */\n      tag_353\n        /* \"#utility.yul\":7125:7132   */\n      dup11\n        /* \"#utility.yul\":7116:7122   */\n      dup3\n        /* \"#utility.yul\":7105:7114   */\n      dup12\n        /* \"#utility.yul\":7101:7123   */\n      add\n        /* \"#utility.yul\":7082:7133   */\n      tag_218\n      jump\t// in\n    tag_353:\n        /* \"#utility.yul\":7072:7133   */\n      swap7\n      pop\n        /* \"#utility.yul\":7027:7143   */\n      pop\n        /* \"#utility.yul\":7182:7184   */\n      0x40\n        /* \"#utility.yul\":7208:7261   */\n      tag_354\n        /* \"#utility.yul\":7253:7260   */\n      dup11\n        /* \"#utility.yul\":7244:7250   */\n      dup3\n        /* \"#utility.yul\":7233:7242   */\n      dup12\n        /* \"#utility.yul\":7229:7251   */\n      add\n        /* \"#utility.yul\":7208:7261   */\n      tag_202\n      jump\t// in\n    tag_354:\n        /* \"#utility.yul\":7198:7261   */\n      swap6\n      pop\n        /* \"#utility.yul\":7153:7271   */\n      pop\n        /* \"#utility.yul\":7310:7312   */\n      0x60\n        /* \"#utility.yul\":7336:7389   */\n      tag_355\n        /* \"#utility.yul\":7381:7388   */\n      dup11\n        /* \"#utility.yul\":7372:7378   */\n      dup3\n        /* \"#utility.yul\":7361:7370   */\n      dup12\n        /* \"#utility.yul\":7357:7379   */\n      add\n        /* \"#utility.yul\":7336:7389   */\n      tag_202\n      jump\t// in\n    tag_355:\n        /* \"#utility.yul\":7326:7389   */\n      swap5\n      pop\n        /* \"#utility.yul\":7281:7399   */\n      pop\n        /* \"#utility.yul\":7438:7441   */\n      0x80\n        /* \"#utility.yul\":7465:7518   */\n      tag_356\n        /* \"#utility.yul\":7510:7517   */\n      dup11\n        /* \"#utility.yul\":7501:7507   */\n      dup3\n        /* \"#utility.yul\":7490:7499   */\n      dup12\n        /* \"#utility.yul\":7486:7508   */\n      add\n        /* \"#utility.yul\":7465:7518   */\n      tag_202\n      jump\t// in\n    tag_356:\n        /* \"#utility.yul\":7455:7518   */\n      swap4\n      pop\n        /* \"#utility.yul\":7409:7528   */\n      pop\n        /* \"#utility.yul\":7595:7598   */\n      0xa0\n        /* \"#utility.yul\":7584:7593   */\n      dup9\n        /* \"#utility.yul\":7580:7599   */\n      add\n        /* \"#utility.yul\":7567:7600   */\n      calldataload\n        /* \"#utility.yul\":7627:7645   */\n      0xffffffffffffffff\n        /* \"#utility.yul\":7619:7625   */\n      dup2\n        /* \"#utility.yul\":7616:7646   */\n      gt\n        /* \"#utility.yul\":7613:7730   */\n      iszero\n      tag_357\n      jumpi\n        /* \"#utility.yul\":7649:7728   */\n      tag_358\n      tag_195\n      jump\t// in\n    tag_358:\n        /* \"#utility.yul\":7613:7730   */\n    tag_357:\n        /* \"#utility.yul\":7754:7816   */\n      tag_359\n        /* \"#utility.yul\":7808:7815   */\n      dup11\n        /* \"#utility.yul\":7799:7805   */\n      dup3\n        /* \"#utility.yul\":7788:7797   */\n      dup12\n        /* \"#utility.yul\":7784:7806   */\n      add\n        /* \"#utility.yul\":7754:7816   */\n      tag_212\n      jump\t// in\n    tag_359:\n        /* \"#utility.yul\":7744:7816   */\n      swap3\n      pop\n        /* \"#utility.yul\":7538:7826   */\n      pop\n        /* \"#utility.yul\":7865:7868   */\n      0xc0\n        /* \"#utility.yul\":7892:7945   */\n      tag_360\n        /* \"#utility.yul\":7937:7944   */\n      dup11\n        /* \"#utility.yul\":7928:7934   */\n      dup3\n        /* \"#utility.yul\":7917:7926   */\n      dup12\n        /* \"#utility.yul\":7913:7935   */\n      add\n        /* \"#utility.yul\":7892:7945   */\n      tag_220\n      jump\t// in\n    tag_360:\n        /* \"#utility.yul\":7882:7945   */\n      swap2\n      pop\n        /* \"#utility.yul\":7836:7955   */\n      pop\n        /* \"#utility.yul\":6585:7962   */\n      swap3\n      swap6\n      swap9\n      swap2\n      swap5\n      swap8\n      pop\n      swap3\n      swap6\n      pop\n      jump\t// out\n        /* \"#utility.yul\":7968:8875   */\n    tag_44:\n        /* \"#utility.yul\":8061:8067   */\n      0x00\n        /* \"#utility.yul\":8069:8075   */\n      dup1\n        /* \"#utility.yul\":8077:8083   */\n      0x00\n        /* \"#utility.yul\":8085:8091   */\n      dup1\n        /* \"#utility.yul\":8093:8099   */\n      0x00\n        /* \"#utility.yul\":8142:8145   */\n      0xa0\n        /* \"#utility.yul\":8130:8139   */\n      dup7\n        /* \"#utility.yul\":8121:8128   */\n      dup9\n        /* \"#utility.yul\":8117:8140   */\n      sub\n        /* \"#utility.yul\":8113:8146   */\n      slt\n        /* \"#utility.yul\":8110:8230   */\n      iszero\n      tag_362\n      jumpi\n        /* \"#utility.yul\":8149:8228   */\n      tag_363\n      tag_194\n      jump\t// in\n    tag_363:\n        /* \"#utility.yul\":8110:8230   */\n    tag_362:\n        /* \"#utility.yul\":8269:8270   */\n      0x00\n        /* \"#utility.yul\":8294:8347   */\n      tag_364\n        /* \"#utility.yul\":8339:8346   */\n      dup9\n        /* \"#utility.yul\":8330:8336   */\n      dup3\n        /* \"#utility.yul\":8319:8328   */\n      dup10\n        /* \"#utility.yul\":8315:8337   */\n      add\n        /* \"#utility.yul\":8294:8347   */\n      tag_199\n      jump\t// in\n    tag_364:\n        /* \"#utility.yul\":8284:8347   */\n      swap6\n      pop\n        /* \"#utility.yul\":8240:8357   */\n      pop\n        /* \"#utility.yul\":8396:8398   */\n      0x20\n        /* \"#utility.yul\":8422:8473   */\n      tag_365\n        /* \"#utility.yul\":8465:8472   */\n      dup9\n        /* \"#utility.yul\":8456:8462   */\n      dup3\n        /* \"#utility.yul\":8445:8454   */\n      dup10\n        /* \"#utility.yul\":8441:8463   */\n      add\n        /* \"#utility.yul\":8422:8473   */\n      tag_218\n      jump\t// in\n    tag_365:\n        /* \"#utility.yul\":8412:8473   */\n      swap5\n      pop\n        /* \"#utility.yul\":8367:8483   */\n      pop\n        /* \"#utility.yul\":8522:8524   */\n      0x40\n        /* \"#utility.yul\":8548:8601   */\n      tag_366\n        /* \"#utility.yul\":8593:8600   */\n      dup9\n        /* \"#utility.yul\":8584:8590   */\n      dup3\n        /* \"#utility.yul\":8573:8582   */\n      dup10\n        /* \"#utility.yul\":8569:8591   */\n      add\n        /* \"#utility.yul\":8548:8601   */\n      tag_202\n      jump\t// in\n    tag_366:\n        /* \"#utility.yul\":8538:8601   */\n      swap4\n      pop\n        /* \"#utility.yul\":8493:8611   */\n      pop\n        /* \"#utility.yul\":8650:8652   */\n      0x60\n        /* \"#utility.yul\":8676:8729   */\n      tag_367\n        /* \"#utility.yul\":8721:8728   */\n      dup9\n        /* \"#utility.yul\":8712:8718   */\n      dup3\n        /* \"#utility.yul\":8701:8710   */\n      dup10\n        /* \"#utility.yul\":8697:8719   */\n      add\n        /* \"#utility.yul\":8676:8729   */\n      tag_202\n      jump\t// in\n    tag_367:\n        /* \"#utility.yul\":8666:8729   */\n      swap3\n      pop\n        /* \"#utility.yul\":8621:8739   */\n      pop\n        /* \"#utility.yul\":8778:8781   */\n      0x80\n        /* \"#utility.yul\":8805:8858   */\n      tag_368\n        /* \"#utility.yul\":8850:8857   */\n      dup9\n        /* \"#utility.yul\":8841:8847   */\n      dup3\n        /* \"#utility.yul\":8830:8839   */\n      dup10\n        /* \"#utility.yul\":8826:8848   */\n      add\n        /* \"#utility.yul\":8805:8858   */\n      tag_199\n      jump\t// in\n    tag_368:\n        /* \"#utility.yul\":8795:8858   */\n      swap2\n      pop\n        /* \"#utility.yul\":8749:8868   */\n      pop\n        /* \"#utility.yul\":7968:8875   */\n      swap3\n      swap6\n      pop\n      swap3\n      swap6\n      swap1\n      swap4\n      pop\n      jump\t// out\n        /* \"#utility.yul\":8881:8971   */\n    tag_221:\n        /* \"#utility.yul\":8915:8922   */\n      0x00\n        /* \"#utility.yul\":8958:8963   */\n      dup2\n        /* \"#utility.yul\":8951:8964   */\n      iszero\n        /* \"#utility.yul\":8944:8965   */\n      iszero\n        /* \"#utility.yul\":8933:8965   */\n      swap1\n      pop\n        /* \"#utility.yul\":8881:8971   */\n      swap2\n      swap1\n      pop\n      jump\t// out\n        /* \"#utility.yul\":8977:9086   */\n    tag_222:\n        /* \"#utility.yul\":9058:9079   */\n      tag_371\n        /* \"#utility.yul\":9073:9078   */\n      dup2\n        /* \"#utility.yul\":9058:9079   */\n      tag_221\n      jump\t// in\n    tag_371:\n        /* \"#utility.yul\":9053:9056   */\n      dup3\n        /* \"#utility.yul\":9046:9080   */\n      mstore\n        /* \"#utility.yul\":8977:9086   */\n      pop\n      pop\n      jump\t// out\n        /* \"#utility.yul\":9092:9302   */\n    tag_50:\n        /* \"#utility.yul\":9179:9183   */\n      0x00\n        /* \"#utility.yul\":9217:9219   */\n      0x20\n        /* \"#utility.yul\":9206:9215   */\n      dup3\n        /* \"#utility.yul\":9202:9220   */\n      add\n        /* \"#utility.yul\":9194:9220   */\n      swap1\n      pop\n        /* \"#utility.yul\":9230:9295   */\n      tag_373\n        /* \"#utility.yul\":9292:9293   */\n      0x00\n        /* \"#utility.yul\":9281:9290   */\n      dup4\n        /* \"#utility.yul\":9277:9294   */\n      add\n        /* \"#utility.yul\":9268:9274   */\n      dup5\n        /* \"#utility.yul\":9230:9295   */\n      tag_222\n      jump\t// in\n    tag_373:\n        /* \"#utility.yul\":9092:9302   */\n      swap3\n      swap2\n      pop\n      pop\n      jump\t// out\n        /* \"#utility.yul\":9308:10251   */\n    tag_57:\n        /* \"#utility.yul\":9403:9409   */\n      0x00\n        /* \"#utility.yul\":9411:9417   */\n      dup1\n        /* \"#utility.yul\":9419:9425   */\n      0x00\n        /* \"#utility.yul\":9427:9433   */\n      dup1\n        /* \"#utility.yul\":9476:9479   */\n      0x80\n        /* \"#utility.yul\":9464:9473   */\n      dup6\n        /* \"#utility.yul\":9455:9462   */\n      dup8\n        /* \"#utility.yul\":9451:9474   */\n      sub\n        /* \"#utility.yul\":9447:9480   */\n      slt\n        /* \"#utility.yul\":9444:9564   */\n      iszero\n      tag_375\n      jumpi\n        /* \"#utility.yul\":9483:9562   */\n      tag_376\n      tag_194\n      jump\t// in\n    tag_376:\n        /* \"#utility.yul\":9444:9564   */\n    tag_375:\n        /* \"#utility.yul\":9603:9604   */\n      0x00\n        /* \"#utility.yul\":9628:9681   */\n      tag_377\n        /* \"#utility.yul\":9673:9680   */\n      dup8\n        /* \"#utility.yul\":9664:9670   */\n      dup3\n        /* \"#utility.yul\":9653:9662   */\n      dup9\n        /* \"#utility.yul\":9649:9671   */\n      add\n        /* \"#utility.yul\":9628:9681   */\n      tag_199\n      jump\t// in\n    tag_377:\n        /* \"#utility.yul\":9618:9681   */\n      swap5\n      pop\n        /* \"#utility.yul\":9574:9691   */\n      pop\n        /* \"#utility.yul\":9730:9732   */\n      0x20\n        /* \"#utility.yul\":9756:9809   */\n      tag_378\n        /* \"#utility.yul\":9801:9808   */\n      dup8\n        /* \"#utility.yul\":9792:9798   */\n      dup3\n        /* \"#utility.yul\":9781:9790   */\n      dup9\n        /* \"#utility.yul\":9777:9799   */\n      add\n        /* \"#utility.yul\":9756:9809   */\n      tag_202\n      jump\t// in\n    tag_378:\n        /* \"#utility.yul\":9746:9809   */\n      swap4\n      pop\n        /* \"#utility.yul\":9701:9819   */\n      pop\n        /* \"#utility.yul\":9886:9888   */\n      0x40\n        /* \"#utility.yul\":9875:9884   */\n      dup6\n        /* \"#utility.yul\":9871:9889   */\n      add\n        /* \"#utility.yul\":9858:9890   */\n      calldataload\n        /* \"#utility.yul\":9917:9935   */\n      0xffffffffffffffff\n        /* \"#utility.yul\":9909:9915   */\n      dup2\n        /* \"#utility.yul\":9906:9936   */\n      gt\n        /* \"#utility.yul\":9903:10020   */\n      iszero\n      tag_379\n      jumpi\n        /* \"#utility.yul\":9939:10018   */\n      tag_380\n      tag_195\n      jump\t// in\n    tag_380:\n        /* \"#utility.yul\":9903:10020   */\n    tag_379:\n        /* \"#utility.yul\":10044:10106   */\n      tag_381\n        /* \"#utility.yul\":10098:10105   */\n      dup8\n        /* \"#utility.yul\":10089:10095   */\n      dup3\n        /* \"#utility.yul\":10078:10087   */\n      dup9\n        /* \"#utility.yul\":10074:10096   */\n      add\n        /* \"#utility.yul\":10044:10106   */\n      tag_212\n      jump\t// in\n    tag_381:\n        /* \"#utility.yul\":10034:10106   */\n      swap3\n      pop\n        /* \"#utility.yul\":9829:10116   */\n      pop\n        /* \"#utility.yul\":10155:10157   */\n      0x60\n        /* \"#utility.yul\":10181:10234   */\n      tag_382\n        /* \"#utility.yul\":10226:10233   */\n      dup8\n        /* \"#utility.yul\":10217:10223   */\n      dup3\n        /* \"#utility.yul\":10206:10215   */\n      dup9\n        /* \"#utility.yul\":10202:10224   */\n      add\n        /* \"#utility.yul\":10181:10234   */\n      tag_220\n      jump\t// in\n    tag_382:\n        /* \"#utility.yul\":10171:10234   */\n      swap2\n      pop\n        /* \"#utility.yul\":10126:10244   */\n      pop\n        /* \"#utility.yul\":9308:10251   */\n      swap3\n      swap6\n      swap2\n      swap5\n      pop\n      swap3\n      pop\n      jump\t// out\n        /* \"#utility.yul\":10257:11310   */\n    tag_68:\n        /* \"#utility.yul\":10359:10365   */\n      0x00\n        /* \"#utility.yul\":10367:10373   */\n      dup1\n        /* \"#utility.yul\":10375:10381   */\n      0x00\n        /* \"#utility.yul\":10383:10389   */\n      dup1\n        /* \"#utility.yul\":10391:10397   */\n      0x00\n        /* \"#utility.yul\":10399:10405   */\n      dup1\n        /* \"#utility.yul\":10448:10451   */\n      0xc0\n        /* \"#utility.yul\":10436:10445   */\n      dup8\n        /* \"#utility.yul\":10427:10434   */\n      dup10\n        /* \"#utility.yul\":10423:10446   */\n      sub\n        /* \"#utility.yul\":10419:10452   */\n      slt\n        /* \"#utility.yul\":10416:10536   */\n      iszero\n      tag_384\n      jumpi\n        /* \"#utility.yul\":10455:10534   */\n      tag_385\n      tag_194\n      jump\t// in\n    tag_385:\n        /* \"#utility.yul\":10416:10536   */\n    tag_384:\n        /* \"#utility.yul\":10575:10576   */\n      0x00\n        /* \"#utility.yul\":10600:10653   */\n      tag_386\n        /* \"#utility.yul\":10645:10652   */\n      dup10\n        /* \"#utility.yul\":10636:10642   */\n      dup3\n        /* \"#utility.yul\":10625:10634   */\n      dup11\n        /* \"#utility.yul\":10621:10643   */\n      add\n        /* \"#utility.yul\":10600:10653   */\n      tag_199\n      jump\t// in\n    tag_386:\n        /* \"#utility.yul\":10590:10653   */\n      swap7\n      pop\n        /* \"#utility.yul\":10546:10663   */\n      pop\n        /* \"#utility.yul\":10702:10704   */\n      0x20\n        /* \"#utility.yul\":10728:10779   */\n      tag_387\n        /* \"#utility.yul\":10771:10778   */\n      dup10\n        /* \"#utility.yul\":10762:10768   */\n      dup3\n        /* \"#utility.yul\":10751:10760   */\n      dup11\n        /* \"#utility.yul\":10747:10769   */\n      add\n        /* \"#utility.yul\":10728:10779   */\n      tag_218\n      jump\t// in\n    tag_387:\n        /* \"#utility.yul\":10718:10779   */\n      swap6\n      pop\n        /* \"#utility.yul\":10673:10789   */\n      pop\n        /* \"#utility.yul\":10828:10830   */\n      0x40\n        /* \"#utility.yul\":10854:10907   */\n      tag_388\n        /* \"#utility.yul\":10899:10906   */\n      dup10\n        /* \"#utility.yul\":10890:10896   */\n      dup3\n        /* \"#utility.yul\":10879:10888   */\n      dup11\n        /* \"#utility.yul\":10875:10897   */\n      add\n        /* \"#utility.yul\":10854:10907   */\n      tag_202\n      jump\t// in\n    tag_388:\n        /* \"#utility.yul\":10844:10907   */\n      swap5\n      pop\n        /* \"#utility.yul\":10799:10917   */\n      pop\n        /* \"#utility.yul\":10956:10958   */\n      0x60\n        /* \"#utility.yul\":10982:11035   */\n      tag_389\n        /* \"#utility.yul\":11027:11034   */\n      dup10\n        /* \"#utility.yul\":11018:11024   */\n      dup3\n        /* \"#utility.yul\":11007:11016   */\n      dup11\n        /* \"#utility.yul\":11003:11025   */\n      add\n        /* \"#utility.yul\":10982:11035   */\n      tag_202\n      jump\t// in\n    tag_389:\n        /* \"#utility.yul\":10972:11035   */\n      swap4\n      pop\n        /* \"#utility.yul\":10927:11045   */\n      pop\n        /* \"#utility.yul\":11084:11087   */\n      0x80\n        /* \"#utility.yul\":11111:11164   */\n      tag_390\n        /* \"#utility.yul\":11156:11163   */\n      dup10\n        /* \"#utility.yul\":11147:11153   */\n      dup3\n        /* \"#utility.yul\":11136:11145   */\n      dup11\n        /* \"#utility.yul\":11132:11154   */\n      add\n        /* \"#utility.yul\":11111:11164   */\n      tag_202\n      jump\t// in\n    tag_390:\n        /* \"#utility.yul\":11101:11164   */\n      swap3\n      pop\n        /* \"#utility.yul\":11055:11174   */\n      pop\n        /* \"#utility.yul\":11213:11216   */\n      0xa0\n        /* \"#utility.yul\":11240:11293   */\n      tag_391\n        /* \"#utility.yul\":11285:11292   */\n      dup10\n        /* \"#utility.yul\":11276:11282   */\n      dup3\n        /* \"#utility.yul\":11265:11274   */\n      dup11\n        /* \"#utility.yul\":11261:11283   */\n      add\n        /* \"#utility.yul\":11240:11293   */\n      tag_199\n      jump\t// in\n    tag_391:\n        /* \"#utility.yul\":11230:11293   */\n      swap2\n      pop\n        /* \"#utility.yul\":11184:11303   */\n      pop\n        /* \"#utility.yul\":10257:11310   */\n      swap3\n      swap6\n      pop\n      swap3\n      swap6\n      pop\n      swap3\n      swap6\n      jump\t// out\n        /* \"#utility.yul\":11316:12515   */\n    tag_72:\n        /* \"#utility.yul\":11427:11433   */\n      0x00\n        /* \"#utility.yul\":11435:11441   */\n      dup1\n        /* \"#utility.yul\":11443:11449   */\n      0x00\n        /* \"#utility.yul\":11451:11457   */\n      dup1\n        /* \"#utility.yul\":11459:11465   */\n      0x00\n        /* \"#utility.yul\":11467:11473   */\n      dup1\n        /* \"#utility.yul\":11475:11481   */\n      0x00\n        /* \"#utility.yul\":11524:11527   */\n      0xe0\n        /* \"#utility.yul\":11512:11521   */\n      dup9\n        /* \"#utility.yul\":11503:11510   */\n      dup11\n        /* \"#utility.yul\":11499:11522   */\n      sub\n        /* \"#utility.yul\":11495:11528   */\n      slt\n        /* \"#utility.yul\":11492:11612   */\n      iszero\n      tag_393\n      jumpi\n        /* \"#utility.yul\":11531:11610   */\n      tag_394\n      tag_194\n      jump\t// in\n    tag_394:\n        /* \"#utility.yul\":11492:11612   */\n    tag_393:\n        /* \"#utility.yul\":11651:11652   */\n      0x00\n        /* \"#utility.yul\":11676:11729   */\n      tag_395\n        /* \"#utility.yul\":11721:11728   */\n      dup11\n        /* \"#utility.yul\":11712:11718   */\n      dup3\n        /* \"#utility.yul\":11701:11710   */\n      dup12\n        /* \"#utility.yul\":11697:11719   */\n      add\n        /* \"#utility.yul\":11676:11729   */\n      tag_199\n      jump\t// in\n    tag_395:\n        /* \"#utility.yul\":11666:11729   */\n      swap8\n      pop\n        /* \"#utility.yul\":11622:11739   */\n      pop\n        /* \"#utility.yul\":11778:11780   */\n      0x20\n        /* \"#utility.yul\":11804:11855   */\n      tag_396\n        /* \"#utility.yul\":11847:11854   */\n      dup11\n        /* \"#utility.yul\":11838:11844   */\n      dup3\n        /* \"#utility.yul\":11827:11836   */\n      dup12\n        /* \"#utility.yul\":11823:11845   */\n      add\n        /* \"#utility.yul\":11804:11855   */\n      tag_218\n      jump\t// in\n    tag_396:\n        /* \"#utility.yul\":11794:11855   */\n      swap7\n      pop\n        /* \"#utility.yul\":11749:11865   */\n      pop\n        /* \"#utility.yul\":11904:11906   */\n      0x40\n        /* \"#utility.yul\":11930:11983   */\n      tag_397\n        /* \"#utility.yul\":11975:11982   */\n      dup11\n        /* \"#utility.yul\":11966:11972   */\n      dup3\n        /* \"#utility.yul\":11955:11964   */\n      dup12\n        /* \"#utility.yul\":11951:11973   */\n      add\n        /* \"#utility.yul\":11930:11983   */\n      tag_202\n      jump\t// in\n    tag_397:\n        /* \"#utility.yul\":11920:11983   */\n      swap6\n      pop\n        /* \"#utility.yul\":11875:11993   */\n      pop\n        /* \"#utility.yul\":12032:12034   */\n      0x60\n        /* \"#utility.yul\":12058:12111   */\n      tag_398\n        /* \"#utility.yul\":12103:12110   */\n      dup11\n        /* \"#utility.yul\":12094:12100   */\n      dup3\n        /* \"#utility.yul\":12083:12092   */\n      dup12\n        /* \"#utility.yul\":12079:12101   */\n      add\n        /* \"#utility.yul\":12058:12111   */\n      tag_202\n      jump\t// in\n    tag_398:\n        /* \"#utility.yul\":12048:12111   */\n      swap5\n      pop\n        /* \"#utility.yul\":12003:12121   */\n      pop\n        /* \"#utility.yul\":12160:12163   */\n      0x80\n        /* \"#utility.yul\":12187:12240   */\n      tag_399\n        /* \"#utility.yul\":12232:12239   */\n      dup11\n        /* \"#utility.yul\":12223:12229   */\n      dup3\n        /* \"#utility.yul\":12212:12221   */\n      dup12\n        /* \"#utility.yul\":12208:12230   */\n      add\n        /* \"#utility.yul\":12187:12240   */\n      tag_202\n      jump\t// in\n    tag_399:\n        /* \"#utility.yul\":12177:12240   */\n      swap4\n      pop\n        /* \"#utility.yul\":12131:12250   */\n      pop\n        /* \"#utility.yul\":12289:12292   */\n      0xa0\n        /* \"#utility.yul\":12316:12369   */\n      tag_400\n        /* \"#utility.yul\":12361:12368   */\n      dup11\n        /* \"#utility.yul\":12352:12358   */\n      dup3\n        /* \"#utility.yul\":12341:12350   */\n      dup12\n        /* \"#utility.yul\":12337:12359   */\n      add\n        /* \"#utility.yul\":12316:12369   */\n      tag_199\n      jump\t// in\n    tag_400:\n        /* \"#utility.yul\":12306:12369   */\n      swap3\n      pop\n        /* \"#utility.yul\":12260:12379   */\n      pop\n        /* \"#utility.yul\":12418:12421   */\n      0xc0\n        /* \"#utility.yul\":12445:12498   */\n      tag_401\n        /* \"#utility.yul\":12490:12497   */\n      dup11\n        /* \"#utility.yul\":12481:12487   */\n      dup3\n        /* \"#utility.yul\":12470:12479   */\n      dup12\n        /* \"#utility.yul\":12466:12488   */\n      add\n        /* \"#utility.yul\":12445:12498   */\n      tag_220\n      jump\t// in\n    tag_401:\n        /* \"#utility.yul\":12435:12498   */\n      swap2\n      pop\n        /* \"#utility.yul\":12389:12508   */\n      pop\n        /* \"#utility.yul\":11316:12515   */\n      swap3\n      swap6\n      swap9\n      swap2\n      swap5\n      swap8\n      pop\n      swap3\n      swap6\n      pop\n      jump\t// out\n        /* \"#utility.yul\":12521:13286   */\n    tag_76:\n        /* \"#utility.yul\":12607:12613   */\n      0x00\n        /* \"#utility.yul\":12615:12621   */\n      dup1\n        /* \"#utility.yul\":12623:12629   */\n      0x00\n        /* \"#utility.yul\":12631:12637   */\n      dup1\n        /* \"#utility.yul\":12680:12683   */\n      0x80\n        /* \"#utility.yul\":12668:12677   */\n      dup6\n        /* \"#utility.yul\":12659:12666   */\n      dup8\n        /* \"#utility.yul\":12655:12678   */\n      sub\n        /* \"#utility.yul\":12651:12684   */\n      slt\n        /* \"#utility.yul\":12648:12768   */\n      iszero\n      tag_403\n      jumpi\n        /* \"#utility.yul\":12687:12766   */\n      tag_404\n      tag_194\n      jump\t// in\n    tag_404:\n        /* \"#utility.yul\":12648:12768   */\n    tag_403:\n        /* \"#utility.yul\":12807:12808   */\n      0x00\n        /* \"#utility.yul\":12832:12885   */\n      tag_405\n        /* \"#utility.yul\":12877:12884   */\n      dup8\n        /* \"#utility.yul\":12868:12874   */\n      dup3\n        /* \"#utility.yul\":12857:12866   */\n      dup9\n        /* \"#utility.yul\":12853:12875   */\n      add\n        /* \"#utility.yul\":12832:12885   */\n      tag_199\n      jump\t// in\n    tag_405:\n        /* \"#utility.yul\":12822:12885   */\n      swap5\n      pop\n        /* \"#utility.yul\":12778:12895   */\n      pop\n        /* \"#utility.yul\":12934:12936   */\n      0x20\n        /* \"#utility.yul\":12960:13013   */\n      tag_406\n        /* \"#utility.yul\":13005:13012   */\n      dup8\n        /* \"#utility.yul\":12996:13002   */\n      dup3\n        /* \"#utility.yul\":12985:12994   */\n      dup9\n        /* \"#utility.yul\":12981:13003   */\n      add\n        /* \"#utility.yul\":12960:13013   */\n      tag_202\n      jump\t// in\n    tag_406:\n        /* \"#utility.yul\":12950:13013   */\n      swap4\n      pop\n        /* \"#utility.yul\":12905:13023   */\n      pop\n        /* \"#utility.yul\":13062:13064   */\n      0x40\n        /* \"#utility.yul\":13088:13141   */\n      tag_407\n        /* \"#utility.yul\":13133:13140   */\n      dup8\n        /* \"#utility.yul\":13124:13130   */\n      dup3\n        /* \"#utility.yul\":13113:13122   */\n      dup9\n        /* \"#utility.yul\":13109:13131   */\n      add\n        /* \"#utility.yul\":13088:13141   */\n      tag_199\n      jump\t// in\n    tag_407:\n        /* \"#utility.yul\":13078:13141   */\n      swap3\n      pop\n        /* \"#utility.yul\":13033:13151   */\n      pop\n        /* \"#utility.yul\":13190:13192   */\n      0x60\n        /* \"#utility.yul\":13216:13269   */\n      tag_408\n        /* \"#utility.yul\":13261:13268   */\n      dup8\n        /* \"#utility.yul\":13252:13258   */\n      dup3\n        /* \"#utility.yul\":13241:13250   */\n      dup9\n        /* \"#utility.yul\":13237:13259   */\n      add\n        /* \"#utility.yul\":13216:13269   */\n      tag_220\n      jump\t// in\n    tag_408:\n        /* \"#utility.yul\":13206:13269   */\n      swap2\n      pop\n        /* \"#utility.yul\":13161:13279   */\n      pop\n        /* \"#utility.yul\":12521:13286   */\n      swap3\n      swap6\n      swap2\n      swap5\n      pop\n      swap3\n      pop\n      jump\t// out\n        /* \"#utility.yul\":13292:14523   */\n    tag_80:\n        /* \"#utility.yul\":13403:13409   */\n      0x00\n        /* \"#utility.yul\":13411:13417   */\n      dup1\n        /* \"#utility.yul\":13419:13425   */\n      0x00\n        /* \"#utility.yul\":13427:13433   */\n      dup1\n        /* \"#utility.yul\":13435:13441   */\n      0x00\n        /* \"#utility.yul\":13443:13449   */\n      dup1\n        /* \"#utility.yul\":13492:13495   */\n      0xc0\n        /* \"#utility.yul\":13480:13489   */\n      dup8\n        /* \"#utility.yul\":13471:13478   */\n      dup10\n        /* \"#utility.yul\":13467:13490   */\n      sub\n        /* \"#utility.yul\":13463:13496   */\n      slt\n        /* \"#utility.yul\":13460:13580   */\n      iszero\n      tag_410\n      jumpi\n        /* \"#utility.yul\":13499:13578   */\n      tag_411\n      tag_194\n      jump\t// in\n    tag_411:\n        /* \"#utility.yul\":13460:13580   */\n    tag_410:\n        /* \"#utility.yul\":13619:13620   */\n      0x00\n        /* \"#utility.yul\":13644:13697   */\n      tag_412\n        /* \"#utility.yul\":13689:13696   */\n      dup10\n        /* \"#utility.yul\":13680:13686   */\n      dup3\n        /* \"#utility.yul\":13669:13678   */\n      dup11\n        /* \"#utility.yul\":13665:13687   */\n      add\n        /* \"#utility.yul\":13644:13697   */\n      tag_199\n      jump\t// in\n    tag_412:\n        /* \"#utility.yul\":13634:13697   */\n      swap7\n      pop\n        /* \"#utility.yul\":13590:13707   */\n      pop\n        /* \"#utility.yul\":13746:13748   */\n      0x20\n        /* \"#utility.yul\":13772:13823   */\n      tag_413\n        /* \"#utility.yul\":13815:13822   */\n      dup10\n        /* \"#utility.yul\":13806:13812   */\n      dup3\n        /* \"#utility.yul\":13795:13804   */\n      dup11\n        /* \"#utility.yul\":13791:13813   */\n      add\n        /* \"#utility.yul\":13772:13823   */\n      tag_218\n      jump\t// in\n    tag_413:\n        /* \"#utility.yul\":13762:13823   */\n      swap6\n      pop\n        /* \"#utility.yul\":13717:13833   */\n      pop\n        /* \"#utility.yul\":13872:13874   */\n      0x40\n        /* \"#utility.yul\":13898:13951   */\n      tag_414\n        /* \"#utility.yul\":13943:13950   */\n      dup10\n        /* \"#utility.yul\":13934:13940   */\n      dup3\n        /* \"#utility.yul\":13923:13932   */\n      dup11\n        /* \"#utility.yul\":13919:13941   */\n      add\n        /* \"#utility.yul\":13898:13951   */\n      tag_202\n      jump\t// in\n    tag_414:\n        /* \"#utility.yul\":13888:13951   */\n      swap5\n      pop\n        /* \"#utility.yul\":13843:13961   */\n      pop\n        /* \"#utility.yul\":14000:14002   */\n      0x60\n        /* \"#utility.yul\":14026:14079   */\n      tag_415\n        /* \"#utility.yul\":14071:14078   */\n      dup10\n        /* \"#utility.yul\":14062:14068   */\n      dup3\n        /* \"#utility.yul\":14051:14060   */\n      dup11\n        /* \"#utility.yul\":14047:14069   */\n      add\n        /* \"#utility.yul\":14026:14079   */\n      tag_202\n      jump\t// in\n    tag_415:\n        /* \"#utility.yul\":14016:14079   */\n      swap4\n      pop\n        /* \"#utility.yul\":13971:14089   */\n      pop\n        /* \"#utility.yul\":14128:14131   */\n      0x80\n        /* \"#utility.yul\":14155:14208   */\n      tag_416\n        /* \"#utility.yul\":14200:14207   */\n      dup10\n        /* \"#utility.yul\":14191:14197   */\n      dup3\n        /* \"#utility.yul\":14180:14189   */\n      dup11\n        /* \"#utility.yul\":14176:14198   */\n      add\n        /* \"#utility.yul\":14155:14208   */\n      tag_202\n      jump\t// in\n    tag_416:\n        /* \"#utility.yul\":14145:14208   */\n      swap3\n      pop\n        /* \"#utility.yul\":14099:14218   */\n      pop\n        /* \"#utility.yul\":14285:14288   */\n      0xa0\n        /* \"#utility.yul\":14274:14283   */\n      dup8\n        /* \"#utility.yul\":14270:14289   */\n      add\n        /* \"#utility.yul\":14257:14290   */\n      calldataload\n        /* \"#utility.yul\":14317:14335   */\n      0xffffffffffffffff\n        /* \"#utility.yul\":14309:14315   */\n      dup2\n        /* \"#utility.yul\":14306:14336   */\n      gt\n        /* \"#utility.yul\":14303:14420   */\n      iszero\n      tag_417\n      jumpi\n        /* \"#utility.yul\":14339:14418   */\n      tag_418\n      tag_195\n      jump\t// in\n    tag_418:\n        /* \"#utility.yul\":14303:14420   */\n    tag_417:\n        /* \"#utility.yul\":14444:14506   */\n      tag_419\n        /* \"#utility.yul\":14498:14505   */\n      dup10\n        /* \"#utility.yul\":14489:14495   */\n      dup3\n        /* \"#utility.yul\":14478:14487   */\n      dup11\n        /* \"#utility.yul\":14474:14496   */\n      add\n        /* \"#utility.yul\":14444:14506   */\n      tag_212\n      jump\t// in\n    tag_419:\n        /* \"#utility.yul\":14434:14506   */\n      swap2\n      pop\n        /* \"#utility.yul\":14228:14516   */\n      pop\n        /* \"#utility.yul\":13292:14523   */\n      swap3\n      swap6\n      pop\n      swap3\n      swap6\n      pop\n      swap3\n      swap6\n      jump\t// out\n        /* \"#utility.yul\":14529:15003   */\n    tag_84:\n        /* \"#utility.yul\":14597:14603   */\n      0x00\n        /* \"#utility.yul\":14605:14611   */\n      dup1\n        /* \"#utility.yul\":14654:14656   */\n      0x40\n        /* \"#utility.yul\":14642:14651   */\n      dup4\n        /* \"#utility.yul\":14633:14640   */\n      dup6\n        /* \"#utility.yul\":14629:14652   */\n      sub\n        /* \"#utility.yul\":14625:14657   */\n      slt\n        /* \"#utility.yul\":14622:14741   */\n      iszero\n      tag_421\n      jumpi\n        /* \"#utility.yul\":14660:14739   */\n      tag_422\n      tag_194\n      jump\t// in\n    tag_422:\n        /* \"#utility.yul\":14622:14741   */\n    tag_421:\n        /* \"#utility.yul\":14780:14781   */\n      0x00\n        /* \"#utility.yul\":14805:14858   */\n      tag_423\n        /* \"#utility.yul\":14850:14857   */\n      dup6\n        /* \"#utility.yul\":14841:14847   */\n      dup3\n        /* \"#utility.yul\":14830:14839   */\n      dup7\n        /* \"#utility.yul\":14826:14848   */\n      add\n        /* \"#utility.yul\":14805:14858   */\n      tag_199\n      jump\t// in\n    tag_423:\n        /* \"#utility.yul\":14795:14858   */\n      swap3\n      pop\n        /* \"#utility.yul\":14751:14868   */\n      pop\n        /* \"#utility.yul\":14907:14909   */\n      0x20\n        /* \"#utility.yul\":14933:14986   */\n      tag_424\n        /* \"#utility.yul\":14978:14985   */\n      dup6\n        /* \"#utility.yul\":14969:14975   */\n      dup3\n        /* \"#utility.yul\":14958:14967   */\n      dup7\n        /* \"#utility.yul\":14954:14976   */\n      add\n        /* \"#utility.yul\":14933:14986   */\n      tag_199\n      jump\t// in\n    tag_424:\n        /* \"#utility.yul\":14923:14986   */\n      swap2\n      pop\n        /* \"#utility.yul\":14878:14996   */\n      pop\n        /* \"#utility.yul\":14529:15003   */\n      swap3\n      pop\n      swap3\n      swap1\n      pop\n      jump\t// out\n        /* \"#utility.yul\":15009:15158   */\n    tag_223:\n        /* \"#utility.yul\":15045:15052   */\n      0x00\n        /* \"#utility.yul\":15085:15151   */\n      0xff00000000000000000000000000000000000000000000000000000000000000\n        /* \"#utility.yul\":15078:15083   */\n      dup3\n        /* \"#utility.yul\":15074:15152   */\n      and\n        /* \"#utility.yul\":15063:15152   */\n      swap1\n      pop\n        /* \"#utility.yul\":15009:15158   */\n      swap2\n      swap1\n      pop\n      jump\t// out\n        /* \"#utility.yul\":15164:15242   */\n    tag_224:\n        /* \"#utility.yul\":15202:15209   */\n      0x00\n        /* \"#utility.yul\":15231:15236   */\n      dup2\n        /* \"#utility.yul\":15220:15236   */\n      swap1\n      pop\n        /* \"#utility.yul\":15164:15242   */\n      swap2\n      swap1\n      pop\n      jump\t// out\n        /* \"#utility.yul\":15248:15401   */\n    tag_225:\n        /* \"#utility.yul\":15351:15394   */\n      tag_428\n        /* \"#utility.yul\":15370:15393   */\n      tag_429\n        /* \"#utility.yul\":15387:15392   */\n      dup3\n        /* \"#utility.yul\":15370:15393   */\n      tag_223\n      jump\t// in\n    tag_429:\n        /* \"#utility.yul\":15351:15394   */\n      tag_224\n      jump\t// in\n    tag_428:\n        /* \"#utility.yul\":15346:15349   */\n      dup3\n        /* \"#utility.yul\":15339:15395   */\n      mstore\n        /* \"#utility.yul\":15248:15401   */\n      pop\n      pop\n      jump\t// out\n        /* \"#utility.yul\":15407:15467   */\n    tag_226:\n        /* \"#utility.yul\":15435:15438   */\n      0x00\n        /* \"#utility.yul\":15456:15461   */\n      dup2\n        /* \"#utility.yul\":15449:15461   */\n      swap1\n      pop\n        /* \"#utility.yul\":15407:15467   */\n      swap2\n      swap1\n      pop\n      jump\t// out\n        /* \"#utility.yul\":15473:15615   */\n    tag_227:\n        /* \"#utility.yul\":15523:15532   */\n      0x00\n        /* \"#utility.yul\":15556:15609   */\n      tag_432\n        /* \"#utility.yul\":15574:15608   */\n      tag_433\n        /* \"#utility.yul\":15583:15607   */\n      tag_434\n        /* \"#utility.yul\":15601:15606   */\n      dup5\n        /* \"#utility.yul\":15583:15607   */\n      tag_196\n      jump\t// in\n    tag_434:\n        /* \"#utility.yul\":15574:15608   */\n      tag_226\n      jump\t// in\n    tag_433:\n        /* \"#utility.yul\":15556:15609   */\n      tag_196\n      jump\t// in\n    tag_432:\n        /* \"#utility.yul\":15543:15609   */\n      swap1\n      pop\n        /* \"#utility.yul\":15473:15615   */\n      swap2\n      swap1\n      pop\n      jump\t// out\n        /* \"#utility.yul\":15621:15747   */\n    tag_228:\n        /* \"#utility.yul\":15671:15680   */\n      0x00\n        /* \"#utility.yul\":15704:15741   */\n      tag_436\n        /* \"#utility.yul\":15735:15740   */\n      dup3\n        /* \"#utility.yul\":15704:15741   */\n      tag_227\n      jump\t// in\n    tag_436:\n        /* \"#utility.yul\":15691:15741   */\n      swap1\n      pop\n        /* \"#utility.yul\":15621:15747   */\n      swap2\n      swap1\n      pop\n      jump\t// out\n        /* \"#utility.yul\":15753:15906   */\n    tag_229:\n        /* \"#utility.yul\":15830:15839   */\n      0x00\n        /* \"#utility.yul\":15863:15900   */\n      tag_438\n        /* \"#utility.yul\":15894:15899   */\n      dup3\n        /* \"#utility.yul\":15863:15900   */\n      tag_228\n      jump\t// in\n    tag_438:\n        /* \"#utility.yul\":15850:15900   */\n      swap1\n      pop\n        /* \"#utility.yul\":15753:15906   */\n      swap2\n      swap1\n      pop\n      jump\t// out\n        /* \"#utility.yul\":15912:16006   */\n    tag_230:\n        /* \"#utility.yul\":15945:15953   */\n      0x00\n        /* \"#utility.yul\":15993:15998   */\n      dup2\n        /* \"#utility.yul\":15989:15991   */\n      0x60\n        /* \"#utility.yul\":15985:15999   */\n      shl\n        /* \"#utility.yul\":15964:15999   */\n      swap1\n      pop\n        /* \"#utility.yul\":15912:16006   */\n      swap2\n      swap1\n      pop\n      jump\t// out\n        /* \"#utility.yul\":16012:16106   */\n    tag_231:\n        /* \"#utility.yul\":16051:16058   */\n      0x00\n        /* \"#utility.yul\":16080:16100   */\n      tag_441\n        /* \"#utility.yul\":16094:16099   */\n      dup3\n        /* \"#utility.yul\":16080:16100   */\n      tag_230\n      jump\t// in\n    tag_441:\n        /* \"#utility.yul\":16069:16100   */\n      swap1\n      pop\n        /* \"#utility.yul\":16012:16106   */\n      swap2\n      swap1\n      pop\n      jump\t// out\n        /* \"#utility.yul\":16112:16212   */\n    tag_232:\n        /* \"#utility.yul\":16151:16158   */\n      0x00\n        /* \"#utility.yul\":16180:16206   */\n      tag_443\n        /* \"#utility.yul\":16200:16205   */\n      dup3\n        /* \"#utility.yul\":16180:16206   */\n      tag_231\n      jump\t// in\n    tag_443:\n        /* \"#utility.yul\":16169:16206   */\n      swap1\n      pop\n        /* \"#utility.yul\":16112:16212   */\n      swap2\n      swap1\n      pop\n      jump\t// out\n        /* \"#utility.yul\":16218:16442   */\n    tag_233:\n        /* \"#utility.yul\":16350:16435   */\n      tag_445\n        /* \"#utility.yul\":16370:16434   */\n      tag_446\n        /* \"#utility.yul\":16428:16433   */\n      dup3\n        /* \"#utility.yul\":16370:16434   */\n      tag_229\n      jump\t// in\n    tag_446:\n        /* \"#utility.yul\":16350:16435   */\n      tag_232\n      jump\t// in\n    tag_445:\n        /* \"#utility.yul\":16345:16348   */\n      dup3\n        /* \"#utility.yul\":16338:16436   */\n      mstore\n        /* \"#utility.yul\":16218:16442   */\n      pop\n      pop\n      jump\t// out\n        /* \"#utility.yul\":16448:16527   */\n    tag_234:\n        /* \"#utility.yul\":16487:16494   */\n      0x00\n        /* \"#utility.yul\":16516:16521   */\n      dup2\n        /* \"#utility.yul\":16505:16521   */\n      swap1\n      pop\n        /* \"#utility.yul\":16448:16527   */\n      swap2\n      swap1\n      pop\n      jump\t// out\n        /* \"#utility.yul\":16533:16690   */\n    tag_235:\n        /* \"#utility.yul\":16638:16683   */\n      tag_449\n        /* \"#utility.yul\":16658:16682   */\n      tag_450\n        /* \"#utility.yul\":16676:16681   */\n      dup3\n        /* \"#utility.yul\":16658:16682   */\n      tag_214\n      jump\t// in\n    tag_450:\n        /* \"#utility.yul\":16638:16683   */\n      tag_234\n      jump\t// in\n    tag_449:\n        /* \"#utility.yul\":16633:16636   */\n      dup3\n        /* \"#utility.yul\":16626:16684   */\n      mstore\n        /* \"#utility.yul\":16533:16690   */\n      pop\n      pop\n      jump\t// out\n        /* \"#utility.yul\":16696:16853   */\n    tag_236:\n        /* \"#utility.yul\":16801:16846   */\n      tag_452\n        /* \"#utility.yul\":16821:16845   */\n      tag_453\n        /* \"#utility.yul\":16839:16844   */\n      dup3\n        /* \"#utility.yul\":16821:16845   */\n      tag_197\n      jump\t// in\n    tag_453:\n        /* \"#utility.yul\":16801:16846   */\n      tag_232\n      jump\t// in\n    tag_452:\n        /* \"#utility.yul\":16796:16799   */\n      dup3\n        /* \"#utility.yul\":16789:16847   */\n      mstore\n        /* \"#utility.yul\":16696:16853   */\n      pop\n      pop\n      jump\t// out\n        /* \"#utility.yul\":16859:17007   */\n    tag_237:\n        /* \"#utility.yul\":16961:16972   */\n      0x00\n        /* \"#utility.yul\":16998:17001   */\n      dup2\n        /* \"#utility.yul\":16983:17001   */\n      swap1\n      pop\n        /* \"#utility.yul\":16859:17007   */\n      swap3\n      swap2\n      pop\n      pop\n      jump\t// out\n        /* \"#utility.yul\":17013:17175   */\n    tag_238:\n        /* \"#utility.yul\":17153:17167   */\n      0x7365744174747269627574650000000000000000000000000000000000000000\n        /* \"#utility.yul\":17149:17150   */\n      0x00\n        /* \"#utility.yul\":17141:17147   */\n      dup3\n        /* \"#utility.yul\":17137:17151   */\n      add\n        /* \"#utility.yul\":17130:17168   */\n      mstore\n        /* \"#utility.yul\":17013:17175   */\n      pop\n      jump\t// out\n        /* \"#utility.yul\":17181:17583   */\n    tag_239:\n        /* \"#utility.yul\":17341:17344   */\n      0x00\n        /* \"#utility.yul\":17362:17447   */\n      tag_457\n        /* \"#utility.yul\":17444:17446   */\n      0x0c\n        /* \"#utility.yul\":17439:17442   */\n      dup4\n        /* \"#utility.yul\":17362:17447   */\n      tag_237\n      jump\t// in\n    tag_457:\n        /* \"#utility.yul\":17355:17447   */\n      swap2\n      pop\n        /* \"#utility.yul\":17456:17549   */\n      tag_458\n        /* \"#utility.yul\":17545:17548   */\n      dup3\n        /* \"#utility.yul\":17456:17549   */\n      tag_238\n      jump\t// in\n    tag_458:\n        /* \"#utility.yul\":17574:17576   */\n      0x0c\n        /* \"#utility.yul\":17569:17572   */\n      dup3\n        /* \"#utility.yul\":17565:17577   */\n      add\n        /* \"#utility.yul\":17558:17577   */\n      swap1\n      pop\n        /* \"#utility.yul\":17181:17583   */\n      swap2\n      swap1\n      pop\n      jump\t// out\n        /* \"#utility.yul\":17589:17668   */\n    tag_240:\n        /* \"#utility.yul\":17628:17635   */\n      0x00\n        /* \"#utility.yul\":17657:17662   */\n      dup2\n        /* \"#utility.yul\":17646:17662   */\n      swap1\n      pop\n        /* \"#utility.yul\":17589:17668   */\n      swap2\n      swap1\n      pop\n      jump\t// out\n        /* \"#utility.yul\":17674:17831   */\n    tag_241:\n        /* \"#utility.yul\":17779:17824   */\n      tag_461\n        /* \"#utility.yul\":17799:17823   */\n      tag_462\n        /* \"#utility.yul\":17817:17822   */\n      dup3\n        /* \"#utility.yul\":17799:17823   */\n      tag_200\n      jump\t// in\n    tag_462:\n        /* \"#utility.yul\":17779:17824   */\n      tag_240\n      jump\t// in\n    tag_461:\n        /* \"#utility.yul\":17774:17777   */\n      dup3\n        /* \"#utility.yul\":17767:17825   */\n      mstore\n        /* \"#utility.yul\":17674:17831   */\n      pop\n      pop\n      jump\t// out\n        /* \"#utility.yul\":17837:17935   */\n    tag_242:\n        /* \"#utility.yul\":17888:17894   */\n      0x00\n        /* \"#utility.yul\":17922:17927   */\n      dup2\n        /* \"#utility.yul\":17916:17928   */\n      mload\n        /* \"#utility.yul\":17906:17928   */\n      swap1\n      pop\n        /* \"#utility.yul\":17837:17935   */\n      swap2\n      swap1\n      pop\n      jump\t// out\n        /* \"#utility.yul\":17941:18088   */\n    tag_243:\n        /* \"#utility.yul\":18042:18053   */\n      0x00\n        /* \"#utility.yul\":18079:18082   */\n      dup2\n        /* \"#utility.yul\":18064:18082   */\n      swap1\n      pop\n        /* \"#utility.yul\":17941:18088   */\n      swap3\n      swap2\n      pop\n      pop\n      jump\t// out\n        /* \"#utility.yul\":18094:18401   */\n    tag_244:\n        /* \"#utility.yul\":18162:18163   */\n      0x00\n        /* \"#utility.yul\":18172:18285   */\n    tag_466:\n        /* \"#utility.yul\":18186:18192   */\n      dup4\n        /* \"#utility.yul\":18183:18184   */\n      dup2\n        /* \"#utility.yul\":18180:18193   */\n      lt\n        /* \"#utility.yul\":18172:18285   */\n      iszero\n      tag_468\n      jumpi\n        /* \"#utility.yul\":18271:18272   */\n      dup1\n        /* \"#utility.yul\":18266:18269   */\n      dup3\n        /* \"#utility.yul\":18262:18273   */\n      add\n        /* \"#utility.yul\":18256:18274   */\n      mload\n        /* \"#utility.yul\":18252:18253   */\n      dup2\n        /* \"#utility.yul\":18247:18250   */\n      dup5\n        /* \"#utility.yul\":18243:18254   */\n      add\n        /* \"#utility.yul\":18236:18275   */\n      mstore\n        /* \"#utility.yul\":18208:18210   */\n      0x20\n        /* \"#utility.yul\":18205:18206   */\n      dup2\n        /* \"#utility.yul\":18201:18211   */\n      add\n        /* \"#utility.yul\":18196:18211   */\n      swap1\n      pop\n        /* \"#utility.yul\":18172:18285   */\n      jump(tag_466)\n    tag_468:\n        /* \"#utility.yul\":18303:18309   */\n      dup4\n        /* \"#utility.yul\":18300:18301   */\n      dup2\n        /* \"#utility.yul\":18297:18310   */\n      gt\n        /* \"#utility.yul\":18294:18395   */\n      iszero\n      tag_469\n      jumpi\n        /* \"#utility.yul\":18383:18384   */\n      0x00\n        /* \"#utility.yul\":18374:18380   */\n      dup5\n        /* \"#utility.yul\":18369:18372   */\n      dup5\n        /* \"#utility.yul\":18365:18381   */\n      add\n        /* \"#utility.yul\":18358:18385   */\n      mstore\n        /* \"#utility.yul\":18294:18395   */\n    tag_469:\n        /* \"#utility.yul\":18143:18401   */\n      pop\n        /* \"#utility.yul\":18094:18401   */\n      pop\n      pop\n      pop\n      jump\t// out\n        /* \"#utility.yul\":18407:18780   */\n    tag_245:\n        /* \"#utility.yul\":18511:18514   */\n      0x00\n        /* \"#utility.yul\":18539:18577   */\n      tag_471\n        /* \"#utility.yul\":18571:18576   */\n      dup3\n        /* \"#utility.yul\":18539:18577   */\n      tag_242\n      jump\t// in\n    tag_471:\n        /* \"#utility.yul\":18593:18681   */\n      tag_472\n        /* \"#utility.yul\":18674:18680   */\n      dup2\n        /* \"#utility.yul\":18669:18672   */\n      dup6\n        /* \"#utility.yul\":18593:18681   */\n      tag_243\n      jump\t// in\n    tag_472:\n        /* \"#utility.yul\":18586:18681   */\n      swap4\n      pop\n        /* \"#utility.yul\":18690:18742   */\n      tag_473\n        /* \"#utility.yul\":18735:18741   */\n      dup2\n        /* \"#utility.yul\":18730:18733   */\n      dup6\n        /* \"#utility.yul\":18723:18727   */\n      0x20\n        /* \"#utility.yul\":18716:18721   */\n      dup7\n        /* \"#utility.yul\":18712:18728   */\n      add\n        /* \"#utility.yul\":18690:18742   */\n      tag_244\n      jump\t// in\n    tag_473:\n        /* \"#utility.yul\":18767:18773   */\n      dup1\n        /* \"#utility.yul\":18762:18765   */\n      dup5\n        /* \"#utility.yul\":18758:18774   */\n      add\n        /* \"#utility.yul\":18751:18774   */\n      swap2\n      pop\n        /* \"#utility.yul\":18515:18780   */\n      pop\n        /* \"#utility.yul\":18407:18780   */\n      swap3\n      swap2\n      pop\n      pop\n      jump\t// out\n        /* \"#utility.yul\":18786:20354   */\n    tag_96:\n        /* \"#utility.yul\":19236:19239   */\n      0x00\n        /* \"#utility.yul\":19251:19324   */\n      tag_475\n        /* \"#utility.yul\":19320:19323   */\n      dup3\n        /* \"#utility.yul\":19311:19317   */\n      dup12\n        /* \"#utility.yul\":19251:19324   */\n      tag_225\n      jump\t// in\n    tag_475:\n        /* \"#utility.yul\":19349:19350   */\n      0x01\n        /* \"#utility.yul\":19344:19347   */\n      dup3\n        /* \"#utility.yul\":19340:19351   */\n      add\n        /* \"#utility.yul\":19333:19351   */\n      swap2\n      pop\n        /* \"#utility.yul\":19361:19434   */\n      tag_476\n        /* \"#utility.yul\":19430:19433   */\n      dup3\n        /* \"#utility.yul\":19421:19427   */\n      dup11\n        /* \"#utility.yul\":19361:19434   */\n      tag_225\n      jump\t// in\n    tag_476:\n        /* \"#utility.yul\":19459:19460   */\n      0x01\n        /* \"#utility.yul\":19454:19457   */\n      dup3\n        /* \"#utility.yul\":19450:19461   */\n      add\n        /* \"#utility.yul\":19443:19461   */\n      swap2\n      pop\n        /* \"#utility.yul\":19471:19573   */\n      tag_477\n        /* \"#utility.yul\":19569:19572   */\n      dup3\n        /* \"#utility.yul\":19560:19566   */\n      dup10\n        /* \"#utility.yul\":19471:19573   */\n      tag_233\n      jump\t// in\n    tag_477:\n        /* \"#utility.yul\":19598:19600   */\n      0x14\n        /* \"#utility.yul\":19593:19596   */\n      dup3\n        /* \"#utility.yul\":19589:19601   */\n      add\n        /* \"#utility.yul\":19582:19601   */\n      swap2\n      pop\n        /* \"#utility.yul\":19611:19686   */\n      tag_478\n        /* \"#utility.yul\":19682:19685   */\n      dup3\n        /* \"#utility.yul\":19673:19679   */\n      dup9\n        /* \"#utility.yul\":19611:19686   */\n      tag_235\n      jump\t// in\n    tag_478:\n        /* \"#utility.yul\":19711:19713   */\n      0x20\n        /* \"#utility.yul\":19706:19709   */\n      dup3\n        /* \"#utility.yul\":19702:19714   */\n      add\n        /* \"#utility.yul\":19695:19714   */\n      swap2\n      pop\n        /* \"#utility.yul\":19724:19799   */\n      tag_479\n        /* \"#utility.yul\":19795:19798   */\n      dup3\n        /* \"#utility.yul\":19786:19792   */\n      dup8\n        /* \"#utility.yul\":19724:19799   */\n      tag_236\n      jump\t// in\n    tag_479:\n        /* \"#utility.yul\":19824:19826   */\n      0x14\n        /* \"#utility.yul\":19819:19822   */\n      dup3\n        /* \"#utility.yul\":19815:19827   */\n      add\n        /* \"#utility.yul\":19808:19827   */\n      swap2\n      pop\n        /* \"#utility.yul\":19844:19992   */\n      tag_480\n        /* \"#utility.yul\":19988:19991   */\n      dup3\n        /* \"#utility.yul\":19844:19992   */\n      tag_239\n      jump\t// in\n    tag_480:\n        /* \"#utility.yul\":19837:19992   */\n      swap2\n      pop\n        /* \"#utility.yul\":20002:20077   */\n      tag_481\n        /* \"#utility.yul\":20073:20076   */\n      dup3\n        /* \"#utility.yul\":20064:20070   */\n      dup7\n        /* \"#utility.yul\":20002:20077   */\n      tag_241\n      jump\t// in\n    tag_481:\n        /* \"#utility.yul\":20102:20104   */\n      0x20\n        /* \"#utility.yul\":20097:20100   */\n      dup3\n        /* \"#utility.yul\":20093:20105   */\n      add\n        /* \"#utility.yul\":20086:20105   */\n      swap2\n      pop\n        /* \"#utility.yul\":20122:20215   */\n      tag_482\n        /* \"#utility.yul\":20211:20214   */\n      dup3\n        /* \"#utility.yul\":20202:20208   */\n      dup6\n        /* \"#utility.yul\":20122:20215   */\n      tag_245\n      jump\t// in\n    tag_482:\n        /* \"#utility.yul\":20115:20215   */\n      swap2\n      pop\n        /* \"#utility.yul\":20225:20300   */\n      tag_483\n        /* \"#utility.yul\":20296:20299   */\n      dup3\n        /* \"#utility.yul\":20287:20293   */\n      dup5\n        /* \"#utility.yul\":20225:20300   */\n      tag_235\n      jump\t// in\n    tag_483:\n        /* \"#utility.yul\":20325:20327   */\n      0x20\n        /* \"#utility.yul\":20320:20323   */\n      dup3\n        /* \"#utility.yul\":20316:20328   */\n      add\n        /* \"#utility.yul\":20309:20328   */\n      swap2\n      pop\n        /* \"#utility.yul\":20345:20348   */\n      dup2\n        /* \"#utility.yul\":20338:20348   */\n      swap1\n      pop\n        /* \"#utility.yul\":18786:20354   */\n      swap10\n      swap9\n      pop\n      pop\n      pop\n      pop\n      pop\n      pop\n      pop\n      pop\n      pop\n      jump\t// out\n        /* \"#utility.yul\":20360:20521   */\n    tag_246:\n        /* \"#utility.yul\":20500:20513   */\n      0x6368616e67654f776e6572000000000000000000000000000000000000000000\n        /* \"#utility.yul\":20496:20497   */\n      0x00\n        /* \"#utility.yul\":20488:20494   */\n      dup3\n        /* \"#utility.yul\":20484:20498   */\n      add\n        /* \"#utility.yul\":20477:20514   */\n      mstore\n        /* \"#utility.yul\":20360:20521   */\n      pop\n      jump\t// out\n        /* \"#utility.yul\":20527:20929   */\n    tag_247:\n        /* \"#utility.yul\":20687:20690   */\n      0x00\n        /* \"#utility.yul\":20708:20793   */\n      tag_486\n        /* \"#utility.yul\":20790:20792   */\n      0x0b\n        /* \"#utility.yul\":20785:20788   */\n      dup4\n        /* \"#utility.yul\":20708:20793   */\n      tag_237\n      jump\t// in\n    tag_486:\n        /* \"#utility.yul\":20701:20793   */\n      swap2\n      pop\n        /* \"#utility.yul\":20802:20895   */\n      tag_487\n        /* \"#utility.yul\":20891:20894   */\n      dup3\n        /* \"#utility.yul\":20802:20895   */\n      tag_246\n      jump\t// in\n    tag_487:\n        /* \"#utility.yul\":20920:20922   */\n      0x0b\n        /* \"#utility.yul\":20915:20918   */\n      dup3\n        /* \"#utility.yul\":20911:20923   */\n      add\n        /* \"#utility.yul\":20904:20923   */\n      swap1\n      pop\n        /* \"#utility.yul\":20527:20929   */\n      swap2\n      swap1\n      pop\n      jump\t// out\n        /* \"#utility.yul\":20935:22206   */\n    tag_104:\n        /* \"#utility.yul\":21311:21314   */\n      0x00\n        /* \"#utility.yul\":21326:21399   */\n      tag_489\n        /* \"#utility.yul\":21395:21398   */\n      dup3\n        /* \"#utility.yul\":21386:21392   */\n      dup10\n        /* \"#utility.yul\":21326:21399   */\n      tag_225\n      jump\t// in\n    tag_489:\n        /* \"#utility.yul\":21424:21425   */\n      0x01\n        /* \"#utility.yul\":21419:21422   */\n      dup3\n        /* \"#utility.yul\":21415:21426   */\n      add\n        /* \"#utility.yul\":21408:21426   */\n      swap2\n      pop\n        /* \"#utility.yul\":21436:21509   */\n      tag_490\n        /* \"#utility.yul\":21505:21508   */\n      dup3\n        /* \"#utility.yul\":21496:21502   */\n      dup9\n        /* \"#utility.yul\":21436:21509   */\n      tag_225\n      jump\t// in\n    tag_490:\n        /* \"#utility.yul\":21534:21535   */\n      0x01\n        /* \"#utility.yul\":21529:21532   */\n      dup3\n        /* \"#utility.yul\":21525:21536   */\n      add\n        /* \"#utility.yul\":21518:21536   */\n      swap2\n      pop\n        /* \"#utility.yul\":21546:21648   */\n      tag_491\n        /* \"#utility.yul\":21644:21647   */\n      dup3\n        /* \"#utility.yul\":21635:21641   */\n      dup8\n        /* \"#utility.yul\":21546:21648   */\n      tag_233\n      jump\t// in\n    tag_491:\n        /* \"#utility.yul\":21673:21675   */\n      0x14\n        /* \"#utility.yul\":21668:21671   */\n      dup3\n        /* \"#utility.yul\":21664:21676   */\n      add\n        /* \"#utility.yul\":21657:21676   */\n      swap2\n      pop\n        /* \"#utility.yul\":21686:21761   */\n      tag_492\n        /* \"#utility.yul\":21757:21760   */\n      dup3\n        /* \"#utility.yul\":21748:21754   */\n      dup7\n        /* \"#utility.yul\":21686:21761   */\n      tag_235\n      jump\t// in\n    tag_492:\n        /* \"#utility.yul\":21786:21788   */\n      0x20\n        /* \"#utility.yul\":21781:21784   */\n      dup3\n        /* \"#utility.yul\":21777:21789   */\n      add\n        /* \"#utility.yul\":21770:21789   */\n      swap2\n      pop\n        /* \"#utility.yul\":21799:21874   */\n      tag_493\n        /* \"#utility.yul\":21870:21873   */\n      dup3\n        /* \"#utility.yul\":21861:21867   */\n      dup6\n        /* \"#utility.yul\":21799:21874   */\n      tag_236\n      jump\t// in\n    tag_493:\n        /* \"#utility.yul\":21899:21901   */\n      0x14\n        /* \"#utility.yul\":21894:21897   */\n      dup3\n        /* \"#utility.yul\":21890:21902   */\n      add\n        /* \"#utility.yul\":21883:21902   */\n      swap2\n      pop\n        /* \"#utility.yul\":21919:22067   */\n      tag_494\n        /* \"#utility.yul\":22063:22066   */\n      dup3\n        /* \"#utility.yul\":21919:22067   */\n      tag_247\n      jump\t// in\n    tag_494:\n        /* \"#utility.yul\":21912:22067   */\n      swap2\n      pop\n        /* \"#utility.yul\":22077:22152   */\n      tag_495\n        /* \"#utility.yul\":22148:22151   */\n      dup3\n        /* \"#utility.yul\":22139:22145   */\n      dup5\n        /* \"#utility.yul\":22077:22152   */\n      tag_236\n      jump\t// in\n    tag_495:\n        /* \"#utility.yul\":22177:22179   */\n      0x14\n        /* \"#utility.yul\":22172:22175   */\n      dup3\n        /* \"#utility.yul\":22168:22180   */\n      add\n        /* \"#utility.yul\":22161:22180   */\n      swap2\n      pop\n        /* \"#utility.yul\":22197:22200   */\n      dup2\n        /* \"#utility.yul\":22190:22200   */\n      swap1\n      pop\n        /* \"#utility.yul\":20935:22206   */\n      swap8\n      swap7\n      pop\n      pop\n      pop\n      pop\n      pop\n      pop\n      pop\n      jump\t// out\n        /* \"#utility.yul\":22212:22330   */\n    tag_248:\n        /* \"#utility.yul\":22299:22323   */\n      tag_497\n        /* \"#utility.yul\":22317:22322   */\n      dup2\n        /* \"#utility.yul\":22299:22323   */\n      tag_200\n      jump\t// in\n    tag_497:\n        /* \"#utility.yul\":22294:22297   */\n      dup3\n        /* \"#utility.yul\":22287:22324   */\n      mstore\n        /* \"#utility.yul\":22212:22330   */\n      pop\n      pop\n      jump\t// out\n        /* \"#utility.yul\":22336:22558   */\n    tag_110:\n        /* \"#utility.yul\":22429:22433   */\n      0x00\n        /* \"#utility.yul\":22467:22469   */\n      0x20\n        /* \"#utility.yul\":22456:22465   */\n      dup3\n        /* \"#utility.yul\":22452:22470   */\n      add\n        /* \"#utility.yul\":22444:22470   */\n      swap1\n      pop\n        /* \"#utility.yul\":22480:22551   */\n      tag_499\n        /* \"#utility.yul\":22548:22549   */\n      0x00\n        /* \"#utility.yul\":22537:22546   */\n      dup4\n        /* \"#utility.yul\":22533:22550   */\n      add\n        /* \"#utility.yul\":22524:22530   */\n      dup5\n        /* \"#utility.yul\":22480:22551   */\n      tag_248\n      jump\t// in\n    tag_499:\n        /* \"#utility.yul\":22336:22558   */\n      swap3\n      swap2\n      pop\n      pop\n      jump\t// out\n        /* \"#utility.yul\":22564:22728   */\n    tag_249:\n        /* \"#utility.yul\":22704:22720   */\n      0x7265766f6b6544656c6567617465000000000000000000000000000000000000\n        /* \"#utility.yul\":22700:22701   */\n      0x00\n        /* \"#utility.yul\":22692:22698   */\n      dup3\n        /* \"#utility.yul\":22688:22702   */\n      add\n        /* \"#utility.yul\":22681:22721   */\n      mstore\n        /* \"#utility.yul\":22564:22728   */\n      pop\n      jump\t// out\n        /* \"#utility.yul\":22734:23136   */\n    tag_250:\n        /* \"#utility.yul\":22894:22897   */\n      0x00\n        /* \"#utility.yul\":22915:23000   */\n      tag_502\n        /* \"#utility.yul\":22997:22999   */\n      0x0e\n        /* \"#utility.yul\":22992:22995   */\n      dup4\n        /* \"#utility.yul\":22915:23000   */\n      tag_237\n      jump\t// in\n    tag_502:\n        /* \"#utility.yul\":22908:23000   */\n      swap2\n      pop\n        /* \"#utility.yul\":23009:23102   */\n      tag_503\n        /* \"#utility.yul\":23098:23101   */\n      dup3\n        /* \"#utility.yul\":23009:23102   */\n      tag_249\n      jump\t// in\n    tag_503:\n        /* \"#utility.yul\":23127:23129   */\n      0x0e\n        /* \"#utility.yul\":23122:23125   */\n      dup3\n        /* \"#utility.yul\":23118:23130   */\n      add\n        /* \"#utility.yul\":23111:23130   */\n      swap1\n      pop\n        /* \"#utility.yul\":22734:23136   */\n      swap2\n      swap1\n      pop\n      jump\t// out\n        /* \"#utility.yul\":23142:24554   */\n    tag_121:\n        /* \"#utility.yul\":23546:23549   */\n      0x00\n        /* \"#utility.yul\":23561:23634   */\n      tag_505\n        /* \"#utility.yul\":23630:23633   */\n      dup3\n        /* \"#utility.yul\":23621:23627   */\n      dup11\n        /* \"#utility.yul\":23561:23634   */\n      tag_225\n      jump\t// in\n    tag_505:\n        /* \"#utility.yul\":23659:23660   */\n      0x01\n        /* \"#utility.yul\":23654:23657   */\n      dup3\n        /* \"#utility.yul\":23650:23661   */\n      add\n        /* \"#utility.yul\":23643:23661   */\n      swap2\n      pop\n        /* \"#utility.yul\":23671:23744   */\n      tag_506\n        /* \"#utility.yul\":23740:23743   */\n      dup3\n        /* \"#utility.yul\":23731:23737   */\n      dup10\n        /* \"#utility.yul\":23671:23744   */\n      tag_225\n      jump\t// in\n    tag_506:\n        /* \"#utility.yul\":23769:23770   */\n      0x01\n        /* \"#utility.yul\":23764:23767   */\n      dup3\n        /* \"#utility.yul\":23760:23771   */\n      add\n        /* \"#utility.yul\":23753:23771   */\n      swap2\n      pop\n        /* \"#utility.yul\":23781:23883   */\n      tag_507\n        /* \"#utility.yul\":23879:23882   */\n      dup3\n        /* \"#utility.yul\":23870:23876   */\n      dup9\n        /* \"#utility.yul\":23781:23883   */\n      tag_233\n      jump\t// in\n    tag_507:\n        /* \"#utility.yul\":23908:23910   */\n      0x14\n        /* \"#utility.yul\":23903:23906   */\n      dup3\n        /* \"#utility.yul\":23899:23911   */\n      add\n        /* \"#utility.yul\":23892:23911   */\n      swap2\n      pop\n        /* \"#utility.yul\":23921:23996   */\n      tag_508\n        /* \"#utility.yul\":23992:23995   */\n      dup3\n        /* \"#utility.yul\":23983:23989   */\n      dup8\n        /* \"#utility.yul\":23921:23996   */\n      tag_235\n      jump\t// in\n    tag_508:\n        /* \"#utility.yul\":24021:24023   */\n      0x20\n        /* \"#utility.yul\":24016:24019   */\n      dup3\n        /* \"#utility.yul\":24012:24024   */\n      add\n        /* \"#utility.yul\":24005:24024   */\n      swap2\n      pop\n        /* \"#utility.yul\":24034:24109   */\n      tag_509\n        /* \"#utility.yul\":24105:24108   */\n      dup3\n        /* \"#utility.yul\":24096:24102   */\n      dup7\n        /* \"#utility.yul\":24034:24109   */\n      tag_236\n      jump\t// in\n    tag_509:\n        /* \"#utility.yul\":24134:24136   */\n      0x14\n        /* \"#utility.yul\":24129:24132   */\n      dup3\n        /* \"#utility.yul\":24125:24137   */\n      add\n        /* \"#utility.yul\":24118:24137   */\n      swap2\n      pop\n        /* \"#utility.yul\":24154:24302   */\n      tag_510\n        /* \"#utility.yul\":24298:24301   */\n      dup3\n        /* \"#utility.yul\":24154:24302   */\n      tag_250\n      jump\t// in\n    tag_510:\n        /* \"#utility.yul\":24147:24302   */\n      swap2\n      pop\n        /* \"#utility.yul\":24312:24387   */\n      tag_511\n        /* \"#utility.yul\":24383:24386   */\n      dup3\n        /* \"#utility.yul\":24374:24380   */\n      dup6\n        /* \"#utility.yul\":24312:24387   */\n      tag_241\n      jump\t// in\n    tag_511:\n        /* \"#utility.yul\":24412:24414   */\n      0x20\n        /* \"#utility.yul\":24407:24410   */\n      dup3\n        /* \"#utility.yul\":24403:24415   */\n      add\n        /* \"#utility.yul\":24396:24415   */\n      swap2\n      pop\n        /* \"#utility.yul\":24425:24500   */\n      tag_512\n        /* \"#utility.yul\":24496:24499   */\n      dup3\n        /* \"#utility.yul\":24487:24493   */\n      dup5\n        /* \"#utility.yul\":24425:24500   */\n      tag_236\n      jump\t// in\n    tag_512:\n        /* \"#utility.yul\":24525:24527   */\n      0x14\n        /* \"#utility.yul\":24520:24523   */\n      dup3\n        /* \"#utility.yul\":24516:24528   */\n      add\n        /* \"#utility.yul\":24509:24528   */\n      swap2\n      pop\n        /* \"#utility.yul\":24545:24548   */\n      dup2\n        /* \"#utility.yul\":24538:24548   */\n      swap1\n      pop\n        /* \"#utility.yul\":23142:24554   */\n      swap9\n      swap8\n      pop\n      pop\n      pop\n      pop\n      pop\n      pop\n      pop\n      pop\n      jump\t// out\n        /* \"#utility.yul\":24560:24721   */\n    tag_251:\n        /* \"#utility.yul\":24700:24713   */\n      0x61646444656c6567617465000000000000000000000000000000000000000000\n        /* \"#utility.yul\":24696:24697   */\n      0x00\n        /* \"#utility.yul\":24688:24694   */\n      dup3\n        /* \"#utility.yul\":24684:24698   */\n      add\n        /* \"#utility.yul\":24677:24714   */\n      mstore\n        /* \"#utility.yul\":24560:24721   */\n      pop\n      jump\t// out\n        /* \"#utility.yul\":24727:25129   */\n    tag_252:\n        /* \"#utility.yul\":24887:24890   */\n      0x00\n        /* \"#utility.yul\":24908:24993   */\n      tag_515\n        /* \"#utility.yul\":24990:24992   */\n      0x0b\n        /* \"#utility.yul\":24985:24988   */\n      dup4\n        /* \"#utility.yul\":24908:24993   */\n      tag_237\n      jump\t// in\n    tag_515:\n        /* \"#utility.yul\":24901:24993   */\n      swap2\n      pop\n        /* \"#utility.yul\":25002:25095   */\n      tag_516\n        /* \"#utility.yul\":25091:25094   */\n      dup3\n        /* \"#utility.yul\":25002:25095   */\n      tag_251\n      jump\t// in\n    tag_516:\n        /* \"#utility.yul\":25120:25122   */\n      0x0b\n        /* \"#utility.yul\":25115:25118   */\n      dup3\n        /* \"#utility.yul\":25111:25123   */\n      add\n        /* \"#utility.yul\":25104:25123   */\n      swap1\n      pop\n        /* \"#utility.yul\":24727:25129   */\n      swap2\n      swap1\n      pop\n      jump\t// out\n        /* \"#utility.yul\":25135:26688   */\n    tag_127:\n        /* \"#utility.yul\":25567:25570   */\n      0x00\n        /* \"#utility.yul\":25582:25655   */\n      tag_518\n        /* \"#utility.yul\":25651:25654   */\n      dup3\n        /* \"#utility.yul\":25642:25648   */\n      dup12\n        /* \"#utility.yul\":25582:25655   */\n      tag_225\n      jump\t// in\n    tag_518:\n        /* \"#utility.yul\":25680:25681   */\n      0x01\n        /* \"#utility.yul\":25675:25678   */\n      dup3\n        /* \"#utility.yul\":25671:25682   */\n      add\n        /* \"#utility.yul\":25664:25682   */\n      swap2\n      pop\n        /* \"#utility.yul\":25692:25765   */\n      tag_519\n        /* \"#utility.yul\":25761:25764   */\n      dup3\n        /* \"#utility.yul\":25752:25758   */\n      dup11\n        /* \"#utility.yul\":25692:25765   */\n      tag_225\n      jump\t// in\n    tag_519:\n        /* \"#utility.yul\":25790:25791   */\n      0x01\n        /* \"#utility.yul\":25785:25788   */\n      dup3\n        /* \"#utility.yul\":25781:25792   */\n      add\n        /* \"#utility.yul\":25774:25792   */\n      swap2\n      pop\n        /* \"#utility.yul\":25802:25904   */\n      tag_520\n        /* \"#utility.yul\":25900:25903   */\n      dup3\n        /* \"#utility.yul\":25891:25897   */\n      dup10\n        /* \"#utility.yul\":25802:25904   */\n      tag_233\n      jump\t// in\n    tag_520:\n        /* \"#utility.yul\":25929:25931   */\n      0x14\n        /* \"#utility.yul\":25924:25927   */\n      dup3\n        /* \"#utility.yul\":25920:25932   */\n      add\n        /* \"#utility.yul\":25913:25932   */\n      swap2\n      pop\n        /* \"#utility.yul\":25942:26017   */\n      tag_521\n        /* \"#utility.yul\":26013:26016   */\n      dup3\n        /* \"#utility.yul\":26004:26010   */\n      dup9\n        /* \"#utility.yul\":25942:26017   */\n      tag_235\n      jump\t// in\n    tag_521:\n        /* \"#utility.yul\":26042:26044   */\n      0x20\n        /* \"#utility.yul\":26037:26040   */\n      dup3\n        /* \"#utility.yul\":26033:26045   */\n      add\n        /* \"#utility.yul\":26026:26045   */\n      swap2\n      pop\n        /* \"#utility.yul\":26055:26130   */\n      tag_522\n        /* \"#utility.yul\":26126:26129   */\n      dup3\n        /* \"#utility.yul\":26117:26123   */\n      dup8\n        /* \"#utility.yul\":26055:26130   */\n      tag_236\n      jump\t// in\n    tag_522:\n        /* \"#utility.yul\":26155:26157   */\n      0x14\n        /* \"#utility.yul\":26150:26153   */\n      dup3\n        /* \"#utility.yul\":26146:26158   */\n      add\n        /* \"#utility.yul\":26139:26158   */\n      swap2\n      pop\n        /* \"#utility.yul\":26175:26323   */\n      tag_523\n        /* \"#utility.yul\":26319:26322   */\n      dup3\n        /* \"#utility.yul\":26175:26323   */\n      tag_252\n      jump\t// in\n    tag_523:\n        /* \"#utility.yul\":26168:26323   */\n      swap2\n      pop\n        /* \"#utility.yul\":26333:26408   */\n      tag_524\n        /* \"#utility.yul\":26404:26407   */\n      dup3\n        /* \"#utility.yul\":26395:26401   */\n      dup7\n        /* \"#utility.yul\":26333:26408   */\n      tag_241\n      jump\t// in\n    tag_524:\n        /* \"#utility.yul\":26433:26435   */\n      0x20\n        /* \"#utility.yul\":26428:26431   */\n      dup3\n        /* \"#utility.yul\":26424:26436   */\n      add\n        /* \"#utility.yul\":26417:26436   */\n      swap2\n      pop\n        /* \"#utility.yul\":26446:26521   */\n      tag_525\n        /* \"#utility.yul\":26517:26520   */\n      dup3\n        /* \"#utility.yul\":26508:26514   */\n      dup6\n        /* \"#utility.yul\":26446:26521   */\n      tag_236\n      jump\t// in\n    tag_525:\n        /* \"#utility.yul\":26546:26548   */\n      0x14\n        /* \"#utility.yul\":26541:26544   */\n      dup3\n        /* \"#utility.yul\":26537:26549   */\n      add\n        /* \"#utility.yul\":26530:26549   */\n      swap2\n      pop\n        /* \"#utility.yul\":26559:26634   */\n      tag_526\n        /* \"#utility.yul\":26630:26633   */\n      dup3\n        /* \"#utility.yul\":26621:26627   */\n      dup5\n        /* \"#utility.yul\":26559:26634   */\n      tag_235\n      jump\t// in\n    tag_526:\n        /* \"#utility.yul\":26659:26661   */\n      0x20\n        /* \"#utility.yul\":26654:26657   */\n      dup3\n        /* \"#utility.yul\":26650:26662   */\n      add\n        /* \"#utility.yul\":26643:26662   */\n      swap2\n      pop\n        /* \"#utility.yul\":26679:26682   */\n      dup2\n        /* \"#utility.yul\":26672:26682   */\n      swap1\n      pop\n        /* \"#utility.yul\":25135:26688   */\n      swap10\n      swap9\n      pop\n      pop\n      pop\n      pop\n      pop\n      pop\n      pop\n      pop\n      pop\n      jump\t// out\n        /* \"#utility.yul\":26694:26859   */\n    tag_253:\n        /* \"#utility.yul\":26834:26851   */\n      0x7265766f6b654174747269627574650000000000000000000000000000000000\n        /* \"#utility.yul\":26830:26831   */\n      0x00\n        /* \"#utility.yul\":26822:26828   */\n      dup3\n        /* \"#utility.yul\":26818:26832   */\n      add\n        /* \"#utility.yul\":26811:26852   */\n      mstore\n        /* \"#utility.yul\":26694:26859   */\n      pop\n      jump\t// out\n        /* \"#utility.yul\":26865:27267   */\n    tag_254:\n        /* \"#utility.yul\":27025:27028   */\n      0x00\n        /* \"#utility.yul\":27046:27131   */\n      tag_529\n        /* \"#utility.yul\":27128:27130   */\n      0x0f\n        /* \"#utility.yul\":27123:27126   */\n      dup4\n        /* \"#utility.yul\":27046:27131   */\n      tag_237\n      jump\t// in\n    tag_529:\n        /* \"#utility.yul\":27039:27131   */\n      swap2\n      pop\n        /* \"#utility.yul\":27140:27233   */\n      tag_530\n        /* \"#utility.yul\":27229:27232   */\n      dup3\n        /* \"#utility.yul\":27140:27233   */\n      tag_253\n      jump\t// in\n    tag_530:\n        /* \"#utility.yul\":27258:27260   */\n      0x0f\n        /* \"#utility.yul\":27253:27256   */\n      dup3\n        /* \"#utility.yul\":27249:27261   */\n      add\n        /* \"#utility.yul\":27242:27261   */\n      swap1\n      pop\n        /* \"#utility.yul\":26865:27267   */\n      swap2\n      swap1\n      pop\n      jump\t// out\n        /* \"#utility.yul\":27273:28700   */\n    tag_136:\n        /* \"#utility.yul\":27695:27698   */\n      0x00\n        /* \"#utility.yul\":27710:27783   */\n      tag_532\n        /* \"#utility.yul\":27779:27782   */\n      dup3\n        /* \"#utility.yul\":27770:27776   */\n      dup11\n        /* \"#utility.yul\":27710:27783   */\n      tag_225\n      jump\t// in\n    tag_532:\n        /* \"#utility.yul\":27808:27809   */\n      0x01\n        /* \"#utility.yul\":27803:27806   */\n      dup3\n        /* \"#utility.yul\":27799:27810   */\n      add\n        /* \"#utility.yul\":27792:27810   */\n      swap2\n      pop\n        /* \"#utility.yul\":27820:27893   */\n      tag_533\n        /* \"#utility.yul\":27889:27892   */\n      dup3\n        /* \"#utility.yul\":27880:27886   */\n      dup10\n        /* \"#utility.yul\":27820:27893   */\n      tag_225\n      jump\t// in\n    tag_533:\n        /* \"#utility.yul\":27918:27919   */\n      0x01\n        /* \"#utility.yul\":27913:27916   */\n      dup3\n        /* \"#utility.yul\":27909:27920   */\n      add\n        /* \"#utility.yul\":27902:27920   */\n      swap2\n      pop\n        /* \"#utility.yul\":27930:28032   */\n      tag_534\n        /* \"#utility.yul\":28028:28031   */\n      dup3\n        /* \"#utility.yul\":28019:28025   */\n      dup9\n        /* \"#utility.yul\":27930:28032   */\n      tag_233\n      jump\t// in\n    tag_534:\n        /* \"#utility.yul\":28057:28059   */\n      0x14\n        /* \"#utility.yul\":28052:28055   */\n      dup3\n        /* \"#utility.yul\":28048:28060   */\n      add\n        /* \"#utility.yul\":28041:28060   */\n      swap2\n      pop\n        /* \"#utility.yul\":28070:28145   */\n      tag_535\n        /* \"#utility.yul\":28141:28144   */\n      dup3\n        /* \"#utility.yul\":28132:28138   */\n      dup8\n        /* \"#utility.yul\":28070:28145   */\n      tag_235\n      jump\t// in\n    tag_535:\n        /* \"#utility.yul\":28170:28172   */\n      0x20\n        /* \"#utility.yul\":28165:28168   */\n      dup3\n        /* \"#utility.yul\":28161:28173   */\n      add\n        /* \"#utility.yul\":28154:28173   */\n      swap2\n      pop\n        /* \"#utility.yul\":28183:28258   */\n      tag_536\n        /* \"#utility.yul\":28254:28257   */\n      dup3\n        /* \"#utility.yul\":28245:28251   */\n      dup7\n        /* \"#utility.yul\":28183:28258   */\n      tag_236\n      jump\t// in\n    tag_536:\n        /* \"#utility.yul\":28283:28285   */\n      0x14\n        /* \"#utility.yul\":28278:28281   */\n      dup3\n        /* \"#utility.yul\":28274:28286   */\n      add\n        /* \"#utility.yul\":28267:28286   */\n      swap2\n      pop\n        /* \"#utility.yul\":28303:28451   */\n      tag_537\n        /* \"#utility.yul\":28447:28450   */\n      dup3\n        /* \"#utility.yul\":28303:28451   */\n      tag_254\n      jump\t// in\n    tag_537:\n        /* \"#utility.yul\":28296:28451   */\n      swap2\n      pop\n        /* \"#utility.yul\":28461:28536   */\n      tag_538\n        /* \"#utility.yul\":28532:28535   */\n      dup3\n        /* \"#utility.yul\":28523:28529   */\n      dup6\n        /* \"#utility.yul\":28461:28536   */\n      tag_241\n      jump\t// in\n    tag_538:\n        /* \"#utility.yul\":28561:28563   */\n      0x20\n        /* \"#utility.yul\":28556:28559   */\n      dup3\n        /* \"#utility.yul\":28552:28564   */\n      add\n        /* \"#utility.yul\":28545:28564   */\n      swap2\n      pop\n        /* \"#utility.yul\":28581:28674   */\n      tag_539\n        /* \"#utility.yul\":28670:28673   */\n      dup3\n        /* \"#utility.yul\":28661:28667   */\n      dup5\n        /* \"#utility.yul\":28581:28674   */\n      tag_245\n      jump\t// in\n    tag_539:\n        /* \"#utility.yul\":28574:28674   */\n      swap2\n      pop\n        /* \"#utility.yul\":28691:28694   */\n      dup2\n        /* \"#utility.yul\":28684:28694   */\n      swap1\n      pop\n        /* \"#utility.yul\":27273:28700   */\n      swap9\n      swap8\n      pop\n      pop\n      pop\n      pop\n      pop\n      pop\n      pop\n      pop\n      jump\t// out\n        /* \"#utility.yul\":28706:28875   */\n    tag_255:\n        /* \"#utility.yul\":28790:28801   */\n      0x00\n        /* \"#utility.yul\":28824:28830   */\n      dup3\n        /* \"#utility.yul\":28819:28822   */\n      dup3\n        /* \"#utility.yul\":28812:28831   */\n      mstore\n        /* \"#utility.yul\":28864:28868   */\n      0x20\n        /* \"#utility.yul\":28859:28862   */\n      dup3\n        /* \"#utility.yul\":28855:28869   */\n      add\n        /* \"#utility.yul\":28840:28869   */\n      swap1\n      pop\n        /* \"#utility.yul\":28706:28875   */\n      swap3\n      swap2\n      pop\n      pop\n      jump\t// out\n        /* \"#utility.yul\":28881:29040   */\n    tag_256:\n        /* \"#utility.yul\":29021:29032   */\n      0x6261645f6163746f720000000000000000000000000000000000000000000000\n        /* \"#utility.yul\":29017:29018   */\n      0x00\n        /* \"#utility.yul\":29009:29015   */\n      dup3\n        /* \"#utility.yul\":29005:29019   */\n      add\n        /* \"#utility.yul\":28998:29033   */\n      mstore\n        /* \"#utility.yul\":28881:29040   */\n      pop\n      jump\t// out\n        /* \"#utility.yul\":29046:29411   */\n    tag_257:\n        /* \"#utility.yul\":29188:29191   */\n      0x00\n        /* \"#utility.yul\":29209:29275   */\n      tag_543\n        /* \"#utility.yul\":29273:29274   */\n      0x09\n        /* \"#utility.yul\":29268:29271   */\n      dup4\n        /* \"#utility.yul\":29209:29275   */\n      tag_255\n      jump\t// in\n    tag_543:\n        /* \"#utility.yul\":29202:29275   */\n      swap2\n      pop\n        /* \"#utility.yul\":29284:29377   */\n      tag_544\n        /* \"#utility.yul\":29373:29376   */\n      dup3\n        /* \"#utility.yul\":29284:29377   */\n      tag_256\n      jump\t// in\n    tag_544:\n        /* \"#utility.yul\":29402:29404   */\n      0x20\n        /* \"#utility.yul\":29397:29400   */\n      dup3\n        /* \"#utility.yul\":29393:29405   */\n      add\n        /* \"#utility.yul\":29386:29405   */\n      swap1\n      pop\n        /* \"#utility.yul\":29046:29411   */\n      swap2\n      swap1\n      pop\n      jump\t// out\n        /* \"#utility.yul\":29417:29836   */\n    tag_145:\n        /* \"#utility.yul\":29583:29587   */\n      0x00\n        /* \"#utility.yul\":29621:29623   */\n      0x20\n        /* \"#utility.yul\":29610:29619   */\n      dup3\n        /* \"#utility.yul\":29606:29624   */\n      add\n        /* \"#utility.yul\":29598:29624   */\n      swap1\n      pop\n        /* \"#utility.yul\":29670:29679   */\n      dup2\n        /* \"#utility.yul\":29664:29668   */\n      dup2\n        /* \"#utility.yul\":29660:29680   */\n      sub\n        /* \"#utility.yul\":29656:29657   */\n      0x00\n        /* \"#utility.yul\":29645:29654   */\n      dup4\n        /* \"#utility.yul\":29641:29658   */\n      add\n        /* \"#utility.yul\":29634:29681   */\n      mstore\n        /* \"#utility.yul\":29698:29829   */\n      tag_546\n        /* \"#utility.yul\":29824:29828   */\n      dup2\n        /* \"#utility.yul\":29698:29829   */\n      tag_257\n      jump\t// in\n    tag_546:\n        /* \"#utility.yul\":29690:29829   */\n      swap1\n      pop\n        /* \"#utility.yul\":29417:29836   */\n      swap2\n      swap1\n      pop\n      jump\t// out\n        /* \"#utility.yul\":29842:30010   */\n    tag_258:\n        /* \"#utility.yul\":29925:29936   */\n      0x00\n        /* \"#utility.yul\":29959:29965   */\n      dup3\n        /* \"#utility.yul\":29954:29957   */\n      dup3\n        /* \"#utility.yul\":29947:29966   */\n      mstore\n        /* \"#utility.yul\":29999:30003   */\n      0x20\n        /* \"#utility.yul\":29994:29997   */\n      dup3\n        /* \"#utility.yul\":29990:30004   */\n      add\n        /* \"#utility.yul\":29975:30004   */\n      swap1\n      pop\n        /* \"#utility.yul\":29842:30010   */\n      swap3\n      swap2\n      pop\n      pop\n      jump\t// out\n        /* \"#utility.yul\":30016:30376   */\n    tag_259:\n        /* \"#utility.yul\":30102:30105   */\n      0x00\n        /* \"#utility.yul\":30130:30168   */\n      tag_549\n        /* \"#utility.yul\":30162:30167   */\n      dup3\n        /* \"#utility.yul\":30130:30168   */\n      tag_242\n      jump\t// in\n    tag_549:\n        /* \"#utility.yul\":30184:30254   */\n      tag_550\n        /* \"#utility.yul\":30247:30253   */\n      dup2\n        /* \"#utility.yul\":30242:30245   */\n      dup6\n        /* \"#utility.yul\":30184:30254   */\n      tag_258\n      jump\t// in\n    tag_550:\n        /* \"#utility.yul\":30177:30254   */\n      swap4\n      pop\n        /* \"#utility.yul\":30263:30315   */\n      tag_551\n        /* \"#utility.yul\":30308:30314   */\n      dup2\n        /* \"#utility.yul\":30303:30306   */\n      dup6\n        /* \"#utility.yul\":30296:30300   */\n      0x20\n        /* \"#utility.yul\":30289:30294   */\n      dup7\n        /* \"#utility.yul\":30285:30301   */\n      add\n        /* \"#utility.yul\":30263:30315   */\n      tag_244\n      jump\t// in\n    tag_551:\n        /* \"#utility.yul\":30340:30369   */\n      tag_552\n        /* \"#utility.yul\":30362:30368   */\n      dup2\n        /* \"#utility.yul\":30340:30369   */\n      tag_205\n      jump\t// in\n    tag_552:\n        /* \"#utility.yul\":30335:30338   */\n      dup5\n        /* \"#utility.yul\":30331:30370   */\n      add\n        /* \"#utility.yul\":30324:30370   */\n      swap2\n      pop\n        /* \"#utility.yul\":30106:30376   */\n      pop\n        /* \"#utility.yul\":30016:30376   */\n      swap3\n      swap2\n      pop\n      pop\n      jump\t// out\n        /* \"#utility.yul\":30382:30467   */\n    tag_260:\n        /* \"#utility.yul\":30427:30434   */\n      0x00\n        /* \"#utility.yul\":30456:30461   */\n      dup2\n        /* \"#utility.yul\":30445:30461   */\n      swap1\n      pop\n        /* \"#utility.yul\":30382:30467   */\n      swap2\n      swap1\n      pop\n      jump\t// out\n        /* \"#utility.yul\":30473:30631   */\n    tag_261:\n        /* \"#utility.yul\":30531:30540   */\n      0x00\n        /* \"#utility.yul\":30564:30625   */\n      tag_555\n        /* \"#utility.yul\":30582:30624   */\n      tag_556\n        /* \"#utility.yul\":30591:30623   */\n      tag_557\n        /* \"#utility.yul\":30617:30622   */\n      dup5\n        /* \"#utility.yul\":30591:30623   */\n      tag_260\n      jump\t// in\n    tag_557:\n        /* \"#utility.yul\":30582:30624   */\n      tag_226\n      jump\t// in\n    tag_556:\n        /* \"#utility.yul\":30564:30625   */\n      tag_214\n      jump\t// in\n    tag_555:\n        /* \"#utility.yul\":30551:30625   */\n      swap1\n      pop\n        /* \"#utility.yul\":30473:30631   */\n      swap2\n      swap1\n      pop\n      jump\t// out\n        /* \"#utility.yul\":30637:30784   */\n    tag_262:\n        /* \"#utility.yul\":30732:30777   */\n      tag_559\n        /* \"#utility.yul\":30771:30776   */\n      dup2\n        /* \"#utility.yul\":30732:30777   */\n      tag_261\n      jump\t// in\n    tag_559:\n        /* \"#utility.yul\":30727:30730   */\n      dup3\n        /* \"#utility.yul\":30720:30778   */\n      mstore\n        /* \"#utility.yul\":30637:30784   */\n      pop\n      pop\n      jump\t// out\n        /* \"#utility.yul\":30790:31446   */\n    tag_148:\n        /* \"#utility.yul\":30993:30997   */\n      0x00\n        /* \"#utility.yul\":31031:31034   */\n      0x80\n        /* \"#utility.yul\":31020:31029   */\n      dup3\n        /* \"#utility.yul\":31016:31035   */\n      add\n        /* \"#utility.yul\":31008:31035   */\n      swap1\n      pop\n        /* \"#utility.yul\":31045:31116   */\n      tag_561\n        /* \"#utility.yul\":31113:31114   */\n      0x00\n        /* \"#utility.yul\":31102:31111   */\n      dup4\n        /* \"#utility.yul\":31098:31115   */\n      add\n        /* \"#utility.yul\":31089:31095   */\n      dup8\n        /* \"#utility.yul\":31045:31116   */\n      tag_248\n      jump\t// in\n    tag_561:\n        /* \"#utility.yul\":31163:31172   */\n      dup2\n        /* \"#utility.yul\":31157:31161   */\n      dup2\n        /* \"#utility.yul\":31153:31173   */\n      sub\n        /* \"#utility.yul\":31148:31150   */\n      0x20\n        /* \"#utility.yul\":31137:31146   */\n      dup4\n        /* \"#utility.yul\":31133:31151   */\n      add\n        /* \"#utility.yul\":31126:31174   */\n      mstore\n        /* \"#utility.yul\":31191:31267   */\n      tag_562\n        /* \"#utility.yul\":31262:31266   */\n      dup2\n        /* \"#utility.yul\":31253:31259   */\n      dup7\n        /* \"#utility.yul\":31191:31267   */\n      tag_259\n      jump\t// in\n    tag_562:\n        /* \"#utility.yul\":31183:31267   */\n      swap1\n      pop\n        /* \"#utility.yul\":31277:31357   */\n      tag_563\n        /* \"#utility.yul\":31353:31355   */\n      0x40\n        /* \"#utility.yul\":31342:31351   */\n      dup4\n        /* \"#utility.yul\":31338:31356   */\n      add\n        /* \"#utility.yul\":31329:31335   */\n      dup6\n        /* \"#utility.yul\":31277:31357   */\n      tag_262\n      jump\t// in\n    tag_563:\n        /* \"#utility.yul\":31367:31439   */\n      tag_564\n        /* \"#utility.yul\":31435:31437   */\n      0x60\n        /* \"#utility.yul\":31424:31433   */\n      dup4\n        /* \"#utility.yul\":31420:31438   */\n      add\n        /* \"#utility.yul\":31411:31417   */\n      dup5\n        /* \"#utility.yul\":31367:31439   */\n      tag_215\n      jump\t// in\n    tag_564:\n        /* \"#utility.yul\":30790:31446   */\n      swap6\n      swap5\n      pop\n      pop\n      pop\n      pop\n      pop\n      jump\t// out\n        /* \"#utility.yul\":31452:31564   */\n    tag_263:\n        /* \"#utility.yul\":31535:31557   */\n      tag_566\n        /* \"#utility.yul\":31551:31556   */\n      dup2\n        /* \"#utility.yul\":31535:31557   */\n      tag_216\n      jump\t// in\n    tag_566:\n        /* \"#utility.yul\":31530:31533   */\n      dup3\n        /* \"#utility.yul\":31523:31558   */\n      mstore\n        /* \"#utility.yul\":31452:31564   */\n      pop\n      pop\n      jump\t// out\n        /* \"#utility.yul\":31570:32115   */\n    tag_151:\n        /* \"#utility.yul\":31743:31747   */\n      0x00\n        /* \"#utility.yul\":31781:31784   */\n      0x80\n        /* \"#utility.yul\":31770:31779   */\n      dup3\n        /* \"#utility.yul\":31766:31785   */\n      add\n        /* \"#utility.yul\":31758:31785   */\n      swap1\n      pop\n        /* \"#utility.yul\":31795:31866   */\n      tag_568\n        /* \"#utility.yul\":31863:31864   */\n      0x00\n        /* \"#utility.yul\":31852:31861   */\n      dup4\n        /* \"#utility.yul\":31848:31865   */\n      add\n        /* \"#utility.yul\":31839:31845   */\n      dup8\n        /* \"#utility.yul\":31795:31866   */\n      tag_248\n      jump\t// in\n    tag_568:\n        /* \"#utility.yul\":31876:31944   */\n      tag_569\n        /* \"#utility.yul\":31940:31942   */\n      0x20\n        /* \"#utility.yul\":31929:31938   */\n      dup4\n        /* \"#utility.yul\":31925:31943   */\n      add\n        /* \"#utility.yul\":31916:31922   */\n      dup7\n        /* \"#utility.yul\":31876:31944   */\n      tag_263\n      jump\t// in\n    tag_569:\n        /* \"#utility.yul\":31954:32026   */\n      tag_570\n        /* \"#utility.yul\":32022:32024   */\n      0x40\n        /* \"#utility.yul\":32011:32020   */\n      dup4\n        /* \"#utility.yul\":32007:32025   */\n      add\n        /* \"#utility.yul\":31998:32004   */\n      dup6\n        /* \"#utility.yul\":31954:32026   */\n      tag_248\n      jump\t// in\n    tag_570:\n        /* \"#utility.yul\":32036:32108   */\n      tag_571\n        /* \"#utility.yul\":32104:32106   */\n      0x60\n        /* \"#utility.yul\":32093:32102   */\n      dup4\n        /* \"#utility.yul\":32089:32107   */\n      add\n        /* \"#utility.yul\":32080:32086   */\n      dup5\n        /* \"#utility.yul\":32036:32108   */\n      tag_248\n      jump\t// in\n    tag_571:\n        /* \"#utility.yul\":31570:32115   */\n      swap6\n      swap5\n      pop\n      pop\n      pop\n      pop\n      pop\n      jump\t// out\n        /* \"#utility.yul\":32121:32284   */\n    tag_264:\n        /* \"#utility.yul\":32261:32276   */\n      0x6261645f7369676e617475726500000000000000000000000000000000000000\n        /* \"#utility.yul\":32257:32258   */\n      0x00\n        /* \"#utility.yul\":32249:32255   */\n      dup3\n        /* \"#utility.yul\":32245:32259   */\n      add\n        /* \"#utility.yul\":32238:32277   */\n      mstore\n        /* \"#utility.yul\":32121:32284   */\n      pop\n      jump\t// out\n        /* \"#utility.yul\":32290:32656   */\n    tag_265:\n        /* \"#utility.yul\":32432:32435   */\n      0x00\n        /* \"#utility.yul\":32453:32520   */\n      tag_574\n        /* \"#utility.yul\":32517:32519   */\n      0x0d\n        /* \"#utility.yul\":32512:32515   */\n      dup4\n        /* \"#utility.yul\":32453:32520   */\n      tag_255\n      jump\t// in\n    tag_574:\n        /* \"#utility.yul\":32446:32520   */\n      swap2\n      pop\n        /* \"#utility.yul\":32529:32622   */\n      tag_575\n        /* \"#utility.yul\":32618:32621   */\n      dup3\n        /* \"#utility.yul\":32529:32622   */\n      tag_264\n      jump\t// in\n    tag_575:\n        /* \"#utility.yul\":32647:32649   */\n      0x20\n        /* \"#utility.yul\":32642:32645   */\n      dup3\n        /* \"#utility.yul\":32638:32650   */\n      add\n        /* \"#utility.yul\":32631:32650   */\n      swap1\n      pop\n        /* \"#utility.yul\":32290:32656   */\n      swap2\n      swap1\n      pop\n      jump\t// out\n        /* \"#utility.yul\":32662:33081   */\n    tag_157:\n        /* \"#utility.yul\":32828:32832   */\n      0x00\n        /* \"#utility.yul\":32866:32868   */\n      0x20\n        /* \"#utility.yul\":32855:32864   */\n      dup3\n        /* \"#utility.yul\":32851:32869   */\n      add\n        /* \"#utility.yul\":32843:32869   */\n      swap1\n      pop\n        /* \"#utility.yul\":32915:32924   */\n      dup2\n        /* \"#utility.yul\":32909:32913   */\n      dup2\n        /* \"#utility.yul\":32905:32925   */\n      sub\n        /* \"#utility.yul\":32901:32902   */\n      0x00\n        /* \"#utility.yul\":32890:32899   */\n      dup4\n        /* \"#utility.yul\":32886:32903   */\n      add\n        /* \"#utility.yul\":32879:32926   */\n      mstore\n        /* \"#utility.yul\":32943:33074   */\n      tag_577\n        /* \"#utility.yul\":33069:33073   */\n      dup2\n        /* \"#utility.yul\":32943:33074   */\n      tag_265\n      jump\t// in\n    tag_577:\n        /* \"#utility.yul\":32935:33074   */\n      swap1\n      pop\n        /* \"#utility.yul\":32662:33081   */\n      swap2\n      swap1\n      pop\n      jump\t// out\n        /* \"#utility.yul\":33087:33267   */\n    tag_266:\n        /* \"#utility.yul\":33135:33212   */\n      0x4e487b7100000000000000000000000000000000000000000000000000000000\n        /* \"#utility.yul\":33132:33133   */\n      0x00\n        /* \"#utility.yul\":33125:33213   */\n      mstore\n        /* \"#utility.yul\":33232:33236   */\n      0x11\n        /* \"#utility.yul\":33229:33230   */\n      0x04\n        /* \"#utility.yul\":33222:33237   */\n      mstore\n        /* \"#utility.yul\":33256:33260   */\n      0x24\n        /* \"#utility.yul\":33253:33254   */\n      0x00\n        /* \"#utility.yul\":33246:33261   */\n      revert\n        /* \"#utility.yul\":33273:33506   */\n    tag_159:\n        /* \"#utility.yul\":33312:33315   */\n      0x00\n        /* \"#utility.yul\":33335:33359   */\n      tag_580\n        /* \"#utility.yul\":33353:33358   */\n      dup3\n        /* \"#utility.yul\":33335:33359   */\n      tag_214\n      jump\t// in\n    tag_580:\n        /* \"#utility.yul\":33326:33359   */\n      swap2\n      pop\n        /* \"#utility.yul\":33381:33447   */\n      0xffffffffffffffffffffffffffffffffffffffffffffffffffffffffffffffff\n        /* \"#utility.yul\":33374:33379   */\n      dup3\n        /* \"#utility.yul\":33371:33448   */\n      eq\n        /* \"#utility.yul\":33368:33471   */\n      iszero\n      tag_581\n      jumpi\n        /* \"#utility.yul\":33451:33469   */\n      tag_582\n      tag_266\n      jump\t// in\n    tag_582:\n        /* \"#utility.yul\":33368:33471   */\n    tag_581:\n        /* \"#utility.yul\":33498:33499   */\n      0x01\n        /* \"#utility.yul\":33491:33496   */\n      dup3\n        /* \"#utility.yul\":33487:33500   */\n      add\n        /* \"#utility.yul\":33480:33500   */\n      swap1\n      pop\n        /* \"#utility.yul\":33273:33506   */\n      swap2\n      swap1\n      pop\n      jump\t// out\n        /* \"#utility.yul\":33512:33817   */\n    tag_166:\n        /* \"#utility.yul\":33552:33555   */\n      0x00\n        /* \"#utility.yul\":33571:33591   */\n      tag_584\n        /* \"#utility.yul\":33589:33590   */\n      dup3\n        /* \"#utility.yul\":33571:33591   */\n      tag_214\n      jump\t// in\n    tag_584:\n        /* \"#utility.yul\":33566:33591   */\n      swap2\n      pop\n        /* \"#utility.yul\":33605:33625   */\n      tag_585\n        /* \"#utility.yul\":33623:33624   */\n      dup4\n        /* \"#utility.yul\":33605:33625   */\n      tag_214\n      jump\t// in\n    tag_585:\n        /* \"#utility.yul\":33600:33625   */\n      swap3\n      pop\n        /* \"#utility.yul\":33759:33760   */\n      dup3\n        /* \"#utility.yul\":33691:33757   */\n      0xffffffffffffffffffffffffffffffffffffffffffffffffffffffffffffffff\n        /* \"#utility.yul\":33687:33761   */\n      sub\n        /* \"#utility.yul\":33684:33685   */\n      dup3\n        /* \"#utility.yul\":33681:33762   */\n      gt\n        /* \"#utility.yul\":33678:33785   */\n      iszero\n      tag_586\n      jumpi\n        /* \"#utility.yul\":33765:33783   */\n      tag_587\n      tag_266\n      jump\t// in\n    tag_587:\n        /* \"#utility.yul\":33678:33785   */\n    tag_586:\n        /* \"#utility.yul\":33809:33810   */\n      dup3\n        /* \"#utility.yul\":33806:33807   */\n      dup3\n        /* \"#utility.yul\":33802:33811   */\n      add\n        /* \"#utility.yul\":33795:33811   */\n      swap1\n      pop\n        /* \"#utility.yul\":33512:33817   */\n      swap3\n      swap2\n      pop\n      pop\n      jump\t// out\n        /* \"#utility.yul\":33823:34463   */\n    tag_168:\n        /* \"#utility.yul\":34018:34022   */\n      0x00\n        /* \"#utility.yul\":34056:34059   */\n      0x80\n        /* \"#utility.yul\":34045:34054   */\n      dup3\n        /* \"#utility.yul\":34041:34060   */\n      add\n        /* \"#utility.yul\":34033:34060   */\n      swap1\n      pop\n        /* \"#utility.yul\":34070:34141   */\n      tag_589\n        /* \"#utility.yul\":34138:34139   */\n      0x00\n        /* \"#utility.yul\":34127:34136   */\n      dup4\n        /* \"#utility.yul\":34123:34140   */\n      add\n        /* \"#utility.yul\":34114:34120   */\n      dup8\n        /* \"#utility.yul\":34070:34141   */\n      tag_248\n      jump\t// in\n    tag_589:\n        /* \"#utility.yul\":34188:34197   */\n      dup2\n        /* \"#utility.yul\":34182:34186   */\n      dup2\n        /* \"#utility.yul\":34178:34198   */\n      sub\n        /* \"#utility.yul\":34173:34175   */\n      0x20\n        /* \"#utility.yul\":34162:34171   */\n      dup4\n        /* \"#utility.yul\":34158:34176   */\n      add\n        /* \"#utility.yul\":34151:34199   */\n      mstore\n        /* \"#utility.yul\":34216:34292   */\n      tag_590\n        /* \"#utility.yul\":34287:34291   */\n      dup2\n        /* \"#utility.yul\":34278:34284   */\n      dup7\n        /* \"#utility.yul\":34216:34292   */\n      tag_259\n      jump\t// in\n    tag_590:\n        /* \"#utility.yul\":34208:34292   */\n      swap1\n      pop\n        /* \"#utility.yul\":34302:34374   */\n      tag_591\n        /* \"#utility.yul\":34370:34372   */\n      0x40\n        /* \"#utility.yul\":34359:34368   */\n      dup4\n        /* \"#utility.yul\":34355:34373   */\n      add\n        /* \"#utility.yul\":34346:34352   */\n      dup6\n        /* \"#utility.yul\":34302:34374   */\n      tag_215\n      jump\t// in\n    tag_591:\n        /* \"#utility.yul\":34384:34456   */\n      tag_592\n        /* \"#utility.yul\":34452:34454   */\n      0x60\n        /* \"#utility.yul\":34441:34450   */\n      dup4\n        /* \"#utility.yul\":34437:34455   */\n      add\n        /* \"#utility.yul\":34428:34434   */\n      dup5\n        /* \"#utility.yul\":34384:34456   */\n      tag_215\n      jump\t// in\n    tag_592:\n        /* \"#utility.yul\":33823:34463   */\n      swap6\n      swap5\n      pop\n      pop\n      pop\n      pop\n      pop\n      jump\t// out\n        /* \"#utility.yul\":34469:34801   */\n    tag_175:\n        /* \"#utility.yul\":34590:34594   */\n      0x00\n        /* \"#utility.yul\":34628:34630   */\n      0x40\n        /* \"#utility.yul\":34617:34626   */\n      dup3\n        /* \"#utility.yul\":34613:34631   */\n      add\n        /* \"#utility.yul\":34605:34631   */\n      swap1\n      pop\n        /* \"#utility.yul\":34641:34712   */\n      tag_594\n        /* \"#utility.yul\":34709:34710   */\n      0x00\n        /* \"#utility.yul\":34698:34707   */\n      dup4\n        /* \"#utility.yul\":34694:34711   */\n      add\n        /* \"#utility.yul\":34685:34691   */\n      dup6\n        /* \"#utility.yul\":34641:34712   */\n      tag_213\n      jump\t// in\n    tag_594:\n        /* \"#utility.yul\":34722:34794   */\n      tag_595\n        /* \"#utility.yul\":34790:34792   */\n      0x20\n        /* \"#utility.yul\":34779:34788   */\n      dup4\n        /* \"#utility.yul\":34775:34793   */\n      add\n        /* \"#utility.yul\":34766:34772   */\n      dup5\n        /* \"#utility.yul\":34722:34794   */\n      tag_215\n      jump\t// in\n    tag_595:\n        /* \"#utility.yul\":34469:34801   */\n      swap4\n      swap3\n      pop\n      pop\n      pop\n      jump\t// out\n        /* \"#utility.yul\":34807:35360   */\n    tag_183:\n        /* \"#utility.yul\":34984:34988   */\n      0x00\n        /* \"#utility.yul\":35022:35025   */\n      0x80\n        /* \"#utility.yul\":35011:35020   */\n      dup3\n        /* \"#utility.yul\":35007:35026   */\n      add\n        /* \"#utility.yul\":34999:35026   */\n      swap1\n      pop\n        /* \"#utility.yul\":35036:35107   */\n      tag_597\n        /* \"#utility.yul\":35104:35105   */\n      0x00\n        /* \"#utility.yul\":35093:35102   */\n      dup4\n        /* \"#utility.yul\":35089:35106   */\n      add\n        /* \"#utility.yul\":35080:35086   */\n      dup8\n        /* \"#utility.yul\":35036:35107   */\n      tag_248\n      jump\t// in\n    tag_597:\n        /* \"#utility.yul\":35117:35189   */\n      tag_598\n        /* \"#utility.yul\":35185:35187   */\n      0x20\n        /* \"#utility.yul\":35174:35183   */\n      dup4\n        /* \"#utility.yul\":35170:35188   */\n      add\n        /* \"#utility.yul\":35161:35167   */\n      dup7\n        /* \"#utility.yul\":35117:35189   */\n      tag_213\n      jump\t// in\n    tag_598:\n        /* \"#utility.yul\":35199:35271   */\n      tag_599\n        /* \"#utility.yul\":35267:35269   */\n      0x40\n        /* \"#utility.yul\":35256:35265   */\n      dup4\n        /* \"#utility.yul\":35252:35270   */\n      add\n        /* \"#utility.yul\":35243:35249   */\n      dup6\n        /* \"#utility.yul\":35199:35271   */\n      tag_215\n      jump\t// in\n    tag_599:\n        /* \"#utility.yul\":35281:35353   */\n      tag_600\n        /* \"#utility.yul\":35349:35351   */\n      0x60\n        /* \"#utility.yul\":35338:35347   */\n      dup4\n        /* \"#utility.yul\":35334:35352   */\n      add\n        /* \"#utility.yul\":35325:35331   */\n      dup5\n        /* \"#utility.yul\":35281:35353   */\n      tag_215\n      jump\t// in\n    tag_600:\n        /* \"#utility.yul\":34807:35360   */\n      swap6\n      swap5\n      pop\n      pop\n      pop\n      pop\n      pop\n      jump\t// out\n\n    auxdata: 0xa2646970667358221220cbcf26cae1d40de2b16f5ac4d0c0b5174923f2926b14f0673e95c70ceb51407264736f6c634300080a0033\n}\n",
    "bytecode": {
      "linkReferences": {},
      "object": "608060405234801561001057600080fd5b506124d6806100206000396000f3fe608060405234801561001057600080fd5b50600436106100ff5760003560e01c806380b29f7c11610097578063a7068d6611610066578063a7068d66146102b8578063e476af5c146102d4578063f00d4b5d146102f0578063f96d0f9f1461030c576100ff565b806380b29f7c146102345780638733d4e81461025057806393072684146102805780639c2c1b2b1461029c576100ff565b8063240cf1fa116100d3578063240cf1fa1461019c578063622b2a3c146101b857806370ae92d2146101e85780637ad4b0a414610218576100ff565b8062c023da14610104578063022914a7146101205780630d44625b14610150578063123b5e9814610180575b600080fd5b61011e600480360381019061011991906114b9565b61033c565b005b61013a60048036038101906101359190611528565b61034d565b6040516101479190611564565b60405180910390f35b61016a6004803603810190610165919061157f565b610380565b60405161017791906115eb565b60405180910390f35b61019a6004803603810190610195919061166b565b6103b2565b005b6101b660048036038101906101b19190611729565b61045d565b005b6101d260048036038101906101cd919061157f565b610500565b6040516101df91906117bf565b60405180910390f35b61020260048036038101906101fd9190611528565b6105c6565b60405161020f91906115eb565b60405180910390f35b610232600480360381019061022d91906117da565b6105de565b005b61024e6004803603810190610249919061157f565b6105f1565b005b61026a60048036038101906102659190611528565b610602565b6040516102779190611564565b60405180910390f35b61029a6004803603810190610295919061185d565b6106ad565b005b6102b660048036038101906102b191906118ea565b610754565b005b6102d260048036038101906102cd919061198c565b6107ff565b005b6102ee60048036038101906102e991906119f3565b610812565b005b61030a60048036038101906103059190611a9c565b6108b9565b005b61032660048036038101906103219190611528565b6108c8565b60405161033391906115eb565b60405180910390f35b610348833384846108e0565b505050565b60006020528060005260406000206000915054906101000a900473ffffffffffffffffffffffffffffffffffffffff1681565b600160205282600052604060002060205281600052604060002060205280600052604060002060009250925050505481565b6000601960f81b600060f81b30600360006103cc8d610602565b73ffffffffffffffffffffffffffffffffffffffff1673ffffffffffffffffffffffffffffffffffffffff168152602001908152602001600020548b888888604051602001610422989796959493929190611ceb565b6040516020818303038152906040528051906020012090506104538861044b8a8a8a8a87610a38565b868686610b64565b5050505050505050565b6000601960f81b600060f81b30600360006104778b610602565b73ffffffffffffffffffffffffffffffffffffffff1673ffffffffffffffffffffffffffffffffffffffff1681526020019081526020016000205489866040516020016104c996959493929190611dd0565b6040516020818303038152906040528051906020012090506104f8866104f28888888887610a38565b84610cc7565b505050505050565b600080600160008673ffffffffffffffffffffffffffffffffffffffff1673ffffffffffffffffffffffffffffffffffffffff1681526020019081526020016000206000856040516020016105559190611e5a565b60405160208183030381529060405280519060200120815260200190815260200160002060008473ffffffffffffffffffffffffffffffffffffffff1673ffffffffffffffffffffffffffffffffffffffff1681526020019081526020016000205490504281119150509392505050565b60036020528060005260406000206000915090505481565b6105eb8433858585610b64565b50505050565b6105fd83338484610e96565b505050565b6000806000808473ffffffffffffffffffffffffffffffffffffffff1673ffffffffffffffffffffffffffffffffffffffff16815260200190815260200160002060009054906101000a900473ffffffffffffffffffffffffffffffffffffffff169050600073ffffffffffffffffffffffffffffffffffffffff168173ffffffffffffffffffffffffffffffffffffffff16146106a357809150506106a8565b829150505b919050565b6000601960f81b600060f81b30600360006106c78c610602565b73ffffffffffffffffffffffffffffffffffffffff1673ffffffffffffffffffffffffffffffffffffffff168152602001908152602001600020548a878760405160200161071b9796959493929190611ec1565b60405160208183030381529060405280519060200120905061074b876107448989898987610a38565b8585610e96565b50505050505050565b6000601960f81b600060f81b306003600061076e8d610602565b73ffffffffffffffffffffffffffffffffffffffff1673ffffffffffffffffffffffffffffffffffffffff168152602001908152602001600020548b8888886040516020016107c4989796959493929190611f99565b6040516020818303038152906040528051906020012090506107f5886107ed8a8a8a8a87610a38565b8686866110a5565b5050505050505050565b61080c84338585856110a5565b50505050565b6000601960f81b600060f81b306003600061082c8c610602565b73ffffffffffffffffffffffffffffffffffffffff1673ffffffffffffffffffffffffffffffffffffffff168152602001908152602001600020548a87876040516020016108809796959493929190612082565b6040516020818303038152906040528051906020012090506108b0876108a98989898987610a38565b85856108e0565b50505050505050565b6108c4823383610cc7565b5050565b60026020528060005260406000206000915090505481565b83836108eb82610602565b73ffffffffffffffffffffffffffffffffffffffff168173ffffffffffffffffffffffffffffffffffffffff1614610958576040517f08c379a000000000000000000000000000000000000000000000000000000000815260040161094f90612167565b60405180910390fd5b8573ffffffffffffffffffffffffffffffffffffffff167f18ab6b2ae3d64306c00ce663125f2bd680e441a098de1635bd7ad8b0d44965e485856000600260008c73ffffffffffffffffffffffffffffffffffffffff1673ffffffffffffffffffffffffffffffffffffffff168152602001908152602001600020546040516109e4949392919061220c565b60405180910390a243600260008873ffffffffffffffffffffffffffffffffffffffff1673ffffffffffffffffffffffffffffffffffffffff16815260200190815260200160002081905550505050505050565b60008060018387878760405160008152602001604052604051610a5e9493929190612267565b6020604051602081039080840390855afa158015610a80573d6000803e3d6000fd5b505050602060405103519050610a9587610602565b73ffffffffffffffffffffffffffffffffffffffff168173ffffffffffffffffffffffffffffffffffffffff1614610b02576040517f08c379a0000000000000000000000000000000000000000000000000000000008152600401610af9906122f8565b60405180910390fd5b600360008273ffffffffffffffffffffffffffffffffffffffff1673ffffffffffffffffffffffffffffffffffffffff1681526020019081526020016000206000815480929190610b5290612347565b91905055508091505095945050505050565b8484610b6f82610602565b73ffffffffffffffffffffffffffffffffffffffff168173ffffffffffffffffffffffffffffffffffffffff1614610bdc576040517f08c379a0000000000000000000000000000000000000000000000000000000008152600401610bd390612167565b60405180910390fd5b8673ffffffffffffffffffffffffffffffffffffffff167f18ab6b2ae3d64306c00ce663125f2bd680e441a098de1635bd7ad8b0d44965e486868642610c229190612390565b600260008d73ffffffffffffffffffffffffffffffffffffffff1673ffffffffffffffffffffffffffffffffffffffff16815260200190815260200160002054604051610c7294939291906123e6565b60405180910390a243600260008973ffffffffffffffffffffffffffffffffffffffff1673ffffffffffffffffffffffffffffffffffffffff1681526020019081526020016000208190555050505050505050565b8282610cd282610602565b73ffffffffffffffffffffffffffffffffffffffff168173ffffffffffffffffffffffffffffffffffffffff1614610d3f576040517f08c379a0000000000000000000000000000000000000000000000000000000008152600401610d3690612167565b60405180910390fd5b826000808773ffffffffffffffffffffffffffffffffffffffff1673ffffffffffffffffffffffffffffffffffffffff16815260200190815260200160002060006101000a81548173ffffffffffffffffffffffffffffffffffffffff021916908373ffffffffffffffffffffffffffffffffffffffff1602179055508473ffffffffffffffffffffffffffffffffffffffff167f38a5a6e68f30ed1ab45860a4afb34bcb2fc00f22ca462d249b8a8d40cda6f7a384600260008973ffffffffffffffffffffffffffffffffffffffff1673ffffffffffffffffffffffffffffffffffffffff16815260200190815260200160002054604051610e43929190612432565b60405180910390a243600260008773ffffffffffffffffffffffffffffffffffffffff1673ffffffffffffffffffffffffffffffffffffffff168152602001908152602001600020819055505050505050565b8383610ea182610602565b73ffffffffffffffffffffffffffffffffffffffff168173ffffffffffffffffffffffffffffffffffffffff1614610f0e576040517f08c379a0000000000000000000000000000000000000000000000000000000008152600401610f0590612167565b60405180910390fd5b42600160008873ffffffffffffffffffffffffffffffffffffffff1673ffffffffffffffffffffffffffffffffffffffff168152602001908152602001600020600086604051602001610f619190611e5a565b60405160208183030381529060405280519060200120815260200190815260200160002060008573ffffffffffffffffffffffffffffffffffffffff1673ffffffffffffffffffffffffffffffffffffffff168152602001908152602001600020819055508573ffffffffffffffffffffffffffffffffffffffff167f5a5084339536bcab65f20799fcc58724588145ca054bd2be626174b27ba156f7858542600260008c73ffffffffffffffffffffffffffffffffffffffff1673ffffffffffffffffffffffffffffffffffffffff16815260200190815260200160002054604051611051949392919061245b565b60405180910390a243600260008873ffffffffffffffffffffffffffffffffffffffff1673ffffffffffffffffffffffffffffffffffffffff16815260200190815260200160002081905550505050505050565b84846110b082610602565b73ffffffffffffffffffffffffffffffffffffffff168173ffffffffffffffffffffffffffffffffffffffff161461111d576040517f08c379a000000000000000000000000000000000000000000000000000000000815260040161111490612167565b60405180910390fd5b82426111299190612390565b600160008973ffffffffffffffffffffffffffffffffffffffff1673ffffffffffffffffffffffffffffffffffffffff16815260200190815260200160002060008760405160200161117b9190611e5a565b60405160208183030381529060405280519060200120815260200190815260200160002060008673ffffffffffffffffffffffffffffffffffffffff1673ffffffffffffffffffffffffffffffffffffffff168152602001908152602001600020819055508673ffffffffffffffffffffffffffffffffffffffff167f5a5084339536bcab65f20799fcc58724588145ca054bd2be626174b27ba156f7868686426112269190612390565b600260008d73ffffffffffffffffffffffffffffffffffffffff1673ffffffffffffffffffffffffffffffffffffffff16815260200190815260200160002054604051611276949392919061245b565b60405180910390a243600260008973ffffffffffffffffffffffffffffffffffffffff1673ffffffffffffffffffffffffffffffffffffffff1681526020019081526020016000208190555050505050505050565b6000604051905090565b600080fd5b600080fd5b600073ffffffffffffffffffffffffffffffffffffffff82169050919050565b600061130a826112df565b9050919050565b61131a816112ff565b811461132557600080fd5b50565b60008135905061133781611311565b92915050565b6000819050919050565b6113508161133d565b811461135b57600080fd5b50565b60008135905061136d81611347565b92915050565b600080fd5b600080fd5b6000601f19601f8301169050919050565b7f4e487b7100000000000000000000000000000000000000000000000000000000600052604160045260246000fd5b6113c68261137d565b810181811067ffffffffffffffff821117156113e5576113e461138e565b5b80604052505050565b60006113f86112cb565b905061140482826113bd565b919050565b600067ffffffffffffffff8211156114245761142361138e565b5b61142d8261137d565b9050602081019050919050565b82818337600083830152505050565b600061145c61145784611409565b6113ee565b90508281526020810184848401111561147857611477611378565b5b61148384828561143a565b509392505050565b600082601f8301126114a05761149f611373565b5b81356114b0848260208601611449565b91505092915050565b6000806000606084860312156114d2576114d16112d5565b5b60006114e086828701611328565b93505060206114f18682870161135e565b925050604084013567ffffffffffffffff811115611512576115116112da565b5b61151e8682870161148b565b9150509250925092565b60006020828403121561153e5761153d6112d5565b5b600061154c84828501611328565b91505092915050565b61155e816112ff565b82525050565b60006020820190506115796000830184611555565b92915050565b600080600060608486031215611598576115976112d5565b5b60006115a686828701611328565b93505060206115b78682870161135e565b92505060406115c886828701611328565b9150509250925092565b6000819050919050565b6115e5816115d2565b82525050565b600060208201905061160060008301846115dc565b92915050565b600060ff82169050919050565b61161c81611606565b811461162757600080fd5b50565b60008135905061163981611613565b92915050565b611648816115d2565b811461165357600080fd5b50565b6000813590506116658161163f565b92915050565b600080600080600080600060e0888a03121561168a576116896112d5565b5b60006116988a828b01611328565b97505060206116a98a828b0161162a565b96505060406116ba8a828b0161135e565b95505060606116cb8a828b0161135e565b94505060806116dc8a828b0161135e565b93505060a088013567ffffffffffffffff8111156116fd576116fc6112da565b5b6117098a828b0161148b565b92505060c061171a8a828b01611656565b91505092959891949750929550565b600080600080600060a08688031215611745576117446112d5565b5b600061175388828901611328565b95505060206117648882890161162a565b94505060406117758882890161135e565b93505060606117868882890161135e565b925050608061179788828901611328565b9150509295509295909350565b60008115159050919050565b6117b9816117a4565b82525050565b60006020820190506117d460008301846117b0565b92915050565b600080600080608085870312156117f4576117f36112d5565b5b600061180287828801611328565b94505060206118138782880161135e565b935050604085013567ffffffffffffffff811115611834576118336112da565b5b6118408782880161148b565b925050606061185187828801611656565b91505092959194509250565b60008060008060008060c0878903121561187a576118796112d5565b5b600061188889828a01611328565b965050602061189989828a0161162a565b95505060406118aa89828a0161135e565b94505060606118bb89828a0161135e565b93505060806118cc89828a0161135e565b92505060a06118dd89828a01611328565b9150509295509295509295565b600080600080600080600060e0888a031215611909576119086112d5565b5b60006119178a828b01611328565b97505060206119288a828b0161162a565b96505060406119398a828b0161135e565b955050606061194a8a828b0161135e565b945050608061195b8a828b0161135e565b93505060a061196c8a828b01611328565b92505060c061197d8a828b01611656565b91505092959891949750929550565b600080600080608085870312156119a6576119a56112d5565b5b60006119b487828801611328565b94505060206119c58782880161135e565b93505060406119d687828801611328565b92505060606119e787828801611656565b91505092959194509250565b60008060008060008060c08789031215611a1057611a0f6112d5565b5b6000611a1e89828a01611328565b9650506020611a2f89828a0161162a565b9550506040611a4089828a0161135e565b9450506060611a5189828a0161135e565b9350506080611a6289828a0161135e565b92505060a087013567ffffffffffffffff811115611a8357611a826112da565b5b611a8f89828a0161148b565b9150509295509295509295565b60008060408385031215611ab357611ab26112d5565b5b6000611ac185828601611328565b9250506020611ad285828601611328565b9150509250929050565b60007fff0000000000000000000000000000000000000000000000000000000000000082169050919050565b6000819050919050565b611b23611b1e82611adc565b611b08565b82525050565b6000819050919050565b6000611b4e611b49611b44846112df565b611b29565b6112df565b9050919050565b6000611b6082611b33565b9050919050565b6000611b7282611b55565b9050919050565b60008160601b9050919050565b6000611b9182611b79565b9050919050565b6000611ba382611b86565b9050919050565b611bbb611bb682611b67565b611b98565b82525050565b6000819050919050565b611bdc611bd7826115d2565b611bc1565b82525050565b611bf3611bee826112ff565b611b98565b82525050565b600081905092915050565b7f7365744174747269627574650000000000000000000000000000000000000000600082015250565b6000611c3a600c83611bf9565b9150611c4582611c04565b600c82019050919050565b6000819050919050565b611c6b611c668261133d565b611c50565b82525050565b600081519050919050565b600081905092915050565b60005b83811015611ca5578082015181840152602081019050611c8a565b83811115611cb4576000848401525b50505050565b6000611cc582611c71565b611ccf8185611c7c565b9350611cdf818560208601611c87565b80840191505092915050565b6000611cf7828b611b12565b600182019150611d07828a611b12565b600182019150611d178289611baa565b601482019150611d278288611bcb565b602082019150611d378287611be2565b601482019150611d4682611c2d565b9150611d528286611c5a565b602082019150611d628285611cba565b9150611d6e8284611bcb565b6020820191508190509998505050505050505050565b7f6368616e67654f776e6572000000000000000000000000000000000000000000600082015250565b6000611dba600b83611bf9565b9150611dc582611d84565b600b82019050919050565b6000611ddc8289611b12565b600182019150611dec8288611b12565b600182019150611dfc8287611baa565b601482019150611e0c8286611bcb565b602082019150611e1c8285611be2565b601482019150611e2b82611dad565b9150611e378284611be2565b601482019150819050979650505050505050565b611e548161133d565b82525050565b6000602082019050611e6f6000830184611e4b565b92915050565b7f7265766f6b6544656c6567617465000000000000000000000000000000000000600082015250565b6000611eab600e83611bf9565b9150611eb682611e75565b600e82019050919050565b6000611ecd828a611b12565b600182019150611edd8289611b12565b600182019150611eed8288611baa565b601482019150611efd8287611bcb565b602082019150611f0d8286611be2565b601482019150611f1c82611e9e565b9150611f288285611c5a565b602082019150611f388284611be2565b60148201915081905098975050505050505050565b7f61646444656c6567617465000000000000000000000000000000000000000000600082015250565b6000611f83600b83611bf9565b9150611f8e82611f4d565b600b82019050919050565b6000611fa5828b611b12565b600182019150611fb5828a611b12565b600182019150611fc58289611baa565b601482019150611fd58288611bcb565b602082019150611fe58287611be2565b601482019150611ff482611f76565b91506120008286611c5a565b6020820191506120108285611be2565b6014820191506120208284611bcb565b6020820191508190509998505050505050505050565b7f7265766f6b654174747269627574650000000000000000000000000000000000600082015250565b600061206c600f83611bf9565b915061207782612036565b600f82019050919050565b600061208e828a611b12565b60018201915061209e8289611b12565b6001820191506120ae8288611baa565b6014820191506120be8287611bcb565b6020820191506120ce8286611be2565b6014820191506120dd8261205f565b91506120e98285611c5a565b6020820191506120f98284611cba565b915081905098975050505050505050565b600082825260208201905092915050565b7f6261645f6163746f720000000000000000000000000000000000000000000000600082015250565b600061215160098361210a565b915061215c8261211b565b602082019050919050565b6000602082019050818103600083015261218081612144565b9050919050565b600082825260208201905092915050565b60006121a382611c71565b6121ad8185612187565b93506121bd818560208601611c87565b6121c68161137d565b840191505092915050565b6000819050919050565b60006121f66121f16121ec846121d1565b611b29565b6115d2565b9050919050565b612206816121db565b82525050565b60006080820190506122216000830187611e4b565b81810360208301526122338186612198565b905061224260408301856121fd565b61224f60608301846115dc565b95945050505050565b61226181611606565b82525050565b600060808201905061227c6000830187611e4b565b6122896020830186612258565b6122966040830185611e4b565b6122a36060830184611e4b565b95945050505050565b7f6261645f7369676e617475726500000000000000000000000000000000000000600082015250565b60006122e2600d8361210a565b91506122ed826122ac565b602082019050919050565b60006020820190508181036000830152612311816122d5565b9050919050565b7f4e487b7100000000000000000000000000000000000000000000000000000000600052601160045260246000fd5b6000612352826115d2565b91507fffffffffffffffffffffffffffffffffffffffffffffffffffffffffffffffff82141561238557612384612318565b5b600182019050919050565b600061239b826115d2565b91506123a6836115d2565b9250827fffffffffffffffffffffffffffffffffffffffffffffffffffffffffffffffff038211156123db576123da612318565b5b828201905092915050565b60006080820190506123fb6000830187611e4b565b818103602083015261240d8186612198565b905061241c60408301856115dc565b61242960608301846115dc565b95945050505050565b60006040820190506124476000830185611555565b61245460208301846115dc565b9392505050565b60006080820190506124706000830187611e4b565b61247d6020830186611555565b61248a60408301856115dc565b61249760608301846115dc565b9594505050505056fea2646970667358221220cbcf26cae1d40de2b16f5ac4d0c0b5174923f2926b14f0673e95c70ceb51407264736f6c634300080a0033",
      "opcodes": "PUSH1 0x80 PUSH1 0x40 MSTORE CALLVALUE DUP1 ISZERO PUSH2 0x10 JUMPI PUSH1 0x0 DUP1 REVERT JUMPDEST POP PUSH2 0x24D6 DUP1 PUSH2 0x20 PUSH1 0x0 CODECOPY PUSH1 0x0 RETURN INVALID PUSH1 0x80 PUSH1 0x40 MSTORE CALLVALUE DUP1 ISZERO PUSH2 0x10 JUMPI PUSH1 0x0 DUP1 REVERT JUMPDEST POP PUSH1 0x4 CALLDATASIZE LT PUSH2 0xFF JUMPI PUSH1 0x0 CALLDATALOAD PUSH1 0xE0 SHR DUP1 PUSH4 0x80B29F7C GT PUSH2 0x97 JUMPI DUP1 PUSH4 0xA7068D66 GT PUSH2 0x66 JUMPI DUP1 PUSH4 0xA7068D66 EQ PUSH2 0x2B8 JUMPI DUP1 PUSH4 0xE476AF5C EQ PUSH2 0x2D4 JUMPI DUP1 PUSH4 0xF00D4B5D EQ PUSH2 0x2F0 JUMPI DUP1 PUSH4 0xF96D0F9F EQ PUSH2 0x30C JUMPI PUSH2 0xFF JUMP JUMPDEST DUP1 PUSH4 0x80B29F7C EQ PUSH2 0x234 JUMPI DUP1 PUSH4 0x8733D4E8 EQ PUSH2 0x250 JUMPI DUP1 PUSH4 0x93072684 EQ PUSH2 0x280 JUMPI DUP1 PUSH4 0x9C2C1B2B EQ PUSH2 0x29C JUMPI PUSH2 0xFF JUMP JUMPDEST DUP1 PUSH4 0x240CF1FA GT PUSH2 0xD3 JUMPI DUP1 PUSH4 0x240CF1FA EQ PUSH2 0x19C JUMPI DUP1 PUSH4 0x622B2A3C EQ PUSH2 0x1B8 JUMPI DUP1 PUSH4 0x70AE92D2 EQ PUSH2 0x1E8 JUMPI DUP1 PUSH4 0x7AD4B0A4 EQ PUSH2 0x218 JUMPI PUSH2 0xFF JUMP JUMPDEST DUP1 PUSH3 0xC023DA EQ PUSH2 0x104 JUMPI DUP1 PUSH4 0x22914A7 EQ PUSH2 0x120 JUMPI DUP1 PUSH4 0xD44625B EQ PUSH2 0x150 JUMPI DUP1 PUSH4 0x123B5E98 EQ PUSH2 0x180 JUMPI JUMPDEST PUSH1 0x0 DUP1 REVERT JUMPDEST PUSH2 0x11E PUSH1 0x4 DUP1 CALLDATASIZE SUB DUP2 ADD SWAP1 PUSH2 0x119 SWAP2 SWAP1 PUSH2 0x14B9 JUMP JUMPDEST PUSH2 0x33C JUMP JUMPDEST STOP JUMPDEST PUSH2 0x13A PUSH1 0x4 DUP1 CALLDATASIZE SUB DUP2 ADD SWAP1 PUSH2 0x135 SWAP2 SWAP1 PUSH2 0x1528 JUMP JUMPDEST PUSH2 0x34D JUMP JUMPDEST PUSH1 0x40 MLOAD PUSH2 0x147 SWAP2 SWAP1 PUSH2 0x1564 JUMP JUMPDEST PUSH1 0x40 MLOAD DUP1 SWAP2 SUB SWAP1 RETURN JUMPDEST PUSH2 0x16A PUSH1 0x4 DUP1 CALLDATASIZE SUB DUP2 ADD SWAP1 PUSH2 0x165 SWAP2 SWAP1 PUSH2 0x157F JUMP JUMPDEST PUSH2 0x380 JUMP JUMPDEST PUSH1 0x40 MLOAD PUSH2 0x177 SWAP2 SWAP1 PUSH2 0x15EB JUMP JUMPDEST PUSH1 0x40 MLOAD DUP1 SWAP2 SUB SWAP1 RETURN JUMPDEST PUSH2 0x19A PUSH1 0x4 DUP1 CALLDATASIZE SUB DUP2 ADD SWAP1 PUSH2 0x195 SWAP2 SWAP1 PUSH2 0x166B JUMP JUMPDEST PUSH2 0x3B2 JUMP JUMPDEST STOP JUMPDEST PUSH2 0x1B6 PUSH1 0x4 DUP1 CALLDATASIZE SUB DUP2 ADD SWAP1 PUSH2 0x1B1 SWAP2 SWAP1 PUSH2 0x1729 JUMP JUMPDEST PUSH2 0x45D JUMP JUMPDEST STOP JUMPDEST PUSH2 0x1D2 PUSH1 0x4 DUP1 CALLDATASIZE SUB DUP2 ADD SWAP1 PUSH2 0x1CD SWAP2 SWAP1 PUSH2 0x157F JUMP JUMPDEST PUSH2 0x500 JUMP JUMPDEST PUSH1 0x40 MLOAD PUSH2 0x1DF SWAP2 SWAP1 PUSH2 0x17BF JUMP JUMPDEST PUSH1 0x40 MLOAD DUP1 SWAP2 SUB SWAP1 RETURN JUMPDEST PUSH2 0x202 PUSH1 0x4 DUP1 CALLDATASIZE SUB DUP2 ADD SWAP1 PUSH2 0x1FD SWAP2 SWAP1 PUSH2 0x1528 JUMP JUMPDEST PUSH2 0x5C6 JUMP JUMPDEST PUSH1 0x40 MLOAD PUSH2 0x20F SWAP2 SWAP1 PUSH2 0x15EB JUMP JUMPDEST PUSH1 0x40 MLOAD DUP1 SWAP2 SUB SWAP1 RETURN JUMPDEST PUSH2 0x232 PUSH1 0x4 DUP1 CALLDATASIZE SUB DUP2 ADD SWAP1 PUSH2 0x22D SWAP2 SWAP1 PUSH2 0x17DA JUMP JUMPDEST PUSH2 0x5DE JUMP JUMPDEST STOP JUMPDEST PUSH2 0x24E PUSH1 0x4 DUP1 CALLDATASIZE SUB DUP2 ADD SWAP1 PUSH2 0x249 SWAP2 SWAP1 PUSH2 0x157F JUMP JUMPDEST PUSH2 0x5F1 JUMP JUMPDEST STOP JUMPDEST PUSH2 0x26A PUSH1 0x4 DUP1 CALLDATASIZE SUB DUP2 ADD SWAP1 PUSH2 0x265 SWAP2 SWAP1 PUSH2 0x1528 JUMP JUMPDEST PUSH2 0x602 JUMP JUMPDEST PUSH1 0x40 MLOAD PUSH2 0x277 SWAP2 SWAP1 PUSH2 0x1564 JUMP JUMPDEST PUSH1 0x40 MLOAD DUP1 SWAP2 SUB SWAP1 RETURN JUMPDEST PUSH2 0x29A PUSH1 0x4 DUP1 CALLDATASIZE SUB DUP2 ADD SWAP1 PUSH2 0x295 SWAP2 SWAP1 PUSH2 0x185D JUMP JUMPDEST PUSH2 0x6AD JUMP JUMPDEST STOP JUMPDEST PUSH2 0x2B6 PUSH1 0x4 DUP1 CALLDATASIZE SUB DUP2 ADD SWAP1 PUSH2 0x2B1 SWAP2 SWAP1 PUSH2 0x18EA JUMP JUMPDEST PUSH2 0x754 JUMP JUMPDEST STOP JUMPDEST PUSH2 0x2D2 PUSH1 0x4 DUP1 CALLDATASIZE SUB DUP2 ADD SWAP1 PUSH2 0x2CD SWAP2 SWAP1 PUSH2 0x198C JUMP JUMPDEST PUSH2 0x7FF JUMP JUMPDEST STOP JUMPDEST PUSH2 0x2EE PUSH1 0x4 DUP1 CALLDATASIZE SUB DUP2 ADD SWAP1 PUSH2 0x2E9 SWAP2 SWAP1 PUSH2 0x19F3 JUMP JUMPDEST PUSH2 0x812 JUMP JUMPDEST STOP JUMPDEST PUSH2 0x30A PUSH1 0x4 DUP1 CALLDATASIZE SUB DUP2 ADD SWAP1 PUSH2 0x305 SWAP2 SWAP1 PUSH2 0x1A9C JUMP JUMPDEST PUSH2 0x8B9 JUMP JUMPDEST STOP JUMPDEST PUSH2 0x326 PUSH1 0x4 DUP1 CALLDATASIZE SUB DUP2 ADD SWAP1 PUSH2 0x321 SWAP2 SWAP1 PUSH2 0x1528 JUMP JUMPDEST PUSH2 0x8C8 JUMP JUMPDEST PUSH1 0x40 MLOAD PUSH2 0x333 SWAP2 SWAP1 PUSH2 0x15EB JUMP JUMPDEST PUSH1 0x40 MLOAD DUP1 SWAP2 SUB SWAP1 RETURN JUMPDEST PUSH2 0x348 DUP4 CALLER DUP5 DUP5 PUSH2 0x8E0 JUMP JUMPDEST POP POP POP JUMP JUMPDEST PUSH1 0x0 PUSH1 0x20 MSTORE DUP1 PUSH1 0x0 MSTORE PUSH1 0x40 PUSH1 0x0 KECCAK256 PUSH1 0x0 SWAP2 POP SLOAD SWAP1 PUSH2 0x100 EXP SWAP1 DIV PUSH20 0xFFFFFFFFFFFFFFFFFFFFFFFFFFFFFFFFFFFFFFFF AND DUP2 JUMP JUMPDEST PUSH1 0x1 PUSH1 0x20 MSTORE DUP3 PUSH1 0x0 MSTORE PUSH1 0x40 PUSH1 0x0 KECCAK256 PUSH1 0x20 MSTORE DUP2 PUSH1 0x0 MSTORE PUSH1 0x40 PUSH1 0x0 KECCAK256 PUSH1 0x20 MSTORE DUP1 PUSH1 0x0 MSTORE PUSH1 0x40 PUSH1 0x0 KECCAK256 PUSH1 0x0 SWAP3 POP SWAP3 POP POP POP SLOAD DUP2 JUMP JUMPDEST PUSH1 0x0 PUSH1 0x19 PUSH1 0xF8 SHL PUSH1 0x0 PUSH1 0xF8 SHL ADDRESS PUSH1 0x3 PUSH1 0x0 PUSH2 0x3CC DUP14 PUSH2 0x602 JUMP JUMPDEST PUSH20 0xFFFFFFFFFFFFFFFFFFFFFFFFFFFFFFFFFFFFFFFF AND PUSH20 0xFFFFFFFFFFFFFFFFFFFFFFFFFFFFFFFFFFFFFFFF AND DUP2 MSTORE PUSH1 0x20 ADD SWAP1 DUP2 MSTORE PUSH1 0x20 ADD PUSH1 0x0 KECCAK256 SLOAD DUP12 DUP9 DUP9 DUP9 PUSH1 0x40 MLOAD PUSH1 0x20 ADD PUSH2 0x422 SWAP9 SWAP8 SWAP7 SWAP6 SWAP5 SWAP4 SWAP3 SWAP2 SWAP1 PUSH2 0x1CEB JUMP JUMPDEST PUSH1 0x40 MLOAD PUSH1 0x20 DUP2 DUP4 SUB SUB DUP2 MSTORE SWAP1 PUSH1 0x40 MSTORE DUP1 MLOAD SWAP1 PUSH1 0x20 ADD KECCAK256 SWAP1 POP PUSH2 0x453 DUP9 PUSH2 0x44B DUP11 DUP11 DUP11 DUP11 DUP8 PUSH2 0xA38 JUMP JUMPDEST DUP7 DUP7 DUP7 PUSH2 0xB64 JUMP JUMPDEST POP POP POP POP POP POP POP POP JUMP JUMPDEST PUSH1 0x0 PUSH1 0x19 PUSH1 0xF8 SHL PUSH1 0x0 PUSH1 0xF8 SHL ADDRESS PUSH1 0x3 PUSH1 0x0 PUSH2 0x477 DUP12 PUSH2 0x602 JUMP JUMPDEST PUSH20 0xFFFFFFFFFFFFFFFFFFFFFFFFFFFFFFFFFFFFFFFF AND PUSH20 0xFFFFFFFFFFFFFFFFFFFFFFFFFFFFFFFFFFFFFFFF AND DUP2 MSTORE PUSH1 0x20 ADD SWAP1 DUP2 MSTORE PUSH1 0x20 ADD PUSH1 0x0 KECCAK256 SLOAD DUP10 DUP7 PUSH1 0x40 MLOAD PUSH1 0x20 ADD PUSH2 0x4C9 SWAP7 SWAP6 SWAP5 SWAP4 SWAP3 SWAP2 SWAP1 PUSH2 0x1DD0 JUMP JUMPDEST PUSH1 0x40 MLOAD PUSH1 0x20 DUP2 DUP4 SUB SUB DUP2 MSTORE SWAP1 PUSH1 0x40 MSTORE DUP1 MLOAD SWAP1 PUSH1 0x20 ADD KECCAK256 SWAP1 POP PUSH2 0x4F8 DUP7 PUSH2 0x4F2 DUP9 DUP9 DUP9 DUP9 DUP8 PUSH2 0xA38 JUMP JUMPDEST DUP5 PUSH2 0xCC7 JUMP JUMPDEST POP POP POP POP POP POP JUMP JUMPDEST PUSH1 0x0 DUP1 PUSH1 0x1 PUSH1 0x0 DUP7 PUSH20 0xFFFFFFFFFFFFFFFFFFFFFFFFFFFFFFFFFFFFFFFF AND PUSH20 0xFFFFFFFFFFFFFFFFFFFFFFFFFFFFFFFFFFFFFFFF AND DUP2 MSTORE PUSH1 0x20 ADD SWAP1 DUP2 MSTORE PUSH1 0x20 ADD PUSH1 0x0 KECCAK256 PUSH1 0x0 DUP6 PUSH1 0x40 MLOAD PUSH1 0x20 ADD PUSH2 0x555 SWAP2 SWAP1 PUSH2 0x1E5A JUMP JUMPDEST PUSH1 0x40 MLOAD PUSH1 0x20 DUP2 DUP4 SUB SUB DUP2 MSTORE SWAP1 PUSH1 0x40 MSTORE DUP1 MLOAD SWAP1 PUSH1 0x20 ADD KECCAK256 DUP2 MSTORE PUSH1 0x20 ADD SWAP1 DUP2 MSTORE PUSH1 0x20 ADD PUSH1 0x0 KECCAK256 PUSH1 0x0 DUP5 PUSH20 0xFFFFFFFFFFFFFFFFFFFFFFFFFFFFFFFFFFFFFFFF AND PUSH20 0xFFFFFFFFFFFFFFFFFFFFFFFFFFFFFFFFFFFFFFFF AND DUP2 MSTORE PUSH1 0x20 ADD SWAP1 DUP2 MSTORE PUSH1 0x20 ADD PUSH1 0x0 KECCAK256 SLOAD SWAP1 POP TIMESTAMP DUP2 GT SWAP2 POP POP SWAP4 SWAP3 POP POP POP JUMP JUMPDEST PUSH1 0x3 PUSH1 0x20 MSTORE DUP1 PUSH1 0x0 MSTORE PUSH1 0x40 PUSH1 0x0 KECCAK256 PUSH1 0x0 SWAP2 POP SWAP1 POP SLOAD DUP2 JUMP JUMPDEST PUSH2 0x5EB DUP5 CALLER DUP6 DUP6 DUP6 PUSH2 0xB64 JUMP JUMPDEST POP POP POP POP JUMP JUMPDEST PUSH2 0x5FD DUP4 CALLER DUP5 DUP5 PUSH2 0xE96 JUMP JUMPDEST POP POP POP JUMP JUMPDEST PUSH1 0x0 DUP1 PUSH1 0x0 DUP1 DUP5 PUSH20 0xFFFFFFFFFFFFFFFFFFFFFFFFFFFFFFFFFFFFFFFF AND PUSH20 0xFFFFFFFFFFFFFFFFFFFFFFFFFFFFFFFFFFFFFFFF AND DUP2 MSTORE PUSH1 0x20 ADD SWAP1 DUP2 MSTORE PUSH1 0x20 ADD PUSH1 0x0 KECCAK256 PUSH1 0x0 SWAP1 SLOAD SWAP1 PUSH2 0x100 EXP SWAP1 DIV PUSH20 0xFFFFFFFFFFFFFFFFFFFFFFFFFFFFFFFFFFFFFFFF AND SWAP1 POP PUSH1 0x0 PUSH20 0xFFFFFFFFFFFFFFFFFFFFFFFFFFFFFFFFFFFFFFFF AND DUP2 PUSH20 0xFFFFFFFFFFFFFFFFFFFFFFFFFFFFFFFFFFFFFFFF AND EQ PUSH2 0x6A3 JUMPI DUP1 SWAP2 POP POP PUSH2 0x6A8 JUMP JUMPDEST DUP3 SWAP2 POP POP JUMPDEST SWAP2 SWAP1 POP JUMP JUMPDEST PUSH1 0x0 PUSH1 0x19 PUSH1 0xF8 SHL PUSH1 0x0 PUSH1 0xF8 SHL ADDRESS PUSH1 0x3 PUSH1 0x0 PUSH2 0x6C7 DUP13 PUSH2 0x602 JUMP JUMPDEST PUSH20 0xFFFFFFFFFFFFFFFFFFFFFFFFFFFFFFFFFFFFFFFF AND PUSH20 0xFFFFFFFFFFFFFFFFFFFFFFFFFFFFFFFFFFFFFFFF AND DUP2 MSTORE PUSH1 0x20 ADD SWAP1 DUP2 MSTORE PUSH1 0x20 ADD PUSH1 0x0 KECCAK256 SLOAD DUP11 DUP8 DUP8 PUSH1 0x40 MLOAD PUSH1 0x20 ADD PUSH2 0x71B SWAP8 SWAP7 SWAP6 SWAP5 SWAP4 SWAP3 SWAP2 SWAP1 PUSH2 0x1EC1 JUMP JUMPDEST PUSH1 0x40 MLOAD PUSH1 0x20 DUP2 DUP4 SUB SUB DUP2 MSTORE SWAP1 PUSH1 0x40 MSTORE DUP1 MLOAD SWAP1 PUSH1 0x20 ADD KECCAK256 SWAP1 POP PUSH2 0x74B DUP8 PUSH2 0x744 DUP10 DUP10 DUP10 DUP10 DUP8 PUSH2 0xA38 JUMP JUMPDEST DUP6 DUP6 PUSH2 0xE96 JUMP JUMPDEST POP POP POP POP POP POP POP JUMP JUMPDEST PUSH1 0x0 PUSH1 0x19 PUSH1 0xF8 SHL PUSH1 0x0 PUSH1 0xF8 SHL ADDRESS PUSH1 0x3 PUSH1 0x0 PUSH2 0x76E DUP14 PUSH2 0x602 JUMP JUMPDEST PUSH20 0xFFFFFFFFFFFFFFFFFFFFFFFFFFFFFFFFFFFFFFFF AND PUSH20 0xFFFFFFFFFFFFFFFFFFFFFFFFFFFFFFFFFFFFFFFF AND DUP2 MSTORE PUSH1 0x20 ADD SWAP1 DUP2 MSTORE PUSH1 0x20 ADD PUSH1 0x0 KECCAK256 SLOAD DUP12 DUP9 DUP9 DUP9 PUSH1 0x40 MLOAD PUSH1 0x20 ADD PUSH2 0x7C4 SWAP9 SWAP8 SWAP7 SWAP6 SWAP5 SWAP4 SWAP3 SWAP2 SWAP1 PUSH2 0x1F99 JUMP JUMPDEST PUSH1 0x40 MLOAD PUSH1 0x20 DUP2 DUP4 SUB SUB DUP2 MSTORE SWAP1 PUSH1 0x40 MSTORE DUP1 MLOAD SWAP1 PUSH1 0x20 ADD KECCAK256 SWAP1 POP PUSH2 0x7F5 DUP9 PUSH2 0x7ED DUP11 DUP11 DUP11 DUP11 DUP8 PUSH2 0xA38 JUMP JUMPDEST DUP7 DUP7 DUP7 PUSH2 0x10A5 JUMP JUMPDEST POP POP POP POP POP POP POP POP JUMP JUMPDEST PUSH2 0x80C DUP5 CALLER DUP6 DUP6 DUP6 PUSH2 0x10A5 JUMP JUMPDEST POP POP POP POP JUMP JUMPDEST PUSH1 0x0 PUSH1 0x19 PUSH1 0xF8 SHL PUSH1 0x0 PUSH1 0xF8 SHL ADDRESS PUSH1 0x3 PUSH1 0x0 PUSH2 0x82C DUP13 PUSH2 0x602 JUMP JUMPDEST PUSH20 0xFFFFFFFFFFFFFFFFFFFFFFFFFFFFFFFFFFFFFFFF AND PUSH20 0xFFFFFFFFFFFFFFFFFFFFFFFFFFFFFFFFFFFFFFFF AND DUP2 MSTORE PUSH1 0x20 ADD SWAP1 DUP2 MSTORE PUSH1 0x20 ADD PUSH1 0x0 KECCAK256 SLOAD DUP11 DUP8 DUP8 PUSH1 0x40 MLOAD PUSH1 0x20 ADD PUSH2 0x880 SWAP8 SWAP7 SWAP6 SWAP5 SWAP4 SWAP3 SWAP2 SWAP1 PUSH2 0x2082 JUMP JUMPDEST PUSH1 0x40 MLOAD PUSH1 0x20 DUP2 DUP4 SUB SUB DUP2 MSTORE SWAP1 PUSH1 0x40 MSTORE DUP1 MLOAD SWAP1 PUSH1 0x20 ADD KECCAK256 SWAP1 POP PUSH2 0x8B0 DUP8 PUSH2 0x8A9 DUP10 DUP10 DUP10 DUP10 DUP8 PUSH2 0xA38 JUMP JUMPDEST DUP6 DUP6 PUSH2 0x8E0 JUMP JUMPDEST POP POP POP POP POP POP POP JUMP JUMPDEST PUSH2 0x8C4 DUP3 CALLER DUP4 PUSH2 0xCC7 JUMP JUMPDEST POP POP JUMP JUMPDEST PUSH1 0x2 PUSH1 0x20 MSTORE DUP1 PUSH1 0x0 MSTORE PUSH1 0x40 PUSH1 0x0 KECCAK256 PUSH1 0x0 SWAP2 POP SWAP1 POP SLOAD DUP2 JUMP JUMPDEST DUP4 DUP4 PUSH2 0x8EB DUP3 PUSH2 0x602 JUMP JUMPDEST PUSH20 0xFFFFFFFFFFFFFFFFFFFFFFFFFFFFFFFFFFFFFFFF AND DUP2 PUSH20 0xFFFFFFFFFFFFFFFFFFFFFFFFFFFFFFFFFFFFFFFF AND EQ PUSH2 0x958 JUMPI PUSH1 0x40 MLOAD PUSH32 0x8C379A000000000000000000000000000000000000000000000000000000000 DUP2 MSTORE PUSH1 0x4 ADD PUSH2 0x94F SWAP1 PUSH2 0x2167 JUMP JUMPDEST PUSH1 0x40 MLOAD DUP1 SWAP2 SUB SWAP1 REVERT JUMPDEST DUP6 PUSH20 0xFFFFFFFFFFFFFFFFFFFFFFFFFFFFFFFFFFFFFFFF AND PUSH32 0x18AB6B2AE3D64306C00CE663125F2BD680E441A098DE1635BD7AD8B0D44965E4 DUP6 DUP6 PUSH1 0x0 PUSH1 0x2 PUSH1 0x0 DUP13 PUSH20 0xFFFFFFFFFFFFFFFFFFFFFFFFFFFFFFFFFFFFFFFF AND PUSH20 0xFFFFFFFFFFFFFFFFFFFFFFFFFFFFFFFFFFFFFFFF AND DUP2 MSTORE PUSH1 0x20 ADD SWAP1 DUP2 MSTORE PUSH1 0x20 ADD PUSH1 0x0 KECCAK256 SLOAD PUSH1 0x40 MLOAD PUSH2 0x9E4 SWAP5 SWAP4 SWAP3 SWAP2 SWAP1 PUSH2 0x220C JUMP JUMPDEST PUSH1 0x40 MLOAD DUP1 SWAP2 SUB SWAP1 LOG2 NUMBER PUSH1 0x2 PUSH1 0x0 DUP9 PUSH20 0xFFFFFFFFFFFFFFFFFFFFFFFFFFFFFFFFFFFFFFFF AND PUSH20 0xFFFFFFFFFFFFFFFFFFFFFFFFFFFFFFFFFFFFFFFF AND DUP2 MSTORE PUSH1 0x20 ADD SWAP1 DUP2 MSTORE PUSH1 0x20 ADD PUSH1 0x0 KECCAK256 DUP2 SWAP1 SSTORE POP POP POP POP POP POP POP JUMP JUMPDEST PUSH1 0x0 DUP1 PUSH1 0x1 DUP4 DUP8 DUP8 DUP8 PUSH1 0x40 MLOAD PUSH1 0x0 DUP2 MSTORE PUSH1 0x20 ADD PUSH1 0x40 MSTORE PUSH1 0x40 MLOAD PUSH2 0xA5E SWAP5 SWAP4 SWAP3 SWAP2 SWAP1 PUSH2 0x2267 JUMP JUMPDEST PUSH1 0x20 PUSH1 0x40 MLOAD PUSH1 0x20 DUP2 SUB SWAP1 DUP1 DUP5 SUB SWAP1 DUP6 GAS STATICCALL ISZERO DUP1 ISZERO PUSH2 0xA80 JUMPI RETURNDATASIZE PUSH1 0x0 DUP1 RETURNDATACOPY RETURNDATASIZE PUSH1 0x0 REVERT JUMPDEST POP POP POP PUSH1 0x20 PUSH1 0x40 MLOAD SUB MLOAD SWAP1 POP PUSH2 0xA95 DUP8 PUSH2 0x602 JUMP JUMPDEST PUSH20 0xFFFFFFFFFFFFFFFFFFFFFFFFFFFFFFFFFFFFFFFF AND DUP2 PUSH20 0xFFFFFFFFFFFFFFFFFFFFFFFFFFFFFFFFFFFFFFFF AND EQ PUSH2 0xB02 JUMPI PUSH1 0x40 MLOAD PUSH32 0x8C379A000000000000000000000000000000000000000000000000000000000 DUP2 MSTORE PUSH1 0x4 ADD PUSH2 0xAF9 SWAP1 PUSH2 0x22F8 JUMP JUMPDEST PUSH1 0x40 MLOAD DUP1 SWAP2 SUB SWAP1 REVERT JUMPDEST PUSH1 0x3 PUSH1 0x0 DUP3 PUSH20 0xFFFFFFFFFFFFFFFFFFFFFFFFFFFFFFFFFFFFFFFF AND PUSH20 0xFFFFFFFFFFFFFFFFFFFFFFFFFFFFFFFFFFFFFFFF AND DUP2 MSTORE PUSH1 0x20 ADD SWAP1 DUP2 MSTORE PUSH1 0x20 ADD PUSH1 0x0 KECCAK256 PUSH1 0x0 DUP2 SLOAD DUP1 SWAP3 SWAP2 SWAP1 PUSH2 0xB52 SWAP1 PUSH2 0x2347 JUMP JUMPDEST SWAP2 SWAP1 POP SSTORE POP DUP1 SWAP2 POP POP SWAP6 SWAP5 POP POP POP POP POP JUMP JUMPDEST DUP5 DUP5 PUSH2 0xB6F DUP3 PUSH2 0x602 JUMP JUMPDEST PUSH20 0xFFFFFFFFFFFFFFFFFFFFFFFFFFFFFFFFFFFFFFFF AND DUP2 PUSH20 0xFFFFFFFFFFFFFFFFFFFFFFFFFFFFFFFFFFFFFFFF AND EQ PUSH2 0xBDC JUMPI PUSH1 0x40 MLOAD PUSH32 0x8C379A000000000000000000000000000000000000000000000000000000000 DUP2 MSTORE PUSH1 0x4 ADD PUSH2 0xBD3 SWAP1 PUSH2 0x2167 JUMP JUMPDEST PUSH1 0x40 MLOAD DUP1 SWAP2 SUB SWAP1 REVERT JUMPDEST DUP7 PUSH20 0xFFFFFFFFFFFFFFFFFFFFFFFFFFFFFFFFFFFFFFFF AND PUSH32 0x18AB6B2AE3D64306C00CE663125F2BD680E441A098DE1635BD7AD8B0D44965E4 DUP7 DUP7 DUP7 TIMESTAMP PUSH2 0xC22 SWAP2 SWAP1 PUSH2 0x2390 JUMP JUMPDEST PUSH1 0x2 PUSH1 0x0 DUP14 PUSH20 0xFFFFFFFFFFFFFFFFFFFFFFFFFFFFFFFFFFFFFFFF AND PUSH20 0xFFFFFFFFFFFFFFFFFFFFFFFFFFFFFFFFFFFFFFFF AND DUP2 MSTORE PUSH1 0x20 ADD SWAP1 DUP2 MSTORE PUSH1 0x20 ADD PUSH1 0x0 KECCAK256 SLOAD PUSH1 0x40 MLOAD PUSH2 0xC72 SWAP5 SWAP4 SWAP3 SWAP2 SWAP1 PUSH2 0x23E6 JUMP JUMPDEST PUSH1 0x40 MLOAD DUP1 SWAP2 SUB SWAP1 LOG2 NUMBER PUSH1 0x2 PUSH1 0x0 DUP10 PUSH20 0xFFFFFFFFFFFFFFFFFFFFFFFFFFFFFFFFFFFFFFFF AND PUSH20 0xFFFFFFFFFFFFFFFFFFFFFFFFFFFFFFFFFFFFFFFF AND DUP2 MSTORE PUSH1 0x20 ADD SWAP1 DUP2 MSTORE PUSH1 0x20 ADD PUSH1 0x0 KECCAK256 DUP2 SWAP1 SSTORE POP POP POP POP POP POP POP POP JUMP JUMPDEST DUP3 DUP3 PUSH2 0xCD2 DUP3 PUSH2 0x602 JUMP JUMPDEST PUSH20 0xFFFFFFFFFFFFFFFFFFFFFFFFFFFFFFFFFFFFFFFF AND DUP2 PUSH20 0xFFFFFFFFFFFFFFFFFFFFFFFFFFFFFFFFFFFFFFFF AND EQ PUSH2 0xD3F JUMPI PUSH1 0x40 MLOAD PUSH32 0x8C379A000000000000000000000000000000000000000000000000000000000 DUP2 MSTORE PUSH1 0x4 ADD PUSH2 0xD36 SWAP1 PUSH2 0x2167 JUMP JUMPDEST PUSH1 0x40 MLOAD DUP1 SWAP2 SUB SWAP1 REVERT JUMPDEST DUP3 PUSH1 0x0 DUP1 DUP8 PUSH20 0xFFFFFFFFFFFFFFFFFFFFFFFFFFFFFFFFFFFFFFFF AND PUSH20 0xFFFFFFFFFFFFFFFFFFFFFFFFFFFFFFFFFFFFFFFF AND DUP2 MSTORE PUSH1 0x20 ADD SWAP1 DUP2 MSTORE PUSH1 0x20 ADD PUSH1 0x0 KECCAK256 PUSH1 0x0 PUSH2 0x100 EXP DUP2 SLOAD DUP2 PUSH20 0xFFFFFFFFFFFFFFFFFFFFFFFFFFFFFFFFFFFFFFFF MUL NOT AND SWAP1 DUP4 PUSH20 0xFFFFFFFFFFFFFFFFFFFFFFFFFFFFFFFFFFFFFFFF AND MUL OR SWAP1 SSTORE POP DUP5 PUSH20 0xFFFFFFFFFFFFFFFFFFFFFFFFFFFFFFFFFFFFFFFF AND PUSH32 0x38A5A6E68F30ED1AB45860A4AFB34BCB2FC00F22CA462D249B8A8D40CDA6F7A3 DUP5 PUSH1 0x2 PUSH1 0x0 DUP10 PUSH20 0xFFFFFFFFFFFFFFFFFFFFFFFFFFFFFFFFFFFFFFFF AND PUSH20 0xFFFFFFFFFFFFFFFFFFFFFFFFFFFFFFFFFFFFFFFF AND DUP2 MSTORE PUSH1 0x20 ADD SWAP1 DUP2 MSTORE PUSH1 0x20 ADD PUSH1 0x0 KECCAK256 SLOAD PUSH1 0x40 MLOAD PUSH2 0xE43 SWAP3 SWAP2 SWAP1 PUSH2 0x2432 JUMP JUMPDEST PUSH1 0x40 MLOAD DUP1 SWAP2 SUB SWAP1 LOG2 NUMBER PUSH1 0x2 PUSH1 0x0 DUP8 PUSH20 0xFFFFFFFFFFFFFFFFFFFFFFFFFFFFFFFFFFFFFFFF AND PUSH20 0xFFFFFFFFFFFFFFFFFFFFFFFFFFFFFFFFFFFFFFFF AND DUP2 MSTORE PUSH1 0x20 ADD SWAP1 DUP2 MSTORE PUSH1 0x20 ADD PUSH1 0x0 KECCAK256 DUP2 SWAP1 SSTORE POP POP POP POP POP POP JUMP JUMPDEST DUP4 DUP4 PUSH2 0xEA1 DUP3 PUSH2 0x602 JUMP JUMPDEST PUSH20 0xFFFFFFFFFFFFFFFFFFFFFFFFFFFFFFFFFFFFFFFF AND DUP2 PUSH20 0xFFFFFFFFFFFFFFFFFFFFFFFFFFFFFFFFFFFFFFFF AND EQ PUSH2 0xF0E JUMPI PUSH1 0x40 MLOAD PUSH32 0x8C379A000000000000000000000000000000000000000000000000000000000 DUP2 MSTORE PUSH1 0x4 ADD PUSH2 0xF05 SWAP1 PUSH2 0x2167 JUMP JUMPDEST PUSH1 0x40 MLOAD DUP1 SWAP2 SUB SWAP1 REVERT JUMPDEST TIMESTAMP PUSH1 0x1 PUSH1 0x0 DUP9 PUSH20 0xFFFFFFFFFFFFFFFFFFFFFFFFFFFFFFFFFFFFFFFF AND PUSH20 0xFFFFFFFFFFFFFFFFFFFFFFFFFFFFFFFFFFFFFFFF AND DUP2 MSTORE PUSH1 0x20 ADD SWAP1 DUP2 MSTORE PUSH1 0x20 ADD PUSH1 0x0 KECCAK256 PUSH1 0x0 DUP7 PUSH1 0x40 MLOAD PUSH1 0x20 ADD PUSH2 0xF61 SWAP2 SWAP1 PUSH2 0x1E5A JUMP JUMPDEST PUSH1 0x40 MLOAD PUSH1 0x20 DUP2 DUP4 SUB SUB DUP2 MSTORE SWAP1 PUSH1 0x40 MSTORE DUP1 MLOAD SWAP1 PUSH1 0x20 ADD KECCAK256 DUP2 MSTORE PUSH1 0x20 ADD SWAP1 DUP2 MSTORE PUSH1 0x20 ADD PUSH1 0x0 KECCAK256 PUSH1 0x0 DUP6 PUSH20 0xFFFFFFFFFFFFFFFFFFFFFFFFFFFFFFFFFFFFFFFF AND PUSH20 0xFFFFFFFFFFFFFFFFFFFFFFFFFFFFFFFFFFFFFFFF AND DUP2 MSTORE PUSH1 0x20 ADD SWAP1 DUP2 MSTORE PUSH1 0x20 ADD PUSH1 0x0 KECCAK256 DUP2 SWAP1 SSTORE POP DUP6 PUSH20 0xFFFFFFFFFFFFFFFFFFFFFFFFFFFFFFFFFFFFFFFF AND PUSH32 0x5A5084339536BCAB65F20799FCC58724588145CA054BD2BE626174B27BA156F7 DUP6 DUP6 TIMESTAMP PUSH1 0x2 PUSH1 0x0 DUP13 PUSH20 0xFFFFFFFFFFFFFFFFFFFFFFFFFFFFFFFFFFFFFFFF AND PUSH20 0xFFFFFFFFFFFFFFFFFFFFFFFFFFFFFFFFFFFFFFFF AND DUP2 MSTORE PUSH1 0x20 ADD SWAP1 DUP2 MSTORE PUSH1 0x20 ADD PUSH1 0x0 KECCAK256 SLOAD PUSH1 0x40 MLOAD PUSH2 0x1051 SWAP5 SWAP4 SWAP3 SWAP2 SWAP1 PUSH2 0x245B JUMP JUMPDEST PUSH1 0x40 MLOAD DUP1 SWAP2 SUB SWAP1 LOG2 NUMBER PUSH1 0x2 PUSH1 0x0 DUP9 PUSH20 0xFFFFFFFFFFFFFFFFFFFFFFFFFFFFFFFFFFFFFFFF AND PUSH20 0xFFFFFFFFFFFFFFFFFFFFFFFFFFFFFFFFFFFFFFFF AND DUP2 MSTORE PUSH1 0x20 ADD SWAP1 DUP2 MSTORE PUSH1 0x20 ADD PUSH1 0x0 KECCAK256 DUP2 SWAP1 SSTORE POP POP POP POP POP POP POP JUMP JUMPDEST DUP5 DUP5 PUSH2 0x10B0 DUP3 PUSH2 0x602 JUMP JUMPDEST PUSH20 0xFFFFFFFFFFFFFFFFFFFFFFFFFFFFFFFFFFFFFFFF AND DUP2 PUSH20 0xFFFFFFFFFFFFFFFFFFFFFFFFFFFFFFFFFFFFFFFF AND EQ PUSH2 0x111D JUMPI PUSH1 0x40 MLOAD PUSH32 0x8C379A000000000000000000000000000000000000000000000000000000000 DUP2 MSTORE PUSH1 0x4 ADD PUSH2 0x1114 SWAP1 PUSH2 0x2167 JUMP JUMPDEST PUSH1 0x40 MLOAD DUP1 SWAP2 SUB SWAP1 REVERT JUMPDEST DUP3 TIMESTAMP PUSH2 0x1129 SWAP2 SWAP1 PUSH2 0x2390 JUMP JUMPDEST PUSH1 0x1 PUSH1 0x0 DUP10 PUSH20 0xFFFFFFFFFFFFFFFFFFFFFFFFFFFFFFFFFFFFFFFF AND PUSH20 0xFFFFFFFFFFFFFFFFFFFFFFFFFFFFFFFFFFFFFFFF AND DUP2 MSTORE PUSH1 0x20 ADD SWAP1 DUP2 MSTORE PUSH1 0x20 ADD PUSH1 0x0 KECCAK256 PUSH1 0x0 DUP8 PUSH1 0x40 MLOAD PUSH1 0x20 ADD PUSH2 0x117B SWAP2 SWAP1 PUSH2 0x1E5A JUMP JUMPDEST PUSH1 0x40 MLOAD PUSH1 0x20 DUP2 DUP4 SUB SUB DUP2 MSTORE SWAP1 PUSH1 0x40 MSTORE DUP1 MLOAD SWAP1 PUSH1 0x20 ADD KECCAK256 DUP2 MSTORE PUSH1 0x20 ADD SWAP1 DUP2 MSTORE PUSH1 0x20 ADD PUSH1 0x0 KECCAK256 PUSH1 0x0 DUP7 PUSH20 0xFFFFFFFFFFFFFFFFFFFFFFFFFFFFFFFFFFFFFFFF AND PUSH20 0xFFFFFFFFFFFFFFFFFFFFFFFFFFFFFFFFFFFFFFFF AND DUP2 MSTORE PUSH1 0x20 ADD SWAP1 DUP2 MSTORE PUSH1 0x20 ADD PUSH1 0x0 KECCAK256 DUP2 SWAP1 SSTORE POP DUP7 PUSH20 0xFFFFFFFFFFFFFFFFFFFFFFFFFFFFFFFFFFFFFFFF AND PUSH32 0x5A5084339536BCAB65F20799FCC58724588145CA054BD2BE626174B27BA156F7 DUP7 DUP7 DUP7 TIMESTAMP PUSH2 0x1226 SWAP2 SWAP1 PUSH2 0x2390 JUMP JUMPDEST PUSH1 0x2 PUSH1 0x0 DUP14 PUSH20 0xFFFFFFFFFFFFFFFFFFFFFFFFFFFFFFFFFFFFFFFF AND PUSH20 0xFFFFFFFFFFFFFFFFFFFFFFFFFFFFFFFFFFFFFFFF AND DUP2 MSTORE PUSH1 0x20 ADD SWAP1 DUP2 MSTORE PUSH1 0x20 ADD PUSH1 0x0 KECCAK256 SLOAD PUSH1 0x40 MLOAD PUSH2 0x1276 SWAP5 SWAP4 SWAP3 SWAP2 SWAP1 PUSH2 0x245B JUMP JUMPDEST PUSH1 0x40 MLOAD DUP1 SWAP2 SUB SWAP1 LOG2 NUMBER PUSH1 0x2 PUSH1 0x0 DUP10 PUSH20 0xFFFFFFFFFFFFFFFFFFFFFFFFFFFFFFFFFFFFFFFF AND PUSH20 0xFFFFFFFFFFFFFFFFFFFFFFFFFFFFFFFFFFFFFFFF AND DUP2 MSTORE PUSH1 0x20 ADD SWAP1 DUP2 MSTORE PUSH1 0x20 ADD PUSH1 0x0 KECCAK256 DUP2 SWAP1 SSTORE POP POP POP POP POP POP POP POP JUMP JUMPDEST PUSH1 0x0 PUSH1 0x40 MLOAD SWAP1 POP SWAP1 JUMP JUMPDEST PUSH1 0x0 DUP1 REVERT JUMPDEST PUSH1 0x0 DUP1 REVERT JUMPDEST PUSH1 0x0 PUSH20 0xFFFFFFFFFFFFFFFFFFFFFFFFFFFFFFFFFFFFFFFF DUP3 AND SWAP1 POP SWAP2 SWAP1 POP JUMP JUMPDEST PUSH1 0x0 PUSH2 0x130A DUP3 PUSH2 0x12DF JUMP JUMPDEST SWAP1 POP SWAP2 SWAP1 POP JUMP JUMPDEST PUSH2 0x131A DUP2 PUSH2 0x12FF JUMP JUMPDEST DUP2 EQ PUSH2 0x1325 JUMPI PUSH1 0x0 DUP1 REVERT JUMPDEST POP JUMP JUMPDEST PUSH1 0x0 DUP2 CALLDATALOAD SWAP1 POP PUSH2 0x1337 DUP2 PUSH2 0x1311 JUMP JUMPDEST SWAP3 SWAP2 POP POP JUMP JUMPDEST PUSH1 0x0 DUP2 SWAP1 POP SWAP2 SWAP1 POP JUMP JUMPDEST PUSH2 0x1350 DUP2 PUSH2 0x133D JUMP JUMPDEST DUP2 EQ PUSH2 0x135B JUMPI PUSH1 0x0 DUP1 REVERT JUMPDEST POP JUMP JUMPDEST PUSH1 0x0 DUP2 CALLDATALOAD SWAP1 POP PUSH2 0x136D DUP2 PUSH2 0x1347 JUMP JUMPDEST SWAP3 SWAP2 POP POP JUMP JUMPDEST PUSH1 0x0 DUP1 REVERT JUMPDEST PUSH1 0x0 DUP1 REVERT JUMPDEST PUSH1 0x0 PUSH1 0x1F NOT PUSH1 0x1F DUP4 ADD AND SWAP1 POP SWAP2 SWAP1 POP JUMP JUMPDEST PUSH32 0x4E487B7100000000000000000000000000000000000000000000000000000000 PUSH1 0x0 MSTORE PUSH1 0x41 PUSH1 0x4 MSTORE PUSH1 0x24 PUSH1 0x0 REVERT JUMPDEST PUSH2 0x13C6 DUP3 PUSH2 0x137D JUMP JUMPDEST DUP2 ADD DUP2 DUP2 LT PUSH8 0xFFFFFFFFFFFFFFFF DUP3 GT OR ISZERO PUSH2 0x13E5 JUMPI PUSH2 0x13E4 PUSH2 0x138E JUMP JUMPDEST JUMPDEST DUP1 PUSH1 0x40 MSTORE POP POP POP JUMP JUMPDEST PUSH1 0x0 PUSH2 0x13F8 PUSH2 0x12CB JUMP JUMPDEST SWAP1 POP PUSH2 0x1404 DUP3 DUP3 PUSH2 0x13BD JUMP JUMPDEST SWAP2 SWAP1 POP JUMP JUMPDEST PUSH1 0x0 PUSH8 0xFFFFFFFFFFFFFFFF DUP3 GT ISZERO PUSH2 0x1424 JUMPI PUSH2 0x1423 PUSH2 0x138E JUMP JUMPDEST JUMPDEST PUSH2 0x142D DUP3 PUSH2 0x137D JUMP JUMPDEST SWAP1 POP PUSH1 0x20 DUP2 ADD SWAP1 POP SWAP2 SWAP1 POP JUMP JUMPDEST DUP3 DUP2 DUP4 CALLDATACOPY PUSH1 0x0 DUP4 DUP4 ADD MSTORE POP POP POP JUMP JUMPDEST PUSH1 0x0 PUSH2 0x145C PUSH2 0x1457 DUP5 PUSH2 0x1409 JUMP JUMPDEST PUSH2 0x13EE JUMP JUMPDEST SWAP1 POP DUP3 DUP2 MSTORE PUSH1 0x20 DUP2 ADD DUP5 DUP5 DUP5 ADD GT ISZERO PUSH2 0x1478 JUMPI PUSH2 0x1477 PUSH2 0x1378 JUMP JUMPDEST JUMPDEST PUSH2 0x1483 DUP5 DUP3 DUP6 PUSH2 0x143A JUMP JUMPDEST POP SWAP4 SWAP3 POP POP POP JUMP JUMPDEST PUSH1 0x0 DUP3 PUSH1 0x1F DUP4 ADD SLT PUSH2 0x14A0 JUMPI PUSH2 0x149F PUSH2 0x1373 JUMP JUMPDEST JUMPDEST DUP2 CALLDATALOAD PUSH2 0x14B0 DUP5 DUP3 PUSH1 0x20 DUP7 ADD PUSH2 0x1449 JUMP JUMPDEST SWAP2 POP POP SWAP3 SWAP2 POP POP JUMP JUMPDEST PUSH1 0x0 DUP1 PUSH1 0x0 PUSH1 0x60 DUP5 DUP7 SUB SLT ISZERO PUSH2 0x14D2 JUMPI PUSH2 0x14D1 PUSH2 0x12D5 JUMP JUMPDEST JUMPDEST PUSH1 0x0 PUSH2 0x14E0 DUP7 DUP3 DUP8 ADD PUSH2 0x1328 JUMP JUMPDEST SWAP4 POP POP PUSH1 0x20 PUSH2 0x14F1 DUP7 DUP3 DUP8 ADD PUSH2 0x135E JUMP JUMPDEST SWAP3 POP POP PUSH1 0x40 DUP5 ADD CALLDATALOAD PUSH8 0xFFFFFFFFFFFFFFFF DUP2 GT ISZERO PUSH2 0x1512 JUMPI PUSH2 0x1511 PUSH2 0x12DA JUMP JUMPDEST JUMPDEST PUSH2 0x151E DUP7 DUP3 DUP8 ADD PUSH2 0x148B JUMP JUMPDEST SWAP2 POP POP SWAP3 POP SWAP3 POP SWAP3 JUMP JUMPDEST PUSH1 0x0 PUSH1 0x20 DUP3 DUP5 SUB SLT ISZERO PUSH2 0x153E JUMPI PUSH2 0x153D PUSH2 0x12D5 JUMP JUMPDEST JUMPDEST PUSH1 0x0 PUSH2 0x154C DUP5 DUP3 DUP6 ADD PUSH2 0x1328 JUMP JUMPDEST SWAP2 POP POP SWAP3 SWAP2 POP POP JUMP JUMPDEST PUSH2 0x155E DUP2 PUSH2 0x12FF JUMP JUMPDEST DUP3 MSTORE POP POP JUMP JUMPDEST PUSH1 0x0 PUSH1 0x20 DUP3 ADD SWAP1 POP PUSH2 0x1579 PUSH1 0x0 DUP4 ADD DUP5 PUSH2 0x1555 JUMP JUMPDEST SWAP3 SWAP2 POP POP JUMP JUMPDEST PUSH1 0x0 DUP1 PUSH1 0x0 PUSH1 0x60 DUP5 DUP7 SUB SLT ISZERO PUSH2 0x1598 JUMPI PUSH2 0x1597 PUSH2 0x12D5 JUMP JUMPDEST JUMPDEST PUSH1 0x0 PUSH2 0x15A6 DUP7 DUP3 DUP8 ADD PUSH2 0x1328 JUMP JUMPDEST SWAP4 POP POP PUSH1 0x20 PUSH2 0x15B7 DUP7 DUP3 DUP8 ADD PUSH2 0x135E JUMP JUMPDEST SWAP3 POP POP PUSH1 0x40 PUSH2 0x15C8 DUP7 DUP3 DUP8 ADD PUSH2 0x1328 JUMP JUMPDEST SWAP2 POP POP SWAP3 POP SWAP3 POP SWAP3 JUMP JUMPDEST PUSH1 0x0 DUP2 SWAP1 POP SWAP2 SWAP1 POP JUMP JUMPDEST PUSH2 0x15E5 DUP2 PUSH2 0x15D2 JUMP JUMPDEST DUP3 MSTORE POP POP JUMP JUMPDEST PUSH1 0x0 PUSH1 0x20 DUP3 ADD SWAP1 POP PUSH2 0x1600 PUSH1 0x0 DUP4 ADD DUP5 PUSH2 0x15DC JUMP JUMPDEST SWAP3 SWAP2 POP POP JUMP JUMPDEST PUSH1 0x0 PUSH1 0xFF DUP3 AND SWAP1 POP SWAP2 SWAP1 POP JUMP JUMPDEST PUSH2 0x161C DUP2 PUSH2 0x1606 JUMP JUMPDEST DUP2 EQ PUSH2 0x1627 JUMPI PUSH1 0x0 DUP1 REVERT JUMPDEST POP JUMP JUMPDEST PUSH1 0x0 DUP2 CALLDATALOAD SWAP1 POP PUSH2 0x1639 DUP2 PUSH2 0x1613 JUMP JUMPDEST SWAP3 SWAP2 POP POP JUMP JUMPDEST PUSH2 0x1648 DUP2 PUSH2 0x15D2 JUMP JUMPDEST DUP2 EQ PUSH2 0x1653 JUMPI PUSH1 0x0 DUP1 REVERT JUMPDEST POP JUMP JUMPDEST PUSH1 0x0 DUP2 CALLDATALOAD SWAP1 POP PUSH2 0x1665 DUP2 PUSH2 0x163F JUMP JUMPDEST SWAP3 SWAP2 POP POP JUMP JUMPDEST PUSH1 0x0 DUP1 PUSH1 0x0 DUP1 PUSH1 0x0 DUP1 PUSH1 0x0 PUSH1 0xE0 DUP9 DUP11 SUB SLT ISZERO PUSH2 0x168A JUMPI PUSH2 0x1689 PUSH2 0x12D5 JUMP JUMPDEST JUMPDEST PUSH1 0x0 PUSH2 0x1698 DUP11 DUP3 DUP12 ADD PUSH2 0x1328 JUMP JUMPDEST SWAP8 POP POP PUSH1 0x20 PUSH2 0x16A9 DUP11 DUP3 DUP12 ADD PUSH2 0x162A JUMP JUMPDEST SWAP7 POP POP PUSH1 0x40 PUSH2 0x16BA DUP11 DUP3 DUP12 ADD PUSH2 0x135E JUMP JUMPDEST SWAP6 POP POP PUSH1 0x60 PUSH2 0x16CB DUP11 DUP3 DUP12 ADD PUSH2 0x135E JUMP JUMPDEST SWAP5 POP POP PUSH1 0x80 PUSH2 0x16DC DUP11 DUP3 DUP12 ADD PUSH2 0x135E JUMP JUMPDEST SWAP4 POP POP PUSH1 0xA0 DUP9 ADD CALLDATALOAD PUSH8 0xFFFFFFFFFFFFFFFF DUP2 GT ISZERO PUSH2 0x16FD JUMPI PUSH2 0x16FC PUSH2 0x12DA JUMP JUMPDEST JUMPDEST PUSH2 0x1709 DUP11 DUP3 DUP12 ADD PUSH2 0x148B JUMP JUMPDEST SWAP3 POP POP PUSH1 0xC0 PUSH2 0x171A DUP11 DUP3 DUP12 ADD PUSH2 0x1656 JUMP JUMPDEST SWAP2 POP POP SWAP3 SWAP6 SWAP9 SWAP2 SWAP5 SWAP8 POP SWAP3 SWAP6 POP JUMP JUMPDEST PUSH1 0x0 DUP1 PUSH1 0x0 DUP1 PUSH1 0x0 PUSH1 0xA0 DUP7 DUP9 SUB SLT ISZERO PUSH2 0x1745 JUMPI PUSH2 0x1744 PUSH2 0x12D5 JUMP JUMPDEST JUMPDEST PUSH1 0x0 PUSH2 0x1753 DUP9 DUP3 DUP10 ADD PUSH2 0x1328 JUMP JUMPDEST SWAP6 POP POP PUSH1 0x20 PUSH2 0x1764 DUP9 DUP3 DUP10 ADD PUSH2 0x162A JUMP JUMPDEST SWAP5 POP POP PUSH1 0x40 PUSH2 0x1775 DUP9 DUP3 DUP10 ADD PUSH2 0x135E JUMP JUMPDEST SWAP4 POP POP PUSH1 0x60 PUSH2 0x1786 DUP9 DUP3 DUP10 ADD PUSH2 0x135E JUMP JUMPDEST SWAP3 POP POP PUSH1 0x80 PUSH2 0x1797 DUP9 DUP3 DUP10 ADD PUSH2 0x1328 JUMP JUMPDEST SWAP2 POP POP SWAP3 SWAP6 POP SWAP3 SWAP6 SWAP1 SWAP4 POP JUMP JUMPDEST PUSH1 0x0 DUP2 ISZERO ISZERO SWAP1 POP SWAP2 SWAP1 POP JUMP JUMPDEST PUSH2 0x17B9 DUP2 PUSH2 0x17A4 JUMP JUMPDEST DUP3 MSTORE POP POP JUMP JUMPDEST PUSH1 0x0 PUSH1 0x20 DUP3 ADD SWAP1 POP PUSH2 0x17D4 PUSH1 0x0 DUP4 ADD DUP5 PUSH2 0x17B0 JUMP JUMPDEST SWAP3 SWAP2 POP POP JUMP JUMPDEST PUSH1 0x0 DUP1 PUSH1 0x0 DUP1 PUSH1 0x80 DUP6 DUP8 SUB SLT ISZERO PUSH2 0x17F4 JUMPI PUSH2 0x17F3 PUSH2 0x12D5 JUMP JUMPDEST JUMPDEST PUSH1 0x0 PUSH2 0x1802 DUP8 DUP3 DUP9 ADD PUSH2 0x1328 JUMP JUMPDEST SWAP5 POP POP PUSH1 0x20 PUSH2 0x1813 DUP8 DUP3 DUP9 ADD PUSH2 0x135E JUMP JUMPDEST SWAP4 POP POP PUSH1 0x40 DUP6 ADD CALLDATALOAD PUSH8 0xFFFFFFFFFFFFFFFF DUP2 GT ISZERO PUSH2 0x1834 JUMPI PUSH2 0x1833 PUSH2 0x12DA JUMP JUMPDEST JUMPDEST PUSH2 0x1840 DUP8 DUP3 DUP9 ADD PUSH2 0x148B JUMP JUMPDEST SWAP3 POP POP PUSH1 0x60 PUSH2 0x1851 DUP8 DUP3 DUP9 ADD PUSH2 0x1656 JUMP JUMPDEST SWAP2 POP POP SWAP3 SWAP6 SWAP2 SWAP5 POP SWAP3 POP JUMP JUMPDEST PUSH1 0x0 DUP1 PUSH1 0x0 DUP1 PUSH1 0x0 DUP1 PUSH1 0xC0 DUP8 DUP10 SUB SLT ISZERO PUSH2 0x187A JUMPI PUSH2 0x1879 PUSH2 0x12D5 JUMP JUMPDEST JUMPDEST PUSH1 0x0 PUSH2 0x1888 DUP10 DUP3 DUP11 ADD PUSH2 0x1328 JUMP JUMPDEST SWAP7 POP POP PUSH1 0x20 PUSH2 0x1899 DUP10 DUP3 DUP11 ADD PUSH2 0x162A JUMP JUMPDEST SWAP6 POP POP PUSH1 0x40 PUSH2 0x18AA DUP10 DUP3 DUP11 ADD PUSH2 0x135E JUMP JUMPDEST SWAP5 POP POP PUSH1 0x60 PUSH2 0x18BB DUP10 DUP3 DUP11 ADD PUSH2 0x135E JUMP JUMPDEST SWAP4 POP POP PUSH1 0x80 PUSH2 0x18CC DUP10 DUP3 DUP11 ADD PUSH2 0x135E JUMP JUMPDEST SWAP3 POP POP PUSH1 0xA0 PUSH2 0x18DD DUP10 DUP3 DUP11 ADD PUSH2 0x1328 JUMP JUMPDEST SWAP2 POP POP SWAP3 SWAP6 POP SWAP3 SWAP6 POP SWAP3 SWAP6 JUMP JUMPDEST PUSH1 0x0 DUP1 PUSH1 0x0 DUP1 PUSH1 0x0 DUP1 PUSH1 0x0 PUSH1 0xE0 DUP9 DUP11 SUB SLT ISZERO PUSH2 0x1909 JUMPI PUSH2 0x1908 PUSH2 0x12D5 JUMP JUMPDEST JUMPDEST PUSH1 0x0 PUSH2 0x1917 DUP11 DUP3 DUP12 ADD PUSH2 0x1328 JUMP JUMPDEST SWAP8 POP POP PUSH1 0x20 PUSH2 0x1928 DUP11 DUP3 DUP12 ADD PUSH2 0x162A JUMP JUMPDEST SWAP7 POP POP PUSH1 0x40 PUSH2 0x1939 DUP11 DUP3 DUP12 ADD PUSH2 0x135E JUMP JUMPDEST SWAP6 POP POP PUSH1 0x60 PUSH2 0x194A DUP11 DUP3 DUP12 ADD PUSH2 0x135E JUMP JUMPDEST SWAP5 POP POP PUSH1 0x80 PUSH2 0x195B DUP11 DUP3 DUP12 ADD PUSH2 0x135E JUMP JUMPDEST SWAP4 POP POP PUSH1 0xA0 PUSH2 0x196C DUP11 DUP3 DUP12 ADD PUSH2 0x1328 JUMP JUMPDEST SWAP3 POP POP PUSH1 0xC0 PUSH2 0x197D DUP11 DUP3 DUP12 ADD PUSH2 0x1656 JUMP JUMPDEST SWAP2 POP POP SWAP3 SWAP6 SWAP9 SWAP2 SWAP5 SWAP8 POP SWAP3 SWAP6 POP JUMP JUMPDEST PUSH1 0x0 DUP1 PUSH1 0x0 DUP1 PUSH1 0x80 DUP6 DUP8 SUB SLT ISZERO PUSH2 0x19A6 JUMPI PUSH2 0x19A5 PUSH2 0x12D5 JUMP JUMPDEST JUMPDEST PUSH1 0x0 PUSH2 0x19B4 DUP8 DUP3 DUP9 ADD PUSH2 0x1328 JUMP JUMPDEST SWAP5 POP POP PUSH1 0x20 PUSH2 0x19C5 DUP8 DUP3 DUP9 ADD PUSH2 0x135E JUMP JUMPDEST SWAP4 POP POP PUSH1 0x40 PUSH2 0x19D6 DUP8 DUP3 DUP9 ADD PUSH2 0x1328 JUMP JUMPDEST SWAP3 POP POP PUSH1 0x60 PUSH2 0x19E7 DUP8 DUP3 DUP9 ADD PUSH2 0x1656 JUMP JUMPDEST SWAP2 POP POP SWAP3 SWAP6 SWAP2 SWAP5 POP SWAP3 POP JUMP JUMPDEST PUSH1 0x0 DUP1 PUSH1 0x0 DUP1 PUSH1 0x0 DUP1 PUSH1 0xC0 DUP8 DUP10 SUB SLT ISZERO PUSH2 0x1A10 JUMPI PUSH2 0x1A0F PUSH2 0x12D5 JUMP JUMPDEST JUMPDEST PUSH1 0x0 PUSH2 0x1A1E DUP10 DUP3 DUP11 ADD PUSH2 0x1328 JUMP JUMPDEST SWAP7 POP POP PUSH1 0x20 PUSH2 0x1A2F DUP10 DUP3 DUP11 ADD PUSH2 0x162A JUMP JUMPDEST SWAP6 POP POP PUSH1 0x40 PUSH2 0x1A40 DUP10 DUP3 DUP11 ADD PUSH2 0x135E JUMP JUMPDEST SWAP5 POP POP PUSH1 0x60 PUSH2 0x1A51 DUP10 DUP3 DUP11 ADD PUSH2 0x135E JUMP JUMPDEST SWAP4 POP POP PUSH1 0x80 PUSH2 0x1A62 DUP10 DUP3 DUP11 ADD PUSH2 0x135E JUMP JUMPDEST SWAP3 POP POP PUSH1 0xA0 DUP8 ADD CALLDATALOAD PUSH8 0xFFFFFFFFFFFFFFFF DUP2 GT ISZERO PUSH2 0x1A83 JUMPI PUSH2 0x1A82 PUSH2 0x12DA JUMP JUMPDEST JUMPDEST PUSH2 0x1A8F DUP10 DUP3 DUP11 ADD PUSH2 0x148B JUMP JUMPDEST SWAP2 POP POP SWAP3 SWAP6 POP SWAP3 SWAP6 POP SWAP3 SWAP6 JUMP JUMPDEST PUSH1 0x0 DUP1 PUSH1 0x40 DUP4 DUP6 SUB SLT ISZERO PUSH2 0x1AB3 JUMPI PUSH2 0x1AB2 PUSH2 0x12D5 JUMP JUMPDEST JUMPDEST PUSH1 0x0 PUSH2 0x1AC1 DUP6 DUP3 DUP7 ADD PUSH2 0x1328 JUMP JUMPDEST SWAP3 POP POP PUSH1 0x20 PUSH2 0x1AD2 DUP6 DUP3 DUP7 ADD PUSH2 0x1328 JUMP JUMPDEST SWAP2 POP POP SWAP3 POP SWAP3 SWAP1 POP JUMP JUMPDEST PUSH1 0x0 PUSH32 0xFF00000000000000000000000000000000000000000000000000000000000000 DUP3 AND SWAP1 POP SWAP2 SWAP1 POP JUMP JUMPDEST PUSH1 0x0 DUP2 SWAP1 POP SWAP2 SWAP1 POP JUMP JUMPDEST PUSH2 0x1B23 PUSH2 0x1B1E DUP3 PUSH2 0x1ADC JUMP JUMPDEST PUSH2 0x1B08 JUMP JUMPDEST DUP3 MSTORE POP POP JUMP JUMPDEST PUSH1 0x0 DUP2 SWAP1 POP SWAP2 SWAP1 POP JUMP JUMPDEST PUSH1 0x0 PUSH2 0x1B4E PUSH2 0x1B49 PUSH2 0x1B44 DUP5 PUSH2 0x12DF JUMP JUMPDEST PUSH2 0x1B29 JUMP JUMPDEST PUSH2 0x12DF JUMP JUMPDEST SWAP1 POP SWAP2 SWAP1 POP JUMP JUMPDEST PUSH1 0x0 PUSH2 0x1B60 DUP3 PUSH2 0x1B33 JUMP JUMPDEST SWAP1 POP SWAP2 SWAP1 POP JUMP JUMPDEST PUSH1 0x0 PUSH2 0x1B72 DUP3 PUSH2 0x1B55 JUMP JUMPDEST SWAP1 POP SWAP2 SWAP1 POP JUMP JUMPDEST PUSH1 0x0 DUP2 PUSH1 0x60 SHL SWAP1 POP SWAP2 SWAP1 POP JUMP JUMPDEST PUSH1 0x0 PUSH2 0x1B91 DUP3 PUSH2 0x1B79 JUMP JUMPDEST SWAP1 POP SWAP2 SWAP1 POP JUMP JUMPDEST PUSH1 0x0 PUSH2 0x1BA3 DUP3 PUSH2 0x1B86 JUMP JUMPDEST SWAP1 POP SWAP2 SWAP1 POP JUMP JUMPDEST PUSH2 0x1BBB PUSH2 0x1BB6 DUP3 PUSH2 0x1B67 JUMP JUMPDEST PUSH2 0x1B98 JUMP JUMPDEST DUP3 MSTORE POP POP JUMP JUMPDEST PUSH1 0x0 DUP2 SWAP1 POP SWAP2 SWAP1 POP JUMP JUMPDEST PUSH2 0x1BDC PUSH2 0x1BD7 DUP3 PUSH2 0x15D2 JUMP JUMPDEST PUSH2 0x1BC1 JUMP JUMPDEST DUP3 MSTORE POP POP JUMP JUMPDEST PUSH2 0x1BF3 PUSH2 0x1BEE DUP3 PUSH2 0x12FF JUMP JUMPDEST PUSH2 0x1B98 JUMP JUMPDEST DUP3 MSTORE POP POP JUMP JUMPDEST PUSH1 0x0 DUP2 SWAP1 POP SWAP3 SWAP2 POP POP JUMP JUMPDEST PUSH32 0x7365744174747269627574650000000000000000000000000000000000000000 PUSH1 0x0 DUP3 ADD MSTORE POP JUMP JUMPDEST PUSH1 0x0 PUSH2 0x1C3A PUSH1 0xC DUP4 PUSH2 0x1BF9 JUMP JUMPDEST SWAP2 POP PUSH2 0x1C45 DUP3 PUSH2 0x1C04 JUMP JUMPDEST PUSH1 0xC DUP3 ADD SWAP1 POP SWAP2 SWAP1 POP JUMP JUMPDEST PUSH1 0x0 DUP2 SWAP1 POP SWAP2 SWAP1 POP JUMP JUMPDEST PUSH2 0x1C6B PUSH2 0x1C66 DUP3 PUSH2 0x133D JUMP JUMPDEST PUSH2 0x1C50 JUMP JUMPDEST DUP3 MSTORE POP POP JUMP JUMPDEST PUSH1 0x0 DUP2 MLOAD SWAP1 POP SWAP2 SWAP1 POP JUMP JUMPDEST PUSH1 0x0 DUP2 SWAP1 POP SWAP3 SWAP2 POP POP JUMP JUMPDEST PUSH1 0x0 JUMPDEST DUP4 DUP2 LT ISZERO PUSH2 0x1CA5 JUMPI DUP1 DUP3 ADD MLOAD DUP2 DUP5 ADD MSTORE PUSH1 0x20 DUP2 ADD SWAP1 POP PUSH2 0x1C8A JUMP JUMPDEST DUP4 DUP2 GT ISZERO PUSH2 0x1CB4 JUMPI PUSH1 0x0 DUP5 DUP5 ADD MSTORE JUMPDEST POP POP POP POP JUMP JUMPDEST PUSH1 0x0 PUSH2 0x1CC5 DUP3 PUSH2 0x1C71 JUMP JUMPDEST PUSH2 0x1CCF DUP2 DUP6 PUSH2 0x1C7C JUMP JUMPDEST SWAP4 POP PUSH2 0x1CDF DUP2 DUP6 PUSH1 0x20 DUP7 ADD PUSH2 0x1C87 JUMP JUMPDEST DUP1 DUP5 ADD SWAP2 POP POP SWAP3 SWAP2 POP POP JUMP JUMPDEST PUSH1 0x0 PUSH2 0x1CF7 DUP3 DUP12 PUSH2 0x1B12 JUMP JUMPDEST PUSH1 0x1 DUP3 ADD SWAP2 POP PUSH2 0x1D07 DUP3 DUP11 PUSH2 0x1B12 JUMP JUMPDEST PUSH1 0x1 DUP3 ADD SWAP2 POP PUSH2 0x1D17 DUP3 DUP10 PUSH2 0x1BAA JUMP JUMPDEST PUSH1 0x14 DUP3 ADD SWAP2 POP PUSH2 0x1D27 DUP3 DUP9 PUSH2 0x1BCB JUMP JUMPDEST PUSH1 0x20 DUP3 ADD SWAP2 POP PUSH2 0x1D37 DUP3 DUP8 PUSH2 0x1BE2 JUMP JUMPDEST PUSH1 0x14 DUP3 ADD SWAP2 POP PUSH2 0x1D46 DUP3 PUSH2 0x1C2D JUMP JUMPDEST SWAP2 POP PUSH2 0x1D52 DUP3 DUP7 PUSH2 0x1C5A JUMP JUMPDEST PUSH1 0x20 DUP3 ADD SWAP2 POP PUSH2 0x1D62 DUP3 DUP6 PUSH2 0x1CBA JUMP JUMPDEST SWAP2 POP PUSH2 0x1D6E DUP3 DUP5 PUSH2 0x1BCB JUMP JUMPDEST PUSH1 0x20 DUP3 ADD SWAP2 POP DUP2 SWAP1 POP SWAP10 SWAP9 POP POP POP POP POP POP POP POP POP JUMP JUMPDEST PUSH32 0x6368616E67654F776E6572000000000000000000000000000000000000000000 PUSH1 0x0 DUP3 ADD MSTORE POP JUMP JUMPDEST PUSH1 0x0 PUSH2 0x1DBA PUSH1 0xB DUP4 PUSH2 0x1BF9 JUMP JUMPDEST SWAP2 POP PUSH2 0x1DC5 DUP3 PUSH2 0x1D84 JUMP JUMPDEST PUSH1 0xB DUP3 ADD SWAP1 POP SWAP2 SWAP1 POP JUMP JUMPDEST PUSH1 0x0 PUSH2 0x1DDC DUP3 DUP10 PUSH2 0x1B12 JUMP JUMPDEST PUSH1 0x1 DUP3 ADD SWAP2 POP PUSH2 0x1DEC DUP3 DUP9 PUSH2 0x1B12 JUMP JUMPDEST PUSH1 0x1 DUP3 ADD SWAP2 POP PUSH2 0x1DFC DUP3 DUP8 PUSH2 0x1BAA JUMP JUMPDEST PUSH1 0x14 DUP3 ADD SWAP2 POP PUSH2 0x1E0C DUP3 DUP7 PUSH2 0x1BCB JUMP JUMPDEST PUSH1 0x20 DUP3 ADD SWAP2 POP PUSH2 0x1E1C DUP3 DUP6 PUSH2 0x1BE2 JUMP JUMPDEST PUSH1 0x14 DUP3 ADD SWAP2 POP PUSH2 0x1E2B DUP3 PUSH2 0x1DAD JUMP JUMPDEST SWAP2 POP PUSH2 0x1E37 DUP3 DUP5 PUSH2 0x1BE2 JUMP JUMPDEST PUSH1 0x14 DUP3 ADD SWAP2 POP DUP2 SWAP1 POP SWAP8 SWAP7 POP POP POP POP POP POP POP JUMP JUMPDEST PUSH2 0x1E54 DUP2 PUSH2 0x133D JUMP JUMPDEST DUP3 MSTORE POP POP JUMP JUMPDEST PUSH1 0x0 PUSH1 0x20 DUP3 ADD SWAP1 POP PUSH2 0x1E6F PUSH1 0x0 DUP4 ADD DUP5 PUSH2 0x1E4B JUMP JUMPDEST SWAP3 SWAP2 POP POP JUMP JUMPDEST PUSH32 0x7265766F6B6544656C6567617465000000000000000000000000000000000000 PUSH1 0x0 DUP3 ADD MSTORE POP JUMP JUMPDEST PUSH1 0x0 PUSH2 0x1EAB PUSH1 0xE DUP4 PUSH2 0x1BF9 JUMP JUMPDEST SWAP2 POP PUSH2 0x1EB6 DUP3 PUSH2 0x1E75 JUMP JUMPDEST PUSH1 0xE DUP3 ADD SWAP1 POP SWAP2 SWAP1 POP JUMP JUMPDEST PUSH1 0x0 PUSH2 0x1ECD DUP3 DUP11 PUSH2 0x1B12 JUMP JUMPDEST PUSH1 0x1 DUP3 ADD SWAP2 POP PUSH2 0x1EDD DUP3 DUP10 PUSH2 0x1B12 JUMP JUMPDEST PUSH1 0x1 DUP3 ADD SWAP2 POP PUSH2 0x1EED DUP3 DUP9 PUSH2 0x1BAA JUMP JUMPDEST PUSH1 0x14 DUP3 ADD SWAP2 POP PUSH2 0x1EFD DUP3 DUP8 PUSH2 0x1BCB JUMP JUMPDEST PUSH1 0x20 DUP3 ADD SWAP2 POP PUSH2 0x1F0D DUP3 DUP7 PUSH2 0x1BE2 JUMP JUMPDEST PUSH1 0x14 DUP3 ADD SWAP2 POP PUSH2 0x1F1C DUP3 PUSH2 0x1E9E JUMP JUMPDEST SWAP2 POP PUSH2 0x1F28 DUP3 DUP6 PUSH2 0x1C5A JUMP JUMPDEST PUSH1 0x20 DUP3 ADD SWAP2 POP PUSH2 0x1F38 DUP3 DUP5 PUSH2 0x1BE2 JUMP JUMPDEST PUSH1 0x14 DUP3 ADD SWAP2 POP DUP2 SWAP1 POP SWAP9 SWAP8 POP POP POP POP POP POP POP POP JUMP JUMPDEST PUSH32 0x61646444656C6567617465000000000000000000000000000000000000000000 PUSH1 0x0 DUP3 ADD MSTORE POP JUMP JUMPDEST PUSH1 0x0 PUSH2 0x1F83 PUSH1 0xB DUP4 PUSH2 0x1BF9 JUMP JUMPDEST SWAP2 POP PUSH2 0x1F8E DUP3 PUSH2 0x1F4D JUMP JUMPDEST PUSH1 0xB DUP3 ADD SWAP1 POP SWAP2 SWAP1 POP JUMP JUMPDEST PUSH1 0x0 PUSH2 0x1FA5 DUP3 DUP12 PUSH2 0x1B12 JUMP JUMPDEST PUSH1 0x1 DUP3 ADD SWAP2 POP PUSH2 0x1FB5 DUP3 DUP11 PUSH2 0x1B12 JUMP JUMPDEST PUSH1 0x1 DUP3 ADD SWAP2 POP PUSH2 0x1FC5 DUP3 DUP10 PUSH2 0x1BAA JUMP JUMPDEST PUSH1 0x14 DUP3 ADD SWAP2 POP PUSH2 0x1FD5 DUP3 DUP9 PUSH2 0x1BCB JUMP JUMPDEST PUSH1 0x20 DUP3 ADD SWAP2 POP PUSH2 0x1FE5 DUP3 DUP8 PUSH2 0x1BE2 JUMP JUMPDEST PUSH1 0x14 DUP3 ADD SWAP2 POP PUSH2 0x1FF4 DUP3 PUSH2 0x1F76 JUMP JUMPDEST SWAP2 POP PUSH2 0x2000 DUP3 DUP7 PUSH2 0x1C5A JUMP JUMPDEST PUSH1 0x20 DUP3 ADD SWAP2 POP PUSH2 0x2010 DUP3 DUP6 PUSH2 0x1BE2 JUMP JUMPDEST PUSH1 0x14 DUP3 ADD SWAP2 POP PUSH2 0x2020 DUP3 DUP5 PUSH2 0x1BCB JUMP JUMPDEST PUSH1 0x20 DUP3 ADD SWAP2 POP DUP2 SWAP1 POP SWAP10 SWAP9 POP POP POP POP POP POP POP POP POP JUMP JUMPDEST PUSH32 0x7265766F6B654174747269627574650000000000000000000000000000000000 PUSH1 0x0 DUP3 ADD MSTORE POP JUMP JUMPDEST PUSH1 0x0 PUSH2 0x206C PUSH1 0xF DUP4 PUSH2 0x1BF9 JUMP JUMPDEST SWAP2 POP PUSH2 0x2077 DUP3 PUSH2 0x2036 JUMP JUMPDEST PUSH1 0xF DUP3 ADD SWAP1 POP SWAP2 SWAP1 POP JUMP JUMPDEST PUSH1 0x0 PUSH2 0x208E DUP3 DUP11 PUSH2 0x1B12 JUMP JUMPDEST PUSH1 0x1 DUP3 ADD SWAP2 POP PUSH2 0x209E DUP3 DUP10 PUSH2 0x1B12 JUMP JUMPDEST PUSH1 0x1 DUP3 ADD SWAP2 POP PUSH2 0x20AE DUP3 DUP9 PUSH2 0x1BAA JUMP JUMPDEST PUSH1 0x14 DUP3 ADD SWAP2 POP PUSH2 0x20BE DUP3 DUP8 PUSH2 0x1BCB JUMP JUMPDEST PUSH1 0x20 DUP3 ADD SWAP2 POP PUSH2 0x20CE DUP3 DUP7 PUSH2 0x1BE2 JUMP JUMPDEST PUSH1 0x14 DUP3 ADD SWAP2 POP PUSH2 0x20DD DUP3 PUSH2 0x205F JUMP JUMPDEST SWAP2 POP PUSH2 0x20E9 DUP3 DUP6 PUSH2 0x1C5A JUMP JUMPDEST PUSH1 0x20 DUP3 ADD SWAP2 POP PUSH2 0x20F9 DUP3 DUP5 PUSH2 0x1CBA JUMP JUMPDEST SWAP2 POP DUP2 SWAP1 POP SWAP9 SWAP8 POP POP POP POP POP POP POP POP JUMP JUMPDEST PUSH1 0x0 DUP3 DUP3 MSTORE PUSH1 0x20 DUP3 ADD SWAP1 POP SWAP3 SWAP2 POP POP JUMP JUMPDEST PUSH32 0x6261645F6163746F720000000000000000000000000000000000000000000000 PUSH1 0x0 DUP3 ADD MSTORE POP JUMP JUMPDEST PUSH1 0x0 PUSH2 0x2151 PUSH1 0x9 DUP4 PUSH2 0x210A JUMP JUMPDEST SWAP2 POP PUSH2 0x215C DUP3 PUSH2 0x211B JUMP JUMPDEST PUSH1 0x20 DUP3 ADD SWAP1 POP SWAP2 SWAP1 POP JUMP JUMPDEST PUSH1 0x0 PUSH1 0x20 DUP3 ADD SWAP1 POP DUP2 DUP2 SUB PUSH1 0x0 DUP4 ADD MSTORE PUSH2 0x2180 DUP2 PUSH2 0x2144 JUMP JUMPDEST SWAP1 POP SWAP2 SWAP1 POP JUMP JUMPDEST PUSH1 0x0 DUP3 DUP3 MSTORE PUSH1 0x20 DUP3 ADD SWAP1 POP SWAP3 SWAP2 POP POP JUMP JUMPDEST PUSH1 0x0 PUSH2 0x21A3 DUP3 PUSH2 0x1C71 JUMP JUMPDEST PUSH2 0x21AD DUP2 DUP6 PUSH2 0x2187 JUMP JUMPDEST SWAP4 POP PUSH2 0x21BD DUP2 DUP6 PUSH1 0x20 DUP7 ADD PUSH2 0x1C87 JUMP JUMPDEST PUSH2 0x21C6 DUP2 PUSH2 0x137D JUMP JUMPDEST DUP5 ADD SWAP2 POP POP SWAP3 SWAP2 POP POP JUMP JUMPDEST PUSH1 0x0 DUP2 SWAP1 POP SWAP2 SWAP1 POP JUMP JUMPDEST PUSH1 0x0 PUSH2 0x21F6 PUSH2 0x21F1 PUSH2 0x21EC DUP5 PUSH2 0x21D1 JUMP JUMPDEST PUSH2 0x1B29 JUMP JUMPDEST PUSH2 0x15D2 JUMP JUMPDEST SWAP1 POP SWAP2 SWAP1 POP JUMP JUMPDEST PUSH2 0x2206 DUP2 PUSH2 0x21DB JUMP JUMPDEST DUP3 MSTORE POP POP JUMP JUMPDEST PUSH1 0x0 PUSH1 0x80 DUP3 ADD SWAP1 POP PUSH2 0x2221 PUSH1 0x0 DUP4 ADD DUP8 PUSH2 0x1E4B JUMP JUMPDEST DUP2 DUP2 SUB PUSH1 0x20 DUP4 ADD MSTORE PUSH2 0x2233 DUP2 DUP7 PUSH2 0x2198 JUMP JUMPDEST SWAP1 POP PUSH2 0x2242 PUSH1 0x40 DUP4 ADD DUP6 PUSH2 0x21FD JUMP JUMPDEST PUSH2 0x224F PUSH1 0x60 DUP4 ADD DUP5 PUSH2 0x15DC JUMP JUMPDEST SWAP6 SWAP5 POP POP POP POP POP JUMP JUMPDEST PUSH2 0x2261 DUP2 PUSH2 0x1606 JUMP JUMPDEST DUP3 MSTORE POP POP JUMP JUMPDEST PUSH1 0x0 PUSH1 0x80 DUP3 ADD SWAP1 POP PUSH2 0x227C PUSH1 0x0 DUP4 ADD DUP8 PUSH2 0x1E4B JUMP JUMPDEST PUSH2 0x2289 PUSH1 0x20 DUP4 ADD DUP7 PUSH2 0x2258 JUMP JUMPDEST PUSH2 0x2296 PUSH1 0x40 DUP4 ADD DUP6 PUSH2 0x1E4B JUMP JUMPDEST PUSH2 0x22A3 PUSH1 0x60 DUP4 ADD DUP5 PUSH2 0x1E4B JUMP JUMPDEST SWAP6 SWAP5 POP POP POP POP POP JUMP JUMPDEST PUSH32 0x6261645F7369676E617475726500000000000000000000000000000000000000 PUSH1 0x0 DUP3 ADD MSTORE POP JUMP JUMPDEST PUSH1 0x0 PUSH2 0x22E2 PUSH1 0xD DUP4 PUSH2 0x210A JUMP JUMPDEST SWAP2 POP PUSH2 0x22ED DUP3 PUSH2 0x22AC JUMP JUMPDEST PUSH1 0x20 DUP3 ADD SWAP1 POP SWAP2 SWAP1 POP JUMP JUMPDEST PUSH1 0x0 PUSH1 0x20 DUP3 ADD SWAP1 POP DUP2 DUP2 SUB PUSH1 0x0 DUP4 ADD MSTORE PUSH2 0x2311 DUP2 PUSH2 0x22D5 JUMP JUMPDEST SWAP1 POP SWAP2 SWAP1 POP JUMP JUMPDEST PUSH32 0x4E487B7100000000000000000000000000000000000000000000000000000000 PUSH1 0x0 MSTORE PUSH1 0x11 PUSH1 0x4 MSTORE PUSH1 0x24 PUSH1 0x0 REVERT JUMPDEST PUSH1 0x0 PUSH2 0x2352 DUP3 PUSH2 0x15D2 JUMP JUMPDEST SWAP2 POP PUSH32 0xFFFFFFFFFFFFFFFFFFFFFFFFFFFFFFFFFFFFFFFFFFFFFFFFFFFFFFFFFFFFFFFF DUP3 EQ ISZERO PUSH2 0x2385 JUMPI PUSH2 0x2384 PUSH2 0x2318 JUMP JUMPDEST JUMPDEST PUSH1 0x1 DUP3 ADD SWAP1 POP SWAP2 SWAP1 POP JUMP JUMPDEST PUSH1 0x0 PUSH2 0x239B DUP3 PUSH2 0x15D2 JUMP JUMPDEST SWAP2 POP PUSH2 0x23A6 DUP4 PUSH2 0x15D2 JUMP JUMPDEST SWAP3 POP DUP3 PUSH32 0xFFFFFFFFFFFFFFFFFFFFFFFFFFFFFFFFFFFFFFFFFFFFFFFFFFFFFFFFFFFFFFFF SUB DUP3 GT ISZERO PUSH2 0x23DB JUMPI PUSH2 0x23DA PUSH2 0x2318 JUMP JUMPDEST JUMPDEST DUP3 DUP3 ADD SWAP1 POP SWAP3 SWAP2 POP POP JUMP JUMPDEST PUSH1 0x0 PUSH1 0x80 DUP3 ADD SWAP1 POP PUSH2 0x23FB PUSH1 0x0 DUP4 ADD DUP8 PUSH2 0x1E4B JUMP JUMPDEST DUP2 DUP2 SUB PUSH1 0x20 DUP4 ADD MSTORE PUSH2 0x240D DUP2 DUP7 PUSH2 0x2198 JUMP JUMPDEST SWAP1 POP PUSH2 0x241C PUSH1 0x40 DUP4 ADD DUP6 PUSH2 0x15DC JUMP JUMPDEST PUSH2 0x2429 PUSH1 0x60 DUP4 ADD DUP5 PUSH2 0x15DC JUMP JUMPDEST SWAP6 SWAP5 POP POP POP POP POP JUMP JUMPDEST PUSH1 0x0 PUSH1 0x40 DUP3 ADD SWAP1 POP PUSH2 0x2447 PUSH1 0x0 DUP4 ADD DUP6 PUSH2 0x1555 JUMP JUMPDEST PUSH2 0x2454 PUSH1 0x20 DUP4 ADD DUP5 PUSH2 0x15DC JUMP JUMPDEST SWAP4 SWAP3 POP POP POP JUMP JUMPDEST PUSH1 0x0 PUSH1 0x80 DUP3 ADD SWAP1 POP PUSH2 0x2470 PUSH1 0x0 DUP4 ADD DUP8 PUSH2 0x1E4B JUMP JUMPDEST PUSH2 0x247D PUSH1 0x20 DUP4 ADD DUP7 PUSH2 0x1555 JUMP JUMPDEST PUSH2 0x248A PUSH1 0x40 DUP4 ADD DUP6 PUSH2 0x15DC JUMP JUMPDEST PUSH2 0x2497 PUSH1 0x60 DUP4 ADD DUP5 PUSH2 0x15DC JUMP JUMPDEST SWAP6 SWAP5 POP POP POP POP POP JUMP INVALID LOG2 PUSH5 0x6970667358 0x22 SLT KECCAK256 0xCB 0xCF 0x26 0xCA 0xE1 0xD4 0xD 0xE2 0xB1 PUSH16 0x5AC4D0C0B5174923F2926B14F0673E95 0xC7 0xC 0xEB MLOAD BLOCKHASH PUSH19 0x64736F6C634300080A00330000000000000000 "
    },
    "gasEstimates": {
      "creation": {
        "codeDepositCost": "1886000",
        "executionCost": "1990",
        "totalCost": "1887990"
      },
      "external": {
        "addDelegate(address,bytes32,address,uint256)": "infinite",
        "addDelegateSigned(address,uint8,bytes32,bytes32,bytes32,address,uint256)": "infinite",
        "changeOwner(address,address)": "infinite",
        "changeOwnerSigned(address,uint8,bytes32,bytes32,address)": "infinite",
        "changed(address)": "2902",
        "delegates(address,bytes32,address)": "infinite",
        "identityOwner(address)": "infinite",
        "nonce(address)": "2881",
        "owners(address)": "infinite",
        "revokeAttribute(address,bytes32,bytes)": "infinite",
        "revokeAttributeSigned(address,uint8,bytes32,bytes32,bytes32,bytes)": "infinite",
        "revokeDelegate(address,bytes32,address)": "infinite",
        "revokeDelegateSigned(address,uint8,bytes32,bytes32,bytes32,address)": "infinite",
        "setAttribute(address,bytes32,bytes,uint256)": "infinite",
        "setAttributeSigned(address,uint8,bytes32,bytes32,bytes32,bytes,uint256)": "infinite",
        "validDelegate(address,bytes32,address)": "infinite"
      },
      "internal": {
        "addDelegate(address,address,bytes32,address,uint256)": "infinite",
        "changeOwner(address,address,address)": "infinite",
        "checkSignature(address,uint8,bytes32,bytes32,bytes32)": "infinite",
        "revokeAttribute(address,address,bytes32,bytes memory)": "infinite",
        "revokeDelegate(address,address,bytes32,address)": "infinite",
        "setAttribute(address,address,bytes32,bytes memory,uint256)": "infinite"
      }
    },
    "methodIdentifiers": {
      "addDelegate(address,bytes32,address,uint256)": "a7068d66",
      "addDelegateSigned(address,uint8,bytes32,bytes32,bytes32,address,uint256)": "9c2c1b2b",
      "changeOwner(address,address)": "f00d4b5d",
      "changeOwnerSigned(address,uint8,bytes32,bytes32,address)": "240cf1fa",
      "changed(address)": "f96d0f9f",
      "delegates(address,bytes32,address)": "0d44625b",
      "identityOwner(address)": "8733d4e8",
      "nonce(address)": "70ae92d2",
      "owners(address)": "022914a7",
      "revokeAttribute(address,bytes32,bytes)": "00c023da",
      "revokeAttributeSigned(address,uint8,bytes32,bytes32,bytes32,bytes)": "e476af5c",
      "revokeDelegate(address,bytes32,address)": "80b29f7c",
      "revokeDelegateSigned(address,uint8,bytes32,bytes32,bytes32,address)": "93072684",
      "setAttribute(address,bytes32,bytes,uint256)": "7ad4b0a4",
      "setAttributeSigned(address,uint8,bytes32,bytes32,bytes32,bytes,uint256)": "123b5e98",
      "validDelegate(address,bytes32,address)": "622b2a3c"
    }
  },
  "storageLayout": {
    "storage": [
      {
        "astId": 35,
        "contract": "EthereumDIDRegistry.sol:EthereumDIDRegistry",
        "label": "owners",
        "offset": 0,
        "slot": "0",
        "type": "t_mapping(t_address,t_address)"
      },
      {
        "astId": 43,
        "contract": "EthereumDIDRegistry.sol:EthereumDIDRegistry",
        "label": "delegates",
        "offset": 0,
        "slot": "1",
        "type": "t_mapping(t_address,t_mapping(t_bytes32,t_mapping(t_address,t_uint256)))"
      },
      {
        "astId": 47,
        "contract": "EthereumDIDRegistry.sol:EthereumDIDRegistry",
        "label": "changed",
        "offset": 0,
        "slot": "2",
        "type": "t_mapping(t_address,t_uint256)"
      },
      {
        "astId": 51,
        "contract": "EthereumDIDRegistry.sol:EthereumDIDRegistry",
        "label": "nonce",
        "offset": 0,
        "slot": "3",
        "type": "t_mapping(t_address,t_uint256)"
      }
    ],
    "types": {
      "t_address": {
        "encoding": "inplace",
        "label": "address",
        "numberOfBytes": "20"
      },
      "t_bytes32": {
        "encoding": "inplace",
        "label": "bytes32",
        "numberOfBytes": "32"
      },
      "t_mapping(t_address,t_address)": {
        "encoding": "mapping",
        "key": "t_address",
        "label": "mapping(address => address)",
        "numberOfBytes": "32",
        "value": "t_address"
      },
      "t_mapping(t_address,t_mapping(t_bytes32,t_mapping(t_address,t_uint256)))": {
        "encoding": "mapping",
        "key": "t_address",
        "label": "mapping(address => mapping(bytes32 => mapping(address => uint256)))",
        "numberOfBytes": "32",
        "value": "t_mapping(t_bytes32,t_mapping(t_address,t_uint256))"
      },
      "t_mapping(t_address,t_uint256)": {
        "encoding": "mapping",
        "key": "t_address",
        "label": "mapping(address => uint256)",
        "numberOfBytes": "32",
        "value": "t_uint256"
      },
      "t_mapping(t_bytes32,t_mapping(t_address,t_uint256))": {
        "encoding": "mapping",
        "key": "t_bytes32",
        "label": "mapping(bytes32 => mapping(address => uint256))",
        "numberOfBytes": "32",
        "value": "t_mapping(t_address,t_uint256)"
      },
      "t_uint256": {
        "encoding": "inplace",
        "label": "uint256",
        "numberOfBytes": "32"
      }
    }
  },
  "userdoc": {
    "kind": "user",
    "methods": {},
    "version": 1
  }
}