{
  "abi": [
    {
      "inputs": [],
      "stateMutability": "nonpayable",
      "type": "constructor"
    },
    {
      "anonymous": false,
      "inputs": [
        {
          "indexed": true,
          "internalType": "bytes32",
          "name": "vcHash",
          "type": "bytes32"
        },
        {
          "indexed": false,
          "internalType": "uint8",
          "name": "status",
          "type": "uint8"
        },
        {
          "indexed": false,
          "internalType": "uint256",
          "name": "timestamp",
          "type": "uint256"
        }
      ],
      "name": "VCRegistered",
      "type": "event"
    },
    {
      "anonymous": false,
      "inputs": [
        {
          "indexed": true,
          "internalType": "bytes32",
          "name": "vcHash",
          "type": "bytes32"
        },
        {
          "indexed": false,
          "internalType": "uint256",
          "name": "timestamp",
          "type": "uint256"
        }
      ],
      "name": "VCRevoked",
      "type": "event"
    },
    {
      "inputs": [
        {
          "internalType": "bytes32",
          "name": "_vcHash",
          "type": "bytes32"
        }
      ],
      "name": "getVCData",
      "outputs": [
        {
          "internalType": "string",
          "name": "vcData",
          "type": "string"
        }
      ],
      "stateMutability": "view",
      "type": "function"
    },
    {
      "inputs": [
        {
          "internalType": "bytes32",
          "name": "_vcHash",
          "type": "bytes32"
        }
      ],
      "name": "getVCStatus",
      "outputs": [
        {
          "internalType": "bool",
          "name": "status",
          "type": "bool"
        },
        {
          "internalType": "uint256",
          "name": "timestamp",
          "type": "uint256"
        }
      ],
      "stateMutability": "view",
      "type": "function"
    },
    {
      "inputs": [],
      "name": "owner",
      "outputs": [
        {
          "internalType": "address",
          "name": "",
          "type": "address"
        }
      ],
      "stateMutability": "view",
      "type": "function"
    },
    {
      "inputs": [
        {
          "internalType": "bytes32",
          "name": "_vcHash",
          "type": "bytes32"
        },
        {
          "internalType": "string",
          "name": "_vcData",
          "type": "string"
        }
      ],
      "name": "registerVC",
      "outputs": [],
      "stateMutability": "nonpayable",
      "type": "function"
    },
    {
      "inputs": [
        {
          "internalType": "bytes32",
          "name": "",
          "type": "bytes32"
        }
      ],
      "name": "registeredVCs",
      "outputs": [
        {
          "internalType": "bool",
          "name": "isValid",
          "type": "bool"
        },
        {
          "internalType": "uint256",
          "name": "timestamp",
          "type": "uint256"
        },
        {
          "internalType": "string",
          "name": "vcData",
          "type": "string"
        }
      ],
      "stateMutability": "view",
      "type": "function"
    },
    {
      "inputs": [
        {
          "internalType": "bytes32",
          "name": "_vcHash",
          "type": "bytes32"
        }
      ],
      "name": "revokeVC",
      "outputs": [],
      "stateMutability": "nonpayable",
      "type": "function"
    },
    {
      "inputs": [
        {
          "internalType": "address",
          "name": "newOwner",
          "type": "address"
        }
      ],
      "name": "transferOwnership",
      "outputs": [],
      "stateMutability": "nonpayable",
      "type": "function"
    }
  ],
  "devdoc": {
    "kind": "dev",
    "methods": {},
    "version": 1
  },
  "evm": {
    "assembly": "    /* \"VCRegistry.sol\":57:2589  contract VCRegistry {... */\n  mstore(0x40, 0x80)\n    /* \"VCRegistry.sol\":1049:1098  constructor() {... */\n  callvalue\n  dup1\n  iszero\n  tag_1\n  jumpi\n  0x00\n  dup1\n  revert\ntag_1:\n  pop\n    /* \"VCRegistry.sol\":1081:1091  msg.sender */\n  caller\n    /* \"VCRegistry.sol\":1073:1078  owner */\n  0x00\n  dup1\n    /* \"VCRegistry.sol\":1073:1091  owner = msg.sender */\n  0x0100\n  exp\n  dup2\n  sload\n  dup2\n  0xffffffffffffffffffffffffffffffffffffffff\n  mul\n  not\n  and\n  swap1\n  dup4\n  0xffffffffffffffffffffffffffffffffffffffff\n  and\n  mul\n  or\n  swap1\n  sstore\n  pop\n    /* \"VCRegistry.sol\":57:2589  contract VCRegistry {... */\n  dataSize(sub_0)\n  dup1\n  dataOffset(sub_0)\n  0x00\n  codecopy\n  0x00\n  return\nstop\n\nsub_0: assembly {\n        /* \"VCRegistry.sol\":57:2589  contract VCRegistry {... */\n      mstore(0x40, 0x80)\n      callvalue\n      dup1\n      iszero\n      tag_1\n      jumpi\n      0x00\n      dup1\n      revert\n    tag_1:\n      pop\n      jumpi(tag_2, lt(calldatasize, 0x04))\n      shr(0xe0, calldataload(0x00))\n      dup1\n      0x929e28a6\n      gt\n      tag_10\n      jumpi\n      dup1\n      0x929e28a6\n      eq\n      tag_6\n      jumpi\n      dup1\n      0xd5c77944\n      eq\n      tag_7\n      jumpi\n      dup1\n      0xedeb5730\n      eq\n      tag_8\n      jumpi\n      dup1\n      0xf2fde38b\n      eq\n      tag_9\n      jumpi\n      jump(tag_2)\n    tag_10:\n      dup1\n      0x050bea28\n      eq\n      tag_3\n      jumpi\n      dup1\n      0x8d68915c\n      eq\n      tag_4\n      jumpi\n      dup1\n      0x8da5cb5b\n      eq\n      tag_5\n      jumpi\n    tag_2:\n      0x00\n      dup1\n      revert\n        /* \"VCRegistry.sol\":2187:2430  function getVCData(bytes32 _vcHash) external view returns (string memory vcData) {... */\n    tag_3:\n      tag_11\n      0x04\n      dup1\n      calldatasize\n      sub\n      dup2\n      add\n      swap1\n      tag_12\n      swap2\n      swap1\n      tag_13\n      jump\t// in\n    tag_12:\n      tag_14\n      jump\t// in\n    tag_11:\n      mload(0x40)\n      tag_15\n      swap2\n      swap1\n      tag_16\n      jump\t// in\n    tag_15:\n      mload(0x40)\n      dup1\n      swap2\n      sub\n      swap1\n      return\n        /* \"VCRegistry.sol\":538:586  mapping(bytes32 => VCEntry) public registeredVCs */\n    tag_4:\n      tag_17\n      0x04\n      dup1\n      calldatasize\n      sub\n      dup2\n      add\n      swap1\n      tag_18\n      swap2\n      swap1\n      tag_13\n      jump\t// in\n    tag_18:\n      tag_19\n      jump\t// in\n    tag_17:\n      mload(0x40)\n      tag_20\n      swap4\n      swap3\n      swap2\n      swap1\n      tag_21\n      jump\t// in\n    tag_20:\n      mload(0x40)\n      dup1\n      swap2\n      sub\n      swap1\n      return\n        /* \"VCRegistry.sol\":83:103  address public owner */\n    tag_5:\n      tag_22\n      tag_23\n      jump\t// in\n    tag_22:\n      mload(0x40)\n      tag_24\n      swap2\n      swap1\n      tag_25\n      jump\t// in\n    tag_24:\n      mload(0x40)\n      dup1\n      swap2\n      sub\n      swap1\n      return\n        /* \"VCRegistry.sol\":1141:1571  function registerVC(bytes32 _vcHash, string memory _vcData) external {... */\n    tag_6:\n      tag_26\n      0x04\n      dup1\n      calldatasize\n      sub\n      dup2\n      add\n      swap1\n      tag_27\n      swap2\n      swap1\n      tag_28\n      jump\t// in\n    tag_27:\n      tag_29\n      jump\t// in\n    tag_26:\n      stop\n        /* \"VCRegistry.sol\":1862:2150  function revokeVC(bytes32 _vcHash) external {... */\n    tag_7:\n      tag_30\n      0x04\n      dup1\n      calldatasize\n      sub\n      dup2\n      add\n      swap1\n      tag_31\n      swap2\n      swap1\n      tag_13\n      jump\t// in\n    tag_31:\n      tag_32\n      jump\t// in\n    tag_30:\n      stop\n        /* \"VCRegistry.sol\":1621:1825  function getVCStatus(bytes32 _vcHash) external view returns (bool status, uint256 timestamp) {... */\n    tag_8:\n      tag_33\n      0x04\n      dup1\n      calldatasize\n      sub\n      dup2\n      add\n      swap1\n      tag_34\n      swap2\n      swap1\n      tag_13\n      jump\t// in\n    tag_34:\n      tag_35\n      jump\t// in\n    tag_33:\n      mload(0x40)\n      tag_36\n      swap3\n      swap2\n      swap1\n      tag_37\n      jump\t// in\n    tag_36:\n      mload(0x40)\n      dup1\n      swap2\n      sub\n      swap1\n      return\n        /* \"VCRegistry.sol\":2490:2587  function transferOwnership(address newOwner) external onlyOwner {... */\n    tag_9:\n      tag_38\n      0x04\n      dup1\n      calldatasize\n      sub\n      dup2\n      add\n      swap1\n      tag_39\n      swap2\n      swap1\n      tag_40\n      jump\t// in\n    tag_39:\n      tag_41\n      jump\t// in\n    tag_38:\n      stop\n        /* \"VCRegistry.sol\":2187:2430  function getVCData(bytes32 _vcHash) external view returns (string memory vcData) {... */\n    tag_14:\n        /* \"VCRegistry.sol\":2246:2266  string memory vcData */\n      0x60\n        /* \"VCRegistry.sol\":2278:2298  VCEntry memory entry */\n      0x00\n        /* \"VCRegistry.sol\":2301:2314  registeredVCs */\n      0x01\n        /* \"VCRegistry.sol\":2301:2323  registeredVCs[_vcHash] */\n      0x00\n        /* \"VCRegistry.sol\":2315:2322  _vcHash */\n      dup5\n        /* \"VCRegistry.sol\":2301:2323  registeredVCs[_vcHash] */\n      dup2\n      mstore\n      0x20\n      add\n      swap1\n      dup2\n      mstore\n      0x20\n      add\n      0x00\n      keccak256\n        /* \"VCRegistry.sol\":2278:2323  VCEntry memory entry = registeredVCs[_vcHash] */\n      mload(0x40)\n      dup1\n      0x60\n      add\n      0x40\n      mstore\n      swap1\n      dup2\n      0x00\n      dup3\n      add\n      0x00\n      swap1\n      sload\n      swap1\n      0x0100\n      exp\n      swap1\n      div\n      0xff\n      and\n      iszero\n      iszero\n      iszero\n      iszero\n      dup2\n      mstore\n      0x20\n      add\n      0x01\n      dup3\n      add\n      sload\n      dup2\n      mstore\n      0x20\n      add\n      0x02\n      dup3\n      add\n      dup1\n      sload\n      tag_43\n      swap1\n      tag_44\n      jump\t// in\n    tag_43:\n      dup1\n      0x1f\n      add\n      0x20\n      dup1\n      swap2\n      div\n      mul\n      0x20\n      add\n      mload(0x40)\n      swap1\n      dup2\n      add\n      0x40\n      mstore\n      dup1\n      swap3\n      swap2\n      swap1\n      dup2\n      dup2\n      mstore\n      0x20\n      add\n      dup3\n      dup1\n      sload\n      tag_45\n      swap1\n      tag_44\n      jump\t// in\n    tag_45:\n      dup1\n      iszero\n      tag_46\n      jumpi\n      dup1\n      0x1f\n      lt\n      tag_47\n      jumpi\n      0x0100\n      dup1\n      dup4\n      sload\n      div\n      mul\n      dup4\n      mstore\n      swap2\n      0x20\n      add\n      swap2\n      jump(tag_46)\n    tag_47:\n      dup3\n      add\n      swap2\n      swap1\n      0x00\n      mstore\n      keccak256(0x00, 0x20)\n      swap1\n    tag_48:\n      dup2\n      sload\n      dup2\n      mstore\n      swap1\n      0x01\n      add\n      swap1\n      0x20\n      add\n      dup1\n      dup4\n      gt\n      tag_48\n      jumpi\n      dup3\n      swap1\n      sub\n      0x1f\n      and\n      dup3\n      add\n      swap2\n    tag_46:\n      pop\n      pop\n      pop\n      pop\n      pop\n      dup2\n      mstore\n      pop\n      pop\n      swap1\n      pop\n        /* \"VCRegistry.sol\":2411:2416  entry */\n      dup1\n        /* \"VCRegistry.sol\":2411:2423  entry.vcData */\n      0x40\n      add\n      mload\n        /* \"VCRegistry.sol\":2404:2423  return entry.vcData */\n      swap2\n      pop\n      pop\n        /* \"VCRegistry.sol\":2187:2430  function getVCData(bytes32 _vcHash) external view returns (string memory vcData) {... */\n      swap2\n      swap1\n      pop\n      jump\t// out\n        /* \"VCRegistry.sol\":538:586  mapping(bytes32 => VCEntry) public registeredVCs */\n    tag_19:\n      mstore(0x20, 0x01)\n      dup1\n      0x00\n      mstore\n      keccak256(0x00, 0x40)\n      0x00\n      swap2\n      pop\n      swap1\n      pop\n      dup1\n      0x00\n      add\n      0x00\n      swap1\n      sload\n      swap1\n      0x0100\n      exp\n      swap1\n      div\n      0xff\n      and\n      swap1\n      dup1\n      0x01\n      add\n      sload\n      swap1\n      dup1\n      0x02\n      add\n      dup1\n      sload\n      tag_49\n      swap1\n      tag_44\n      jump\t// in\n    tag_49:\n      dup1\n      0x1f\n      add\n      0x20\n      dup1\n      swap2\n      div\n      mul\n      0x20\n      add\n      mload(0x40)\n      swap1\n      dup2\n      add\n      0x40\n      mstore\n      dup1\n      swap3\n      swap2\n      swap1\n      dup2\n      dup2\n      mstore\n      0x20\n      add\n      dup3\n      dup1\n      sload\n      tag_50\n      swap1\n      tag_44\n      jump\t// in\n    tag_50:\n      dup1\n      iszero\n      tag_51\n      jumpi\n      dup1\n      0x1f\n      lt\n      tag_52\n      jumpi\n      0x0100\n      dup1\n      dup4\n      sload\n      div\n      mul\n      dup4\n      mstore\n      swap2\n      0x20\n      add\n      swap2\n      jump(tag_51)\n    tag_52:\n      dup3\n      add\n      swap2\n      swap1\n      0x00\n      mstore\n      keccak256(0x00, 0x20)\n      swap1\n    tag_53:\n      dup2\n      sload\n      dup2\n      mstore\n      swap1\n      0x01\n      add\n      swap1\n      0x20\n      add\n      dup1\n      dup4\n      gt\n      tag_53\n      jumpi\n      dup3\n      swap1\n      sub\n      0x1f\n      and\n      dup3\n      add\n      swap2\n    tag_51:\n      pop\n      pop\n      pop\n      pop\n      pop\n      swap1\n      pop\n      dup4\n      jump\t// out\n        /* \"VCRegistry.sol\":83:103  address public owner */\n    tag_23:\n      0x00\n      dup1\n      sload\n      swap1\n      0x0100\n      exp\n      swap1\n      div\n      0xffffffffffffffffffffffffffffffffffffffff\n      and\n      dup2\n      jump\t// out\n        /* \"VCRegistry.sol\":1141:1571  function registerVC(bytes32 _vcHash, string memory _vcData) external {... */\n    tag_29:\n        /* \"VCRegistry.sol\":1301:1324  VCEntry memory newEntry */\n      0x00\n        /* \"VCRegistry.sol\":1327:1442  VCEntry({... */\n      mload(0x40)\n      dup1\n      0x60\n      add\n      0x40\n      mstore\n      dup1\n        /* \"VCRegistry.sol\":1358:1362  true */\n      0x01\n        /* \"VCRegistry.sol\":1327:1442  VCEntry({... */\n      iszero\n      iszero\n      dup2\n      mstore\n      0x20\n      add\n        /* \"VCRegistry.sol\":1387:1402  block.timestamp */\n      timestamp\n        /* \"VCRegistry.sol\":1327:1442  VCEntry({... */\n      dup2\n      mstore\n      0x20\n      add\n        /* \"VCRegistry.sol\":1424:1431  _vcData */\n      dup4\n        /* \"VCRegistry.sol\":1327:1442  VCEntry({... */\n      dup2\n      mstore\n      pop\n        /* \"VCRegistry.sol\":1301:1442  VCEntry memory newEntry = VCEntry({... */\n      swap1\n      pop\n        /* \"VCRegistry.sol\":1478:1486  newEntry */\n      dup1\n        /* \"VCRegistry.sol\":1453:1466  registeredVCs */\n      0x01\n        /* \"VCRegistry.sol\":1453:1475  registeredVCs[_vcHash] */\n      0x00\n        /* \"VCRegistry.sol\":1467:1474  _vcHash */\n      dup6\n        /* \"VCRegistry.sol\":1453:1475  registeredVCs[_vcHash] */\n      dup2\n      mstore\n      0x20\n      add\n      swap1\n      dup2\n      mstore\n      0x20\n      add\n      0x00\n      keccak256\n        /* \"VCRegistry.sol\":1453:1486  registeredVCs[_vcHash] = newEntry */\n      0x00\n      dup3\n      add\n      mload\n      dup2\n      0x00\n      add\n      exp(0x0100, 0x00)\n      dup2\n      sload\n      dup2\n      0xff\n      mul\n      not\n      and\n      swap1\n      dup4\n      iszero\n      iszero\n      mul\n      or\n      swap1\n      sstore\n      pop\n      0x20\n      dup3\n      add\n      mload\n      dup2\n      0x01\n      add\n      sstore\n      0x40\n      dup3\n      add\n      mload\n      dup2\n      0x02\n      add\n      swap1\n      dup1\n      mload\n      swap1\n      0x20\n      add\n      swap1\n      tag_55\n      swap3\n      swap2\n      swap1\n      tag_56\n      jump\t// in\n    tag_55:\n      pop\n      swap1\n      pop\n      pop\n        /* \"VCRegistry.sol\":1515:1522  _vcHash */\n      dup3\n        /* \"VCRegistry.sol\":1502:1564  VCRegistered(_vcHash, uint8(VCStatus.Active), block.timestamp) */\n      0xa65cb05b9c01ff1354ada1641e17caccab99c6f82d2212d132d99db1e3126711\n        /* \"VCRegistry.sol\":1530:1545  VCStatus.Active */\n      0x01\n        /* \"VCRegistry.sol\":1524:1546  uint8(VCStatus.Active) */\n      0x02\n      dup2\n      gt\n      iszero\n      tag_57\n      jumpi\n      tag_58\n      tag_59\n      jump\t// in\n    tag_58:\n    tag_57:\n        /* \"VCRegistry.sol\":1548:1563  block.timestamp */\n      timestamp\n        /* \"VCRegistry.sol\":1502:1564  VCRegistered(_vcHash, uint8(VCStatus.Active), block.timestamp) */\n      mload(0x40)\n      tag_60\n      swap3\n      swap2\n      swap1\n      tag_61\n      jump\t// in\n    tag_60:\n      mload(0x40)\n      dup1\n      swap2\n      sub\n      swap1\n      log2\n        /* \"VCRegistry.sol\":1210:1571  {... */\n      pop\n        /* \"VCRegistry.sol\":1141:1571  function registerVC(bytes32 _vcHash, string memory _vcData) external {... */\n      pop\n      pop\n      jump\t// out\n        /* \"VCRegistry.sol\":1862:2150  function revokeVC(bytes32 _vcHash) external {... */\n    tag_32:\n        /* \"VCRegistry.sol\":1958:1962  true */\n      0x01\n        /* \"VCRegistry.sol\":1924:1962  registeredVCs[_vcHash].isValid == true */\n      iszero\n      iszero\n        /* \"VCRegistry.sol\":1924:1937  registeredVCs */\n      0x01\n        /* \"VCRegistry.sol\":1924:1946  registeredVCs[_vcHash] */\n      0x00\n        /* \"VCRegistry.sol\":1938:1945  _vcHash */\n      dup4\n        /* \"VCRegistry.sol\":1924:1946  registeredVCs[_vcHash] */\n      dup2\n      mstore\n      0x20\n      add\n      swap1\n      dup2\n      mstore\n      0x20\n      add\n      0x00\n      keccak256\n        /* \"VCRegistry.sol\":1924:1954  registeredVCs[_vcHash].isValid */\n      0x00\n      add\n      0x00\n      swap1\n      sload\n      swap1\n      0x0100\n      exp\n      swap1\n      div\n      0xff\n      and\n        /* \"VCRegistry.sol\":1924:1962  registeredVCs[_vcHash].isValid == true */\n      iszero\n      iszero\n      eq\n        /* \"VCRegistry.sol\":1916:1983  require(registeredVCs[_vcHash].isValid == true, \"VC is not active\") */\n      tag_63\n      jumpi\n      mload(0x40)\n      0x08c379a000000000000000000000000000000000000000000000000000000000\n      dup2\n      mstore\n      0x04\n      add\n      tag_64\n      swap1\n      tag_65\n      jump\t// in\n    tag_64:\n      mload(0x40)\n      dup1\n      swap2\n      sub\n      swap1\n      revert\n    tag_63:\n        /* \"VCRegistry.sol\":2027:2032  false */\n      0x00\n        /* \"VCRegistry.sol\":1994:2007  registeredVCs */\n      0x01\n        /* \"VCRegistry.sol\":1994:2016  registeredVCs[_vcHash] */\n      0x00\n        /* \"VCRegistry.sol\":2008:2015  _vcHash */\n      dup4\n        /* \"VCRegistry.sol\":1994:2016  registeredVCs[_vcHash] */\n      dup2\n      mstore\n      0x20\n      add\n      swap1\n      dup2\n      mstore\n      0x20\n      add\n      0x00\n      keccak256\n        /* \"VCRegistry.sol\":1994:2024  registeredVCs[_vcHash].isValid */\n      0x00\n      add\n      0x00\n        /* \"VCRegistry.sol\":1994:2032  registeredVCs[_vcHash].isValid = false */\n      0x0100\n      exp\n      dup2\n      sload\n      dup2\n      0xff\n      mul\n      not\n      and\n      swap1\n      dup4\n      iszero\n      iszero\n      mul\n      or\n      swap1\n      sstore\n      pop\n        /* \"VCRegistry.sol\":2077:2092  block.timestamp */\n      timestamp\n        /* \"VCRegistry.sol\":2042:2055  registeredVCs */\n      0x01\n        /* \"VCRegistry.sol\":2042:2064  registeredVCs[_vcHash] */\n      0x00\n        /* \"VCRegistry.sol\":2056:2063  _vcHash */\n      dup4\n        /* \"VCRegistry.sol\":2042:2064  registeredVCs[_vcHash] */\n      dup2\n      mstore\n      0x20\n      add\n      swap1\n      dup2\n      mstore\n      0x20\n      add\n      0x00\n      keccak256\n        /* \"VCRegistry.sol\":2042:2074  registeredVCs[_vcHash].timestamp */\n      0x01\n      add\n        /* \"VCRegistry.sol\":2042:2092  registeredVCs[_vcHash].timestamp = block.timestamp */\n      dup2\n      swap1\n      sstore\n      pop\n        /* \"VCRegistry.sol\":2118:2125  _vcHash */\n      dup1\n        /* \"VCRegistry.sol\":2108:2143  VCRevoked(_vcHash, block.timestamp) */\n      0x9fda63d08f50b53add90dd7acb22842e7ab1c0ef2a6396ed4f71c7bbfb2a646d\n        /* \"VCRegistry.sol\":2127:2142  block.timestamp */\n      timestamp\n        /* \"VCRegistry.sol\":2108:2143  VCRevoked(_vcHash, block.timestamp) */\n      mload(0x40)\n      tag_66\n      swap2\n      swap1\n      tag_67\n      jump\t// in\n    tag_66:\n      mload(0x40)\n      dup1\n      swap2\n      sub\n      swap1\n      log2\n        /* \"VCRegistry.sol\":1862:2150  function revokeVC(bytes32 _vcHash) external {... */\n      pop\n      jump\t// out\n        /* \"VCRegistry.sol\":1621:1825  function getVCStatus(bytes32 _vcHash) external view returns (bool status, uint256 timestamp) {... */\n    tag_35:\n        /* \"VCRegistry.sol\":1682:1693  bool status */\n      0x00\n        /* \"VCRegistry.sol\":1695:1712  uint256 timestamp */\n      dup1\n        /* \"VCRegistry.sol\":1724:1744  VCEntry memory entry */\n      0x00\n        /* \"VCRegistry.sol\":1747:1760  registeredVCs */\n      0x01\n        /* \"VCRegistry.sol\":1747:1769  registeredVCs[_vcHash] */\n      0x00\n        /* \"VCRegistry.sol\":1761:1768  _vcHash */\n      dup6\n        /* \"VCRegistry.sol\":1747:1769  registeredVCs[_vcHash] */\n      dup2\n      mstore\n      0x20\n      add\n      swap1\n      dup2\n      mstore\n      0x20\n      add\n      0x00\n      keccak256\n        /* \"VCRegistry.sol\":1724:1769  VCEntry memory entry = registeredVCs[_vcHash] */\n      mload(0x40)\n      dup1\n      0x60\n      add\n      0x40\n      mstore\n      swap1\n      dup2\n      0x00\n      dup3\n      add\n      0x00\n      swap1\n      sload\n      swap1\n      0x0100\n      exp\n      swap1\n      div\n      0xff\n      and\n      iszero\n      iszero\n      iszero\n      iszero\n      dup2\n      mstore\n      0x20\n      add\n      0x01\n      dup3\n      add\n      sload\n      dup2\n      mstore\n      0x20\n      add\n      0x02\n      dup3\n      add\n      dup1\n      sload\n      tag_69\n      swap1\n      tag_44\n      jump\t// in\n    tag_69:\n      dup1\n      0x1f\n      add\n      0x20\n      dup1\n      swap2\n      div\n      mul\n      0x20\n      add\n      mload(0x40)\n      swap1\n      dup2\n      add\n      0x40\n      mstore\n      dup1\n      swap3\n      swap2\n      swap1\n      dup2\n      dup2\n      mstore\n      0x20\n      add\n      dup3\n      dup1\n      sload\n      tag_70\n      swap1\n      tag_44\n      jump\t// in\n    tag_70:\n      dup1\n      iszero\n      tag_71\n      jumpi\n      dup1\n      0x1f\n      lt\n      tag_72\n      jumpi\n      0x0100\n      dup1\n      dup4\n      sload\n      div\n      mul\n      dup4\n      mstore\n      swap2\n      0x20\n      add\n      swap2\n      jump(tag_71)\n    tag_72:\n      dup3\n      add\n      swap2\n      swap1\n      0x00\n      mstore\n      keccak256(0x00, 0x20)\n      swap1\n    tag_73:\n      dup2\n      sload\n      dup2\n      mstore\n      swap1\n      0x01\n      add\n      swap1\n      0x20\n      add\n      dup1\n      dup4\n      gt\n      tag_73\n      jumpi\n      dup3\n      swap1\n      sub\n      0x1f\n      and\n      dup3\n      add\n      swap2\n    tag_71:\n      pop\n      pop\n      pop\n      pop\n      pop\n      dup2\n      mstore\n      pop\n      pop\n      swap1\n      pop\n        /* \"VCRegistry.sol\":1787:1792  entry */\n      dup1\n        /* \"VCRegistry.sol\":1787:1800  entry.isValid */\n      0x00\n      add\n      mload\n        /* \"VCRegistry.sol\":1802:1807  entry */\n      dup2\n        /* \"VCRegistry.sol\":1802:1817  entry.timestamp */\n      0x20\n      add\n      mload\n        /* \"VCRegistry.sol\":1779:1818  return (entry.isValid, entry.timestamp) */\n      swap3\n      pop\n      swap3\n      pop\n      pop\n        /* \"VCRegistry.sol\":1621:1825  function getVCStatus(bytes32 _vcHash) external view returns (bool status, uint256 timestamp) {... */\n      swap2\n      pop\n      swap2\n      jump\t// out\n        /* \"VCRegistry.sol\":2490:2587  function transferOwnership(address newOwner) external onlyOwner {... */\n    tag_41:\n        /* \"VCRegistry.sol\":933:938  owner */\n      0x00\n      dup1\n      sload\n      swap1\n      0x0100\n      exp\n      swap1\n      div\n      0xffffffffffffffffffffffffffffffffffffffff\n      and\n        /* \"VCRegistry.sol\":919:938  msg.sender == owner */\n      0xffffffffffffffffffffffffffffffffffffffff\n      and\n        /* \"VCRegistry.sol\":919:929  msg.sender */\n      caller\n        /* \"VCRegistry.sol\":919:938  msg.sender == owner */\n      0xffffffffffffffffffffffffffffffffffffffff\n      and\n      eq\n        /* \"VCRegistry.sol\":911:980  require(msg.sender == owner, \"Only the owner can call this function\") */\n      tag_75\n      jumpi\n      mload(0x40)\n      0x08c379a000000000000000000000000000000000000000000000000000000000\n      dup2\n      mstore\n      0x04\n      add\n      tag_76\n      swap1\n      tag_77\n      jump\t// in\n    tag_76:\n      mload(0x40)\n      dup1\n      swap2\n      sub\n      swap1\n      revert\n    tag_75:\n        /* \"VCRegistry.sol\":2572:2580  newOwner */\n      dup1\n        /* \"VCRegistry.sol\":2564:2569  owner */\n      0x00\n      dup1\n        /* \"VCRegistry.sol\":2564:2580  owner = newOwner */\n      0x0100\n      exp\n      dup2\n      sload\n      dup2\n      0xffffffffffffffffffffffffffffffffffffffff\n      mul\n      not\n      and\n      swap1\n      dup4\n      0xffffffffffffffffffffffffffffffffffffffff\n      and\n      mul\n      or\n      swap1\n      sstore\n      pop\n        /* \"VCRegistry.sol\":2490:2587  function transferOwnership(address newOwner) external onlyOwner {... */\n      pop\n      jump\t// out\n    tag_56:\n      dup3\n      dup1\n      sload\n      tag_79\n      swap1\n      tag_44\n      jump\t// in\n    tag_79:\n      swap1\n      0x00\n      mstore\n      keccak256(0x00, 0x20)\n      swap1\n      0x1f\n      add\n      0x20\n      swap1\n      div\n      dup2\n      add\n      swap3\n      dup3\n      tag_81\n      jumpi\n      0x00\n      dup6\n      sstore\n      jump(tag_80)\n    tag_81:\n      dup3\n      0x1f\n      lt\n      tag_82\n      jumpi\n      dup1\n      mload\n      not(0xff)\n      and\n      dup4\n      dup1\n      add\n      or\n      dup6\n      sstore\n      jump(tag_80)\n    tag_82:\n      dup3\n      dup1\n      add\n      0x01\n      add\n      dup6\n      sstore\n      dup3\n      iszero\n      tag_80\n      jumpi\n      swap2\n      dup3\n      add\n    tag_83:\n      dup3\n      dup2\n      gt\n      iszero\n      tag_84\n      jumpi\n      dup3\n      mload\n      dup3\n      sstore\n      swap2\n      0x20\n      add\n      swap2\n      swap1\n      0x01\n      add\n      swap1\n      jump(tag_83)\n    tag_84:\n    tag_80:\n      pop\n      swap1\n      pop\n      tag_85\n      swap2\n      swap1\n      tag_86\n      jump\t// in\n    tag_85:\n      pop\n      swap1\n      jump\t// out\n    tag_86:\n    tag_87:\n      dup1\n      dup3\n      gt\n      iszero\n      tag_88\n      jumpi\n      0x00\n      dup2\n      0x00\n      swap1\n      sstore\n      pop\n      0x01\n      add\n      jump(tag_87)\n    tag_88:\n      pop\n      swap1\n      jump\t// out\n        /* \"#utility.yul\":7:82   */\n    tag_89:\n        /* \"#utility.yul\":40:46   */\n      0x00\n        /* \"#utility.yul\":73:75   */\n      0x40\n        /* \"#utility.yul\":67:76   */\n      mload\n        /* \"#utility.yul\":57:76   */\n      swap1\n      pop\n        /* \"#utility.yul\":7:82   */\n      swap1\n      jump\t// out\n        /* \"#utility.yul\":88:205   */\n    tag_90:\n        /* \"#utility.yul\":197:198   */\n      0x00\n        /* \"#utility.yul\":194:195   */\n      dup1\n        /* \"#utility.yul\":187:199   */\n      revert\n        /* \"#utility.yul\":211:328   */\n    tag_91:\n        /* \"#utility.yul\":320:321   */\n      0x00\n        /* \"#utility.yul\":317:318   */\n      dup1\n        /* \"#utility.yul\":310:322   */\n      revert\n        /* \"#utility.yul\":334:411   */\n    tag_92:\n        /* \"#utility.yul\":371:378   */\n      0x00\n        /* \"#utility.yul\":400:405   */\n      dup2\n        /* \"#utility.yul\":389:405   */\n      swap1\n      pop\n        /* \"#utility.yul\":334:411   */\n      swap2\n      swap1\n      pop\n      jump\t// out\n        /* \"#utility.yul\":417:539   */\n    tag_93:\n        /* \"#utility.yul\":490:514   */\n      tag_131\n        /* \"#utility.yul\":508:513   */\n      dup2\n        /* \"#utility.yul\":490:514   */\n      tag_92\n      jump\t// in\n    tag_131:\n        /* \"#utility.yul\":483:488   */\n      dup2\n        /* \"#utility.yul\":480:515   */\n      eq\n        /* \"#utility.yul\":470:533   */\n      tag_132\n      jumpi\n        /* \"#utility.yul\":529:530   */\n      0x00\n        /* \"#utility.yul\":526:527   */\n      dup1\n        /* \"#utility.yul\":519:531   */\n      revert\n        /* \"#utility.yul\":470:533   */\n    tag_132:\n        /* \"#utility.yul\":417:539   */\n      pop\n      jump\t// out\n        /* \"#utility.yul\":545:684   */\n    tag_94:\n        /* \"#utility.yul\":591:596   */\n      0x00\n        /* \"#utility.yul\":629:635   */\n      dup2\n        /* \"#utility.yul\":616:636   */\n      calldataload\n        /* \"#utility.yul\":607:636   */\n      swap1\n      pop\n        /* \"#utility.yul\":645:678   */\n      tag_134\n        /* \"#utility.yul\":672:677   */\n      dup2\n        /* \"#utility.yul\":645:678   */\n      tag_93\n      jump\t// in\n    tag_134:\n        /* \"#utility.yul\":545:684   */\n      swap3\n      swap2\n      pop\n      pop\n      jump\t// out\n        /* \"#utility.yul\":690:1019   */\n    tag_13:\n        /* \"#utility.yul\":749:755   */\n      0x00\n        /* \"#utility.yul\":798:800   */\n      0x20\n        /* \"#utility.yul\":786:795   */\n      dup3\n        /* \"#utility.yul\":777:784   */\n      dup5\n        /* \"#utility.yul\":773:796   */\n      sub\n        /* \"#utility.yul\":769:801   */\n      slt\n        /* \"#utility.yul\":766:885   */\n      iszero\n      tag_136\n      jumpi\n        /* \"#utility.yul\":804:883   */\n      tag_137\n      tag_90\n      jump\t// in\n    tag_137:\n        /* \"#utility.yul\":766:885   */\n    tag_136:\n        /* \"#utility.yul\":924:925   */\n      0x00\n        /* \"#utility.yul\":949:1002   */\n      tag_138\n        /* \"#utility.yul\":994:1001   */\n      dup5\n        /* \"#utility.yul\":985:991   */\n      dup3\n        /* \"#utility.yul\":974:983   */\n      dup6\n        /* \"#utility.yul\":970:992   */\n      add\n        /* \"#utility.yul\":949:1002   */\n      tag_94\n      jump\t// in\n    tag_138:\n        /* \"#utility.yul\":939:1002   */\n      swap2\n      pop\n        /* \"#utility.yul\":895:1012   */\n      pop\n        /* \"#utility.yul\":690:1019   */\n      swap3\n      swap2\n      pop\n      pop\n      jump\t// out\n        /* \"#utility.yul\":1025:1124   */\n    tag_95:\n        /* \"#utility.yul\":1077:1083   */\n      0x00\n        /* \"#utility.yul\":1111:1116   */\n      dup2\n        /* \"#utility.yul\":1105:1117   */\n      mload\n        /* \"#utility.yul\":1095:1117   */\n      swap1\n      pop\n        /* \"#utility.yul\":1025:1124   */\n      swap2\n      swap1\n      pop\n      jump\t// out\n        /* \"#utility.yul\":1130:1299   */\n    tag_96:\n        /* \"#utility.yul\":1214:1225   */\n      0x00\n        /* \"#utility.yul\":1248:1254   */\n      dup3\n        /* \"#utility.yul\":1243:1246   */\n      dup3\n        /* \"#utility.yul\":1236:1255   */\n      mstore\n        /* \"#utility.yul\":1288:1292   */\n      0x20\n        /* \"#utility.yul\":1283:1286   */\n      dup3\n        /* \"#utility.yul\":1279:1293   */\n      add\n        /* \"#utility.yul\":1264:1293   */\n      swap1\n      pop\n        /* \"#utility.yul\":1130:1299   */\n      swap3\n      swap2\n      pop\n      pop\n      jump\t// out\n        /* \"#utility.yul\":1305:1612   */\n    tag_97:\n        /* \"#utility.yul\":1373:1374   */\n      0x00\n        /* \"#utility.yul\":1383:1496   */\n    tag_142:\n        /* \"#utility.yul\":1397:1403   */\n      dup4\n        /* \"#utility.yul\":1394:1395   */\n      dup2\n        /* \"#utility.yul\":1391:1404   */\n      lt\n        /* \"#utility.yul\":1383:1496   */\n      iszero\n      tag_144\n      jumpi\n        /* \"#utility.yul\":1482:1483   */\n      dup1\n        /* \"#utility.yul\":1477:1480   */\n      dup3\n        /* \"#utility.yul\":1473:1484   */\n      add\n        /* \"#utility.yul\":1467:1485   */\n      mload\n        /* \"#utility.yul\":1463:1464   */\n      dup2\n        /* \"#utility.yul\":1458:1461   */\n      dup5\n        /* \"#utility.yul\":1454:1465   */\n      add\n        /* \"#utility.yul\":1447:1486   */\n      mstore\n        /* \"#utility.yul\":1419:1421   */\n      0x20\n        /* \"#utility.yul\":1416:1417   */\n      dup2\n        /* \"#utility.yul\":1412:1422   */\n      add\n        /* \"#utility.yul\":1407:1422   */\n      swap1\n      pop\n        /* \"#utility.yul\":1383:1496   */\n      jump(tag_142)\n    tag_144:\n        /* \"#utility.yul\":1514:1520   */\n      dup4\n        /* \"#utility.yul\":1511:1512   */\n      dup2\n        /* \"#utility.yul\":1508:1521   */\n      gt\n        /* \"#utility.yul\":1505:1606   */\n      iszero\n      tag_145\n      jumpi\n        /* \"#utility.yul\":1594:1595   */\n      0x00\n        /* \"#utility.yul\":1585:1591   */\n      dup5\n        /* \"#utility.yul\":1580:1583   */\n      dup5\n        /* \"#utility.yul\":1576:1592   */\n      add\n        /* \"#utility.yul\":1569:1596   */\n      mstore\n        /* \"#utility.yul\":1505:1606   */\n    tag_145:\n        /* \"#utility.yul\":1354:1612   */\n      pop\n        /* \"#utility.yul\":1305:1612   */\n      pop\n      pop\n      pop\n      jump\t// out\n        /* \"#utility.yul\":1618:1720   */\n    tag_98:\n        /* \"#utility.yul\":1659:1665   */\n      0x00\n        /* \"#utility.yul\":1710:1712   */\n      0x1f\n        /* \"#utility.yul\":1706:1713   */\n      not\n        /* \"#utility.yul\":1701:1703   */\n      0x1f\n        /* \"#utility.yul\":1694:1699   */\n      dup4\n        /* \"#utility.yul\":1690:1704   */\n      add\n        /* \"#utility.yul\":1686:1714   */\n      and\n        /* \"#utility.yul\":1676:1714   */\n      swap1\n      pop\n        /* \"#utility.yul\":1618:1720   */\n      swap2\n      swap1\n      pop\n      jump\t// out\n        /* \"#utility.yul\":1726:2090   */\n    tag_99:\n        /* \"#utility.yul\":1814:1817   */\n      0x00\n        /* \"#utility.yul\":1842:1881   */\n      tag_148\n        /* \"#utility.yul\":1875:1880   */\n      dup3\n        /* \"#utility.yul\":1842:1881   */\n      tag_95\n      jump\t// in\n    tag_148:\n        /* \"#utility.yul\":1897:1968   */\n      tag_149\n        /* \"#utility.yul\":1961:1967   */\n      dup2\n        /* \"#utility.yul\":1956:1959   */\n      dup6\n        /* \"#utility.yul\":1897:1968   */\n      tag_96\n      jump\t// in\n    tag_149:\n        /* \"#utility.yul\":1890:1968   */\n      swap4\n      pop\n        /* \"#utility.yul\":1977:2029   */\n      tag_150\n        /* \"#utility.yul\":2022:2028   */\n      dup2\n        /* \"#utility.yul\":2017:2020   */\n      dup6\n        /* \"#utility.yul\":2010:2014   */\n      0x20\n        /* \"#utility.yul\":2003:2008   */\n      dup7\n        /* \"#utility.yul\":1999:2015   */\n      add\n        /* \"#utility.yul\":1977:2029   */\n      tag_97\n      jump\t// in\n    tag_150:\n        /* \"#utility.yul\":2054:2083   */\n      tag_151\n        /* \"#utility.yul\":2076:2082   */\n      dup2\n        /* \"#utility.yul\":2054:2083   */\n      tag_98\n      jump\t// in\n    tag_151:\n        /* \"#utility.yul\":2049:2052   */\n      dup5\n        /* \"#utility.yul\":2045:2084   */\n      add\n        /* \"#utility.yul\":2038:2084   */\n      swap2\n      pop\n        /* \"#utility.yul\":1818:2090   */\n      pop\n        /* \"#utility.yul\":1726:2090   */\n      swap3\n      swap2\n      pop\n      pop\n      jump\t// out\n        /* \"#utility.yul\":2096:2409   */\n    tag_16:\n        /* \"#utility.yul\":2209:2213   */\n      0x00\n        /* \"#utility.yul\":2247:2249   */\n      0x20\n        /* \"#utility.yul\":2236:2245   */\n      dup3\n        /* \"#utility.yul\":2232:2250   */\n      add\n        /* \"#utility.yul\":2224:2250   */\n      swap1\n      pop\n        /* \"#utility.yul\":2296:2305   */\n      dup2\n        /* \"#utility.yul\":2290:2294   */\n      dup2\n        /* \"#utility.yul\":2286:2306   */\n      sub\n        /* \"#utility.yul\":2282:2283   */\n      0x00\n        /* \"#utility.yul\":2271:2280   */\n      dup4\n        /* \"#utility.yul\":2267:2284   */\n      add\n        /* \"#utility.yul\":2260:2307   */\n      mstore\n        /* \"#utility.yul\":2324:2402   */\n      tag_153\n        /* \"#utility.yul\":2397:2401   */\n      dup2\n        /* \"#utility.yul\":2388:2394   */\n      dup5\n        /* \"#utility.yul\":2324:2402   */\n      tag_99\n      jump\t// in\n    tag_153:\n        /* \"#utility.yul\":2316:2402   */\n      swap1\n      pop\n        /* \"#utility.yul\":2096:2409   */\n      swap3\n      swap2\n      pop\n      pop\n      jump\t// out\n        /* \"#utility.yul\":2415:2505   */\n    tag_100:\n        /* \"#utility.yul\":2449:2456   */\n      0x00\n        /* \"#utility.yul\":2492:2497   */\n      dup2\n        /* \"#utility.yul\":2485:2498   */\n      iszero\n        /* \"#utility.yul\":2478:2499   */\n      iszero\n        /* \"#utility.yul\":2467:2499   */\n      swap1\n      pop\n        /* \"#utility.yul\":2415:2505   */\n      swap2\n      swap1\n      pop\n      jump\t// out\n        /* \"#utility.yul\":2511:2620   */\n    tag_101:\n        /* \"#utility.yul\":2592:2613   */\n      tag_156\n        /* \"#utility.yul\":2607:2612   */\n      dup2\n        /* \"#utility.yul\":2592:2613   */\n      tag_100\n      jump\t// in\n    tag_156:\n        /* \"#utility.yul\":2587:2590   */\n      dup3\n        /* \"#utility.yul\":2580:2614   */\n      mstore\n        /* \"#utility.yul\":2511:2620   */\n      pop\n      pop\n      jump\t// out\n        /* \"#utility.yul\":2626:2703   */\n    tag_102:\n        /* \"#utility.yul\":2663:2670   */\n      0x00\n        /* \"#utility.yul\":2692:2697   */\n      dup2\n        /* \"#utility.yul\":2681:2697   */\n      swap1\n      pop\n        /* \"#utility.yul\":2626:2703   */\n      swap2\n      swap1\n      pop\n      jump\t// out\n        /* \"#utility.yul\":2709:2827   */\n    tag_103:\n        /* \"#utility.yul\":2796:2820   */\n      tag_159\n        /* \"#utility.yul\":2814:2819   */\n      dup2\n        /* \"#utility.yul\":2796:2820   */\n      tag_102\n      jump\t// in\n    tag_159:\n        /* \"#utility.yul\":2791:2794   */\n      dup3\n        /* \"#utility.yul\":2784:2821   */\n      mstore\n        /* \"#utility.yul\":2709:2827   */\n      pop\n      pop\n      jump\t// out\n        /* \"#utility.yul\":2833:3354   */\n    tag_21:\n        /* \"#utility.yul\":2996:3000   */\n      0x00\n        /* \"#utility.yul\":3034:3036   */\n      0x60\n        /* \"#utility.yul\":3023:3032   */\n      dup3\n        /* \"#utility.yul\":3019:3037   */\n      add\n        /* \"#utility.yul\":3011:3037   */\n      swap1\n      pop\n        /* \"#utility.yul\":3047:3112   */\n      tag_161\n        /* \"#utility.yul\":3109:3110   */\n      0x00\n        /* \"#utility.yul\":3098:3107   */\n      dup4\n        /* \"#utility.yul\":3094:3111   */\n      add\n        /* \"#utility.yul\":3085:3091   */\n      dup7\n        /* \"#utility.yul\":3047:3112   */\n      tag_101\n      jump\t// in\n    tag_161:\n        /* \"#utility.yul\":3122:3194   */\n      tag_162\n        /* \"#utility.yul\":3190:3192   */\n      0x20\n        /* \"#utility.yul\":3179:3188   */\n      dup4\n        /* \"#utility.yul\":3175:3193   */\n      add\n        /* \"#utility.yul\":3166:3172   */\n      dup6\n        /* \"#utility.yul\":3122:3194   */\n      tag_103\n      jump\t// in\n    tag_162:\n        /* \"#utility.yul\":3241:3250   */\n      dup2\n        /* \"#utility.yul\":3235:3239   */\n      dup2\n        /* \"#utility.yul\":3231:3251   */\n      sub\n        /* \"#utility.yul\":3226:3228   */\n      0x40\n        /* \"#utility.yul\":3215:3224   */\n      dup4\n        /* \"#utility.yul\":3211:3229   */\n      add\n        /* \"#utility.yul\":3204:3252   */\n      mstore\n        /* \"#utility.yul\":3269:3347   */\n      tag_163\n        /* \"#utility.yul\":3342:3346   */\n      dup2\n        /* \"#utility.yul\":3333:3339   */\n      dup5\n        /* \"#utility.yul\":3269:3347   */\n      tag_99\n      jump\t// in\n    tag_163:\n        /* \"#utility.yul\":3261:3347   */\n      swap1\n      pop\n        /* \"#utility.yul\":2833:3354   */\n      swap5\n      swap4\n      pop\n      pop\n      pop\n      pop\n      jump\t// out\n        /* \"#utility.yul\":3360:3486   */\n    tag_104:\n        /* \"#utility.yul\":3397:3404   */\n      0x00\n        /* \"#utility.yul\":3437:3479   */\n      0xffffffffffffffffffffffffffffffffffffffff\n        /* \"#utility.yul\":3430:3435   */\n      dup3\n        /* \"#utility.yul\":3426:3480   */\n      and\n        /* \"#utility.yul\":3415:3480   */\n      swap1\n      pop\n        /* \"#utility.yul\":3360:3486   */\n      swap2\n      swap1\n      pop\n      jump\t// out\n        /* \"#utility.yul\":3492:3588   */\n    tag_105:\n        /* \"#utility.yul\":3529:3536   */\n      0x00\n        /* \"#utility.yul\":3558:3582   */\n      tag_166\n        /* \"#utility.yul\":3576:3581   */\n      dup3\n        /* \"#utility.yul\":3558:3582   */\n      tag_104\n      jump\t// in\n    tag_166:\n        /* \"#utility.yul\":3547:3582   */\n      swap1\n      pop\n        /* \"#utility.yul\":3492:3588   */\n      swap2\n      swap1\n      pop\n      jump\t// out\n        /* \"#utility.yul\":3594:3712   */\n    tag_106:\n        /* \"#utility.yul\":3681:3705   */\n      tag_168\n        /* \"#utility.yul\":3699:3704   */\n      dup2\n        /* \"#utility.yul\":3681:3705   */\n      tag_105\n      jump\t// in\n    tag_168:\n        /* \"#utility.yul\":3676:3679   */\n      dup3\n        /* \"#utility.yul\":3669:3706   */\n      mstore\n        /* \"#utility.yul\":3594:3712   */\n      pop\n      pop\n      jump\t// out\n        /* \"#utility.yul\":3718:3940   */\n    tag_25:\n        /* \"#utility.yul\":3811:3815   */\n      0x00\n        /* \"#utility.yul\":3849:3851   */\n      0x20\n        /* \"#utility.yul\":3838:3847   */\n      dup3\n        /* \"#utility.yul\":3834:3852   */\n      add\n        /* \"#utility.yul\":3826:3852   */\n      swap1\n      pop\n        /* \"#utility.yul\":3862:3933   */\n      tag_170\n        /* \"#utility.yul\":3930:3931   */\n      0x00\n        /* \"#utility.yul\":3919:3928   */\n      dup4\n        /* \"#utility.yul\":3915:3932   */\n      add\n        /* \"#utility.yul\":3906:3912   */\n      dup5\n        /* \"#utility.yul\":3862:3933   */\n      tag_106\n      jump\t// in\n    tag_170:\n        /* \"#utility.yul\":3718:3940   */\n      swap3\n      swap2\n      pop\n      pop\n      jump\t// out\n        /* \"#utility.yul\":3946:4063   */\n    tag_107:\n        /* \"#utility.yul\":4055:4056   */\n      0x00\n        /* \"#utility.yul\":4052:4053   */\n      dup1\n        /* \"#utility.yul\":4045:4057   */\n      revert\n        /* \"#utility.yul\":4069:4186   */\n    tag_108:\n        /* \"#utility.yul\":4178:4179   */\n      0x00\n        /* \"#utility.yul\":4175:4176   */\n      dup1\n        /* \"#utility.yul\":4168:4180   */\n      revert\n        /* \"#utility.yul\":4192:4372   */\n    tag_109:\n        /* \"#utility.yul\":4240:4317   */\n      0x4e487b7100000000000000000000000000000000000000000000000000000000\n        /* \"#utility.yul\":4237:4238   */\n      0x00\n        /* \"#utility.yul\":4230:4318   */\n      mstore\n        /* \"#utility.yul\":4337:4341   */\n      0x41\n        /* \"#utility.yul\":4334:4335   */\n      0x04\n        /* \"#utility.yul\":4327:4342   */\n      mstore\n        /* \"#utility.yul\":4361:4365   */\n      0x24\n        /* \"#utility.yul\":4358:4359   */\n      0x00\n        /* \"#utility.yul\":4351:4366   */\n      revert\n        /* \"#utility.yul\":4378:4659   */\n    tag_110:\n        /* \"#utility.yul\":4461:4488   */\n      tag_175\n        /* \"#utility.yul\":4483:4487   */\n      dup3\n        /* \"#utility.yul\":4461:4488   */\n      tag_98\n      jump\t// in\n    tag_175:\n        /* \"#utility.yul\":4453:4459   */\n      dup2\n        /* \"#utility.yul\":4449:4489   */\n      add\n        /* \"#utility.yul\":4591:4597   */\n      dup2\n        /* \"#utility.yul\":4579:4589   */\n      dup2\n        /* \"#utility.yul\":4576:4598   */\n      lt\n        /* \"#utility.yul\":4555:4573   */\n      0xffffffffffffffff\n        /* \"#utility.yul\":4543:4553   */\n      dup3\n        /* \"#utility.yul\":4540:4574   */\n      gt\n        /* \"#utility.yul\":4537:4599   */\n      or\n        /* \"#utility.yul\":4534:4622   */\n      iszero\n      tag_176\n      jumpi\n        /* \"#utility.yul\":4602:4620   */\n      tag_177\n      tag_109\n      jump\t// in\n    tag_177:\n        /* \"#utility.yul\":4534:4622   */\n    tag_176:\n        /* \"#utility.yul\":4642:4652   */\n      dup1\n        /* \"#utility.yul\":4638:4640   */\n      0x40\n        /* \"#utility.yul\":4631:4653   */\n      mstore\n        /* \"#utility.yul\":4421:4659   */\n      pop\n        /* \"#utility.yul\":4378:4659   */\n      pop\n      pop\n      jump\t// out\n        /* \"#utility.yul\":4665:4794   */\n    tag_111:\n        /* \"#utility.yul\":4699:4705   */\n      0x00\n        /* \"#utility.yul\":4726:4746   */\n      tag_179\n      tag_89\n      jump\t// in\n    tag_179:\n        /* \"#utility.yul\":4716:4746   */\n      swap1\n      pop\n        /* \"#utility.yul\":4755:4788   */\n      tag_180\n        /* \"#utility.yul\":4783:4787   */\n      dup3\n        /* \"#utility.yul\":4775:4781   */\n      dup3\n        /* \"#utility.yul\":4755:4788   */\n      tag_110\n      jump\t// in\n    tag_180:\n        /* \"#utility.yul\":4665:4794   */\n      swap2\n      swap1\n      pop\n      jump\t// out\n        /* \"#utility.yul\":4800:5108   */\n    tag_112:\n        /* \"#utility.yul\":4862:4866   */\n      0x00\n        /* \"#utility.yul\":4952:4970   */\n      0xffffffffffffffff\n        /* \"#utility.yul\":4944:4950   */\n      dup3\n        /* \"#utility.yul\":4941:4971   */\n      gt\n        /* \"#utility.yul\":4938:4994   */\n      iszero\n      tag_182\n      jumpi\n        /* \"#utility.yul\":4974:4992   */\n      tag_183\n      tag_109\n      jump\t// in\n    tag_183:\n        /* \"#utility.yul\":4938:4994   */\n    tag_182:\n        /* \"#utility.yul\":5012:5041   */\n      tag_184\n        /* \"#utility.yul\":5034:5040   */\n      dup3\n        /* \"#utility.yul\":5012:5041   */\n      tag_98\n      jump\t// in\n    tag_184:\n        /* \"#utility.yul\":5004:5041   */\n      swap1\n      pop\n        /* \"#utility.yul\":5096:5100   */\n      0x20\n        /* \"#utility.yul\":5090:5094   */\n      dup2\n        /* \"#utility.yul\":5086:5101   */\n      add\n        /* \"#utility.yul\":5078:5101   */\n      swap1\n      pop\n        /* \"#utility.yul\":4800:5108   */\n      swap2\n      swap1\n      pop\n      jump\t// out\n        /* \"#utility.yul\":5114:5268   */\n    tag_113:\n        /* \"#utility.yul\":5198:5204   */\n      dup3\n        /* \"#utility.yul\":5193:5196   */\n      dup2\n        /* \"#utility.yul\":5188:5191   */\n      dup4\n        /* \"#utility.yul\":5175:5205   */\n      calldatacopy\n        /* \"#utility.yul\":5260:5261   */\n      0x00\n        /* \"#utility.yul\":5251:5257   */\n      dup4\n        /* \"#utility.yul\":5246:5249   */\n      dup4\n        /* \"#utility.yul\":5242:5258   */\n      add\n        /* \"#utility.yul\":5235:5262   */\n      mstore\n        /* \"#utility.yul\":5114:5268   */\n      pop\n      pop\n      pop\n      jump\t// out\n        /* \"#utility.yul\":5274:5686   */\n    tag_114:\n        /* \"#utility.yul\":5352:5357   */\n      0x00\n        /* \"#utility.yul\":5377:5443   */\n      tag_187\n        /* \"#utility.yul\":5393:5442   */\n      tag_188\n        /* \"#utility.yul\":5435:5441   */\n      dup5\n        /* \"#utility.yul\":5393:5442   */\n      tag_112\n      jump\t// in\n    tag_188:\n        /* \"#utility.yul\":5377:5443   */\n      tag_111\n      jump\t// in\n    tag_187:\n        /* \"#utility.yul\":5368:5443   */\n      swap1\n      pop\n        /* \"#utility.yul\":5466:5472   */\n      dup3\n        /* \"#utility.yul\":5459:5464   */\n      dup2\n        /* \"#utility.yul\":5452:5473   */\n      mstore\n        /* \"#utility.yul\":5504:5508   */\n      0x20\n        /* \"#utility.yul\":5497:5502   */\n      dup2\n        /* \"#utility.yul\":5493:5509   */\n      add\n        /* \"#utility.yul\":5542:5545   */\n      dup5\n        /* \"#utility.yul\":5533:5539   */\n      dup5\n        /* \"#utility.yul\":5528:5531   */\n      dup5\n        /* \"#utility.yul\":5524:5540   */\n      add\n        /* \"#utility.yul\":5521:5546   */\n      gt\n        /* \"#utility.yul\":5518:5630   */\n      iszero\n      tag_189\n      jumpi\n        /* \"#utility.yul\":5549:5628   */\n      tag_190\n      tag_108\n      jump\t// in\n    tag_190:\n        /* \"#utility.yul\":5518:5630   */\n    tag_189:\n        /* \"#utility.yul\":5639:5680   */\n      tag_191\n        /* \"#utility.yul\":5673:5679   */\n      dup5\n        /* \"#utility.yul\":5668:5671   */\n      dup3\n        /* \"#utility.yul\":5663:5666   */\n      dup6\n        /* \"#utility.yul\":5639:5680   */\n      tag_113\n      jump\t// in\n    tag_191:\n        /* \"#utility.yul\":5358:5686   */\n      pop\n        /* \"#utility.yul\":5274:5686   */\n      swap4\n      swap3\n      pop\n      pop\n      pop\n      jump\t// out\n        /* \"#utility.yul\":5706:6046   */\n    tag_115:\n        /* \"#utility.yul\":5762:5767   */\n      0x00\n        /* \"#utility.yul\":5811:5814   */\n      dup3\n        /* \"#utility.yul\":5804:5808   */\n      0x1f\n        /* \"#utility.yul\":5796:5802   */\n      dup4\n        /* \"#utility.yul\":5792:5809   */\n      add\n        /* \"#utility.yul\":5788:5815   */\n      slt\n        /* \"#utility.yul\":5778:5900   */\n      tag_193\n      jumpi\n        /* \"#utility.yul\":5819:5898   */\n      tag_194\n      tag_107\n      jump\t// in\n    tag_194:\n        /* \"#utility.yul\":5778:5900   */\n    tag_193:\n        /* \"#utility.yul\":5936:5942   */\n      dup2\n        /* \"#utility.yul\":5923:5943   */\n      calldataload\n        /* \"#utility.yul\":5961:6040   */\n      tag_195\n        /* \"#utility.yul\":6036:6039   */\n      dup5\n        /* \"#utility.yul\":6028:6034   */\n      dup3\n        /* \"#utility.yul\":6021:6025   */\n      0x20\n        /* \"#utility.yul\":6013:6019   */\n      dup7\n        /* \"#utility.yul\":6009:6026   */\n      add\n        /* \"#utility.yul\":5961:6040   */\n      tag_114\n      jump\t// in\n    tag_195:\n        /* \"#utility.yul\":5952:6040   */\n      swap2\n      pop\n        /* \"#utility.yul\":5768:6046   */\n      pop\n        /* \"#utility.yul\":5706:6046   */\n      swap3\n      swap2\n      pop\n      pop\n      jump\t// out\n        /* \"#utility.yul\":6052:6706   */\n    tag_28:\n        /* \"#utility.yul\":6130:6136   */\n      0x00\n        /* \"#utility.yul\":6138:6144   */\n      dup1\n        /* \"#utility.yul\":6187:6189   */\n      0x40\n        /* \"#utility.yul\":6175:6184   */\n      dup4\n        /* \"#utility.yul\":6166:6173   */\n      dup6\n        /* \"#utility.yul\":6162:6185   */\n      sub\n        /* \"#utility.yul\":6158:6190   */\n      slt\n        /* \"#utility.yul\":6155:6274   */\n      iszero\n      tag_197\n      jumpi\n        /* \"#utility.yul\":6193:6272   */\n      tag_198\n      tag_90\n      jump\t// in\n    tag_198:\n        /* \"#utility.yul\":6155:6274   */\n    tag_197:\n        /* \"#utility.yul\":6313:6314   */\n      0x00\n        /* \"#utility.yul\":6338:6391   */\n      tag_199\n        /* \"#utility.yul\":6383:6390   */\n      dup6\n        /* \"#utility.yul\":6374:6380   */\n      dup3\n        /* \"#utility.yul\":6363:6372   */\n      dup7\n        /* \"#utility.yul\":6359:6381   */\n      add\n        /* \"#utility.yul\":6338:6391   */\n      tag_94\n      jump\t// in\n    tag_199:\n        /* \"#utility.yul\":6328:6391   */\n      swap3\n      pop\n        /* \"#utility.yul\":6284:6401   */\n      pop\n        /* \"#utility.yul\":6468:6470   */\n      0x20\n        /* \"#utility.yul\":6457:6466   */\n      dup4\n        /* \"#utility.yul\":6453:6471   */\n      add\n        /* \"#utility.yul\":6440:6472   */\n      calldataload\n        /* \"#utility.yul\":6499:6517   */\n      0xffffffffffffffff\n        /* \"#utility.yul\":6491:6497   */\n      dup2\n        /* \"#utility.yul\":6488:6518   */\n      gt\n        /* \"#utility.yul\":6485:6602   */\n      iszero\n      tag_200\n      jumpi\n        /* \"#utility.yul\":6521:6600   */\n      tag_201\n      tag_91\n      jump\t// in\n    tag_201:\n        /* \"#utility.yul\":6485:6602   */\n    tag_200:\n        /* \"#utility.yul\":6626:6689   */\n      tag_202\n        /* \"#utility.yul\":6681:6688   */\n      dup6\n        /* \"#utility.yul\":6672:6678   */\n      dup3\n        /* \"#utility.yul\":6661:6670   */\n      dup7\n        /* \"#utility.yul\":6657:6679   */\n      add\n        /* \"#utility.yul\":6626:6689   */\n      tag_115\n      jump\t// in\n    tag_202:\n        /* \"#utility.yul\":6616:6689   */\n      swap2\n      pop\n        /* \"#utility.yul\":6411:6699   */\n      pop\n        /* \"#utility.yul\":6052:6706   */\n      swap3\n      pop\n      swap3\n      swap1\n      pop\n      jump\t// out\n        /* \"#utility.yul\":6712:7032   */\n    tag_37:\n        /* \"#utility.yul\":6827:6831   */\n      0x00\n        /* \"#utility.yul\":6865:6867   */\n      0x40\n        /* \"#utility.yul\":6854:6863   */\n      dup3\n        /* \"#utility.yul\":6850:6868   */\n      add\n        /* \"#utility.yul\":6842:6868   */\n      swap1\n      pop\n        /* \"#utility.yul\":6878:6943   */\n      tag_204\n        /* \"#utility.yul\":6940:6941   */\n      0x00\n        /* \"#utility.yul\":6929:6938   */\n      dup4\n        /* \"#utility.yul\":6925:6942   */\n      add\n        /* \"#utility.yul\":6916:6922   */\n      dup6\n        /* \"#utility.yul\":6878:6943   */\n      tag_101\n      jump\t// in\n    tag_204:\n        /* \"#utility.yul\":6953:7025   */\n      tag_205\n        /* \"#utility.yul\":7021:7023   */\n      0x20\n        /* \"#utility.yul\":7010:7019   */\n      dup4\n        /* \"#utility.yul\":7006:7024   */\n      add\n        /* \"#utility.yul\":6997:7003   */\n      dup5\n        /* \"#utility.yul\":6953:7025   */\n      tag_103\n      jump\t// in\n    tag_205:\n        /* \"#utility.yul\":6712:7032   */\n      swap4\n      swap3\n      pop\n      pop\n      pop\n      jump\t// out\n        /* \"#utility.yul\":7038:7160   */\n    tag_116:\n        /* \"#utility.yul\":7111:7135   */\n      tag_207\n        /* \"#utility.yul\":7129:7134   */\n      dup2\n        /* \"#utility.yul\":7111:7135   */\n      tag_105\n      jump\t// in\n    tag_207:\n        /* \"#utility.yul\":7104:7109   */\n      dup2\n        /* \"#utility.yul\":7101:7136   */\n      eq\n        /* \"#utility.yul\":7091:7154   */\n      tag_208\n      jumpi\n        /* \"#utility.yul\":7150:7151   */\n      0x00\n        /* \"#utility.yul\":7147:7148   */\n      dup1\n        /* \"#utility.yul\":7140:7152   */\n      revert\n        /* \"#utility.yul\":7091:7154   */\n    tag_208:\n        /* \"#utility.yul\":7038:7160   */\n      pop\n      jump\t// out\n        /* \"#utility.yul\":7166:7305   */\n    tag_117:\n        /* \"#utility.yul\":7212:7217   */\n      0x00\n        /* \"#utility.yul\":7250:7256   */\n      dup2\n        /* \"#utility.yul\":7237:7257   */\n      calldataload\n        /* \"#utility.yul\":7228:7257   */\n      swap1\n      pop\n        /* \"#utility.yul\":7266:7299   */\n      tag_210\n        /* \"#utility.yul\":7293:7298   */\n      dup2\n        /* \"#utility.yul\":7266:7299   */\n      tag_116\n      jump\t// in\n    tag_210:\n        /* \"#utility.yul\":7166:7305   */\n      swap3\n      swap2\n      pop\n      pop\n      jump\t// out\n        /* \"#utility.yul\":7311:7640   */\n    tag_40:\n        /* \"#utility.yul\":7370:7376   */\n      0x00\n        /* \"#utility.yul\":7419:7421   */\n      0x20\n        /* \"#utility.yul\":7407:7416   */\n      dup3\n        /* \"#utility.yul\":7398:7405   */\n      dup5\n        /* \"#utility.yul\":7394:7417   */\n      sub\n        /* \"#utility.yul\":7390:7422   */\n      slt\n        /* \"#utility.yul\":7387:7506   */\n      iszero\n      tag_212\n      jumpi\n        /* \"#utility.yul\":7425:7504   */\n      tag_213\n      tag_90\n      jump\t// in\n    tag_213:\n        /* \"#utility.yul\":7387:7506   */\n    tag_212:\n        /* \"#utility.yul\":7545:7546   */\n      0x00\n        /* \"#utility.yul\":7570:7623   */\n      tag_214\n        /* \"#utility.yul\":7615:7622   */\n      dup5\n        /* \"#utility.yul\":7606:7612   */\n      dup3\n        /* \"#utility.yul\":7595:7604   */\n      dup6\n        /* \"#utility.yul\":7591:7613   */\n      add\n        /* \"#utility.yul\":7570:7623   */\n      tag_117\n      jump\t// in\n    tag_214:\n        /* \"#utility.yul\":7560:7623   */\n      swap2\n      pop\n        /* \"#utility.yul\":7516:7633   */\n      pop\n        /* \"#utility.yul\":7311:7640   */\n      swap3\n      swap2\n      pop\n      pop\n      jump\t// out\n        /* \"#utility.yul\":7646:7826   */\n    tag_118:\n        /* \"#utility.yul\":7694:7771   */\n      0x4e487b7100000000000000000000000000000000000000000000000000000000\n        /* \"#utility.yul\":7691:7692   */\n      0x00\n        /* \"#utility.yul\":7684:7772   */\n      mstore\n        /* \"#utility.yul\":7791:7795   */\n      0x22\n        /* \"#utility.yul\":7788:7789   */\n      0x04\n        /* \"#utility.yul\":7781:7796   */\n      mstore\n        /* \"#utility.yul\":7815:7819   */\n      0x24\n        /* \"#utility.yul\":7812:7813   */\n      0x00\n        /* \"#utility.yul\":7805:7820   */\n      revert\n        /* \"#utility.yul\":7832:8152   */\n    tag_44:\n        /* \"#utility.yul\":7876:7882   */\n      0x00\n        /* \"#utility.yul\":7913:7914   */\n      0x02\n        /* \"#utility.yul\":7907:7911   */\n      dup3\n        /* \"#utility.yul\":7903:7915   */\n      div\n        /* \"#utility.yul\":7893:7915   */\n      swap1\n      pop\n        /* \"#utility.yul\":7960:7961   */\n      0x01\n        /* \"#utility.yul\":7954:7958   */\n      dup3\n        /* \"#utility.yul\":7950:7962   */\n      and\n        /* \"#utility.yul\":7981:7999   */\n      dup1\n        /* \"#utility.yul\":7971:8052   */\n      tag_217\n      jumpi\n        /* \"#utility.yul\":8037:8041   */\n      0x7f\n        /* \"#utility.yul\":8029:8035   */\n      dup3\n        /* \"#utility.yul\":8025:8042   */\n      and\n        /* \"#utility.yul\":8015:8042   */\n      swap2\n      pop\n        /* \"#utility.yul\":7971:8052   */\n    tag_217:\n        /* \"#utility.yul\":8099:8101   */\n      0x20\n        /* \"#utility.yul\":8091:8097   */\n      dup3\n        /* \"#utility.yul\":8088:8102   */\n      lt\n        /* \"#utility.yul\":8068:8086   */\n      dup2\n        /* \"#utility.yul\":8065:8103   */\n      eq\n        /* \"#utility.yul\":8062:8146   */\n      iszero\n      tag_218\n      jumpi\n        /* \"#utility.yul\":8118:8136   */\n      tag_219\n      tag_118\n      jump\t// in\n    tag_219:\n        /* \"#utility.yul\":8062:8146   */\n    tag_218:\n        /* \"#utility.yul\":7883:8152   */\n      pop\n        /* \"#utility.yul\":7832:8152   */\n      swap2\n      swap1\n      pop\n      jump\t// out\n        /* \"#utility.yul\":8158:8338   */\n    tag_59:\n        /* \"#utility.yul\":8206:8283   */\n      0x4e487b7100000000000000000000000000000000000000000000000000000000\n        /* \"#utility.yul\":8203:8204   */\n      0x00\n        /* \"#utility.yul\":8196:8284   */\n      mstore\n        /* \"#utility.yul\":8303:8307   */\n      0x21\n        /* \"#utility.yul\":8300:8301   */\n      0x04\n        /* \"#utility.yul\":8293:8308   */\n      mstore\n        /* \"#utility.yul\":8327:8331   */\n      0x24\n        /* \"#utility.yul\":8324:8325   */\n      0x00\n        /* \"#utility.yul\":8317:8332   */\n      revert\n        /* \"#utility.yul\":8344:8430   */\n    tag_119:\n        /* \"#utility.yul\":8379:8386   */\n      0x00\n        /* \"#utility.yul\":8419:8423   */\n      0xff\n        /* \"#utility.yul\":8412:8417   */\n      dup3\n        /* \"#utility.yul\":8408:8424   */\n      and\n        /* \"#utility.yul\":8397:8424   */\n      swap1\n      pop\n        /* \"#utility.yul\":8344:8430   */\n      swap2\n      swap1\n      pop\n      jump\t// out\n        /* \"#utility.yul\":8436:8548   */\n    tag_120:\n        /* \"#utility.yul\":8519:8541   */\n      tag_223\n        /* \"#utility.yul\":8535:8540   */\n      dup2\n        /* \"#utility.yul\":8519:8541   */\n      tag_119\n      jump\t// in\n    tag_223:\n        /* \"#utility.yul\":8514:8517   */\n      dup3\n        /* \"#utility.yul\":8507:8542   */\n      mstore\n        /* \"#utility.yul\":8436:8548   */\n      pop\n      pop\n      jump\t// out\n        /* \"#utility.yul\":8554:8878   */\n    tag_61:\n        /* \"#utility.yul\":8671:8675   */\n      0x00\n        /* \"#utility.yul\":8709:8711   */\n      0x40\n        /* \"#utility.yul\":8698:8707   */\n      dup3\n        /* \"#utility.yul\":8694:8712   */\n      add\n        /* \"#utility.yul\":8686:8712   */\n      swap1\n      pop\n        /* \"#utility.yul\":8722:8789   */\n      tag_225\n        /* \"#utility.yul\":8786:8787   */\n      0x00\n        /* \"#utility.yul\":8775:8784   */\n      dup4\n        /* \"#utility.yul\":8771:8788   */\n      add\n        /* \"#utility.yul\":8762:8768   */\n      dup6\n        /* \"#utility.yul\":8722:8789   */\n      tag_120\n      jump\t// in\n    tag_225:\n        /* \"#utility.yul\":8799:8871   */\n      tag_226\n        /* \"#utility.yul\":8867:8869   */\n      0x20\n        /* \"#utility.yul\":8856:8865   */\n      dup4\n        /* \"#utility.yul\":8852:8870   */\n      add\n        /* \"#utility.yul\":8843:8849   */\n      dup5\n        /* \"#utility.yul\":8799:8871   */\n      tag_103\n      jump\t// in\n    tag_226:\n        /* \"#utility.yul\":8554:8878   */\n      swap4\n      swap3\n      pop\n      pop\n      pop\n      jump\t// out\n        /* \"#utility.yul\":8884:9050   */\n    tag_121:\n        /* \"#utility.yul\":9024:9042   */\n      0x5643206973206e6f742061637469766500000000000000000000000000000000\n        /* \"#utility.yul\":9020:9021   */\n      0x00\n        /* \"#utility.yul\":9012:9018   */\n      dup3\n        /* \"#utility.yul\":9008:9022   */\n      add\n        /* \"#utility.yul\":9001:9043   */\n      mstore\n        /* \"#utility.yul\":8884:9050   */\n      pop\n      jump\t// out\n        /* \"#utility.yul\":9056:9422   */\n    tag_122:\n        /* \"#utility.yul\":9198:9201   */\n      0x00\n        /* \"#utility.yul\":9219:9286   */\n      tag_229\n        /* \"#utility.yul\":9283:9285   */\n      0x10\n        /* \"#utility.yul\":9278:9281   */\n      dup4\n        /* \"#utility.yul\":9219:9286   */\n      tag_96\n      jump\t// in\n    tag_229:\n        /* \"#utility.yul\":9212:9286   */\n      swap2\n      pop\n        /* \"#utility.yul\":9295:9388   */\n      tag_230\n        /* \"#utility.yul\":9384:9387   */\n      dup3\n        /* \"#utility.yul\":9295:9388   */\n      tag_121\n      jump\t// in\n    tag_230:\n        /* \"#utility.yul\":9413:9415   */\n      0x20\n        /* \"#utility.yul\":9408:9411   */\n      dup3\n        /* \"#utility.yul\":9404:9416   */\n      add\n        /* \"#utility.yul\":9397:9416   */\n      swap1\n      pop\n        /* \"#utility.yul\":9056:9422   */\n      swap2\n      swap1\n      pop\n      jump\t// out\n        /* \"#utility.yul\":9428:9847   */\n    tag_65:\n        /* \"#utility.yul\":9594:9598   */\n      0x00\n        /* \"#utility.yul\":9632:9634   */\n      0x20\n        /* \"#utility.yul\":9621:9630   */\n      dup3\n        /* \"#utility.yul\":9617:9635   */\n      add\n        /* \"#utility.yul\":9609:9635   */\n      swap1\n      pop\n        /* \"#utility.yul\":9681:9690   */\n      dup2\n        /* \"#utility.yul\":9675:9679   */\n      dup2\n        /* \"#utility.yul\":9671:9691   */\n      sub\n        /* \"#utility.yul\":9667:9668   */\n      0x00\n        /* \"#utility.yul\":9656:9665   */\n      dup4\n        /* \"#utility.yul\":9652:9669   */\n      add\n        /* \"#utility.yul\":9645:9692   */\n      mstore\n        /* \"#utility.yul\":9709:9840   */\n      tag_232\n        /* \"#utility.yul\":9835:9839   */\n      dup2\n        /* \"#utility.yul\":9709:9840   */\n      tag_122\n      jump\t// in\n    tag_232:\n        /* \"#utility.yul\":9701:9840   */\n      swap1\n      pop\n        /* \"#utility.yul\":9428:9847   */\n      swap2\n      swap1\n      pop\n      jump\t// out\n        /* \"#utility.yul\":9853:10075   */\n    tag_67:\n        /* \"#utility.yul\":9946:9950   */\n      0x00\n        /* \"#utility.yul\":9984:9986   */\n      0x20\n        /* \"#utility.yul\":9973:9982   */\n      dup3\n        /* \"#utility.yul\":9969:9987   */\n      add\n        /* \"#utility.yul\":9961:9987   */\n      swap1\n      pop\n        /* \"#utility.yul\":9997:10068   */\n      tag_234\n        /* \"#utility.yul\":10065:10066   */\n      0x00\n        /* \"#utility.yul\":10054:10063   */\n      dup4\n        /* \"#utility.yul\":10050:10067   */\n      add\n        /* \"#utility.yul\":10041:10047   */\n      dup5\n        /* \"#utility.yul\":9997:10068   */\n      tag_103\n      jump\t// in\n    tag_234:\n        /* \"#utility.yul\":9853:10075   */\n      swap3\n      swap2\n      pop\n      pop\n      jump\t// out\n        /* \"#utility.yul\":10081:10305   */\n    tag_123:\n        /* \"#utility.yul\":10221:10255   */\n      0x4f6e6c7920746865206f776e65722063616e2063616c6c20746869732066756e\n        /* \"#utility.yul\":10217:10218   */\n      0x00\n        /* \"#utility.yul\":10209:10215   */\n      dup3\n        /* \"#utility.yul\":10205:10219   */\n      add\n        /* \"#utility.yul\":10198:10256   */\n      mstore\n        /* \"#utility.yul\":10290:10297   */\n      0x6374696f6e000000000000000000000000000000000000000000000000000000\n        /* \"#utility.yul\":10285:10287   */\n      0x20\n        /* \"#utility.yul\":10277:10283   */\n      dup3\n        /* \"#utility.yul\":10273:10288   */\n      add\n        /* \"#utility.yul\":10266:10298   */\n      mstore\n        /* \"#utility.yul\":10081:10305   */\n      pop\n      jump\t// out\n        /* \"#utility.yul\":10311:10677   */\n    tag_124:\n        /* \"#utility.yul\":10453:10456   */\n      0x00\n        /* \"#utility.yul\":10474:10541   */\n      tag_237\n        /* \"#utility.yul\":10538:10540   */\n      0x25\n        /* \"#utility.yul\":10533:10536   */\n      dup4\n        /* \"#utility.yul\":10474:10541   */\n      tag_96\n      jump\t// in\n    tag_237:\n        /* \"#utility.yul\":10467:10541   */\n      swap2\n      pop\n        /* \"#utility.yul\":10550:10643   */\n      tag_238\n        /* \"#utility.yul\":10639:10642   */\n      dup3\n        /* \"#utility.yul\":10550:10643   */\n      tag_123\n      jump\t// in\n    tag_238:\n        /* \"#utility.yul\":10668:10670   */\n      0x40\n        /* \"#utility.yul\":10663:10666   */\n      dup3\n        /* \"#utility.yul\":10659:10671   */\n      add\n        /* \"#utility.yul\":10652:10671   */\n      swap1\n      pop\n        /* \"#utility.yul\":10311:10677   */\n      swap2\n      swap1\n      pop\n      jump\t// out\n        /* \"#utility.yul\":10683:11102   */\n    tag_77:\n        /* \"#utility.yul\":10849:10853   */\n      0x00\n        /* \"#utility.yul\":10887:10889   */\n      0x20\n        /* \"#utility.yul\":10876:10885   */\n      dup3\n        /* \"#utility.yul\":10872:10890   */\n      add\n        /* \"#utility.yul\":10864:10890   */\n      swap1\n      pop\n        /* \"#utility.yul\":10936:10945   */\n      dup2\n        /* \"#utility.yul\":10930:10934   */\n      dup2\n        /* \"#utility.yul\":10926:10946   */\n      sub\n        /* \"#utility.yul\":10922:10923   */\n      0x00\n        /* \"#utility.yul\":10911:10920   */\n      dup4\n        /* \"#utility.yul\":10907:10924   */\n      add\n        /* \"#utility.yul\":10900:10947   */\n      mstore\n        /* \"#utility.yul\":10964:11095   */\n      tag_240\n        /* \"#utility.yul\":11090:11094   */\n      dup2\n        /* \"#utility.yul\":10964:11095   */\n      tag_124\n      jump\t// in\n    tag_240:\n        /* \"#utility.yul\":10956:11095   */\n      swap1\n      pop\n        /* \"#utility.yul\":10683:11102   */\n      swap2\n      swap1\n      pop\n      jump\t// out\n\n    auxdata: 0xa26469706673582212209a6cdf1960b3796df2ea8d32b63d8114105112e055ee03a1821445ec6e939b2a64736f6c634300080a0033\n}\n",
    "bytecode": {
      "linkReferences": {},
      "object": "608060405234801561001057600080fd5b50336000806101000a81548173ffffffffffffffffffffffffffffffffffffffff021916908373ffffffffffffffffffffffffffffffffffffffff160217905550610dae806100606000396000f3fe608060405234801561001057600080fd5b506004361061007d5760003560e01c8063929e28a61161005b578063929e28a614610102578063d5c779441461011e578063edeb57301461013a578063f2fde38b1461016b5761007d565b8063050bea28146100825780638d68915c146100b25780638da5cb5b146100e4575b600080fd5b61009c600480360381019061009791906107c1565b610187565b6040516100a99190610887565b60405180910390f35b6100cc60048036038101906100c791906107c1565b61026f565b6040516100db939291906108dd565b60405180910390f35b6100ec61032e565b6040516100f9919061095c565b60405180910390f35b61011c60048036038101906101179190610aac565b610352565b005b610138600480360381019061013391906107c1565b610424565b005b610154600480360381019061014f91906107c1565b610513565b604051610162929190610b08565b60405180910390f35b61018560048036038101906101809190610b5d565b610603565b005b60606000600160008481526020019081526020016000206040518060600160405290816000820160009054906101000a900460ff16151515158152602001600182015481526020016002820180546101de90610bb9565b80601f016020809104026020016040519081016040528092919081815260200182805461020a90610bb9565b80156102575780601f1061022c57610100808354040283529160200191610257565b820191906000526020600020905b81548152906001019060200180831161023a57829003601f168201915b50505050508152505090508060400151915050919050565b60016020528060005260406000206000915090508060000160009054906101000a900460ff16908060010154908060020180546102ab90610bb9565b80601f01602080910402602001604051908101604052809291908181526020018280546102d790610bb9565b80156103245780601f106102f957610100808354040283529160200191610324565b820191906000526020600020905b81548152906001019060200180831161030757829003601f168201915b5050505050905083565b60008054906101000a900473ffffffffffffffffffffffffffffffffffffffff1681565b60006040518060600160405280600115158152602001428152602001838152509050806001600085815260200190815260200160002060008201518160000160006101000a81548160ff0219169083151502179055506020820151816001015560408201518160020190805190602001906103ce9291906106d4565b50905050827fa65cb05b9c01ff1354ada1641e17caccab99c6f82d2212d132d99db1e31267116001600281111561040857610407610beb565b5b42604051610417929190610c36565b60405180910390a2505050565b600115156001600083815260200190815260200160002060000160009054906101000a900460ff1615151461048e576040517f08c379a000000000000000000000000000000000000000000000000000000000815260040161048590610cab565b60405180910390fd5b60006001600083815260200190815260200160002060000160006101000a81548160ff021916908315150217905550426001600083815260200190815260200160002060010181905550807f9fda63d08f50b53add90dd7acb22842e7ab1c0ef2a6396ed4f71c7bbfb2a646d426040516105089190610ccb565b60405180910390a250565b6000806000600160008581526020019081526020016000206040518060600160405290816000820160009054906101000a900460ff161515151581526020016001820154815260200160028201805461056b90610bb9565b80601f016020809104026020016040519081016040528092919081815260200182805461059790610bb9565b80156105e45780601f106105b9576101008083540402835291602001916105e4565b820191906000526020600020905b8154815290600101906020018083116105c757829003601f168201915b5050505050815250509050806000015181602001519250925050915091565b60008054906101000a900473ffffffffffffffffffffffffffffffffffffffff1673ffffffffffffffffffffffffffffffffffffffff163373ffffffffffffffffffffffffffffffffffffffff1614610691576040517f08c379a000000000000000000000000000000000000000000000000000000000815260040161068890610d58565b60405180910390fd5b806000806101000a81548173ffffffffffffffffffffffffffffffffffffffff021916908373ffffffffffffffffffffffffffffffffffffffff16021790555050565b8280546106e090610bb9565b90600052602060002090601f0160209004810192826107025760008555610749565b82601f1061071b57805160ff1916838001178555610749565b82800160010185558215610749579182015b8281111561074857825182559160200191906001019061072d565b5b509050610756919061075a565b5090565b5b8082111561077357600081600090555060010161075b565b5090565b6000604051905090565b600080fd5b600080fd5b6000819050919050565b61079e8161078b565b81146107a957600080fd5b50565b6000813590506107bb81610795565b92915050565b6000602082840312156107d7576107d6610781565b5b60006107e5848285016107ac565b91505092915050565b600081519050919050565b600082825260208201905092915050565b60005b8381101561082857808201518184015260208101905061080d565b83811115610837576000848401525b50505050565b6000601f19601f8301169050919050565b6000610859826107ee565b61086381856107f9565b935061087381856020860161080a565b61087c8161083d565b840191505092915050565b600060208201905081810360008301526108a1818461084e565b905092915050565b60008115159050919050565b6108be816108a9565b82525050565b6000819050919050565b6108d7816108c4565b82525050565b60006060820190506108f260008301866108b5565b6108ff60208301856108ce565b8181036040830152610911818461084e565b9050949350505050565b600073ffffffffffffffffffffffffffffffffffffffff82169050919050565b60006109468261091b565b9050919050565b6109568161093b565b82525050565b6000602082019050610971600083018461094d565b92915050565b600080fd5b600080fd5b7f4e487b7100000000000000000000000000000000000000000000000000000000600052604160045260246000fd5b6109b98261083d565b810181811067ffffffffffffffff821117156109d8576109d7610981565b5b80604052505050565b60006109eb610777565b90506109f782826109b0565b919050565b600067ffffffffffffffff821115610a1757610a16610981565b5b610a208261083d565b9050602081019050919050565b82818337600083830152505050565b6000610a4f610a4a846109fc565b6109e1565b905082815260208101848484011115610a6b57610a6a61097c565b5b610a76848285610a2d565b509392505050565b600082601f830112610a9357610a92610977565b5b8135610aa3848260208601610a3c565b91505092915050565b60008060408385031215610ac357610ac2610781565b5b6000610ad1858286016107ac565b925050602083013567ffffffffffffffff811115610af257610af1610786565b5b610afe85828601610a7e565b9150509250929050565b6000604082019050610b1d60008301856108b5565b610b2a60208301846108ce565b9392505050565b610b3a8161093b565b8114610b4557600080fd5b50565b600081359050610b5781610b31565b92915050565b600060208284031215610b7357610b72610781565b5b6000610b8184828501610b48565b91505092915050565b7f4e487b7100000000000000000000000000000000000000000000000000000000600052602260045260246000fd5b60006002820490506001821680610bd157607f821691505b60208210811415610be557610be4610b8a565b5b50919050565b7f4e487b7100000000000000000000000000000000000000000000000000000000600052602160045260246000fd5b600060ff82169050919050565b610c3081610c1a565b82525050565b6000604082019050610c4b6000830185610c27565b610c5860208301846108ce565b9392505050565b7f5643206973206e6f742061637469766500000000000000000000000000000000600082015250565b6000610c956010836107f9565b9150610ca082610c5f565b602082019050919050565b60006020820190508181036000830152610cc481610c88565b9050919050565b6000602082019050610ce060008301846108ce565b92915050565b7f4f6e6c7920746865206f776e65722063616e2063616c6c20746869732066756e60008201527f6374696f6e000000000000000000000000000000000000000000000000000000602082015250565b6000610d426025836107f9565b9150610d4d82610ce6565b604082019050919050565b60006020820190508181036000830152610d7181610d35565b905091905056fea26469706673582212209a6cdf1960b3796df2ea8d32b63d8114105112e055ee03a1821445ec6e939b2a64736f6c634300080a0033",
      "opcodes": "PUSH1 0x80 PUSH1 0x40 MSTORE CALLVALUE DUP1 ISZERO PUSH2 0x10 JUMPI PUSH1 0x0 DUP1 REVERT JUMPDEST POP CALLER PUSH1 0x0 DUP1 PUSH2 0x100 EXP DUP2 SLOAD DUP2 PUSH20 0xFFFFFFFFFFFFFFFFFFFFFFFFFFFFFFFFFFFFFFFF MUL NOT AND SWAP1 DUP4 PUSH20 0xFFFFFFFFFFFFFFFFFFFFFFFFFFFFFFFFFFFFFFFF AND MUL OR SWAP1 SSTORE POP PUSH2 0xDAE DUP1 PUSH2 0x60 PUSH1 0x0 CODECOPY PUSH1 0x0 RETURN INVALID PUSH1 0x80 PUSH1 0x40 MSTORE CALLVALUE DUP1 ISZERO PUSH2 0x10 JUMPI PUSH1 0x0 DUP1 REVERT JUMPDEST POP PUSH1 0x4 CALLDATASIZE LT PUSH2 0x7D JUMPI PUSH1 0x0 CALLDATALOAD PUSH1 0xE0 SHR DUP1 PUSH4 0x929E28A6 GT PUSH2 0x5B JUMPI DUP1 PUSH4 0x929E28A6 EQ PUSH2 0x102 JUMPI DUP1 PUSH4 0xD5C77944 EQ PUSH2 0x11E JUMPI DUP1 PUSH4 0xEDEB5730 EQ PUSH2 0x13A JUMPI DUP1 PUSH4 0xF2FDE38B EQ PUSH2 0x16B JUMPI PUSH2 0x7D JUMP JUMPDEST DUP1 PUSH4 0x50BEA28 EQ PUSH2 0x82 JUMPI DUP1 PUSH4 0x8D68915C EQ PUSH2 0xB2 JUMPI DUP1 PUSH4 0x8DA5CB5B EQ PUSH2 0xE4 JUMPI JUMPDEST PUSH1 0x0 DUP1 REVERT JUMPDEST PUSH2 0x9C PUSH1 0x4 DUP1 CALLDATASIZE SUB DUP2 ADD SWAP1 PUSH2 0x97 SWAP2 SWAP1 PUSH2 0x7C1 JUMP JUMPDEST PUSH2 0x187 JUMP JUMPDEST PUSH1 0x40 MLOAD PUSH2 0xA9 SWAP2 SWAP1 PUSH2 0x887 JUMP JUMPDEST PUSH1 0x40 MLOAD DUP1 SWAP2 SUB SWAP1 RETURN JUMPDEST PUSH2 0xCC PUSH1 0x4 DUP1 CALLDATASIZE SUB DUP2 ADD SWAP1 PUSH2 0xC7 SWAP2 SWAP1 PUSH2 0x7C1 JUMP JUMPDEST PUSH2 0x26F JUMP JUMPDEST PUSH1 0x40 MLOAD PUSH2 0xDB SWAP4 SWAP3 SWAP2 SWAP1 PUSH2 0x8DD JUMP JUMPDEST PUSH1 0x40 MLOAD DUP1 SWAP2 SUB SWAP1 RETURN JUMPDEST PUSH2 0xEC PUSH2 0x32E JUMP JUMPDEST PUSH1 0x40 MLOAD PUSH2 0xF9 SWAP2 SWAP1 PUSH2 0x95C JUMP JUMPDEST PUSH1 0x40 MLOAD DUP1 SWAP2 SUB SWAP1 RETURN JUMPDEST PUSH2 0x11C PUSH1 0x4 DUP1 CALLDATASIZE SUB DUP2 ADD SWAP1 PUSH2 0x117 SWAP2 SWAP1 PUSH2 0xAAC JUMP JUMPDEST PUSH2 0x352 JUMP JUMPDEST STOP JUMPDEST PUSH2 0x138 PUSH1 0x4 DUP1 CALLDATASIZE SUB DUP2 ADD SWAP1 PUSH2 0x133 SWAP2 SWAP1 PUSH2 0x7C1 JUMP JUMPDEST PUSH2 0x424 JUMP JUMPDEST STOP JUMPDEST PUSH2 0x154 PUSH1 0x4 DUP1 CALLDATASIZE SUB DUP2 ADD SWAP1 PUSH2 0x14F SWAP2 SWAP1 PUSH2 0x7C1 JUMP JUMPDEST PUSH2 0x513 JUMP JUMPDEST PUSH1 0x40 MLOAD PUSH2 0x162 SWAP3 SWAP2 SWAP1 PUSH2 0xB08 JUMP JUMPDEST PUSH1 0x40 MLOAD DUP1 SWAP2 SUB SWAP1 RETURN JUMPDEST PUSH2 0x185 PUSH1 0x4 DUP1 CALLDATASIZE SUB DUP2 ADD SWAP1 PUSH2 0x180 SWAP2 SWAP1 PUSH2 0xB5D JUMP JUMPDEST PUSH2 0x603 JUMP JUMPDEST STOP JUMPDEST PUSH1 0x60 PUSH1 0x0 PUSH1 0x1 PUSH1 0x0 DUP5 DUP2 MSTORE PUSH1 0x20 ADD SWAP1 DUP2 MSTORE PUSH1 0x20 ADD PUSH1 0x0 KECCAK256 PUSH1 0x40 MLOAD DUP1 PUSH1 0x60 ADD PUSH1 0x40 MSTORE SWAP1 DUP2 PUSH1 0x0 DUP3 ADD PUSH1 0x0 SWAP1 SLOAD SWAP1 PUSH2 0x100 EXP SWAP1 DIV PUSH1 0xFF AND ISZERO ISZERO ISZERO ISZERO DUP2 MSTORE PUSH1 0x20 ADD PUSH1 0x1 DUP3 ADD SLOAD DUP2 MSTORE PUSH1 0x20 ADD PUSH1 0x2 DUP3 ADD DUP1 SLOAD PUSH2 0x1DE SWAP1 PUSH2 0xBB9 JUMP JUMPDEST DUP1 PUSH1 0x1F ADD PUSH1 0x20 DUP1 SWAP2 DIV MUL PUSH1 0x20 ADD PUSH1 0x40 MLOAD SWAP1 DUP2 ADD PUSH1 0x40 MSTORE DUP1 SWAP3 SWAP2 SWAP1 DUP2 DUP2 MSTORE PUSH1 0x20 ADD DUP3 DUP1 SLOAD PUSH2 0x20A SWAP1 PUSH2 0xBB9 JUMP JUMPDEST DUP1 ISZERO PUSH2 0x257 JUMPI DUP1 PUSH1 0x1F LT PUSH2 0x22C JUMPI PUSH2 0x100 DUP1 DUP4 SLOAD DIV MUL DUP4 MSTORE SWAP2 PUSH1 0x20 ADD SWAP2 PUSH2 0x257 JUMP JUMPDEST DUP3 ADD SWAP2 SWAP1 PUSH1 0x0 MSTORE PUSH1 0x20 PUSH1 0x0 KECCAK256 SWAP1 JUMPDEST DUP2 SLOAD DUP2 MSTORE SWAP1 PUSH1 0x1 ADD SWAP1 PUSH1 0x20 ADD DUP1 DUP4 GT PUSH2 0x23A JUMPI DUP3 SWAP1 SUB PUSH1 0x1F AND DUP3 ADD SWAP2 JUMPDEST POP POP POP POP POP DUP2 MSTORE POP POP SWAP1 POP DUP1 PUSH1 0x40 ADD MLOAD SWAP2 POP POP SWAP2 SWAP1 POP JUMP JUMPDEST PUSH1 0x1 PUSH1 0x20 MSTORE DUP1 PUSH1 0x0 MSTORE PUSH1 0x40 PUSH1 0x0 KECCAK256 PUSH1 0x0 SWAP2 POP SWAP1 POP DUP1 PUSH1 0x0 ADD PUSH1 0x0 SWAP1 SLOAD SWAP1 PUSH2 0x100 EXP SWAP1 DIV PUSH1 0xFF AND SWAP1 DUP1 PUSH1 0x1 ADD SLOAD SWAP1 DUP1 PUSH1 0x2 ADD DUP1 SLOAD PUSH2 0x2AB SWAP1 PUSH2 0xBB9 JUMP JUMPDEST DUP1 PUSH1 0x1F ADD PUSH1 0x20 DUP1 SWAP2 DIV MUL PUSH1 0x20 ADD PUSH1 0x40 MLOAD SWAP1 DUP2 ADD PUSH1 0x40 MSTORE DUP1 SWAP3 SWAP2 SWAP1 DUP2 DUP2 MSTORE PUSH1 0x20 ADD DUP3 DUP1 SLOAD PUSH2 0x2D7 SWAP1 PUSH2 0xBB9 JUMP JUMPDEST DUP1 ISZERO PUSH2 0x324 JUMPI DUP1 PUSH1 0x1F LT PUSH2 0x2F9 JUMPI PUSH2 0x100 DUP1 DUP4 SLOAD DIV MUL DUP4 MSTORE SWAP2 PUSH1 0x20 ADD SWAP2 PUSH2 0x324 JUMP JUMPDEST DUP3 ADD SWAP2 SWAP1 PUSH1 0x0 MSTORE PUSH1 0x20 PUSH1 0x0 KECCAK256 SWAP1 JUMPDEST DUP2 SLOAD DUP2 MSTORE SWAP1 PUSH1 0x1 ADD SWAP1 PUSH1 0x20 ADD DUP1 DUP4 GT PUSH2 0x307 JUMPI DUP3 SWAP1 SUB PUSH1 0x1F AND DUP3 ADD SWAP2 JUMPDEST POP POP POP POP POP SWAP1 POP DUP4 JUMP JUMPDEST PUSH1 0x0 DUP1 SLOAD SWAP1 PUSH2 0x100 EXP SWAP1 DIV PUSH20 0xFFFFFFFFFFFFFFFFFFFFFFFFFFFFFFFFFFFFFFFF AND DUP2 JUMP JUMPDEST PUSH1 0x0 PUSH1 0x40 MLOAD DUP1 PUSH1 0x60 ADD PUSH1 0x40 MSTORE DUP1 PUSH1 0x1 ISZERO ISZERO DUP2 MSTORE PUSH1 0x20 ADD TIMESTAMP DUP2 MSTORE PUSH1 0x20 ADD DUP4 DUP2 MSTORE POP SWAP1 POP DUP1 PUSH1 0x1 PUSH1 0x0 DUP6 DUP2 MSTORE PUSH1 0x20 ADD SWAP1 DUP2 MSTORE PUSH1 0x20 ADD PUSH1 0x0 KECCAK256 PUSH1 0x0 DUP3 ADD MLOAD DUP2 PUSH1 0x0 ADD PUSH1 0x0 PUSH2 0x100 EXP DUP2 SLOAD DUP2 PUSH1 0xFF MUL NOT AND SWAP1 DUP4 ISZERO ISZERO MUL OR SWAP1 SSTORE POP PUSH1 0x20 DUP3 ADD MLOAD DUP2 PUSH1 0x1 ADD SSTORE PUSH1 0x40 DUP3 ADD MLOAD DUP2 PUSH1 0x2 ADD SWAP1 DUP1 MLOAD SWAP1 PUSH1 0x20 ADD SWAP1 PUSH2 0x3CE SWAP3 SWAP2 SWAP1 PUSH2 0x6D4 JUMP JUMPDEST POP SWAP1 POP POP DUP3 PUSH32 0xA65CB05B9C01FF1354ADA1641E17CACCAB99C6F82D2212D132D99DB1E3126711 PUSH1 0x1 PUSH1 0x2 DUP2 GT ISZERO PUSH2 0x408 JUMPI PUSH2 0x407 PUSH2 0xBEB JUMP JUMPDEST JUMPDEST TIMESTAMP PUSH1 0x40 MLOAD PUSH2 0x417 SWAP3 SWAP2 SWAP1 PUSH2 0xC36 JUMP JUMPDEST PUSH1 0x40 MLOAD DUP1 SWAP2 SUB SWAP1 LOG2 POP POP POP JUMP JUMPDEST PUSH1 0x1 ISZERO ISZERO PUSH1 0x1 PUSH1 0x0 DUP4 DUP2 MSTORE PUSH1 0x20 ADD SWAP1 DUP2 MSTORE PUSH1 0x20 ADD PUSH1 0x0 KECCAK256 PUSH1 0x0 ADD PUSH1 0x0 SWAP1 SLOAD SWAP1 PUSH2 0x100 EXP SWAP1 DIV PUSH1 0xFF AND ISZERO ISZERO EQ PUSH2 0x48E JUMPI PUSH1 0x40 MLOAD PUSH32 0x8C379A000000000000000000000000000000000000000000000000000000000 DUP2 MSTORE PUSH1 0x4 ADD PUSH2 0x485 SWAP1 PUSH2 0xCAB JUMP JUMPDEST PUSH1 0x40 MLOAD DUP1 SWAP2 SUB SWAP1 REVERT JUMPDEST PUSH1 0x0 PUSH1 0x1 PUSH1 0x0 DUP4 DUP2 MSTORE PUSH1 0x20 ADD SWAP1 DUP2 MSTORE PUSH1 0x20 ADD PUSH1 0x0 KECCAK256 PUSH1 0x0 ADD PUSH1 0x0 PUSH2 0x100 EXP DUP2 SLOAD DUP2 PUSH1 0xFF MUL NOT AND SWAP1 DUP4 ISZERO ISZERO MUL OR SWAP1 SSTORE POP TIMESTAMP PUSH1 0x1 PUSH1 0x0 DUP4 DUP2 MSTORE PUSH1 0x20 ADD SWAP1 DUP2 MSTORE PUSH1 0x20 ADD PUSH1 0x0 KECCAK256 PUSH1 0x1 ADD DUP2 SWAP1 SSTORE POP DUP1 PUSH32 0x9FDA63D08F50B53ADD90DD7ACB22842E7AB1C0EF2A6396ED4F71C7BBFB2A646D TIMESTAMP PUSH1 0x40 MLOAD PUSH2 0x508 SWAP2 SWAP1 PUSH2 0xCCB JUMP JUMPDEST PUSH1 0x40 MLOAD DUP1 SWAP2 SUB SWAP1 LOG2 POP JUMP JUMPDEST PUSH1 0x0 DUP1 PUSH1 0x0 PUSH1 0x1 PUSH1 0x0 DUP6 DUP2 MSTORE PUSH1 0x20 ADD SWAP1 DUP2 MSTORE PUSH1 0x20 ADD PUSH1 0x0 KECCAK256 PUSH1 0x40 MLOAD DUP1 PUSH1 0x60 ADD PUSH1 0x40 MSTORE SWAP1 DUP2 PUSH1 0x0 DUP3 ADD PUSH1 0x0 SWAP1 SLOAD SWAP1 PUSH2 0x100 EXP SWAP1 DIV PUSH1 0xFF AND ISZERO ISZERO ISZERO ISZERO DUP2 MSTORE PUSH1 0x20 ADD PUSH1 0x1 DUP3 ADD SLOAD DUP2 MSTORE PUSH1 0x20 ADD PUSH1 0x2 DUP3 ADD DUP1 SLOAD PUSH2 0x56B SWAP1 PUSH2 0xBB9 JUMP JUMPDEST DUP1 PUSH1 0x1F ADD PUSH1 0x20 DUP1 SWAP2 DIV MUL PUSH1 0x20 ADD PUSH1 0x40 MLOAD SWAP1 DUP2 ADD PUSH1 0x40 MSTORE DUP1 SWAP3 SWAP2 SWAP1 DUP2 DUP2 MSTORE PUSH1 0x20 ADD DUP3 DUP1 SLOAD PUSH2 0x597 SWAP1 PUSH2 0xBB9 JUMP JUMPDEST DUP1 ISZERO PUSH2 0x5E4 JUMPI DUP1 PUSH1 0x1F LT PUSH2 0x5B9 JUMPI PUSH2 0x100 DUP1 DUP4 SLOAD DIV MUL DUP4 MSTORE SWAP2 PUSH1 0x20 ADD SWAP2 PUSH2 0x5E4 JUMP JUMPDEST DUP3 ADD SWAP2 SWAP1 PUSH1 0x0 MSTORE PUSH1 0x20 PUSH1 0x0 KECCAK256 SWAP1 JUMPDEST DUP2 SLOAD DUP2 MSTORE SWAP1 PUSH1 0x1 ADD SWAP1 PUSH1 0x20 ADD DUP1 DUP4 GT PUSH2 0x5C7 JUMPI DUP3 SWAP1 SUB PUSH1 0x1F AND DUP3 ADD SWAP2 JUMPDEST POP POP POP POP POP DUP2 MSTORE POP POP SWAP1 POP DUP1 PUSH1 0x0 ADD MLOAD DUP2 PUSH1 0x20 ADD MLOAD SWAP3 POP SWAP3 POP POP SWAP2 POP SWAP2 JUMP JUMPDEST PUSH1 0x0 DUP1 SLOAD SWAP1 PUSH2 0x100 EXP SWAP1 DIV PUSH20 0xFFFFFFFFFFFFFFFFFFFFFFFFFFFFFFFFFFFFFFFF AND PUSH20 0xFFFFFFFFFFFFFFFFFFFFFFFFFFFFFFFFFFFFFFFF AND CALLER PUSH20 0xFFFFFFFFFFFFFFFFFFFFFFFFFFFFFFFFFFFFFFFF AND EQ PUSH2 0x691 JUMPI PUSH1 0x40 MLOAD PUSH32 0x8C379A000000000000000000000000000000000000000000000000000000000 DUP2 MSTORE PUSH1 0x4 ADD PUSH2 0x688 SWAP1 PUSH2 0xD58 JUMP JUMPDEST PUSH1 0x40 MLOAD DUP1 SWAP2 SUB SWAP1 REVERT JUMPDEST DUP1 PUSH1 0x0 DUP1 PUSH2 0x100 EXP DUP2 SLOAD DUP2 PUSH20 0xFFFFFFFFFFFFFFFFFFFFFFFFFFFFFFFFFFFFFFFF MUL NOT AND SWAP1 DUP4 PUSH20 0xFFFFFFFFFFFFFFFFFFFFFFFFFFFFFFFFFFFFFFFF AND MUL OR SWAP1 SSTORE POP POP JUMP JUMPDEST DUP3 DUP1 SLOAD PUSH2 0x6E0 SWAP1 PUSH2 0xBB9 JUMP JUMPDEST SWAP1 PUSH1 0x0 MSTORE PUSH1 0x20 PUSH1 0x0 KECCAK256 SWAP1 PUSH1 0x1F ADD PUSH1 0x20 SWAP1 DIV DUP2 ADD SWAP3 DUP3 PUSH2 0x702 JUMPI PUSH1 0x0 DUP6 SSTORE PUSH2 0x749 JUMP JUMPDEST DUP3 PUSH1 0x1F LT PUSH2 0x71B JUMPI DUP1 MLOAD PUSH1 0xFF NOT AND DUP4 DUP1 ADD OR DUP6 SSTORE PUSH2 0x749 JUMP JUMPDEST DUP3 DUP1 ADD PUSH1 0x1 ADD DUP6 SSTORE DUP3 ISZERO PUSH2 0x749 JUMPI SWAP2 DUP3 ADD JUMPDEST DUP3 DUP2 GT ISZERO PUSH2 0x748 JUMPI DUP3 MLOAD DUP3 SSTORE SWAP2 PUSH1 0x20 ADD SWAP2 SWAP1 PUSH1 0x1 ADD SWAP1 PUSH2 0x72D JUMP JUMPDEST JUMPDEST POP SWAP1 POP PUSH2 0x756 SWAP2 SWAP1 PUSH2 0x75A JUMP JUMPDEST POP SWAP1 JUMP JUMPDEST JUMPDEST DUP1 DUP3 GT ISZERO PUSH2 0x773 JUMPI PUSH1 0x0 DUP2 PUSH1 0x0 SWAP1 SSTORE POP PUSH1 0x1 ADD PUSH2 0x75B JUMP JUMPDEST POP SWAP1 JUMP JUMPDEST PUSH1 0x0 PUSH1 0x40 MLOAD SWAP1 POP SWAP1 JUMP JUMPDEST PUSH1 0x0 DUP1 REVERT JUMPDEST PUSH1 0x0 DUP1 REVERT JUMPDEST PUSH1 0x0 DUP2 SWAP1 POP SWAP2 SWAP1 POP JUMP JUMPDEST PUSH2 0x79E DUP2 PUSH2 0x78B JUMP JUMPDEST DUP2 EQ PUSH2 0x7A9 JUMPI PUSH1 0x0 DUP1 REVERT JUMPDEST POP JUMP JUMPDEST PUSH1 0x0 DUP2 CALLDATALOAD SWAP1 POP PUSH2 0x7BB DUP2 PUSH2 0x795 JUMP JUMPDEST SWAP3 SWAP2 POP POP JUMP JUMPDEST PUSH1 0x0 PUSH1 0x20 DUP3 DUP5 SUB SLT ISZERO PUSH2 0x7D7 JUMPI PUSH2 0x7D6 PUSH2 0x781 JUMP JUMPDEST JUMPDEST PUSH1 0x0 PUSH2 0x7E5 DUP5 DUP3 DUP6 ADD PUSH2 0x7AC JUMP JUMPDEST SWAP2 POP POP SWAP3 SWAP2 POP POP JUMP JUMPDEST PUSH1 0x0 DUP2 MLOAD SWAP1 POP SWAP2 SWAP1 POP JUMP JUMPDEST PUSH1 0x0 DUP3 DUP3 MSTORE PUSH1 0x20 DUP3 ADD SWAP1 POP SWAP3 SWAP2 POP POP JUMP JUMPDEST PUSH1 0x0 JUMPDEST DUP4 DUP2 LT ISZERO PUSH2 0x828 JUMPI DUP1 DUP3 ADD MLOAD DUP2 DUP5 ADD MSTORE PUSH1 0x20 DUP2 ADD SWAP1 POP PUSH2 0x80D JUMP JUMPDEST DUP4 DUP2 GT ISZERO PUSH2 0x837 JUMPI PUSH1 0x0 DUP5 DUP5 ADD MSTORE JUMPDEST POP POP POP POP JUMP JUMPDEST PUSH1 0x0 PUSH1 0x1F NOT PUSH1 0x1F DUP4 ADD AND SWAP1 POP SWAP2 SWAP1 POP JUMP JUMPDEST PUSH1 0x0 PUSH2 0x859 DUP3 PUSH2 0x7EE JUMP JUMPDEST PUSH2 0x863 DUP2 DUP6 PUSH2 0x7F9 JUMP JUMPDEST SWAP4 POP PUSH2 0x873 DUP2 DUP6 PUSH1 0x20 DUP7 ADD PUSH2 0x80A JUMP JUMPDEST PUSH2 0x87C DUP2 PUSH2 0x83D JUMP JUMPDEST DUP5 ADD SWAP2 POP POP SWAP3 SWAP2 POP POP JUMP JUMPDEST PUSH1 0x0 PUSH1 0x20 DUP3 ADD SWAP1 POP DUP2 DUP2 SUB PUSH1 0x0 DUP4 ADD MSTORE PUSH2 0x8A1 DUP2 DUP5 PUSH2 0x84E JUMP JUMPDEST SWAP1 POP SWAP3 SWAP2 POP POP JUMP JUMPDEST PUSH1 0x0 DUP2 ISZERO ISZERO SWAP1 POP SWAP2 SWAP1 POP JUMP JUMPDEST PUSH2 0x8BE DUP2 PUSH2 0x8A9 JUMP JUMPDEST DUP3 MSTORE POP POP JUMP JUMPDEST PUSH1 0x0 DUP2 SWAP1 POP SWAP2 SWAP1 POP JUMP JUMPDEST PUSH2 0x8D7 DUP2 PUSH2 0x8C4 JUMP JUMPDEST DUP3 MSTORE POP POP JUMP JUMPDEST PUSH1 0x0 PUSH1 0x60 DUP3 ADD SWAP1 POP PUSH2 0x8F2 PUSH1 0x0 DUP4 ADD DUP7 PUSH2 0x8B5 JUMP JUMPDEST PUSH2 0x8FF PUSH1 0x20 DUP4 ADD DUP6 PUSH2 0x8CE JUMP JUMPDEST DUP2 DUP2 SUB PUSH1 0x40 DUP4 ADD MSTORE PUSH2 0x911 DUP2 DUP5 PUSH2 0x84E JUMP JUMPDEST SWAP1 POP SWAP5 SWAP4 POP POP POP POP JUMP JUMPDEST PUSH1 0x0 PUSH20 0xFFFFFFFFFFFFFFFFFFFFFFFFFFFFFFFFFFFFFFFF DUP3 AND SWAP1 POP SWAP2 SWAP1 POP JUMP JUMPDEST PUSH1 0x0 PUSH2 0x946 DUP3 PUSH2 0x91B JUMP JUMPDEST SWAP1 POP SWAP2 SWAP1 POP JUMP JUMPDEST PUSH2 0x956 DUP2 PUSH2 0x93B JUMP JUMPDEST DUP3 MSTORE POP POP JUMP JUMPDEST PUSH1 0x0 PUSH1 0x20 DUP3 ADD SWAP1 POP PUSH2 0x971 PUSH1 0x0 DUP4 ADD DUP5 PUSH2 0x94D JUMP JUMPDEST SWAP3 SWAP2 POP POP JUMP JUMPDEST PUSH1 0x0 DUP1 REVERT JUMPDEST PUSH1 0x0 DUP1 REVERT JUMPDEST PUSH32 0x4E487B7100000000000000000000000000000000000000000000000000000000 PUSH1 0x0 MSTORE PUSH1 0x41 PUSH1 0x4 MSTORE PUSH1 0x24 PUSH1 0x0 REVERT JUMPDEST PUSH2 0x9B9 DUP3 PUSH2 0x83D JUMP JUMPDEST DUP2 ADD DUP2 DUP2 LT PUSH8 0xFFFFFFFFFFFFFFFF DUP3 GT OR ISZERO PUSH2 0x9D8 JUMPI PUSH2 0x9D7 PUSH2 0x981 JUMP JUMPDEST JUMPDEST DUP1 PUSH1 0x40 MSTORE POP POP POP JUMP JUMPDEST PUSH1 0x0 PUSH2 0x9EB PUSH2 0x777 JUMP JUMPDEST SWAP1 POP PUSH2 0x9F7 DUP3 DUP3 PUSH2 0x9B0 JUMP JUMPDEST SWAP2 SWAP1 POP JUMP JUMPDEST PUSH1 0x0 PUSH8 0xFFFFFFFFFFFFFFFF DUP3 GT ISZERO PUSH2 0xA17 JUMPI PUSH2 0xA16 PUSH2 0x981 JUMP JUMPDEST JUMPDEST PUSH2 0xA20 DUP3 PUSH2 0x83D JUMP JUMPDEST SWAP1 POP PUSH1 0x20 DUP2 ADD SWAP1 POP SWAP2 SWAP1 POP JUMP JUMPDEST DUP3 DUP2 DUP4 CALLDATACOPY PUSH1 0x0 DUP4 DUP4 ADD MSTORE POP POP POP JUMP JUMPDEST PUSH1 0x0 PUSH2 0xA4F PUSH2 0xA4A DUP5 PUSH2 0x9FC JUMP JUMPDEST PUSH2 0x9E1 JUMP JUMPDEST SWAP1 POP DUP3 DUP2 MSTORE PUSH1 0x20 DUP2 ADD DUP5 DUP5 DUP5 ADD GT ISZERO PUSH2 0xA6B JUMPI PUSH2 0xA6A PUSH2 0x97C JUMP JUMPDEST JUMPDEST PUSH2 0xA76 DUP5 DUP3 DUP6 PUSH2 0xA2D JUMP JUMPDEST POP SWAP4 SWAP3 POP POP POP JUMP JUMPDEST PUSH1 0x0 DUP3 PUSH1 0x1F DUP4 ADD SLT PUSH2 0xA93 JUMPI PUSH2 0xA92 PUSH2 0x977 JUMP JUMPDEST JUMPDEST DUP2 CALLDATALOAD PUSH2 0xAA3 DUP5 DUP3 PUSH1 0x20 DUP7 ADD PUSH2 0xA3C JUMP JUMPDEST SWAP2 POP POP SWAP3 SWAP2 POP POP JUMP JUMPDEST PUSH1 0x0 DUP1 PUSH1 0x40 DUP4 DUP6 SUB SLT ISZERO PUSH2 0xAC3 JUMPI PUSH2 0xAC2 PUSH2 0x781 JUMP JUMPDEST JUMPDEST PUSH1 0x0 PUSH2 0xAD1 DUP6 DUP3 DUP7 ADD PUSH2 0x7AC JUMP JUMPDEST SWAP3 POP POP PUSH1 0x20 DUP4 ADD CALLDATALOAD PUSH8 0xFFFFFFFFFFFFFFFF DUP2 GT ISZERO PUSH2 0xAF2 JUMPI PUSH2 0xAF1 PUSH2 0x786 JUMP JUMPDEST JUMPDEST PUSH2 0xAFE DUP6 DUP3 DUP7 ADD PUSH2 0xA7E JUMP JUMPDEST SWAP2 POP POP SWAP3 POP SWAP3 SWAP1 POP JUMP JUMPDEST PUSH1 0x0 PUSH1 0x40 DUP3 ADD SWAP1 POP PUSH2 0xB1D PUSH1 0x0 DUP4 ADD DUP6 PUSH2 0x8B5 JUMP JUMPDEST PUSH2 0xB2A PUSH1 0x20 DUP4 ADD DUP5 PUSH2 0x8CE JUMP JUMPDEST SWAP4 SWAP3 POP POP POP JUMP JUMPDEST PUSH2 0xB3A DUP2 PUSH2 0x93B JUMP JUMPDEST DUP2 EQ PUSH2 0xB45 JUMPI PUSH1 0x0 DUP1 REVERT JUMPDEST POP JUMP JUMPDEST PUSH1 0x0 DUP2 CALLDATALOAD SWAP1 POP PUSH2 0xB57 DUP2 PUSH2 0xB31 JUMP JUMPDEST SWAP3 SWAP2 POP POP JUMP JUMPDEST PUSH1 0x0 PUSH1 0x20 DUP3 DUP5 SUB SLT ISZERO PUSH2 0xB73 JUMPI PUSH2 0xB72 PUSH2 0x781 JUMP JUMPDEST JUMPDEST PUSH1 0x0 PUSH2 0xB81 DUP5 DUP3 DUP6 ADD PUSH2 0xB48 JUMP JUMPDEST SWAP2 POP POP SWAP3 SWAP2 POP POP JUMP JUMPDEST PUSH32 0x4E487B7100000000000000000000000000000000000000000000000000000000 PUSH1 0x0 MSTORE PUSH1 0x22 PUSH1 0x4 MSTORE PUSH1 0x24 PUSH1 0x0 REVERT JUMPDEST PUSH1 0x0 PUSH1 0x2 DUP3 DIV SWAP1 POP PUSH1 0x1 DUP3 AND DUP1 PUSH2 0xBD1 JUMPI PUSH1 0x7F DUP3 AND SWAP2 POP JUMPDEST PUSH1 0x20 DUP3 LT DUP2 EQ ISZERO PUSH2 0xBE5 JUMPI PUSH2 0xBE4 PUSH2 0xB8A JUMP JUMPDEST JUMPDEST POP SWAP2 SWAP1 POP JUMP JUMPDEST PUSH32 0x4E487B7100000000000000000000000000000000000000000000000000000000 PUSH1 0x0 MSTORE PUSH1 0x21 PUSH1 0x4 MSTORE PUSH1 0x24 PUSH1 0x0 REVERT JUMPDEST PUSH1 0x0 PUSH1 0xFF DUP3 AND SWAP1 POP SWAP2 SWAP1 POP JUMP JUMPDEST PUSH2 0xC30 DUP2 PUSH2 0xC1A JUMP JUMPDEST DUP3 MSTORE POP POP JUMP JUMPDEST PUSH1 0x0 PUSH1 0x40 DUP3 ADD SWAP1 POP PUSH2 0xC4B PUSH1 0x0 DUP4 ADD DUP6 PUSH2 0xC27 JUMP JUMPDEST PUSH2 0xC58 PUSH1 0x20 DUP4 ADD DUP5 PUSH2 0x8CE JUMP JUMPDEST SWAP4 SWAP3 POP POP POP JUMP JUMPDEST PUSH32 0x5643206973206E6F742061637469766500000000000000000000000000000000 PUSH1 0x0 DUP3 ADD MSTORE POP JUMP JUMPDEST PUSH1 0x0 PUSH2 0xC95 PUSH1 0x10 DUP4 PUSH2 0x7F9 JUMP JUMPDEST SWAP2 POP PUSH2 0xCA0 DUP3 PUSH2 0xC5F JUMP JUMPDEST PUSH1 0x20 DUP3 ADD SWAP1 POP SWAP2 SWAP1 POP JUMP JUMPDEST PUSH1 0x0 PUSH1 0x20 DUP3 ADD SWAP1 POP DUP2 DUP2 SUB PUSH1 0x0 DUP4 ADD MSTORE PUSH2 0xCC4 DUP2 PUSH2 0xC88 JUMP JUMPDEST SWAP1 POP SWAP2 SWAP1 POP JUMP JUMPDEST PUSH1 0x0 PUSH1 0x20 DUP3 ADD SWAP1 POP PUSH2 0xCE0 PUSH1 0x0 DUP4 ADD DUP5 PUSH2 0x8CE JUMP JUMPDEST SWAP3 SWAP2 POP POP JUMP JUMPDEST PUSH32 0x4F6E6C7920746865206F776E65722063616E2063616C6C20746869732066756E PUSH1 0x0 DUP3 ADD MSTORE PUSH32 0x6374696F6E000000000000000000000000000000000000000000000000000000 PUSH1 0x20 DUP3 ADD MSTORE POP JUMP JUMPDEST PUSH1 0x0 PUSH2 0xD42 PUSH1 0x25 DUP4 PUSH2 0x7F9 JUMP JUMPDEST SWAP2 POP PUSH2 0xD4D DUP3 PUSH2 0xCE6 JUMP JUMPDEST PUSH1 0x40 DUP3 ADD SWAP1 POP SWAP2 SWAP1 POP JUMP JUMPDEST PUSH1 0x0 PUSH1 0x20 DUP3 ADD SWAP1 POP DUP2 DUP2 SUB PUSH1 0x0 DUP4 ADD MSTORE PUSH2 0xD71 DUP2 PUSH2 0xD35 JUMP JUMPDEST SWAP1 POP SWAP2 SWAP1 POP JUMP INVALID LOG2 PUSH5 0x6970667358 0x22 SLT KECCAK256 SWAP11 PUSH13 0xDF1960B3796DF2EA8D32B63D81 EQ LT MLOAD SLT 0xE0 SSTORE 0xEE SUB LOG1 DUP3 EQ GASLIMIT 0xEC PUSH15 0x939B2A64736F6C634300080A003300 "
    },
    "gasEstimates": {
      "creation": {
        "codeDepositCost": "700400",
        "executionCost": "25000",
        "totalCost": "725400"
      },
      "external": {
        "getVCData(bytes32)": "infinite",
        "getVCStatus(bytes32)": "infinite",
        "owner()": "2556",
        "registerVC(bytes32,string)": "infinite",
        "registeredVCs(bytes32)": "infinite",
        "revokeVC(bytes32)": "50799",
        "transferOwnership(address)": "26955"
      }
    },
    "methodIdentifiers": {
      "getVCData(bytes32)": "050bea28",
      "getVCStatus(bytes32)": "edeb5730",
      "owner()": "8da5cb5b",
      "registerVC(bytes32,string)": "929e28a6",
      "registeredVCs(bytes32)": "8d68915c",
      "revokeVC(bytes32)": "d5c77944",
      "transferOwnership(address)": "f2fde38b"
    }
  },
  "storageLayout": {
    "storage": [
      {
        "astId": 840,
        "contract": "VCRegistry.sol:VCRegistry",
        "label": "owner",
        "offset": 0,
        "slot": "0",
        "type": "t_address"
      },
      {
        "astId": 856,
        "contract": "VCRegistry.sol:VCRegistry",
        "label": "registeredVCs",
        "offset": 0,
        "slot": "1",
        "type": "t_mapping(t_bytes32,t_struct(VCEntry)851_storage)"
      }
    ],
    "types": {
      "t_address": {
        "encoding": "inplace",
        "label": "address",
        "numberOfBytes": "20"
      },
      "t_bool": {
        "encoding": "inplace",
        "label": "bool",
        "numberOfBytes": "1"
      },
      "t_bytes32": {
        "encoding": "inplace",
        "label": "bytes32",
        "numberOfBytes": "32"
      },
      "t_mapping(t_bytes32,t_struct(VCEntry)851_storage)": {
        "encoding": "mapping",
        "key": "t_bytes32",
        "label": "mapping(bytes32 => struct VCRegistry.VCEntry)",
        "numberOfBytes": "32",
        "value": "t_struct(VCEntry)851_storage"
      },
      "t_string_storage": {
        "encoding": "bytes",
        "label": "string",
        "numberOfBytes": "32"
      },
      "t_struct(VCEntry)851_storage": {
        "encoding": "inplace",
        "label": "struct VCRegistry.VCEntry",
        "members": [
          {
            "astId": 846,
            "contract": "VCRegistry.sol:VCRegistry",
            "label": "isValid",
            "offset": 0,
            "slot": "0",
            "type": "t_bool"
          },
          {
            "astId": 848,
            "contract": "VCRegistry.sol:VCRegistry",
            "label": "timestamp",
            "offset": 0,
            "slot": "1",
            "type": "t_uint256"
          },
          {
            "astId": 850,
            "contract": "VCRegistry.sol:VCRegistry",
            "label": "vcData",
            "offset": 0,
            "slot": "2",
            "type": "t_string_storage"
          }
        ],
        "numberOfBytes": "96"
      },
      "t_uint256": {
        "encoding": "inplace",
        "label": "uint256",
        "numberOfBytes": "32"
      }
    }
  },
  "userdoc": {
    "kind": "user",
    "methods": {},
    "version": 1
  }
}